:1000000000000320D1010000594800001D480000F5
:100010001D4800001D4800001D4800001D4800004C
:100020001D4800001D4800001D4800005948000000
:10003000594800001D480000594800000D480000C4
:10004000594800005948000059480000594800002C
:10005000594800005948000059480000594800001C
:10006000594800005948000059480000594800000C
:1000700059480000594800005948000059480000FC
:1000800059480000594800005948000059480000EC
:1000900059480000594800005948000059480000DC
:1000A000653A0000594800005948000059480000CE
:1000B000594800005948000059480000896600006E
:1000C000594800002D6E000059480000B57300002B
:1000D00059480000E17900005948000059480000E3
:1000E000594800005948000059480000594800008C
:1000F000594800005948000059480000594800007C
:10010000594800005948000059480000594800006B
:1001100059480000354F0000594800005948000078
:10012000594800005948000059480000594800004B
:10013000594800005948000059480000594800003B
:100140005948000059480000317F0000594800001C
:10015000594800005948000059480000594800001B
:10016000594800005948000059480000594800000B
:1001700059480000594800005948000059480000FB
:1001800059480000D12E000059480000594800008D
:100190005948000059480000918500005948000066
:1001A00059480000594800005948000059480000CB
:1001B00059480000594800005948000059480000BB
:1001C00059480000594800005948000059480000AB
:1001D0005C4B4CF2205210B51A804DF628121A8052
:1001E00000BF00BF04F03CFB574B4FF030621A6079
:1001F000564A9A60564ADA60564B4FF470021A60BB
:10020000554B564A1A60564B1A6812F4807204D144
:1002100054490A604FF4A8521A60534B1A781107D8
:1002200003D51A7842F008021A70504B504C5148CE
:10023000AA221A70504A00239918A14203D21958D1
:1002400099500433F8E74D4B4D4900228B4202D2BE
:1002500043F8042BFAE74B484B4900235A581A50ED
:100260000433B3F5E87FF9D1484B494A802103F8BC
:10027000011B9342FBD1474B424A1A60464B8A22EC
:100280001A70A3F5805324225A70A0221A709A790A
:100290009207FCD59A79D406FCD4404B9A7902F0A7
:1002A0000C02082AFAD13E4B60221A7002331A78E7
:1002B000802AFCD1394B01221A715D225A719A7938
:1002C0009006FCD59979354A4906FBD5354B364918
:1002D00019600021596020231370937903F00C03F7
:1002E0000C2BFAD1314B324A1A60324B324A1A6027
:1002F00000225A60072243F8042C304AC3F80C2D20
:1003000062B604F09DFC174B1B68DA0705D52C4834
:1003100004F0D8FB2B4B2C4A1A602C4B1B785B0645
:1003200009D5284C284A2368934204D1244804F074
:10033000C9FB002323600AF0DDFB04F097FA05F007
:100340006BFBFEE70E20054030800440823F040036
:100350000100002B88ED00E0002008E0030000858C
:1003600010D0034014D0034002D0074000E0074003
:100370004413FF1F04C600006007FF1F4413FF1F44
:100380004422FF1F0002FF1F0000000000E400E005
:1003900064E400E008ED00E0005006400040064044
:1003A00001E007404480044000000602048004404D
:1003B000C010070014E000E01FBF02000000202072
:1003C00019982E001CE00340A5C3945A00F0074082
:1003D000FFFFFFFFFFFFFFFFFFFFFFFFFFFFFFFF2D
:1003E000FFFFFFFFFFFFFFFFFFFFFFFFFFFFFFFF1D
:1003F000FFFFFFFFFFFFFFFFFFFFFFFFFFFFFFFF0D
:10040000FFFFFFFFFFFFFFFFFFFFFFFFDEF9FFFF23
:1004100010B5054C237833B9044B13B10448AFF33E
:1004200000800123237010BD4413FF1F0000000053
:1004300004C6000008B5064B1BB106480649AFF3D9
:1004400000800648036813B1054B03B1984708BD07
:100450000000000004C600004813FF1F4413FF1FE4
:1004600000000000014B0360704700BF18BB000094
:10047000704700BF037C13F0080F04D0C26A436AC0
:10048000D01A02D47047002070476FF000407047C8
:10049000014B0360704700BF18BB0000014B0360B5
:1004A000704700BF18BB000010B50446024B036044
:1004B00005F0BAFA204610BD18BB000010B504467E
:1004C000024B036005F0B0FA204610BD18BB0000D7
:1004D00010B50446024B036005F0A6FA204610BD95
:1004E00018BB000008B5103001F040FB08BD00BF8C
:1004F00000B583B002AB03F8011D1030194601228C
:1005000001F034FB03B05DF804FB00BF08B5103008
:1005100001F06CFA08BD00BF08B5103001F092F987
:1005200008BD00BF00B583B010300DF107010122F6
:1005300001F0C4F801280CBF9DF807004FF0FF3010
:1005400003B05DF804FB00BF30B58FB01B4D1C4CF1
:100550002846214601F0F2FA00238DF814308DF878
:1005600015308DF808304FF47A7203928DF8103000
:10057000144B019305A829462246632301F082FA11
:100580009DF8143053B9104C23685B6820460F491E
:100590001E229847204605F071FA0DE00EAC54F883
:1005A000343D5B6820460A496F229847204605F093
:1005B00065FA05A801F05EFA0FB030BDD01BFF1F31
:1005C00074BB000038BB0000801EFF1F88BB00000A
:1005D000A8BB000038B56F4C20464FF4FA6103F019
:1005E00077F86D4D204629464FF4164203F04CF83B
:1005F000204603F043F8606B03685B68674911228B
:1006000098470A2004F006FB20460021012203F04F
:10061000B3F80D20012104F089FA614B614A9A6018
:10062000614A5A60614A1A604FF08642DA60604B54
:10063000604A9A60604A5A60604A1A60604ADA60AA
:10064000604B614A9A60614A5A60614A1A60614A25
:10065000DA60642004F0DEFA2B685B6828465E49A5
:1006600024229847284605F009FA0A2004F0D2FA15
:100670000D20012104F036FA5848032103F086FECC
:1006800048B92B685B682846554913229847284685
:1006900005F0F4F90CE00122524B1A703E4C23682D
:1006A0005B682046504909229847204605F0E6F944
:1006B0004E480C2102F060FE50B9374C23685B684D
:1006C00020464B4913229847204605F0D7F90FE002
:1006D0000121484B1970454802F00CFE2E4C23684E
:1006E0005B682046444909229847204605F0C6F930
:1006F000424802F0FFFB18B3414C04F58C632360C1
:1007000004F23C4001F0B6F92046012102F0ACF8B9
:1007100020B92046002102F0A7F888B1384901F23B
:100720003C4000F0AFFF034650B1354A92F83C24FC
:1007300012F0700F1DBF3349334A116000234BB9CB
:10074000154C23685B68204630491E229847204696
:1007500005F094F9FFF7F8FE0F4C23685B6820461C
:100760002B490C229847204605F088F923685B68DE
:10077000204628490B229847204605F07FF9236838
:100780005B682046244912229847204605F076F9F6
:1007900038BD00BFBC1CFF1F801EFF1F18BC00001F
:1007A000F81BFF1FA0BACD423B01D9400378CB3ED6
:1007B000081CFF1F286FDD423D8AFC41D49A9640F9
:1007C0000000B143181CFF1FF1230A43590675426C
:1007D0004FAF7F4100C015442CBC0000281CFF1FF8
:1007E00054BC00007013FF1F68BC00005C1CFF1F9E
:1007F00074BC00009813FF1F88BC0000F41BFF1F8F
:100800009417FF1FD01BFF1F6C1CFF1F94BC000020
:10081000B4BC0000C4BC0000D0BC000010B5022471
:1008200004E0204604F0F6F904F0A0FF04F0EAFF2B
:100830000028F6DC10BD00BF30B585B005468DED53
:10084000000ACDED010A8DED021ACDED031A1E4C02
:10085000204605F013F92046294605F0E9F8204620
:1008600005F00CF9009809F0D1FD41EC100B204681
:10087000022105F051F9204605F000F9019809F030
:10088000C5FD41EC100B2046022105F045F920463C
:1008900005F0F4F8029809F0B9FD41EC100B204680
:1008A000022105F039F9204605F0E8F8039809F02F
:1008B000ADFD41EC100B2046022105F02DF920463C
:1008C00005F0DCF805B030BD801EFF1F2DE9F04FAC
:1008D0002DED088B89B08DED000ACDED010A8DED6F
:1008E000021ACDED031ADFF860A2AAF5707B544618
:1008F0003C26DFF88892D046924F04F5707504F5D7
:100900006C730FCB85E80F0004A8494605F07CFA0C
:1009100008EB061393ED000AD3ED010A93ED021ADA
:10092000D3ED031A04A8FFF787FF04A805F020FA07
:10093000384631460A22002305F0B0F8384605F063
:100940009DF8103C013E5C45D7D17F4C9DE80F00DF
:1009500084E80F0004F10C030AF57372DFED7B8A63
:10096000B0EE689AF0EE689AB0EE68AAD3ED007A1D
:100970003AEE27AA67EEA77A79EEA79A53ED037AA3
:1009800039EE279A67EEA77A78EEA78A103393425A
:10099000ECD16AEE09BADFED6E7A28EEA77A7BEE2B
:1009A000C7BA2AEE0ABA69EEA77A3BEE67BA8BEEAF
:1009B0008B8A684B0AF5727ADFED64AAB6EE006A9C
:1009C00013ED047AD3ED007A37EE277A27EE067A14
:1009D000D3ED016A53ED037A76EEE77A67EE277A74
:1009E0007AEEA7AA10335345EAD1564C204605F0BB
:1009F00045F823685B68204657491C2298472046E3
:100A000005F03CF823685B68204654490A22984761
:100A100018EE100A09F0FAFC41EC100B20460221F6
:100A200005F07AF8204605F029F823685B6820462F
:100A30004B49072298471BEE900A09F0E7FC41EC6E
:100A4000100B2046022105F067F8204605F016F845
:100A500023685B6820464349072298471BEE100A2B
:100A600009F0D4FC41EC100B2046022105F054F8AB
:100A7000204605F003F823685B6820463A490B22BC
:100A800098471AEE900A09F0C1FC41EC100B204681
:100A9000022105F041F8204604F0F0FF23685B686E
:100AA000204632490D2298471AEE100A09F0AEFC92
:100AB00041EC100B2046022105F02EF8204604F0F0
:100AC000DDFF23685B68204629490E22984719EE0E
:100AD000900A09F09BFC41EC100B2046022105F026
:100AE0001BF8204604F0CAFF23685B6820462149B2
:100AF0000822984719EE100A09F088FC41EC100B07
:100B00002046022105F008F8204604F0B7FF2368CC
:100B10005B68204618490D22984718EE900A09F0A4
:100B200075FC41EC100B2046022104F0F5FF204635
:100B300004F0A4FFB0EE480A09B0BDEC088BBDE894
:100B4000F08F00BF801EFF1F9C13FF1F00000000DE
:100B5000000070429415FF1FE8BC000008BD0000B3
:100B600014BD00001CBD000024BD000030BD00000D
:100B700040BD000050BD00005CBD0000E4BC0000B2
:100B80002DE9F04389B0054604A8434905F03CF936
:100B900095ED000AD5ED010A95ED021AD5ED031A7F
:100BA00004A8FFF749FE04A805F0E2F83B4803F06B
:100BB000ADFB00286BD0DFF8E490484601A903F0B4
:100BC0000DFD374C2368DFF8F0805B682046414616
:100BD0001A229847019809F019FC41EC100B2046A5
:100BE000022104F099FF23682E4F5B6820463946A6
:100BF0000D2298472C4E33680293029920460A2210
:100C0000002304F04BFF204604F038FF48469FEDD8
:100C1000270ADFED277ADDED010AC0EEA70A03F00F
:100C200007FB85ED000A23685B68204641461A22CF
:100C30009847019809F0EAFB41EC100B204602218D
:100C400004F06AFF23685B68204639460D22984706
:100C500033680393039920460A22002304F01EFF01
:100C6000204604F00BFF23685B68204611490D22E3
:100C70009847286809F0CAFB41EC100B2046022176
:100C800004F04AFF204604F0F9FE012000E00020B5
:100C900009B0BDE8F08300BF6CBD0000281CFF1F39
:100CA000801EFF1F98BD0000881DFF1F00507D445F
:100CB0000000C842A8BD00007CBD000030B58FB068
:100CC000294B1B680593DDED057A284CF8EE677A11
:100CD0009FED277AC7EE877AC4ED037A2046FFF7A7
:100CE0004FFF244B93ED000AB8EEC00AD4ED007A12
:100CF00037EEC00A84ED000AD4ED010A94ED021A21
:100D0000D4ED031AFFF7E2FD84ED010A1A4D2846DF
:100D100004F0B4FE2B685B68284618491D229847EA
:100D2000284604F0ABFE06A8154905F06DF894EDD1
:100D3000000AD4ED010A94ED021AD4ED031A06A8B4
:100D4000FFF77AFD06A805F013F894E80F000EAC43
:100D500004E90F009DED0A0ADDED0B0A9DED0C1A6A
:100D6000DDED0D1A0FB030BD881DFF1F8813FF1F6A
:100D700000007A447413FF1F801EFF1FB8BD0000DF
:100D8000D8BD00002DE9F04F2DED028BCBB006460B
:100D9000B0EE618A3DAC944D0FCD0FC40FCD0FC4A2
:100DA0002B682360914B1A680D925A680E929B68CB
:100DB0000F938DED100ACDED110A8DED121A8C4AAC
:100DC000D2ED006AF8EE667A71EEE77AFCEEE77A29
:100DD00017EE903A9BB2BCEEE17A82ED007A03FB0B
:100DE00003F207EE102AB8EEC77AF6EE007A27EE85
:100DF000277A8DED167A06EE903AB8EE667A8DED8A
:100E0000177A4FF07E5318938DED3E7A794B83FB22
:100E10000623F617C6EBE31636B2C6F1010607EE57
:100E2000106AF8EEC76A9FED740A26EE800A9FEDFD
:100E3000737A30EE070A9FED727A66EE876A36EEB5
:100E4000877A9FED706A37EE067A20EE070A9FEDEB
:100E50006E7A20EE877A60EE870A60EEA77A20EE3F
:100E6000270ADFED6A6A80EE260ADFED697A37EE3F
:100E7000C00AF2EE047AB4EEE71AF1EE10FAC4BF3B
:100E8000DFED647A30EE270A634D284616A9032267
:100E9000012303F069F80DAE032400944FF0010A1A
:100EA000CDF804A013AF029728463DA93246234649
:100EB00002F09AFFCDF800A00196284616A93A46FE
:100EC000234602F0D5FFDFF85C91009401940DF108
:100ED0008808CDF8088028463DA94A46234602F0F6
:100EE00083FF2BAF009728463DA92246234603F0F7
:100EF00017F8009401940DF1D00BCDF808B02846F6
:100F000041463A46234602F06FFF0094CDF8049024
:100F100028465946414A234602F0AAFF0094CDF8DC
:100F2000048028463E494A46234602F0A1FF28464F
:100F30004146224603F032F8009401940DF1640B0F
:100F4000CDF808B0284649464246234602F04CFFF9
:100F5000CDF800A0CDF80480284610A932462346DB
:100F600002F0B2FF0094CDF804A00297284659463B
:100F70004246234602F038FFCDF800A001962846ED
:100F800031463A46234602F073FF0094CDF804A0A0
:100F9000CDF80880284659464A46234602F024FFE9
:100FA000CDF800A0CDF80490284649464246234695
:100FB00002F08AFF0D4B0D9A1A600E9A5A600F9A32
:100FC0009A6083ED038A0FCB4AAC04E90F009DEDD4
:100FD000460ADDED470A9DED481ADDED491A4BB092
:100FE000BDEC028BBDE8F08F50BB00007813FF1FF3
:100FF0009017FF1F1F85EB51CDCCCC3E7CF2B03A51
:10100000BF65AB3C16187937CDCC9C3FCDCCA04109
:10101000C3F51CC1CDE7DA42681DFF1F6408FF1F3E
:101020004008FF1F381CFF1F10B596B08DED040A55
:10103000CDED050A8DED061ACDED071A8DED002ACE
:10104000CDED012A8DED023ACDED033A00238DF866
:1010500034308DF835308DF828304FF47A720B9299
:101060008DF83030444B09930DA84449444A63231A
:1010700000F008FD9DF8343033B1424803685B68E6
:1010800041491922984705E03E4803685B683F499B
:1010900018229847079809F0B9F941EC100B09A8F4
:1010A000022104F039FD3A4C099B5B6809A82146EE
:1010B00001229847049809F0A9F941EC100B09A8FE
:1010C000022104F029FD099B5B6809A82146012241
:1010D0009847059809F09AF941EC100B09A80221EC
:1010E00004F01AFD099B5B6809A821460122984774
:1010F000069809F08BF941EC100B09A8022104F0C5
:101100000BFD099B5B6809A82146012298470098BE
:1011100009F07CF941EC100B09A8022104F0FCFC59
:10112000099B5B6809A8214601229847019809F0AC
:101130006DF941EC100B09A8022104F0EDFC099BAC
:101140005B6809A8214601229847029809F05EF9D8
:1011500041EC100B09A8022104F0DEFC099B5B683E
:1011600009A80C490022984709A804F087FC0DA89B
:1011700000F080FC16B010BD38BB0000D01BFF1F74
:1011800074BB0000801EFF1FF0BD00000CBE0000FD
:1011900028BE0000E0BF000070B588B0244D254C8B
:1011A000254E3EE02B7843B923685B6820463146E4
:1011B00020229847204604F061FC204B1B7843B95D
:1011C00023685B6820461E4920229847204604F089
:1011D00055FCFFF773FD8DED000ACDED010A8DED95
:1011E000021ACDED031A174B1878FFF7CBFDB0EEBE
:1011F000402AF0EE602AB0EE413AF0EE613A8DED11
:10120000040ACDED050A8DED061ACDED071A9DED08
:10121000000ADDED010A9DED021ADDED031AFFF76C
:1012200003FF04F0EFFA0028BCD008B070BD00BF87
:101230007013FF1F801EFF1F2CBE00009813FF1F9E
:1012400050BE00009913FF1F70B592B004F0DAFA97
:10125000002840F3438104F089FA4238292800F23B
:101260002081DFE810F02A001E011E011E011E0170
:101270001E011E011E011E011E011E011E011E0176
:101280001E011E011E011E0131011E011E011E0153
:101290001E011E011E011E011E011E011E011E0156
:1012A0001E011E0137001E011E011E011E01FA0053
:1012B0001E011E011E011E017A00894C23685B6815
:1012C0002046884907229847204604F0D7FBFFF7BD
:1012D000A5FAF9E0824C23685B6820468249132214
:1012E0009847204604F0CAFBFFF798FA7F4E804DDE
:1012F0002EE0684631461A2202F0B8F823685B688F
:10130000204629460322984720469DED000B0221E6
:1013100004F002FC23685B68204676490422984763
:1013200020469DED020B022104F0F6FB23685B686A
:10133000204671490422984720469DED040B022166
:1013400004F0EAFB23685B6820466C490222984758
:1013500004F058FA0028CCD0B6E0614C23685B68F2
:101360002046674909229847204604F087FB654BD1
:10137000002093ED000AD3ED010A93ED021AD3ED9C
:10138000031AFFF7FFFC604C84ED000AC4ED010A6C
:1013900084ED021AC4ED031A06A85C4904F034FD7A
:1013A00094ED000AD4ED010A94ED021AD4ED031A6B
:1013B00006A8FFF741FA06A804F0DAFC544B002017
:1013C00093ED000AD3ED010A93ED021AD3ED031A4F
:1013D000FFF7D8FC84ED000AC4ED010A84ED021A7F
:1013E000C4ED031A0AA84B4904F00EFD94ED000A5F
:1013F000D4ED010A94ED021AD4ED031A0AA8FFF7FE
:101400001BFA0AA804F0B4FC434B002093ED000A39
:10141000D3ED010A93ED021AD3ED031AFFF7B2FCE4
:1014200084ED000AC4ED010A84ED021AC4ED031A2A
:101430000EA83A4904F0E8FC94ED000AD4ED010A44
:1014400094ED021AD4ED031A0EA8FFF7F5F90EA8D1
:1014500004F08EFCFFF7E2F936E0FFF7DFF9304BDE
:101460001B7813B12F4B1B7853B91D4C23685B6855
:1014700020462D4936229847204604F0FFFA23E003
:10148000174C23685B682046284914229847204659
:1014900004F0F4FA4FF4FA6003F0BCFBFFF77CFEB3
:1014A00012E00F4C23685B682046214914229847BC
:1014B000204604F0E3FA23681B6820461D4A117891
:1014C0009847204604F0DAFA054C23685B6820460A
:1014D000194912229847204604F0D0FA12B070BD84
:1014E000801EFF1F74BE00007CBE00005C1CFF1F3E
:1014F00090BE000094BE00009CBE0000A4BE000090
:10150000A8BE0000F81BFF1F6013FF1FB4BE000041
:10151000081CFF1FBCBE0000181CFF1FC4BE00003B
:101520007013FF1F9813FF1FCCBE000004BF000004
:101530001CBF0000341CFF1FD0BC000038B5164D86
:10154000284642F2657102F06DFE144C284614499B
:10155000224609F0B9FA134D28464FF0FF312822F0
:1015600001F09CFE28461049224609F0ADFA0F4AC8
:1015700000231374537413714FF47A7191601373D1
:101580000B4911600B4AD37182F83C3482F83D3428
:10159000094BC2F8603438BD281CFF1F3C08FF1FF0
:1015A000910400005C1CFF1F9D0400005C17FF1FDE
:1015B00038BB00009417FF1F90BF000008B5837868
:1015C00063F07F0383700246806852F8101F01F0B9
:1015D000F5F808BD2DE9F8430446037813F0200F11
:1015E00032D143691D4A934230D8FFF7E7FF0646E0
:1015F000002830D0A068216901F078F88046A06802
:1016000024304146052201F04BF8814600B3002109
:101610004FF4007209F0D6FDA3681F79012F0ED98F
:10162000012518680268976805EB08014A46B84723
:1016300080B10135EDB2A3681F79BD42F1D3636972
:1016400003EB4723636106E0002604E0002602E086
:10165000002600E006463046BDE8F883FFFD1F0087
:1016600010B504460A4680682430A16901F018F8D4
:10167000034628B1A08800F00F0003EB401010BD16
:10168000002010BD38B504460D46037893B90021FB
:10169000242209F097FDA560EB79102B02D0202BB6
:1016A00003D009E02023237001E0402323700120B0
:1016B000A07038BD002038BD002038BD2DE9F04FA6
:1016C00083B00446884600920378002B00F0AA807D
:1016D000827812F0010F00F0A58013F0080F08D0F7
:1016E000C2694369D31A009A9A4228BF1A460092E7
:1016F0000DE013F0200F0AD083681A894369C3EB09
:1017000042139BB2009A9A4228BF1A460092009B4D
:10171000002B00F083801E464FF0000A04F11002F7
:101720000192D3466369C3F30807227812F0200FB1
:1017300004D0A268126A02EB532922E0A06890F854
:1017400005A00AEA532AB7B9BAF1000F13D133B989
:1017500012F0400F14BF036A236A23610BE0216972
:10176000019A00F0C9FF00285CDB20B9237813F050
:10177000700F54D156E0A068216900F0B7FF00EB6C
:101780000A0937B9B6F5007F03D3A068C36A994543
:1017900013D1C7F50075AE4238BF3546A068243076
:1017A00049465A4600F07CFF014600283AD04046A0
:1017B00039442A4602F090FF29E0B6F5806F1DD328
:1017C000C6F34727227812F0200F06D10279CAEB20
:1017D0000202D2B2BA4238BF17467D02994502D8FA
:1017E0003B44994525D3A36818680368D3F80CC017
:1017F000494642463B46E04748B913E00068036863
:101800001B6849464246984760B14FF40075A844AA
:1018100063692B446361761B84D100E0009E009BCA
:10182000981B0CE0637843F0020363704FF0FF30C5
:1018300005E0243000F00AFF0028D4D1F2E703B01D
:10184000BDE8F08F70B582B00446466905690DF1B8
:1018500007010122FFF732FF012803BF9DF80700AF
:10186000666125614FF0FF3002B070BD30B583B0C6
:1018700004464369C3F3431505B171B920460DF120
:1018800007010122FFF71AFF40B2012801D0002012
:1018900009E063691F33636101E020334361A0689D
:1018A000303000EB451003B030BD00BF2DE9F041F2
:1018B00004460E4607690378002B3CD042698A42F1
:1018C0003DD011B90023036131E013F0080F03D0BC
:1018D000C1698E422FD808E013F0200F05D083682D
:1018E0001B89B1EB431F26D821E0A1688D7909350A
:1018F000501EE84006F1FF3C2CFA05F5A84200D83E
:1019000032B913F0400F14BF0B6A236A23610AE057
:101910002D1A08E0A0682169424600F0EDFE013D65
:10192000002802DC07E004F11008002DF2D1666106
:101930000120BDE8F08127610020BDE8F081012091
:10194000BDE8F081F8B504460E4615461F46002155
:10195000242209F037FCB068A060A580336AE360F8
:1019600000F1300305F00F0203EB4212D37A13F0BB
:10197000080F34D103F017032370D17A11F0180F38
:1019800004BF43F0080323709DF81830E37017F08C
:10199000320F03D0237813F0110F20D107F00F037B
:1019A000A370C36AA361918A538B43EA014117F084
:1019B000100F08D011B100F037FF80B1A37863F0A9
:1019C0007F03A37002E02162D369E36117F0200F67
:1019D00009D02046E169FFF769FF034620B90020DE
:1019E0002070034600E001231846F8BD38B50446D0
:1019F0000378002B39D090F90230002B1EDA012138
:101A0000FFF72EFE054650B30378E52B27D0237849
:101A100013F0080F1CBFE369C361238C4383638CFD
:101A20008382134B1B682BB1183005F116019847C0
:101A30002B8B6B82A37803F07F03A370A56805F15D
:101A4000240000F003FE50B105F50C7000F0FEFD1F
:101A500028B1286803685B689847034630B9637803
:101A600043F001036370002300E00123184638BDF2
:101A7000701CFF1F10B50446FFF7B8FF002323704A
:101A800010BD00BF2DE9F04192B006460C46019210
:101A9000984600238DF824308DF825300378002BEC
:101AA00044D10B7813F0700F42D0134612782F2ACE
:101AB00014D10133019313F8012B2F2AFAD02AB93C
:101AC0003046A168FFF7DEFD024632E009A8A168B2
:101AD000FFF7D8FD024600282BD009AC012701985A
:101AE00003A901AA00F06EF9024610B3019A137817
:101AF000A3B13046214603AA3B4600F0ADFB0246A7
:101B0000B8B109AC35460FCD0FC40FCD0FC42B684B
:101B100023603046FFF7AEFF09ACE0E730462146D0
:101B200003AA434600F098FB024602E0002200E0D0
:101B30000022104612B0BDE8F08100BF10B58AB097
:101B400004460A4600238DF804308DF8053001A8BC
:101B500021460223FFF796FF034618B101A800F0C3
:101B600069FA034618460AB010BD00BF2DE9F84FC8
:101B7000044688469246037813F0080F00F0BB80B5
:101B8000837813F0020F00F0B68013F0040F05D035
:101B9000E169FFF78BFE002800F0AD806369DB434D
:101BA0009A4500F2A880BAF1000F00F088805646EE
:101BB0004FF001094FF0050BA06863694579C3F345
:101BC000080715EA532521D1002F40F09C80216998
:101BD00081B104F1100200F08FFD0028C0F28B806B
:101BE000002840F095802046FFF7E8FC002840F0F0
:101BF0008F8080E0236A3BB92046FFF7DFFC002896
:101C000079D02369236283E0236181E0216900F0B8
:101C10006DFD4119002F40F08C80B6F5007F7DD31B
:101C200018E04A4600E05A46A068243000F038FD2B
:101C3000002860D0384441462A4602F04DFD2F442A
:101C4000B7F5007F34D1A068243000F0FFFC0028F5
:101C50002ED150E0B6F5806F17D3A26813795D1BC3
:101C6000EDB2C6F34723AB4228BF2B465D02D06AD4
:101C7000884202D31844884261D8A268106802687A
:101C800017694246B84798B935E0A368DA6A9142C5
:101C900005D1002283F824204FF0FF32DA62A368D6
:101CA000186803689B684246984720B34FF4007554
:101CB00063692B446361A844761B7FF47DAF63693D
:101CC000E269934205D9E361A37863F07F03A370CF
:101CD00006E01E4B1B681BB1A37863F07F03A37063
:101CE000A37813F0080F03D02046FFF77FFE10B152
:101CF0005046BDE8F88F637843F0010363704FF0FE
:101D0000FF30BDE8F88F216900F0F0FC014610E0DB
:101D1000A068216900F0EAFC01467EE7C7F500757E
:101D2000AE4238BF35466269E3699A42BFF47BAF81
:101D300077E7C7F50075AE4238BF354671E700203A
:101D400082F824004FF0FF30D06296E7701CFF1F2E
:101D5000042904D800EB4101B1F8010070470A29B9
:101D600004D8013900EB4100C088704710299DBF9D
:101D7000013100EB410080880020704700231A46A3
:101D8000510841EAC212C15C51FA82F2D2B2013367
:101D90000B2BF5D11046704738B504460D46CB687D
:101DA0001BB98968FFF76EFC38BD0021242209F0B9
:101DB00009FA102323700120A070AB68A360EB68C0
:101DC000236238BD2DE9F00F82B00378202B05D1B6
:101DD000431C184601330478202CFAD0886003781D
:101DE00023B12F2B04D00546002407E0002400E097
:101DF000002407193B4622E02F2BFAD05C2B00F081
:101E0000FA8003F0F706222E00F0F7803A2B00F05C
:101E1000F68003F0BF063C2E00F0F380A3F13E06EF
:101E2000F6B2012E40F2EF80203BDBB25E2B00F2D7
:101E3000EC80013415F8013F002BDDD1D9E71E46B7
:101E400013F8015B202DFAD02F2DF8D0166074B155
:101E50003A4612F8013D2E2B01D0202B02D1013C35
:101E6000F7D104E0FF2CC8BF002000F3DF804C60F6
:101E700000232025CA18557301330B2BFAD10023F8
:101E800000E00133C25C2E2AFBD0202AF9D01E4686
:101E9000D3F1010738BF0027651E06D4425D2E2A04
:101EA00003D0013DB5F1FF3F05D1A64207DB00207D
:101EB0000190009087E0425D2E2AF2D1F5E74FF0C5
:101EC00007090026019600964FF0080AB446AB4673
:101ED000C25C202A66D02E2A02D19D4264D122E023
:101EE000222A20D07C2A1ED0A2F12A085FFA88F884
:101EF000B8F1050F02D82D2A15D10DE0A2F13A084C
:101F00005FFA88F8B8F1050F0DD9A2F15B085FFA06
:101F100088F8B8F1020F06D9A2F121085FFA88F813
:101F2000B8F15D0F02D9AB4203D178E0AB4202D1E8
:101F300075E067465F224E456DD809E0AB4241DC53
:101F40005B464FF00A0908264FF0100A674635E055
:101F5000A2F161085FFA88F8B8F1190F08D8203AA1
:101F6000D2B2DDF8008048EA0A08CDF800800CE023
:101F7000A2F141085FFA88F8B8F1190F05D8DDF829
:101F8000048048EA0A08CDF8048006F101085FFAE7
:101F900088F80E447273B8F1060F07D881F80C80E8
:101FA00046460BE0674609E0674607E0464605E01F
:101FB0005B464FF00A0908264FF0100A0133A3428E
:101FC00086DB00E000274B7B202B20D057B1019807
:101FD000009A00EA0203002B134618BF02230B707D
:101FE000012023E0012008700B7B19447E234B73F2
:101FF00031238B731AE0002018E0002016E0002047
:1020000014E0002012E0002010E000200EE000208C
:102010000CE000200AE0B9F10A0F8FD102E0B9F11B
:102020000A0FC5D14B7B202BDCD1F2E702B0BDE813
:10203000F00F70472DE9F0438BB0044600238DF874
:1020400004308DF80530037813F0080F00F082801B
:10205000837813F0020F7FD0016A31B1806800F0FD
:10206000E3FB0346002800F0888020460121FFF7AB
:10207000F7FA0546002871D0FFF780FE0746E523F2
:102080002B7000232370A56805F1240000F0DEFA10
:10209000002871D005F50C7000F0D8FA00286BD03C
:1020A000286803685B6898470346002865D0E27893
:1020B000002A62D001A82146FFF76EFE03460028E1
:1020C0005BD0E378002B4BD001254FF000084FF098
:1020D000E509A188491B01A84901FFF7E7FB034671
:1020E00000284AD001A84146FFF7C0FB002839D09C
:1020F000C27A0F2A38D1027802F01F018D4235D101
:10210000417BB94234D180F80090A36893F8241041
:1021100041F0010183F8241012F0400F14D0A4689C
:1021200004F1240000F092FA48B104F50C7000F0BC
:102130008DFA30B1206803685B68984702E00020A0
:1021400000E00020034618E00135EDB2E378AB4231
:10215000BFD20FE0002310E000230EE000230CE0CC
:1021600000230AE0002308E0002306E0002304E047
:10217000002302E0002300E0002318460BB0BDE876
:10218000F08300BF2DE9F84F04460F460E7B4FF059
:1021900002094FF07E0A01F10D085FFA89F3012B65
:1021A00003D8BA193033937324E0796809EB01033B
:1021B0009BB2B86849B10246084412F8011B03EB10
:1021C00043134B409BB28242F7D1032E28BF032614
:1021D000321DD2B2B2420DD903F00F0110460929C7
:1021E00094BF30313731384441731B09013AD2B2C0
:1021F000B242F1D8BB1983F80DA020460021FFF7A9
:1022000055FB01254FF00B0B20462946FFF72EFB0F
:10221000014630B96078D0F1010038BF0020BDE838
:10222000F88F037853B1C37A13F0080FECD140460E
:102230005A4608F033FF0028E6D105E00120BDE84A
:10224000F88F0020BDE8F88F09F101091FFA89F91C
:10225000B9F1640FA1D1F4E72DE9F04F8FB00990E7
:102260000E4605920A9351680491337813F0700F6B
:1022700000F0D5810378002B40F0D381137813F060
:10228000030F09D001F10C027F4BA3FB02139B0843
:1022900001335FFA83FA01E04FF0010A3046002172
:1022A000FFF704FB00270B9706973C46B8460897B4
:1022B0004FF0010B059A0D32079220E04FF0000815
:1022C0001DE04FF000081AE04FF0000817E00693F9
:1022D0004FF0000813E04FF0000810E0039C4FF0AF
:1022E00000080CE0039C4FF0000808E04FF00008E5
:1022F00005E0CDF820B002E0DDF83480039C73697E
:10230000C3F34F1930465946FFF7B0FA054620B9D6
:102310007378002B00F09B8085E10378E52B00D0DB
:1023200043B9002C08BF4F4654453CBF0134E4B2CA
:1023300023B98CE0544538BF002401E0E52BBDD023
:102340002E2BBED0EA7A0F2A5AD1B8F1000F09D14C
:1023500013F0400FD3D003F01F086B7B0B93CDF825
:1023600018800AE006994A1ED2B206929342ABD177
:102370006A7B0B998A42AAD10693069A531E03EBF5
:10238000430203EB820203929146049B9342A2D93B
:1023900002F10D010C91CDF83480904603940C4667
:1023A000C8EB09012846C9B2FFF7D2FC049A91454F
:1023B00007D1DDF83480039C002818BF4FF00008D7
:1023C0009DE7FF288AD8C0B2A0F14103DBB2192BE8
:1023D0009CBF2030C0B209F1010305998A6812F848
:1023E0000920A2F14101C9B219299CBF2032D2B201
:1023F00090427FF477AFA3423FF47EAF9946CFE798
:1024000012F0080F7FF472AFB8F1000F0BD0069AEC
:10241000012A40F00A812846FFF7B0FC0B9B984246
:102420000FD000230CE1284607990B2208F036FE56
:1024300000287FF464AF05990B7813F0010F7FF447
:1024400058AF0A9A12F0800F00F0DF80EFE00A998F
:1024500001F04203422B40F0EC80002C18BFB9463B
:10246000544522D2002530462946FFF7FFF930B9FE
:102470007378002B40F0DF80544507D315E001341A
:10248000E4B2A245EFD810E04FECC44E3046FFF75F
:10249000A1F80346002800F0D380B3681B79012B14
:1024A00003D81034E4B2A245F0D8089A3AB13046C5
:1024B0000599FFF767FE0346002800F0C18030460B
:1024C0004FEA4911FFF7F2F90346002800F0B880FF
:1024D0000AF1FF3818F0FF085DD04746002548F0A4
:1024E000400A049CDDF814B0CDF810A0304629460F
:1024F000FFF7BCF98146002800F09F80B36893F88D
:10250000242042F0010283F824204745DDF810A082
:1025100018BFBA4680F800A00F23C37205730BF1F1
:102520000D00FFF72BFC89F80D0089F81A5089F887
:102530001B50DBF808100AF01F0A0AF1FF3A0AEBF9
:102540004A0E0AEB8E0E72462B468E44A24202D2EF
:102550001EF8030004E0A01A18BF6FF0000080B25C
:10256000D9B2042904D809EB4301A1F801000AE01B
:102570000A2903D809EB4301888004E010299CBF95
:1025800009EB4301C880013301320D2BDED1013F3D
:1025900017F0FF07AAD17369C3F34F193046002122
:1025A000FFF764F90446002849D00021202208F0F2
:1025B00009FE059B53F80D1F5A68216062601A8955
:1025C0009B7A2281A37205990B7803F01803237379
:1025D0001D4B1B682BB104F1100004F10E0198474C
:1025E00007E021232374282363740023A3730823A3
:1025F000E373238A63822383E389E382B36893F8D6
:10260000242042F0010283F82420CDF800800998AC
:1026100031464A460A9BFFF795F9034610E000232E
:102620000EE000230CE000230AE0002308E0002372
:1026300006E0002304E0002302E0002300E0002382
:1026400018460FB0BDE8F08F701CFF1FF8B50446A8
:10265000037813F0010F1DD000F10C0643681868D1
:1026600003689B68A168324698470546A8B123785D
:1026700013F0020F09D06368186802681969A3682B
:10268000976819443246B84730B1237823F00103E4
:10269000237002E0012500E005462846F8BD00BF92
:1026A00070B504460D46164683688B4211D0FFF77D
:1026B000CDFFB0B116F0040F08D163681868036845
:1026C0001B68294604F10C02984760B1002323706F
:1026D000A56006F0030623781E43204600F80C6B25
:1026E00070BD002070BD002070BD00BF023983792D
:1026F000994040690844704770B504460D46164637
:10270000C379202B0FD1816900F50C7001EBD51135
:102710000222FFF7C5FFD8B105F07F0550F825303C
:1027200023F070430EE0102B14D1C1F3072183690D
:1027300000F50C7019440222FFF7B2FF60B1EDB250
:1027400030F81530E1698B4208D83360012006E08B
:10275000FF2004E0FF2002E0FF2000E0002040B264
:1027600070BD00BF38B50C461546C379202B0ED17D
:10277000816900F50C7001EBD4110322FFF790FF83
:10278000B0B104F07F0440F82450012038BD102B74
:1027900010D1C1F30721836900F50C70194403229D
:1027A000FFF77EFF40B1E4B220F81450012038BD9D
:1027B000002038BD002038BD002038BD2DE9F04193
:1027C00082B0054690460F4609B9C66800E00E463D
:1027D00034460134EB699C4288BF022428462146D6
:1027E00001AAFFF789FF002804DB08B1019B1BB198
:1027F000B442EED1002613E0284621466FF0704225
:10280000FFF7B0FF064658B13FB128463946224689
:10281000FFF7A8FF10B9064602E0EC60C8F80040D8
:10282000304602B0BDE8F081F0B583B005460C46F5
:1028300000272846214601AAFFF75EFF061E0EDB91
:10284000284621463A46FFF78DFF014640B1EB6826
:102850009C4238BFEC60019C002EEAD100E00021D0
:10286000084603B0F0BD00BF38B504460023C3716D
:102870000122C260A06280F824304FF0FF32C262B1
:10288000C4F8340280F83032C0F838220D46A9B1BD
:10289000042971D8243019461A46FFF701FF002891
:1028A0006CD000EB051595F8AE3105F5D47513F035
:1028B0007F0F65D1D5F80E500DB963E0002504F106
:1028C000240029460022FFF7EBFE034600285BD0D8
:1028D000B0F80B20B2F5007F58D1027C022A57D104
:1028E000C289002A56D0407B2071421E62710022AC
:1028F000A27101280DD01146012203E012B9A17185
:10290000002038BD5200D2B20131C9B29042F5D197
:10291000A171D98A01B9596A2161DA892A44A2616F
:10292000B3F81100208102EB41022262B3F81110CA
:10293000490101F2FF1102EB61226261B3F8131049
:1029400001B9196AAA1A1144A27921FA02F2511C9A
:10295000E16140F6F4718A4203D80C23E371002050
:1029600038BD4FF6F4718A4291BF1023DB6A2362AF
:102970002023E371012038BD002038BD002038BD80
:10298000002038BD002038BD002038BD002038BDF3
:10299000002038BD002038BD044B1B680448184097
:1029A000D0F1010038BF0020704700BF30100B404D
:1029B00001000F00024B186800F00100704700BFD3
:1029C00024100B40014B1878704700BFB01CFF1F4C
:1029D00030B44FF47A7303FB00F0274B98423FD892
:1029E000012326495B001A01B1FBF2F2904238D272
:1029F000FF2BF7D935E021460132B5FBF1F4A042B7
:102A000005D2CC18102AF6D101E0194601224FF464
:102A10007A7000FB01F11948B0FBF1F11848016030
:102A20001849086820F008000860086820F47F2032
:102A300020F47F6040F46020DB0103F47F431843FF
:102A4000013A1201D2B2104308600F4A136813F022
:102A5000080FFBD00B4B1A6842F008021A6009E01D
:102A60000123064AB2FBF3F29042CED25900012272
:102A7000024DC1E730BC70474FA9AB000095BA0AC0
:102A8000B81CFF1F2C100B4024100B400120704776
:102A900070B5044602F09AF80646064D04E002F0CE
:102AA00095F8801BA84203D8A0470028F7D170BD35
:102AB000012070BD20A1070038B504460D4612481C
:102AC000FFF7E6FFC8B9114B1D6004331C601048C6
:102AD000FFF7DEFF98B90F4A11680F4B19601968AC
:102AE00011601B6813F0010F0BD00B4B1B6813F424
:102AF000702F14BF0020012038BD002038BD0020F9
:102B000038BD002038BD00BFB529000008100B40BB
:102B10009929000030100B40981CFF1FF0B585B0BC
:102B20000E461A4B1968FFF7C7FF074650B3184BFC
:102B30001B680093174B1B680193174B1B6802938C
:102B4000164B1B68039306F10F040023144D013C40
:102B50001A46002BB8BFDA1C22F0030204A9114464
:102B600013EA050203D5013A62F003020132D200F2
:102B700051F8101C21FA02F2227001330F2BE6D11A
:102B80000023F373384605B0F0BD00BF881CFF1F5B
:102B900010100B4014100B4018100B401C100B4071
:102BA0000300008008B50748074B1968FFF784FF4A
:102BB00030B1064B186880F48070C0F3002008BD67
:102BC000012008BD00001A0D881CFF1F10100B40CB
:102BD00070B504460C4B186001F0F8FF06460B4D2B
:102BE0000BE001F0F3FF801BA84204D90022064B42
:102BF0001A60012070BD03F033F9A0470028F0D11E
:102C0000014B186070BD00BFB41CFF1F20A107005E
:102C100008B50A48FFF7DCFF60B9094B1B6813F0E1
:102C2000020F09D0064B1A68064B1A4214BF002047
:102C3000012008BD002008BD002008BDC5290000F6
:102C4000981CFF1F00007F1138B504460D4615483B
:102C5000FFF71EFF38B12922134B1A70E722134BDE
:102C60001A6000231CE00122114B1A700022114B44
:102C70001A60114B1D6008331C60104A043B1A6037
:102C80000F4A34331A600F4A2C3B1A60FFF7C0FF1B
:102C9000034628B92321044A1170F121034A116027
:102CA000184638BDA52B00008808FF1F941CFF1F85
:102CB000B01CFF1F981CFF1F00100B4040000100BC
:102CC00002007F1111003A06F8B506460F46144679
:102CD0001D4612F0030F00D143B96022174B1A7042
:102CE0004FF4A572164B1A600020F8BD1548FFF787
:102CF0006FFF40B12922114B1A7040F24D12104B58
:102D00001A600020F8BD01220F4B1A7000220F4BF1
:102D10001A600F4B1C600F4B1B7803B97F020E4BE0
:102D20001F602D0445F40075043B1D600B4A3433CD
:102D30001A602C3B1E60FFF76BFFF8BD8808FF1F71
:102D4000941CFF1FA52B0000B01CFF1F981CFF1F29
:102D500000100B408C1CFF1F08100B4002007F115D
:102D600030B5ADF5017D144612F0030F10D118E017
:102D70003122114B1A7040F25122104B1A6000257B
:102D800016E0204669464FF4007201F0A5FC0FE002
:102D90000B486A460123FFF797FF05460028F0D14C
:102DA000E6E707480123FFF78FFF05460028DFD03D
:102DB00028460DF5017D30BD8808FF1F941CFF1FBC
:102DC00011003A112DE9F04106460C46154612F065
:102DD000030F10D0E3B101EB0308326817683046E7
:102DE00021462A46B847024698B1013405F50075D8
:102DF0004445F2D10DE00848FFF766FF024640B9AE
:102E00003121064B197040F26321054B196000E037
:102E100001221046BDE8F08137003A128808FF1FF2
:102E2000941CFF1F10B5ADF5007D0C4612F0030F8A
:102E300006D0684611464FF4007201F04DFC6A4618
:102E4000084821460123FFF73FFF034630B93221EE
:102E5000054A117040F2C921044A116018460DF567
:102E6000007D10BD01003A188808FF1F941CFF1F49
:102E70002DE9F04106460C46154612F0030F10D01E
:102E8000E3B101EB030832689768304621462A46D1
:102E9000B847024698B1013405F500754445F2D1B2
:102EA0000DE00848FFF710FF024640B93321064BFA
:102EB000197040F2D921054B196000E0012210463B
:102EC000BDE8F08127003A198808FF1F941CFF1FF6
:102ED0000023054A1360083A10680449086009682D
:102EE0001160034A1370704738100B40981CFF1F85
:102EF000B01CFF1F2DE9F04790B000239E4A1370CD
:102F00009E4A13709E4A13709E4A13709E4A11681F
:102F100041F04061116002F56A323032116841F4CB
:102F200000311160994A1360043213600432136057
:102F30000432136004321360043213604FF0807265
:102F4000934B1A601A46136813F0807FFBD14FF43D
:102F5000C870FFF73DFD40F243438C4A13600432D2
:102F600013604FF48861043211600432136004323C
:102F7000136004321360874A874B1A606022874BC4
:102F80001A704FF40032A3F249331A60804B1A686A
:102F900042F000621A601A46136813F0006FFBD10A
:102FA00000200146FFF788FD044638B92022734B04
:102FB0001A7040F2CD127A4B1A603CE10A24794E25
:102FC0004FF4D57530462946FFF776FD90B1764B24
:102FD0001B68B3F5D57F08D02522684B1A7040F2E4
:102FE000D3126F4B1A60002425E10122654B1A7041
:102FF0006E4F08E0013CE5D1624B1B78002B6B4F14
:1030000008BF4FF4401701F0E1FD8046684C694E5F
:10301000654D20460021FFF74FFD58B13046394637
:10302000FFF74AFD30B101F0D1FDC8EB0000624B63
:10303000984208D94322514B1A704FF4EF72584B03
:103040001A600024F7E02B68002BE2DA564B19686F
:103050005A4A11601B6813F0804F02D00122484B7E
:103060001A7057480021FFF727FD044638B921227E
:10307000424B1A704FF4F472494B1A60DBE051482E
:103080000021FFF719FD044638B922223B4B1A7084
:1030900040F2EB12424B1A60CDE0434B1B681B0C15
:1030A0001B04494A136049484949FFF737FD044664
:1030B00038B92622314B1A704FF4F872384B1A6027
:1030C000B9E044484449FFF729FD044638B92722AE
:1030D0002A4B1A7040F2F312314B1A60ABE03F48B2
:1030E000394B1968FFF7E8FC044638B92422234B12
:1030F0001A704FF4FB722A4B1A609CE02C48324B3A
:103100001968FFF7D9FC28B135480221FFF7D4FC34
:10311000044640B94022194B1A704FF4FD72204BFF
:103120001A60002487E02F4B1A6822F006021A600A
:103130001A6842F002021A604FF010121C331A6033
:103140006FF07F406946FFF77FFD90B19DF80D302D
:1031500013F0020F0DD024486946FFF775FD40B10A
:103160009DF8103003F00F03012B08BF4CF25030D4
:103170003CD046F2A81039E09C1CFF1F8808FF1FB6
:103180008C1CFF1F741CFF1F00D8004000D004409F
:103190002C100B400B007F1134100B4051E400E069
:1031A000941CFF1F00001A0810100B400000304054
:1031B00000001A370000022920A10700901CFF1F01
:1031C0000000090200001A03881CFF1F0000090903
:1031D000A01CFF1F0000090A781CFF1F00001B072E
:1031E00000001A0628100B40F1FFFF80DFF860A0F6
:1031F0000023CAF80030DFF85C90C9F80030DFF82F
:103200005880C8F800300E4F3B600E4E33600E4DB4
:103210002B60FFF7DDFB40F24343CAF80030C9F8EA
:1032200000304FF48862C8F800203B6033602B60A8
:103230000122064B1A70204610B0BDE8F08700BF8F
:103240000CD0044010D0044014D004409C1CFF1F3C
:1032500000D0044004D0044008D0044038B50546EE
:103260000C4608460021282207F0ACFF20460949F9
:103270000B2208F083FA0023E3720122E260AA68BD
:1032800022610322626163620023A361E361024B56
:10329000236238BDA8BF00000AD7233C10B4034CFA
:1032A0000460816042715DF8044B7047B8BF000054
:1032B00070B50E461546094C4179204600F062FC77
:1032C0002046314600F07EFA2046294600F07AFA80
:1032D000204600F07BFD012070BD00BF501DFF1F88
:1032E00008B50A4601733D21FFF7E2FF1E2001F0F9
:1032F00091FC08BD70B504460E46057B0021FFF722
:10330000EFFF192001F086FC204607210022FFF77D
:10331000CFFF2EB120463F218022FFF7C9FF04E0F6
:1033200020463F210022FFF7C3FF0A2001F072FC74
:1033300020462946FFF7D4FF142001F06BFC70BD36
:1033400070B505460E460B4C2046697900F01AFC14
:103350002046314600F036FA204600F037FD204680
:103360006979012200F02CFD204600F057FAC0B226
:1033700070BD00BF501DFF1FF8B504460F4625481D
:1033800000F0F4FA20460021FFF7DAFFA02809D068
:103390004FF47A7001F03EFC20460021FFF7D0FF89
:1033A000A02835D120460021FFF79AFF20463F2173
:1033B0002022FFF77DFF00250A2602E0304601F0BB
:1033C00029FC20462946FFF7BBFFA028F6D1322072
:1033D00001F020FC20463E210022FFF769FF0A2071
:1033E00001F018FC204607210022FFF761FF20466C
:1033F0003F210022FFF75CFF0A2001F00BFC204672
:103400003946FFF76DFF142001F004FC0120F8BDE0
:103410000020F8BD501DFF1F2DE9F04107460E4664
:1034200090461D46104C2046797900F0ABFB2046B3
:10343000314600F0C7F9204600F0C8FC20467979F3
:103440002A4600F0BDFC65B108F1FF346E1E58FA43
:1034500086F6054D284600F0E1F904F8010FB44264
:10346000F8D10120BDE8F081501DFF1FF0B583B0F9
:1034700004460E4615460021182207F0A3FE00233D
:103480000093ADF80430304629466A460623FFF71C
:10349000C3FF9DF801009DF8003043EA00209DF82D
:1034A00003209DF8023043EA02279DF805209DF88D
:1034B000043043EA0226083D262D00F28580DFE82D
:1034C00005F06883838383831483838383833083BA
:1034D000838383834C8383838383838383838383F3
:1034E0008383688383838383680000B206F07CFF54
:1034F0000022374B06F0DEFFC4E9000138B206F0C7
:1035000073FF0022324B06F0D5FFC4E9020130B24E
:1035100006F06AFF00222E4B06F0CCFFC4E904013E
:1035200052E000B206F060FF00222A4B07F0ECF8F0
:10353000C4E9000138B206F057FF0022254B07F01E
:10354000E3F8C4E9020130B206F04EFF0022214B3D
:1035500007F0DAF8C4E9040136E000B206F044FFEF
:1035600000221B4B06F0A6FFC4E9000138B206F0AA
:103570003BFF0022164B06F09DFFC4E9020130B26A
:1035800006F032FF0022124B06F094FFC4E904015A
:103590001AE000B206F028FF00220F4B07F0B4F843
:1035A000C4E9000138B206F01FFF00220A4B07F001
:1035B000ABF8C4E9020130B206F016FF0022064B58
:1035C00007F0A2F8C4E90401204603B0F0BD00BF33
:1035D0000000B03F00208C400000594070B588B01A
:1035E00005460C46242608460021324607F0EAFD2F
:1035F0002660AB6863600323A3600E4B1B680193D6
:10360000019B236102A829461A22FFF72FFFDDE95B
:10361000020107F009FA6061DDE9040107F004FA2C
:10362000A061DDE9060107F0FFF9E061012008B0C3
:1036300070BD00BF881DFF1F70B582B0044699B9E8
:103640000D4B1B680093009A4368D31A632B0BD869
:103650000326094D304601F0DDFA2B680093009AED
:103660006368D31A632BF5D9034B1B680193019B45
:10367000636002B070BD00BF881DFF1F08B5002148
:10368000FFF7DAFF08BD00BFF8B541631B240C4DFE
:103690000C4E0D4F02E0C82001F0BCFA2B7813F05D
:1036A000FF0F09D0337813F0030F05D03A68074BAA
:1036B0001B68D31A182B01D8013CECD1F8BD00BF10
:1036C0006C1EFF1F7C1EFF1F881DFF1F3C22FF1F5B
:1036D00008B5002383634360084609B101F09AFAF4
:1036E00008BD00BF38B504460D46406B03685B68F3
:1036F000094906229847606B29460A22002302F0F6
:10370000CDF9606B03685B68044908229847322052
:1037100001F080FA38BD00BFD0BF0000D8BF000064
:1037200070B504460D46037A23B3606B03689B684B
:1037300098470028F9D0002614E0606B0368DB6826
:103740009847C3B2632B06D0762B02D0582B09D1F1
:1037500007E0C0B270BD20462946FFF7C3FF6320D3
:1037600070BD2672606B03689B6898470028E4DC94
:10377000632070BD632070BD38B50446154621B185
:10378000012303720021FFF7CBFF257238BD00BF74
:10379000044BD878C0B2044B1B6898421CBF024B44
:1037A00018607047006006408C08FF1F08B5FFF7DF
:1037B000EFFF10F0020FFAD00222014BDA7008BDC1
:1037C000006006400B4B1B7813B90B4B1B7873B191
:1037D0000A4B1B78202B03D901230371002070476B
:1037E000581C064A1070064AD15401207047002028
:1037F000704700BF621DFF1F241DFF1F631DFF1FB9
:10380000001DFF1F704700BF024B1878024B1B784A
:10381000C01A7047611DFF1F601DFF1F074B1B78FB
:10382000074A12789A4205D9591C044A1170054A70
:10383000D05C70474FF0FF30704700BF601DFF1F26
:10384000611DFF1F281DFF1F054B1B78054A1278BD
:103850009A4286BF044AD05C4FF0FF30704700BFE9
:10386000601DFF1F611DFF1F281DFF1F08B5104BA6
:10387000DB7813F0200F0CD1122001F0D9F80D4B9A
:103880001B689BB100210C4A11700C4A10789847B4
:1038900008BD0B4A13780133DBB21370012B02D839
:1038A000084B1B7813B9122001F0C2F808BD00BF05
:1038B00000600640FC1CFF1F601DFF1F611DFF1FF5
:1038C0004C1DFF1F241DFF1F38B514460D4B1B78E0
:1038D00013B90D4B1B7893B10C4B1D78C5F1210327
:1038E000A34202D2012202711C4609482844224602
:1038F00000F0F2FE2544054B1D70204638BD002027
:1039000038BD00BF621DFF1F241DFF1F631DFF1F69
:10391000001DFF1F002202714FF47A718160027353
:10392000014A0260704700BF38C000000B4B1B68A3
:1039300013F0400F10D00A4B994203D82C22094BA8
:103940005A7006E0084B994294BF1C221222054B84
:103950005A700422034B9A71704700BF34800440B0
:103960007F1A0600006006403F420F0008B50023A2
:103970002C4A13702C4A116841F0400111602B4A07
:1039800093702B4B1B78122B04D14FF41972294BD7
:103990001A601AE0112B04D14FF41972264B1A60E9
:1039A00013E0222B04D140F26452244B1A600CE045
:1039B000082B04D140F26472214B1A6005E0302BD1
:1039C00003D14FF419721F4B1A601F4B1B78132B36
:1039D00004D14FF419721D4B1A601AE0102B04D158
:1039E0004FF419721A4B1A6013E0212B04D140F2E4
:1039F0006452184B1A600CE0072B04D140F2647239
:103A0000154B1A6005E02F2B03D14FF41972134B9D
:103A10001A601349FFF78AFF044B20225A71802253
:103A20009A7008BD241DFF1F3480044000600640CA
:103A30008908FF1F0CA0044004A0044064D0044087
:103A40000CC0044024C004409008FF1F08A004409C
:103A500000A0044060D0044008C0044020C00440DE
:103A6000A086010008B53D4BDB78DBB213F0100FE8
:103A700006D01021394AD17013F0400F03D108BD90
:103A800013F0400F2CD013F0040F1BD00023344A46
:103A90001370344A1370344B1B681BB19847314B79
:103AA0001B782BB901222F4B1A7000222F4B1A7052
:103AB0002A4BD0229A702D4A12781A7101222C4B6F
:103AC0001A7009E00122264B1A700022294B1A7045
:103AD000224BC0229A701B790222204BDA7008BD5B
:103AE0001E4A927812F0100F1CD013F0010F14D15F
:103AF0001F4B1B781B4A12789A4207D9591C1C4A43
:103B000011701A4AD25C154B1A7102E00022134B55
:103B10001A71D022114B9A701BE0104BC0229A7080
:103B20001B7916E00022144B1A701220134903224D
:103B300000F006FF094B1B79DAB20E4B1B781F2BE6
:103B400007D80749097821B1581C0A4908700C495F
:103B5000CA540222014BDA7008BD00BF0060064063
:103B6000F81CFF1F631DFF1F481DFF1F001DFF1FC7
:103B7000641DFF1F611DFF1F4C1DFF1F6D380000DE
:103B8000281DFF1F4900044B19700123034A1370BD
:103B9000034A1370704700BF001DFF1F621DFF1F07
:103BA000631DFF1F2DE9F04182B08846374B12227A
:103BB000DA709B7813F0200F03D0B422334B9A7045
:103BC0001DE0334B1B680093009D314C0CE02368D3
:103BD0000193019B5B1B0F2B06D92C4B00229A7083
:103BE00080229A7004204EE0FFF7D2FD10F0200FE3
:103BF000EDD10022274B1A70B022244B9A70FFF7A8
:103C0000C7FD10F0200FFAD0234B1B787BB30024A4
:103C1000224E1E4D204F335D2B71FFF7B9FD10F082
:103C2000020F02D110F0200FF7D10223EB70FFF743
:103C3000AFFD10F0100F04D08022144B9A700420B6
:103C400018E010F0200F04D18022104B9A7004204D
:103C500010E010F0010F04D0002C0CBF0220032054
:103C60000BE00134E4B23B78A342D4D801E0002059
:103C700000E00020B8F1000F02D08022034B9A70C0
:103C80000022074B1A7002B0BDE8F08100600640C8
:103C9000881DFF1F241DFF1F631DFF1F001DFF1F29
:103CA000621DFF1F2DE9F8430D4614469846002378
:103CB0003E4A13703E4A13703E4B1222DA709B78D4
:103CC00013F0200F03D0B4223A4B9A700AE0FFF7AA
:103CD0005FFD10F0200FFAD10022374B1A70B0228E
:103CE000344B9A706D0045F00105EDB2314B1D71FA
:103CF000FFF75CFDFFF74CFD10F0110005D08022AE
:103D00002C4B9A700020BDE8F88344B9B8F1000F3D
:103D10000CBFA0228022274B9A70BDE8F883012CAB
:103D200004D1244BA8229A701B7938E0214BA022A1
:103D30009A701B79012C32D900251E4E4FF0A8092C
:103D40001E4FFFF733FD013CE4B2012C08BF86F89B
:103D500002901F2D04D86A1C33797B55D5B200E040
:103D60003379012CEDD1FFF721FDB022114B9A7070
:103D70001F2D07D82B465D1CEDB20E4A11790F4A54
:103D8000D15401E00B4B1B79B8F1000F02D0802217
:103D9000084B9A70064B1D702846BDE8F883FFF764
:103DA00005FDB022034B9A700023E4E7601DFF1F5E
:103DB000611DFF1F00600640241DFF1F281DFF1FFF
:103DC00008B50123FFF76EFF08BD00BF08B501214C
:103DD000FFF7E8FE08BD00BF08B50248FFF79AFDEF
:103DE00008BD00BF501DFF1F2DE9F00F82B00A9FD4
:103DF000002B009336DD0B9B9800DDF830904FEAE6
:103E0000870B88464FF0000A0192DFED186A1EE02A
:103E1000E1EC016A002F10DD2A466346B3EC017A1B
:103E2000D2ED007A67EE277A11ED017A77EE277AE4
:103E300041ED017A0244A342F0D10435B142E7D109
:103E40000AF1010A8144D844009B9A450AD00B9B91
:103E5000002BF5DD019D00EB090608EB0B0449463C
:103E6000C446D5E702B0BDE8F00F7047000000007F
:103E70002DE9F00FDDF820C0DDF82490002B20DDC7
:103E80004FEA8C088B4601EB080A002637460DE006
:103E9000B1EC017AF0EC017A77EE277AE4EC017A62
:103EA000A942F5D1013746449F420AD0BCF1000F28
:103EB000F8DD06EB0A0509EB060490190BEB060189
:103EC000E6E7BDE8F00F70472DE9F00FDDF820C000
:103ED000DDF82490002B20DD4FEA8C088B4601EBA7
:103EE000080A002637460DE0B1EC017AF0EC017AC1
:103EF00077EE677AE4EC017AA942F5D101374644BE
:103F00009F420AD0BCF1000FF8DD06EB0A0509EB71
:103F1000060490190BEB0601E6E7BDE8F00F7047C9
:103F20002DE9F003B2F100091ADD4FEA8308069A81
:103F30004FEA89074FF0000C0BE050F8045B256056
:103F40003C448642F9D10CF1010C41440432CC4589
:103F500006D0002BF7DD08EB010614460846ECE717
:103F6000BDE8F003704700BF70B4002A13DD9E0067
:103F700000250BE0D0ED007A67EE807AE0EC017A64
:103F8000A042F7D101353144954204D0002BF9DD30
:103F900074180846EEE770BC704700BF2DE9F04F7B
:103FA0008BB000AF7962501E38604FEA820909F188
:103FB0000A0323F00703ADEB030DC7F80CD0002A6A
:103FC00040F3A6803A61CA46CB46C7F80890002362
:103FD000FB619C46541CBC619FED726AF7EE005A6F
:103FE000786A786087E0D1ED007AF5EEC07AF1EE7C
:103FF00010FAD4BFB1EE677AB0EE677AB4EEE67A23
:10400000F1EE10FA09DBF5EEC07AF1EE10FAD4BF4A
:10401000F1EE676AF0EE676A184601335144934245
:10402000E1D138623B6A02FB03F101EB0C037C6ACD
:1040300004EB8303D3ED007AF5EE407AF1EE10FA4B
:104040000BD1594C23685B68204658492722984772
:10405000204601F013FD0020A0E0386A844500F0FE
:1040600083800CFB02F07C6A04EB800304EB81018B
:104070003C6920447C6A04EB80001C680D6843F8AE
:10408000045B41F8044B8342F7D16DE0D3ED007A35
:1040900067EE877AE3EC017A8B42F7D1786A00EB1E
:1040A0008C067D680024C7F814A0D7F808A0A445A2
:1040B00013D0D6ED006A86ED006A09EB0500414693
:1040C0002B4693ED007AF1EC017A67EEA67A77EE53
:1040D000677AE3EC017A8342F3D101345D445644BC
:1040E0009442E4D1D7F814A0F96901F1010C944588
:1040F0000ED0C7F81CC0624594DDBB690CFB03F110
:104100007C6A04EB81016346F0EE466A386A6AE72E
:104110003868002824DBF96801EB820CA9F1040659
:104120007B6A1E444FF0000882469B465CF8041DE3
:1041300051450ED0002A0CDD0BEB81013346404681
:104140001C680D681D600C6001304B44494490426E
:10415000F6D10AF1FF3A043EBAF1FF3FE6D101E0A1
:1041600001201BE0012019E03C6AF86840F82C406F
:10417000B9690CFB01F37C6A04EB830191ED007AD1
:1041800085EE877AC1ED005ACCEB030304EB83087C
:104190003869034404EB8301434677E72C37BD4677
:1041A000BDE8F08F00000000801EFF1F54C000001B
:1041B00038B505460C4608460021282207F002F8CB
:1041C00020460A490B2207F0D9FA0023E3720122A4
:1041D000E260AA682261062262616362044BA36105
:1041E000044BE361044B236238BD00BF7CC0000078
:1041F00000808944000096430AD7233C084B5A8923
:104200008A1A198901FB02F2D213B3F91200C00213
:10421000B3F91430134490FBF3F01044704700BF1F
:104220006C1DFF1F014A02608160704790C0000052
:1042300008B5C0EE800A10EE900A06F0E7F841ECEF
:10424000100B9FED0B1B04F04FFE00200C4953ECAC
:10425000102B05F07BFF08A3D3E9002306F02AF911
:1042600006F0E2FB00EE100A08BD00BFAFF30080CD
:1042700000000020C05BC83F0000000040A5E540F2
:104280000000F03FAFF3008070B506460D46084CC5
:1042900020467721FFF776FC20463146FFF792FA59
:1042A00020462946FFF78EFA2046FFF78FFD70BDA6
:1042B000501DFF1F08B5054B197889013431F420D2
:1042C00001F0FC01FFF7E0FF08BD00BF841DFF1FE8
:1042D00070B506460D460C4C20467721FFF752FC80
:1042E00020463146FFF76EFA2046FFF76FFD204665
:1042F00077210122FFF764FD2046FFF78FFA28702F
:104300002046FFF763FD70BD501DFF1F00B583B051
:10431000F4200DF10701FFF7DBFF9DF8070080F0A7
:104320002000C0F3401003B05DF804FB70B50646F2
:104330000D460F4C20467721FFF724FC20463146DE
:10434000FFF740FA2046FFF741FD20467721022281
:10435000FFF736FD2046FFF761FA06462046FFF7D5
:104360005DFA40EA062028802046FFF72FFD70BD49
:10437000501DFF1F10B582B00C460DF10601FFF76E
:10438000D5FFBDF80630238002B010BD10B582B055
:104390000C462548FFF7EAFAD0200DF10701FFF798
:1043A00097FF9DF80730552B3AD1032C28BF0324E3
:1043B0001E4B1C701E4CAA202146FFF7DBFFAC20D1
:1043C000A11CFFF7D7FFAE20211DFFF7D3FFB020C0
:1043D000A11DFFF7ABFFB22004F10801FFF7A6FF14
:1043E000B42004F10A01FFF7A1FFB62004F10C018B
:1043F000FFF7C0FFB82004F10E01FFF7BBFFBA20A2
:1044000004F11001FFF7B6FFBC2004F11201FFF721
:10441000B1FFBE2004F11401FFF7ACFF012000E062
:10442000002002B010BD00BF501DFF1F841DFF1FE4
:104430006C1DFF1F10B582B00446F4202E21FFF73B
:1044400023FF062000F0E6FBF6200DF10601FFF742
:104450006DFFBDF80630236002B010BDF0B583B02B
:1044600007460D4602A8002240F8042DFFF7E2FFA0
:10447000464C217889013431F42001F0FC01FFF72A
:1044800003FF2378012B07D013B1022B08D00BE0D8
:10449000052000F0BFFB0AE0082000F0BBFB06E0AF
:1044A0000E2000F0B7FB02E01A2000F0B3FBF6206C
:1044B0000DF10201FFF73AFFBDF80260360201205C
:1044C00000F0A8FBF8200DF10101FFF701FF2F4BD1
:1044D0001C789DF801301E44C4F108031E41384683
:1044E0000199FFF78BFEA0F57A6000FB00F2121332
:1044F000274BB3F9047000FB07F7B3F90C1001FB6D
:1045000002F1091401EB67310231891001F5004114
:10451000DF8807FB01F1C90BB3F90070B3F90EC0D6
:1045200002FB0CF2B3F9023000FB03F0C01200EB07
:10453000E22202EB8703A3400233A6EBA3064CF270
:104540005033234103FB06F3002BA7BF5C00B4FBF1
:10455000F1F4B3FBF1F46400231203FB03F340F620
:10456000DE3202FB03F30B4A02FB04F2121402EBED
:10457000234303F6CF6304EB231407EE104AF8EE4F
:10458000C77AC5ED007A03B0F0BD00BF841DFF1FE0
:104590006C1DFF1F43E3FFFF70B582B005460C465C
:1045A000242608460021324606F00CFE2660AB6841
:1045B00063600623A36000232361284601A9FFF757
:1045C0004DFFDFED057A9DED017AC7EE277AC4ED48
:1045D000057A012002B070BD0000C842F0B583B07A
:1045E00005460E4600230193F6200DF10201FFF768
:1045F0009DFEBDF802703F02F8200DF10101FFF7AA
:1046000067FE9DF801201744304C2378C3F108035E
:104610001F4101A8FFF70EFFFFF74CFE2846019946
:10462000FFF7ECFDA0F57A6000FB00F52D13227872
:10463000274BB3F9044000FB04F4B3F90C1001FB61
:1046400005F1091401EB64340234A41004F50044AC
:10465000D98801FB04F4E40BB3F90010B3F90EC0E0
:1046600005FB0CF5B3F9023000FB03F0C01200EBC0
:10467000E52505EB810191400231A7EBA1074CF242
:10468000503141FA02F202FB07F2002AA7BF5300A1
:10469000B3FBF4F3B2FBF4F35B001A1202FB02F279
:1046A00040F6DE3101FB02F20A4901FB03F1091475
:1046B00001EB224202F6CF6203EB221307EE103A1F
:1046C000F8EEC77AC6ED007A03B0F0BD841DFF1F77
:1046D0006C1DFF1F43E3FFFF844641EA000313F014
:1046E00003036DD1403A41D351F8043B40F8043BF9
:1046F00051F8043B40F8043B51F8043B40F8043BBC
:1047000051F8043B40F8043B51F8043B40F8043BAB
:1047100051F8043B40F8043B51F8043B40F8043B9B
:1047200051F8043B40F8043B51F8043B40F8043B8B
:1047300051F8043B40F8043B51F8043B40F8043B7B
:1047400051F8043B40F8043B51F8043B40F8043B6B
:1047500051F8043B40F8043B51F8043B40F8043B5B
:1047600051F8043B40F8043B403ABDD2303211D3FB
:1047700051F8043B40F8043B51F8043B40F8043B3B
:1047800051F8043B40F8043B51F8043B40F8043B2B
:10479000103AEDD20C3205D351F8043B40F8043BFB
:1047A000043AF9D2043208D0D2071CBF11F8013BF9
:1047B00000F8013B01D30B8803806046704700BFBF
:1047C000082A13D38B078DD010F003038AD0C3F1CE
:1047D0000403D21ADB071CBF11F8013B00F8013BB0
:1047E00080D331F8023B20F8023B7BE7043AD9D36F
:1047F000013A11F8013B00F8013BF9D20B78037044
:104800004B7843708B78837060467047024B1A6810
:1048100001321A60704700BF881DFF1F08B50D4C9C
:10482000236813F4802F01D000F084FB236813F475
:10483000806F01D001F028FF236813F4006F01D0CE
:1048400002F0F4FA236813F4805FE9D002F0B2FDBD
:10485000E6E700BF3480044008B5FFF7DFFF00BF84
:104860001022014B1A80704700200540704700BF9E
:10487000024A136818441060184670479408FF1FD6
:10488000FEE700BFEFF31383ABB9EFF31083ABB9CF
:10489000EFF3058323B10F2B05D9094A985C03E098
:1048A0004FF4807000E00020EFF311833BB18342AE
:1048B00038BF184670474FF0FF30704700207047F0
:1048C000F0E300E00B4B1B78DBB2802B0ED10A4AE1
:1048D0000A4B1A60002203F5573303F2BD331A70F6
:1048E000044A1378DBB2802BFBD001E00020704734
:1048F0000120704703E00740000028224480044064
:104900000B4B1B78DBB2012B0FD1602203F18043EC
:1049100003F5FC231A70064A1378DBB2802BFBD117
:10492000044A054B1A60012070470020704700BF01
:1049300003E007400000060244800440704700BFC7
:1049400030B43F285AD8042A58D8DFE802F00709C3
:10495000050B03000B2206E00A2204E0082202E015
:104960000C2200E009221404254B03EBC00043682D
:10497000244A2548C2F82C012448C2F830012448B2
:10498000C2F834012348C2F838012348C2F83C0178
:1049900003F14042A2F592227C2A18D903F140404B
:1049A000A0F594207C2814D903F14042A2F5962268
:1049B0007C2A10D903F14042A2F598227C2A0CD916
:1049C00003F14042A2F59A227C2A08D916E0134D41
:1049D00006E0134D04E0134D02E0134D00E0134DCB
:1049E00072B61A6822F470221A60C3F3840045F884
:1049F000201042F0807214431C6062B630BC7047D5
:104A0000A8C000000002FF1F1108FF1FE507FF1FDD
:104A1000B907FF1F8D07FF1F6107FF1F9808FF1FC2
:104A20001009FF1F7009FF1FA009FF1FE009FF1FEA
:104A30001D4B03EBC000436803F14042A2F59222F4
:104A40007C2A18D903F14042A2F594227C2A14D979
:104A500003F14042A2F596227C2A10D903F140428C
:104A6000A2F598227C2A0CD903F14042A2F59A22A1
:104A70007C2A08D970470D4906E00D4904E00D492C
:104A800002E00D4900E00D4972B61A6822F0877203
:104A900022F4803242F080721A60C3F38403084A21
:104AA00041F8232062B67047A8C000009808FF1F95
:104AB0001009FF1F7009FF1FA009FF1FE009FF1F5A
:104AC0003D490000044B00221A6004490A60044A70
:104AD000106010221A60704714D0034004D00340C5
:104AE00000D003403F281ED80F4B53F8303093F8C6
:104AF000802212F0FF0F08D019B1012283F8802024
:104B00007047012283F800217047074B03EBC00078
:104B1000436821B11A6842F003021A6070471A68AC
:104B200022F002021A607047A8C000003F284AD84D
:104B3000254B03EBC0035B68012911D004291DD06C
:104B4000214A52F83020002082F8800200292FD01C
:104B5000022931D003291FD040F203121A60704796
:104B6000194A52F83020012182F880124FF4A272C3
:104B70001A601A6822F020021A607047124A52F82E
:104B80003020012182F880124FF4A2721A601A6854
:104B900042F020021A6070474FF480721A601A685F
:104BA00042F002021A601A6822F001021A6070478D
:104BB0004FF480721A6070474FF480721A601A685E
:104BC00042F003021A607047A8C0000072B60D4B95
:104BD0001B680D4A12680D49096862B611F0806FB2
:104BE00002D0322B88BF0132C3F52F3303F21F33BB
:104BF0009B080749A1FB03039B084FF47A7000FB55
:104C00000230704718E000E0881DFF1F04ED00E04F
:104C1000176CC11638B50546FFF7D8FF044625B90D
:104C200038BD013D0AD004F57A74FFF7CFFF001BB1
:104C3000B0F57A7FF5D201F013F9F6E738BD00BF81
:104C400070B5404B4FF000621A604FF080521A600E
:104C50004FF000521A604FF080421A604FF000424D
:104C60001A600022384B1A604EF6FF700433186049
:104C7000282336490B6008310B6008310B6008317E
:104C80000B6008310B6008310B6008310B60083194
:104C90000B602F4D2B602F4C236001F5002101F696
:104CA000D8710B6008310B6008310B6008310B6064
:104CB00008310B6008310B600921274E316006F581
:104CC000805604363260043630600436336008366D
:104CD0003360143E316006F5FE2604363260043639
:104CE00030600436336008363360143E316006F5B8
:104CF000805604363260043630602B6023601748DB
:104D000001601749086840F4007008602839086895
:104D100040F00070086001F501210A6047F6FF715C
:104D2000104A1160043213600832136008220E4BDF
:104D30001A6001F0C5F84FF4C870FFF76BFF00F080
:104D400079FC70BD04E100E0048003400C80034066
:104D50000C900B4014900B400080034000900B40DF
:104D60002C80044008900C4000900C4030B40E4B56
:104D70001B7843F002020D4C04EBC20460600C4847
:104D8000007800280CBF8824C82444EA0141074D5C
:104D900045F8321080F00100054A107083F00103DD
:104DA000014A137030BC7047F41DFF1F0000FF1F45
:104DB0006D1EFF1F10B4431E032B11D872B60A4A92
:104DC00052F8230050B14268074941F82320074AAE
:104DD00032F813400188611A22F8131062B600E01D
:104DE00000205DF8044B7047E41DFF1F2C22FF1FBD
:104DF000013803280DD872B6074B53F820302BB179
:104E0000002001305B68002BFBD100E0002062B67F
:104E100070470020704700BF381EFF1F38B572B6BC
:104E200001231B491B4C5A1812F8012C12F0080FD1
:104E300024D09A0054F832506DB9164B03EBC201DE
:104E400008304860144943F83210144B1A78013A7C
:104E50001A7062B638BD42F0010254F832506DB992
:104E60000C4B03EBC201083048600D4943F8321087
:104E70000A4B1A78013A1A7062B638BD0133052B15
:104E8000D1D162B60022054B1A7000F045FC38BD46
:104E9000E0C200000000FF1F88004000621EFF1FEC
:104EA000C800400010B4431E032B37D8400140F027
:104EB00010001C4A104472B61B4AD25C032A09D85F
:104EC000DFE802F019021B050830022216E0083064
:104ED000042213E0154A52F823201AB9134A42F863
:104EE000231003E0124A52F823205160104A42F87E
:104EF000231062B612E0032200E005220A4CE254BD
:104F000001F10803436000F00803002B0CBF882365
:104F1000C8230A8843EA0243036062B65DF8044B83
:104F2000704700BF0000FF1FA01DFF1F381EFF1F9E
:104F3000481EFF1F2DE9F84FA34CDFF8E092DFF881
:104F4000E0A2DFF8E0B22578EDB215F0040F1DD035
:104F50009E4B1B7813F0FF0F16D09D4B1B7803F070
:104F6000FF022BB1531EDBB2994A137003B900BE86
:104F7000984B1B7803F0FF0233B1531EDBB2954A06
:104F800013700BB900F024FD0423237015F0080FF3
:104F900000F0E48299F80030DBB21D0940F0218274
:104FA0008D4D9E0805EBC6035A6855F83630C3F39D
:104FB0008303013B0C2B00F21082DFE813F0CB01DE
:104FC000CB010E020E020E020E020E020E02E801CC
:104FD0000E020E020E020D00804913680B6052682B
:104FE0004A607F4A45F8362000227E490A607A49A5
:104FF0000A618A6101217C4A11709BB240F2816290
:10500000934218D8B3F5D06F2ED2B3F5817F00F05C
:105010001E8106D8802B00F0C980822B00F0CC8046
:1050200066E140F20232934200F02681B3F5A06FB0
:1050300000F062815CE142F22102934200F086813D
:1050400007D8B3F5086F00F0AB80B3F5106F11D03F
:105050004EE142F22122934200F0418142F221329C
:10506000934200F0498143E1604B5D68002D40F0C0
:10507000188130E1594B9A78544B1A70564D05F10E
:1050800080062B6A13F0800F03D0686A083800F09E
:1050900043FB0835B542F4D1DFF88C810026374652
:1050A000534AB05828B1456800F036FB0DB1284688
:1050B000F9E700234E4973504E4AB3504E4BF05817
:1050C00028B1456800F028FB0DB12846F9E7002318
:1050D00049497350494AB35028F8023F484BFB5C9A
:1050E000023B032B0AD8DFE803F002060206002287
:1050F000434BDA5502E00122414BDA5501370436C1
:10510000102ECDD100223F4B1A7001253E4EDFF804
:105110001C81314F05EB080313F8013C06F8043BF2
:1051200013F0080F2DD000F0D7FA48B1A90007EB13
:10513000451200F108035360344A47F8312007E074
:10514000AB00002247F833202E4B1A7801321A7038
:1051500000F0C2FA58B1AB0043F0010307EBC30102
:1051600000F108024A601E4A47F8332009E0AB000C
:1051700043F00103002247F83320224B1A78013212
:105180001A70AA0042F00201002347F8313042F0C1
:10519000030247F8323001351D4B9E42BAD11EE260
:1051A0000A4B1B781B4D2B700127AAE0194D0023D9
:1051B0002B706B700227A4E0084B9B88042B37D917
:1051C0000F22154B1A70C1E0802007406C1EFF1F94
:1051D000F51DFF1F6E1EFF1F0000FF1F581EFF1F43
:1051E000C80040008C1DFF1F6D1EFF1FE4C20000A1
:1051F000E41DFF1F901DFF1F381EFF1F481EFF1FCD
:10520000A01DFF1F621EFF1FC42007408800400032
:10521000D4200740641EFF1FC02007409020074095
:1052200094200740982007402A22FF1FE0C2000078
:10523000A04A0021117051709F4A12F8233013F0D8
:10524000020F5CD09B4D01232B70022759E09B4B32
:105250009B8803F07F03042B02DC984A52881AB122
:105260000F22954B1A7071E0934A12F8231021F027
:10527000020102F82310B2E1904B9B8803F07F03F8
:10528000042B02DC8D4A52881AB10F228A4B1A7005
:105290005CE0894A12F8231041F0020102F8231061
:1052A0009DE1864B5E889F88854BA3F10C021146D9
:1052B00033F80C0CB04209D133F80A0CB84205D1CE
:1052C000360A032E0CBF2F7817891AE00D690C33AC
:1052D0000C32002DEBD10F22774B1A7036E0794B50
:1052E0001A68794B1A60754B9A78784B1A7076E188
:1052F0000F22714B1A7029E000273D4601E002277A
:105300006C4D6E4BDB889F4228BF1F46402F34BF39
:105310003E46402628463146FFF728FD3544BF1B50
:1053200003D13F2E00F2608110E0402F34BF3E4693
:10533000402628463146FFF719FD3544BF1B01D1F1
:105340003F2E03D9624B1D60624B1F8001238AF8F8
:10535000003042E0594B198842F22103994212D1A0
:105360005D4BD81D12F8011B03F8011F8342F9D1D0
:105370005A4B1B68862B02D10F22594B1A70002002
:105380000146FFF7F3FC574B45F8363025E0504B0C
:105390001E68BEB14F4FB7F80080B8F1400F34BF60
:1053A0004546402530462946FFF7E0FCC5EB08039B
:1053B0009BB23B800BB9402D01D1354400E0002564
:1053C000434B1D603D4B1B88B3F5A06F05D13B4B94
:1053D00000225A709B788BF8003001238AF8003045
:1053E000B9E0414E9F0806EBC708D8F80420A2F1A7
:1053F0000800013DEDB213F0080F47D000F08CF922
:105400003A4B53F825304BB35A68384941F82520B8
:1054100003F10802C8F80420354A525D032A12D865
:10542000DFE802F002060A0E0321314A51550AE074
:1054300002212F4A515506E005212D4A515502E01F
:1054400004212B4A515518F0080F0CBF8822C8229E
:105450001B8842EA034346F837307CE0244B5B5D0F
:10546000032B0BD8DFE803F0777702060022204BEE
:105470005A5570E001221E4B5A556CE018F0080F87
:105480000CBF022203221A4B5A5564E056F83730FB
:105490001B0C22F8083C002B55D0002322F8063CB8
:1054A00042F8043C134B53F825302BBB114B43F807
:1054B000250025E0641EFF1FC0200740581EFF1F67
:1054C000F0C20000881DFF1F3C22FF1F7C1EFF1F33
:1054D0008C1DFF1F601EFF1F3322FF1F3422FF1F82
:1054E000F51DFF1FC80040000000FF1F381EFF1FF2
:1054F000A01DFF1FE41DFF1F3F4B53F825305860D0
:105500003D4B43F825003D4B33F8151032F8082C7D
:105510000A4423F8152000F0DFF860B100F1080319
:10552000C8F8043018F0080F354B364A08BF134648
:1055300046F837300FE0002346F83730324B1A7800
:1055400001321A7007E018F0080F2D4B2D4A08BFE2
:10555000134646F8373008232370F4E415F0010FA2
:1055600022D02A4902230B700022294B1A70294BA2
:1055700024481860284C5C6098602848D8601A61FC
:105580009A610D20264B1870FF23264803700838B7
:10559000037018300270244A13709F22234B1A7034
:1055A00001230B70BDE8F88F15F0800F05D00D2298
:1055B0001B4B1A708022403B1A7015F0020F06D068
:1055C000184B1A78D2B21A700222083B1A7015F0E2
:1055D000100F0ED01022164B1A70BDE8F88F002065
:1055E0000146FFF7C3FBB1E628460021FFF7BEFBEB
:1055F000ACE6BDE8F88F00BF901DFF1F2C22FF1FF7
:10560000C800400088004000621EFF1F9420074031
:10561000F41DFF1F0000FF1FA41DFF1FF81DFF1F2B
:10562000C0200740882007408C2007408420074086
:105630008020074008B503F025F8002320491A46CA
:105640005A50C81842600833882BF9D11D4B1A688C
:1056500042F480221A601C4B1A6842F040721A60B1
:10566000032203F5C92303F5A2731A70A022043B99
:105670001A70134BC3F30721144A1170C3F3074187
:10568000143211701B0E04321370FF23343A13705E
:1056900008321370783A137001238432137000219A
:1056A0006C3211707C3A13707022094B1A704FF4EF
:1056B0000012A3F231331A601022064B1A7008BD93
:1056C0000000FF1F3480044000D800409C200740A9
:1056D00035E400E00821074072B60D4B1A68B2FAB3
:1056E00082F30B2B02D962B6002070474FF00041C5
:1056F000D94022EA010206490A6062B6054903EB75
:10570000C303DB00C8180022CA504260704700BFC4
:105710004C0AFF1F0004FF1F08B50F4BC31A0F4AA6
:10572000A2FB03131B090B2B14D80D4A12783AB1B4
:105730000C4A127812F0FF0F02D0FFF76FFB08BD82
:1057400072B6094A4FF0004121FA03F31168194378
:10575000116062B608BD00BF0004FF1F398EE33838
:10576000621EFF1F6C1EFF1F4C0AFF1F10B5134B5C
:105770001B6853B9124B1B7813F0FF0F18D003208E
:10578000FFF718FB0D4B1860A8B10C4B1868438845
:105790005A1C03441C7A03889A4206D3FFF7BCFFC5
:1057A0000022064B1A60204610BD4280204610BDE4
:1057B0004FF0FF3010BD4FF0FF3010BD781EFF1FBF
:1057C0006C1EFF1F08B50D4B1B6883B90C4B1B7873
:1057D00013F0FF0F08D00320FFF7ECFA074B186017
:1057E00028B94FF0FF3008BD4FF0FF3008BD034B24
:1057F0001B685A881344187A08BD00BF781EFF1F23
:105800006C1EFF1F044B9888044B1B681BB11A8841
:105810005B88D31A184470472C22FF1F781EFF1F85
:1058200010B50B4B1B7813F0FF0F0FD0094B186806
:1058300020B1FFF771FF0022064B1A6003242046B7
:10584000FFF7B8FA10B1FFF767FFF8E710BD00BF28
:105850006C1EFF1F781EFF1F2DE9F0470446012232
:10586000364B1A700E46002963D0DFF8E080DFF86F
:10587000E0909A46324FD8F800307BBB99F8003060
:1058800013F0FF0F06D100222C4B1A704FF0FF309F
:10589000BDE8F0872B4D0420FFF7AAFA07280AD8A5
:1058A00001238AF80030FFF717FFC8F80000A8B9F5
:1058B00000238AF80030013D01D03B7833B101224A
:1058C0001F4B1A704FF0FF30BDE8F08700F0C8FAA8
:1058D00099F8003013F0FF0FDDD1D4E700233B70BF
:1058E000D8F800104A88C2F14005AE4238BF3546AC
:1058F00002F108030B442A444A80761B3DB125443B
:1059000014F8012B03F8012BAC42F9D100E0254635
:105910004B883F2B07D940230B800420FFF7C2FAA6
:105920000023C8F800300522074B1A700EB12C4630
:10593000A1E70020014B1870BDE8F0876F1EFF1F24
:10594000741EFF1F214801006E1EFF1F701EFF1FE7
:105950006C1EFF1F00B583B002AB03F8010D1846A3
:105960000121FFF779FF03B05DF804FB10B5144B7C
:105970001B7813F0FF0F21D00122124B1A70124B2B
:10598000196851B10024114B1C704B880B80042006
:10599000FFF788FA0C4B1C600DE0FFF79DFE0146F7
:1059A00030B10022094B1A700420FFF77BFA02E0A5
:1059B0000122064B1A700022024B1A7010BD00BF64
:1059C0006C1EFF1F6F1EFF1F701EFF1F6E1EFF1F2E
:1059D00008B50E4B1B7813F0FF0F16D10C4B19684E
:1059E00041B14B880B800420FFF75CFA0022084B82
:1059F0001A6008BDFFF770FE014618B10420FFF7DA
:105A000051FA08BD0122034B1A7008BD6F1EFF1F1B
:105A1000701EFF1F6E1EFF1F08B5FAF7DBFDFBF7B8
:105A200013FC00F01DFAFAE708B505F093F808BD7D
:105A30002DE9F0438BB0074688468C68C4B1002539
:105A40002E464FF02109404601A94A462B4600F058
:105A5000EFF9202C34BF224620221544A41A3B68BB
:105A60005B68384601A998470644002CEBD100E05A
:105A7000002630460BB0BDE8F08300BF00B583B010
:105A8000054B1B88ADF8043003685B6801A902224E
:105A9000984703B05DF804FBA8C20000F0B58BB0D6
:105AA000164622B903681B68C9B298472FE0012A3D
:105AB00008BF0A2621B930228DF82520212417E0BD
:105AC00021243746B1FBF6F506FB1515EDB222464B
:105AD000092D94BF30353735EDB20DF1280E7244E3
