:1000000000000320D101000009570000CD56000078
:10001000CD560000CD560000CD560000CD56000054
:10002000CD560000CD560000CD5600000957000007
:1000300009570000CD56000009570000BD560000CA
:100040000957000009570000095700000957000030
:100050000957000009570000095700000957000020
:100060000957000009570000095700000957000010
:100070000957000009570000095700000957000000
:1000800009570000095700000957000009570000F0
:1000900009570000095700000957000009570000E0
:1000A00021300000095700000957000009570000DF
:1000B0000957000009570000095700002578000083
:1000C00009570000A97F0000095700003185000092
:1000D000095700005D8B0000095700000957000018
:1000E0000957000009570000095700000957000090
:1000F0000957000009570000095700000957000080
:10010000095700000957000009570000095700006F
:10011000095700003D610000095700000957000021
:10012000095700000957000009570000095700004F
:10013000095700000957000009570000095700003F
:100140000957000009570000AD9000000957000052
:10015000095700000957000009570000095700001F
:10016000095700000957000009570000095700000F
:1001700009570000095700000957000009570000FF
:10018000095700009124000009570000095700009A
:1001900009570000095700000D970000095700009B
:1001A00009570000095700000957000009570000CF
:1001B00009570000095700000957000009570000BF
:1001C00009570000095700000957000009570000AF
:1001D0005C4B4CF2205210B51A804DF628121A8052
:1001E00000BF00BF05F094FA574B4FF030621A6021
:1001F000564A9A60564ADA60564B4FF470021A60BB
:10020000554B564A1A60564B1A6812F4807204D144
:1002100054490A604FF4A8521A60534B1A781107D8
:1002200003D51A7842F008021A70504B504C5148CE
:10023000AA221A70504A00239918A14203D21958D1
:1002400099500433F8E74D4B4D4900228B4202D2BE
:1002500043F8042BFAE74B484B4900235A581A50ED
:100260000433B3F5E87FF9D1484B494A802103F8BC
:10027000011B9342FBD1474B424A1A60464B8A22EC
:100280001A70A3F5805324225A70A0221A709A790A
:100290009207FCD59A79D406FCD4404B9A7902F0A7
:1002A0000C02082AFAD13E4B60221A7002331A78E7
:1002B000802AFCD1394B01221A715D225A719A7938
:1002C0009006FCD59979354A4906FBD5354B364918
:1002D00019600021596020231370937903F00C03F7
:1002E0000C2BFAD1314B324A1A60324B324A1A6027
:1002F00000225A60072243F8042C304AC3F80C2D20
:1003000062B605F0A1FD174B1B68DA0705D52C482E
:1003100005F0B8FA2B4B2C4A1A602C4B1B785B0665
:1003200009D5284C284A2368934204D1244805F073
:10033000A9FA002323600EF077F805F0EFF906F034
:1003400071FCFEE70E20054030800440823F04002F
:100350000100002B88ED00E0002008E0030000858C
:1003600010D0034014D0034002D0074000E0074003
:100370003413FF1F943501006007FF1F3413FF1F64
:10038000C41FFF1F0002FF1F0000000000E400E088
:1003900064E400E008ED00E0005006400040064044
:1003A00001E007404480044000000602048004404D
:1003B000C010070014E000E01FBF02000000202072
:1003C000A9C2F0041CE00340A5C3945A00F0074002
:1003D000FFFFFFFFFFFFFFFFFFFFFFFFFFFFFFFF2D
:1003E000FFFFFFFFFFFFFFFFFFFFFFFFFFFFFFFF1D
:1003F000FFFFFFFFFFFFFFFFFFFFFFFFFFFFFFFF0D
:10040000FFFFFFFFFFFFFFFFFFFFFFFFDEF9FFFF23
:1004100010B5054C237833B9044B13B10448AFF33E
:1004200000800123237010BD3413FF1F0000000063
:100430008C35010008B5064B1BB106480649AFF3E1
:1004400000800648036813B1054B03B1984708BD07
:10045000000000008C3501003813FF1F3413FF1F0C
:100460000000000010B5042005F040FA0446052005
:1004700005F03CFA8442044B1A6C0CBF02F1FF32C7
:1004800001321A6410BD00BFB81AFF1F2DE9F047F2
:100490002DED068BB0EE409AF0EE609A11EE106AE8
:1004A00011EE90AA9FED60AA60EE0A7A17EE900A0C
:1004B0000DF034F841EC180B41EC100B0AF0A6FAE1
:1004C00059EC108B89EE0AAA1AEE100A0DF026F8E4
:1004D00041EC100B0AF09AFA55EC104B30460DF037
:1004E0001DF822462B460DF06DF841EC100B09F07B
:1004F0008FFD57EC106BB0EE480AF0EE680A0AF078
:1005000085FA55EC104B0020484942464B460DF009
:1005100083F932463B460DF055F80DF035FB0CF0F3
:10052000FDFF02460B46204629460DF04BF841ECF4
:10053000100B09F029FF0AF04FF857EC106B5046EA
:100540000CF0ECFF04460D46F7EE007AC7EE897A10
:1005500017EE900A0CF0E2FF32463B460DF032F8FF
:1005600002460B46204629460CF078FE0DF00CFBA7
:1005700007EE900A77EEE99AF8EE007A69EE277AAC
:1005800067EEA97A17EE900A0CF0C8FF41EC100B49
:1005900009F09EFF0020264953EC102B0CF05EFE64
:1005A0000DF0F2FA08EE100AB5EE408AF1EE10FAFC
:1005B000DFED207A48BFB0EE678A69EE299A19EE1E
:1005C000900A0CF0ABFF41EC100B09F081FF59ECE5
:1005D000108BDFED157A87EE899A19EE100A0CF070
:1005E0009DFF41EC100B0AF011FA57EC106B18EE5E
:1005F000100A0CF093FF41EC100B0AF007FA55ECCF
:10060000104B4046494632463B460CF0DBFF224643
:100610002B460CF0D7FF0DF0B7FA00EE100ABDEC38
:10062000068BBDE8F08700BFC3F51C410000F0BF9A
:100630000000F03F0000000008B52DED028BB0EE89
:10064000408AF0EE608A9FED217A37EE407ADFED46
:10065000207A67EE277A17EE900A0CF05FFF41ECE4
:10066000100B09F035FFDFED1B7AF4EEE78AF1EEAF
:1006700010FA0AD59FED180AF0EE480A9FED171AF6
:10068000DFED121AFFF702FF1DE0DFED127AF4EE44
:10069000E78AF1EE10FA11DBDFED0C7AB4EEE78AAF
:1006A000F1EE10FA0DD59FED0E0AF0EE480A9FED1F
:1006B000091ADFED0C1AFFF7E9FE04E09FED070AC7
:1006C00001E09FED060ABDEC028B08BD0000E3438C
:1006D000D6AB80BA00002042D6AB003A0000000042
:1006E000CA83543A76C6BB432DE9F0432DED028B05
:1006F00093B0DFF8D890314E314F35E09DED080AC8
:10070000DDED090AFFF798FFB0EE408A30469DED17
:10071000090AF0EE480A04F029FA0FFA80F8304688
:10072000414604F091FA02AC0DAD0FCD0FC42B6819
:1007300023600BAB93E803008DE8030008AB0ECBFE
:10074000484603F0F9FD07F59F6383ED008A336C9B
:10075000A7F8FC34736CA7F8FE34384604F066F84A
:100760003046414604F070FA06F050F928B9484680
:1007700008A903F003FF0028C0D1124C23685B686E
:10078000204611492C229847204606F057FA0B4D77
:1007900000240F2602E0304605F040FB28462146A3
:1007A00004F052FA0028F6D004480121002204F097
:1007B0000DFA13B0BDEC028BBDE8F083B81AFF1F31
:1007C000B415FF1F001CFF1F0C2101003414FF1F74
:1007D00038B50546424C23685B68204641491B22D8
:1007E0009847204606F02AFA3F4804F009FE3F48A1
:1007F00003F08AFF3E48294603F030FB23685B681C
:1008000020463C49122298473B4B196C204606F083
:1008100077FA204606F012FA204606F00FFA23680F
:100820005B68204635491E229847204606F006FAA6
:1008300023685B68204632491222984720464FF4CD
:10084000E37106F05DFA204606F0F8F923685B686C
:1008500020462C490B22984720469FED1B0B022176
:1008600006F05AFA204606F0E9F923685B6820464C
:1008700025491222984720469FED150B022106F0CC
:100880004BFA204606F0DAF923685B6820461F49D8
:100890000E2298472046282106F032FA204606F01C
:1008A000CDF923685B68204619490E2298472046F7
:1008B0009FED090B022106F02FFA204606F0BEF943
:1008C000204606F0BBF938BD0000004080B70A4062
:1008D0000000006091EDCC3F0B4B54B0CE787740D8
:1008E000001CFF1F3C210100041BFF1FB415FF1F4C
:1008F0003414FF1F58210100B81AFF1F6C2101009A
:100900008C210100A0210100AC210100C0210100C7
:10091000D0210100AFF3008038B50D20012104F093
:10092000F3FF0D20012104F0BDFF40F6B83005F0C3
:1009300075FA4FF47A7005F071FA184C23685B6809
:100940002046174911229847204606F077F9236878
:10095000144D5B682046294603229847204606F03E
:100960006DF923685B682046294603229847204694
:1009700006F064F90C4C204604F024FC0120FFF73B
:1009800027FF0A4804F0D4F804200949032204F0A0
:10099000FBFF204604F0C0FC38BD00BF001CFF1F59
:1009A000E0210100F4210100041BFF1FB81AFF1F02
:1009B0006504000010B506F029F8002840F3BF8058
:1009C00005F0D8FF4138122800F2A380DFE800F0DC
:1009D0001F520EA13063A1A1A1A1A1A141A1A1A17A
:1009E000A1A10A000120FFF7F3FEA5E0544C236803
:1009F0005B68204653491F229847204606F01EF99F
:100A0000514804F0FDFC514803F086FB94E04C4C47
:100A100023685B6820464E4924229847204606F00A
:100A20000DF9494804F0ECFC484803F023FB83E04F
:100A3000454804F0E5FC424C23685B682046454984
:100A400022229847204606F0F9F8434804F094FA29
:100A500072E03D4804F0D4FC394C23685B682046C2
:100A60003E491E229847204606F0E8F83A4804F02E
:100A70001FF961E0324C23685B6820463849312217
:100A80009847204606F0DAF82F4804F0B9FC2F48C2
:100A900003F0B6FA50E02A4C23685B6820463149DF
:100AA00023229847204606F0C9F8274804F0A8FCFE
:100AB0000020FFF78DFE2C4803F08CFF234B93F8AA
:100AC0007C313BB1214B93F87D311BB1264B93F820
:100AD0003C3053B91A4C23685B68204623494122B5
:100AE0009847204606F0AAF826E0154C23685B6874
:100AF00020461F4915229847204606F09FF81348C4
:100B000003F07EFD4FF4FA6005F088F9FFF7ECFD85
:100B100012E00B4C23685B68204616491522984763
:100B2000204606F08BF823681B682046124A11788D
:100B30009847204606F082F8034804F0EDFB10BD0C
:100B4000001CFF1FF8210100041BFF1F3414FF1FAE
:100B50001822010040220100B81AFF1F6422010080
:100B600084220100B8220100B415FF1FDC2201001D
:100B700020230100382301005013FF1F08B583789C
:100B800063F07F0383700246806852F8101F01F003
:100B9000F5F808BD2DE9F8430446037813F0200F5B
:100BA00032D143691D4A934230D8FFF7E7FF06462A
:100BB000002830D0A068216901F078F88046A0684C
:100BC00024304146052201F04BF8814600B3002154
:100BD0004FF400720DF0D8FFA3681F79012F0ED9D2
:100BE000012518680268976805EB08014A46B8476E
:100BF00080B10135EDB2A3681F79BD42F1D36369BD
:100C000003EB4723636106E0002604E0002602E0D0
:100C1000002600E006463046BDE8F883FFFD1F00D1
:100C200010B504460A4680682430A16901F018F81E
:100C3000034628B1A08800F00F0003EB401010BD60
:100C4000002010BD38B504460D46037893B9002145
:100C500024220DF099FFA560EB79102B02D0202BF8
:100C600003D009E02023237001E0402323700120FA
:100C7000A07038BD002038BD002038BD2DE9F04FF0
:100C800083B00446884600920378002B00F0AA80C7
:100C9000827812F0010F00F0A58013F0080F08D041
:100CA000C2694369D31A009A9A4228BF1A46009231
:100CB0000DE013F0200F0AD083681A894369C3EB53
:100CC00042139BB2009A9A4228BF1A460092009B98
:100CD000002B00F083801E464FF0000A04F1100242
:100CE0000192D3466369C3F30807227812F0200FFC
:100CF00004D0A268126A02EB532922E0A06890F89F
:100D000005A00AEA532AB7B9BAF1000F13D133B9D3
:100D100012F0400F14BF036A236A23610BE02169BC
:100D2000019A00F0C9FF00285CDB20B9237813F09A
:100D3000700F54D156E0A068216900F0B7FF00EBB6
:100D40000A0937B9B6F5007F03D3A068C36A99458D
:100D500013D1C7F50075AE4238BF3546A0682430C0
:100D600049465A4600F07CFF014600283AD04046EA
:100D700039442A4604F008FC29E0B6F5806F1DD3FB
:100D8000C6F34727227812F0200F06D10279CAEB6A
:100D90000202D2B2BA4238BF17467D02994502D844
:100DA0003B44994525D3A36818680368D3F80CC061
:100DB000494642463B46E04748B913E000680368AD
:100DC0001B6849464246984760B14FF40075A844F5
:100DD00063692B446361761B84D100E0009E009B15
:100DE000981B0CE0637843F0020363704FF0FF3010
:100DF00005E0243000F00AFF0028D4D1F2E703B068
:100E0000BDE8F08F70B582B00446466905690DF102
:100E100007010122FFF732FF012803BF9DF80700F9
:100E2000666125614FF0FF3002B070BD30B583B010
:100E300004464369C3F3431505B171B920460DF16A
:100E400007010122FFF71AFF40B2012801D000205C
:100E500009E063691F33636101E020334361A068E7
:100E6000303000EB451003B030BD00BF2DE9F0413C
:100E700004460E4607690378002B3CD042698A423B
:100E80003DD011B90023036131E013F0080F03D006
:100E9000C1698E422FD808E013F0200F05D0836877
:100EA0001B89B1EB431F26D821E0A1688D79093554
:100EB000501EE84006F1FF3C2CFA05F5A84200D888
:100EC00032B913F0400F14BF0B6A236A23610AE0A2
:100ED0002D1A08E0A0682169424600F0EDFE013DB0
:100EE000002802DC07E004F11008002DF2D1666151
:100EF0000120BDE8F08127610020BDE8F0810120DC
:100F0000BDE8F081F8B504460E4615461F4600219F
:100F100024220DF039FEB068A060A580336AE3603A
:100F200000F1300305F00F0203EB4212D37A13F005
:100F3000080F34D103F017032370D17A11F0180F82
:100F400004BF43F0080323709DF81830E37017F0D6
:100F5000320F03D0237813F0110F20D107F00F03C5
:100F6000A370C36AA361918A538B43EA014117F0CE
:100F7000100F08D011B100F037FF80B1A37863F0F3
:100F80007F03A37002E02162D369E36117F0200FB1
:100F900009D02046E169FFF769FF034620B9002028
:100FA0002070034600E001231846F8BD38B504461A
:100FB0000378002B39D090F90230002B1EDA012182
:100FC000FFF72EFE054650B30378E52B27D0237894
:100FD00013F0080F1CBFE369C361238C4383638C48
:100FE0008382134B1B682BB1183005F1160198470B
:100FF0002B8B6B82A37803F07F03A370A56805F1A8
:10100000240000F003FE50B105F50C7000F0FEFD69
:1010100028B1286803685B689847034630B963784D
:1010200043F001036370002300E00123184638BD3C
:101030005813FF1F10B50446FFF7B8FF00232370B5
:1010400010BD00BF2DE9F04192B006460C4601925A
:10105000984600238DF824308DF825300378002B36
:1010600044D10B7813F0700F42D0134612782F2A18
:1010700014D10133019313F8012B2F2AFAD02AB986
:101080003046A168FFF7DEFD024632E009A8A168FC
:10109000FFF7D8FD024600282BD009AC01270198A4
:1010A00003A901AA00F06EF9024610B3019A137861
:1010B000A3B13046214603AA3B4600F0ADFB0246F1
:1010C000B8B109AC35460FCD0FC40FCD0FC42B6896
:1010D00023603046FFF7AEFF09ACE0E7304621461B
:1010E00003AA434600F098FB024602E0002200E01B
:1010F0000022104612B0BDE8F08100BF10B58AB0E2
:1011000004460A4600238DF804308DF8053001A806
:1011100021460223FFF796FF034618B101A800F00D
:1011200069FA034618460AB010BD00BF2DE9F84F12
:10113000044688469246037813F0080F00F0BB80FF
:10114000837813F0020F00F0B68013F0040F05D07F
:10115000E169FFF78BFE002800F0AD806369DB4397
:101160009A4500F2A880BAF1000F00F08880564638
:101170004FF001094FF0050BA06863694579C3F38F
:10118000080715EA532521D1002F40F09C802169E2
:1011900081B104F1100200F08FFD0028C0F28B80B5
:1011A000002840F095802046FFF7E8FC002840F03A
:1011B0008F8080E0236A3BB92046FFF7DFFC0028E0
:1011C00079D02369236283E0236181E0216900F003
:1011D0006DFD4119002F40F08C80B6F5007F7DD366
:1011E00018E04A4600E05A46A068243000F038FD76
:1011F000002860D0384441462A4604F0C5F92F44FF
:10120000B7F5007F34D1A068243000F0FFFC00283F
:101210002ED150E0B6F5806F17D3A26813795D1B0D
:10122000EDB2C6F34723AB4228BF2B465D02D06A1E
:10123000884202D31844884261D8A26810680268C4
:1012400017694246B84798B935E0A368DA6A91420F
:1012500005D1002283F824204FF0FF32DA62A36820
:10126000186803689B684246984720B34FF400759E
:1012700063692B446361A844761B7FF47DAF636987
:10128000E269934205D9E361A37863F07F03A37019
:1012900006E01E4B1B681BB1A37863F07F03A370AD
:1012A000A37813F0080F03D02046FFF77FFE10B19C
:1012B0005046BDE8F88F637843F0010363704FF048
:1012C000FF30BDE8F88F216900F0F0FC014610E026
:1012D000A068216900F0EAFC01467EE7C7F50075C9
:1012E000AE4238BF35466269E3699A42BFF47BAFCC
:1012F00077E7C7F50075AE4238BF354671E7002085
:1013000082F824004FF0FF30D06296E75813FF1F99
:10131000042904D800EB4101B1F8010070470A2903
:1013200004D8013900EB4100C088704710299DBFE7
:10133000013100EB410080880020704700231A46ED
:10134000510841EAC212C15C51FA82F2D2B20133B1
:101350000B2BF5D11046704738B504460D46CB68C7
:101360001BB98968FFF76EFC38BD002124220DF0FF
:101370000BFC102323700120A070AB68A360EB6806
:10138000236238BD2DE9F00F82B00378202B05D100
:10139000431C184601330478202CFAD08860037867
:1013A00023B12F2B04D00546002407E0002400E0E1
:1013B000002407193B4622E02F2BFAD05C2B00F0CB
:1013C000FA8003F0F706222E00F0F7803A2B00F0A7
:1013D000F68003F0BF063C2E00F0F380A3F13E063A
:1013E000F6B2012E40F2EF80203BDBB25E2B00F222
:1013F000EC80013415F8013F002BDDD1D9E71E4602
:1014000013F8015B202DFAD02F2DF8D0166074B19F
:101410003A4612F8013D2E2B01D0202B02D1013C7F
:10142000F7D104E0FF2CC8BF002000F3DF804C6040
:1014300000232025CA18557301330B2BFAD1002342
:1014400000E00133C25C2E2AFBD0202AF9D01E46D0
:10145000D3F1010738BF0027651E06D4425D2E2A4E
:1014600003D0013DB5F1FF3F05D1A64207DB0020C7
:101470000190009087E0425D2E2AF2D1F5E74FF00F
:1014800007090026019600964FF0080AB446AB46BD
:10149000C25C202A66D02E2A02D19D4264D122E06D
:1014A000222A20D07C2A1ED0A2F12A085FFA88F8CE
:1014B000B8F1050F02D82D2A15D10DE0A2F13A0896
:1014C0005FFA88F8B8F1050F0DD9A2F15B085FFA51
:1014D00088F8B8F1020F06D9A2F121085FFA88F85E
:1014E000B8F15D0F02D9AB4203D178E0AB4202D133
:1014F00075E067465F224E456DD809E0AB4241DC9E
:101500005B464FF00A0908264FF0100A674635E09F
:10151000A2F161085FFA88F8B8F1190F08D8203AEB
:10152000D2B2DDF8008048EA0A08CDF800800CE06D
:10153000A2F141085FFA88F8B8F1190F05D8DDF873
:10154000048048EA0A08CDF8048006F101085FFA31
:1015500088F80E447273B8F1060F07D881F80C8032
:1015600046460BE0674609E0674607E0464605E069
:101570005B464FF00A0908264FF0100A0133A342D8
:1015800086DB00E000274B7B202B20D057B1019851
:10159000009A00EA0203002B134618BF02230B70C7
:1015A000012023E0012008700B7B19447E234B733C
:1015B00031238B731AE0002018E0002016E0002091
:1015C00014E0002012E0002010E000200EE00020D7
:1015D0000CE000200AE0B9F10A0F8FD102E0B9F166
:1015E0000A0FC5D14B7B202BDCD1F2E702B0BDE85E
:1015F000F00F70472DE9F0438BB0044600238DF8BF
:1016000004308DF80530037813F0080F00F0828065
:10161000837813F0020F7FD0016A31B1806800F047
:10162000E3FB0346002800F0888020460121FFF7F5
:10163000F7FA0546002871D0FFF780FE0746E5233C
:101640002B7000232370A56805F1240000F0DEFA5A
:10165000002871D005F50C7000F0D8FA00286BD086
:10166000286803685B6898470346002865D0E278DD
:10167000002A62D001A82146FFF76EFE034600282B
:101680005BD0E378002B4BD001254FF000084FF0E2
:10169000E509A188491B01A84901FFF7E7FB0346BB
:1016A00000284AD001A84146FFF7C0FB002839D0E6
:1016B000C27A0F2A38D1027802F01F018D4235D14B
:1016C000417BB94234D180F80090A36893F824108C
:1016D00041F0010183F8241012F0400F14D0A468E7
:1016E00004F1240000F092FA48B104F50C7000F007
:1016F0008DFA30B1206803685B68984702E00020EB
:1017000000E00020034618E00135EDB2E378AB427B
:10171000BFD20FE0002310E000230EE000230CE016
:1017200000230AE0002308E0002306E0002304E091
:10173000002302E0002300E0002318460BB0BDE8C0
:10174000F08300BF2DE9F84F04460F460E7B4FF0A3
:1017500002094FF07E0A01F10D085FFA89F3012BAF
:1017600003D8BA193033937324E0796809EB010385
:101770009BB2B86849B10246084412F8011B03EB5A
:1017800043134B409BB28242F7D1032E28BF03265E
:10179000321DD2B2B2420DD903F00F011046092911
:1017A00094BF30313731384441731B09013AD2B20A
:1017B000B242F1D8BB1983F80DA020460021FFF7F3
:1017C00055FB01254FF00B0B20462946FFF72EFB5A
:1017D000014630B96078D0F1010038BF0020BDE883
:1017E000F88F037853B1C37A13F0080FECD1404659
:1017F0005A460DF035F90028E6D105E00120BDE894
:10180000F88F0020BDE8F88F09F101091FFA89F966
:10181000B9F1640FA1D1F4E72DE9F04F8FB0099031
:101820000E4605920A9351680491337813F0700FB5
:1018300000F0D5810378002B40F0D381137813F0AA
:10184000030F09D001F10C027F4BA3FB02139B088D
:1018500001335FFA83FA01E04FF0010A30460021BC
:10186000FFF704FB00270B9706973C46B8460897FE
:101870004FF0010B059A0D32079220E04FF000085F
:101880001DE04FF000081AE04FF0000817E0069343
:101890004FF0000813E04FF0000810E0039C4FF0F9
:1018A00000080CE0039C4FF0000808E04FF000082F
:1018B00005E0CDF820B002E0DDF83480039C7369C8
:1018C000C3F34F1930465946FFF7B0FA054620B921
:1018D0007378002B00F09B8085E10378E52B00D026
:1018E00043B9002C08BF4F4654453CBF0134E4B215
:1018F00023B98CE0544538BF002401E0E52BBDD06E
:101900002E2BBED0EA7A0F2A5AD1B8F1000F09D196
:1019100013F0400FD3D003F01F086B7B0B93CDF86F
:1019200018800AE006994A1ED2B206929342ABD1C1
:101930006A7B0B998A42AAD10693069A531E03EB3F
:10194000430203EB820203929146049B9342A2D985
:1019500002F10D010C91CDF83480904603940C46B1
:10196000C8EB09012846C9B2FFF7D2FC049A914599
:1019700007D1DDF83480039C002818BF4FF0000821
:101980009DE7FF288AD8C0B2A0F14103DBB2192B32
:101990009CBF2030C0B209F1010305998A6812F892
:1019A0000920A2F14101C9B219299CBF2032D2B24B
:1019B00090427FF477AFA3423FF47EAF9946CFE7E2
:1019C00012F0080F7FF472AFB8F1000F0BD0069A37
:1019D000012A40F00A812846FFF7B0FC0B9B984291
:1019E0000FD000230CE1284607990B220DF038F8A0
:1019F00000287FF464AF05990B7813F0010F7FF492
:101A000058AF0A9A12F0800F00F0DF80EFE00A99D9
:101A100001F04203422B40F0EC80002C18BFB94685
:101A2000544522D2002530462946FFF7FFF930B948
:101A30007378002B40F0DF80544507D315E0013464
:101A4000E4B2A245EFD810E04FECC44E3046FFF7A9
:101A5000A1F80346002800F0D380B3681B79012B5E
:101A600003D81034E4B2A245F0D8089A3AB130460F
:101A70000599FFF767FE0346002800F0C180304655
:101A80004FEA4911FFF7F2F90346002800F0B88049
:101A90000AF1FF3818F0FF085DD04746002548F0EE
:101AA000400A049CDDF814B0CDF810A03046294659
:101AB000FFF7BCF98146002800F09F80B36893F8D7
:101AC000242042F0010283F824204745DDF810A0CD
:101AD00018BFBA4680F800A00F23C37205730BF13C
:101AE0000D00FFF72BFC89F80D0089F81A5089F8D2
:101AF0001B50DBF808100AF01F0A0AF1FF3A0AEB44
:101B00004A0E0AEB8E0E72462B468E44A24202D239
:101B10001EF8030004E0A01A18BF6FF0000080B2A6
:101B2000D9B2042904D809EB4301A1F801000AE065
:101B30000A2903D809EB4301888004E010299CBFDF
:101B400009EB4301C880013301320D2BDED1013F87
:101B500017F0FF07AAD17369C3F34F19304600216C
:101B6000FFF764F90446002849D0002120220DF037
:101B70000BF8059B53F80D1F5A68216062601A89A3
:101B80009B7A2281A37205990B7803F018032373C3
:101B90001D4B1B682BB104F1100004F10E01984796
:101BA00007E021232374282363740023A3730823ED
:101BB000E373238A63822383E389E382B36893F820
:101BC000242042F0010283F82420CDF800800998F7
:101BD00031464A460A9BFFF795F9034610E0002379
:101BE0000EE000230CE000230AE0002308E00023BD
:101BF00006E0002304E0002302E0002300E00023CD
:101C000018460FB0BDE8F08F5813FF1FF8B5044613
:101C1000037813F0010F1DD000F10C06436818681B
:101C200003689B68A168324698470546A8B12378A7
:101C300013F0020F09D06368186802681969A36875
:101C4000976819443246B84730B1237823F001032E
:101C5000237002E0012500E005462846F8BD00BFDC
:101C600070B504460D46164683688B4211D0FFF7C7
:101C7000CDFFB0B116F0040F08D16368186803688F
:101C80001B68294604F10C02984760B100232370B9
:101C9000A56006F0030623781E43204600F80C6B6F
:101CA00070BD002070BD002070BD00BF0239837977
:101CB000994040690844704770B504460D46164681
:101CC000C379202B0FD1816900F50C7001EBD51180
:101CD0000222FFF7C5FFD8B105F07F0550F8253087
:101CE00023F070430EE0102B14D1C1F30721836958
:101CF00000F50C7019440222FFF7B2FF60B1EDB29B
:101D000030F81530E1698B4208D83360012006E0D5
:101D1000FF2004E0FF2002E0FF2000E0002040B2AE
:101D200070BD00BF38B50C461546C379202B0ED1C7
:101D3000816900F50C7001EBD4110322FFF790FFCD
:101D4000B0B104F07F0440F82450012038BD102BBE
:101D500010D1C1F30721836900F50C7019440322E7
:101D6000FFF77EFF40B1E4B220F81450012038BDE7
:101D7000002038BD002038BD002038BD2DE9F041DD
:101D800082B0054690460F4609B9C66800E00E4687
:101D900034460134EB699C4288BF02242846214620
:101DA00001AAFFF789FF002804DB08B1019B1BB1E2
:101DB000B442EED1002613E0284621466FF070426F
:101DC000FFF7B0FF064658B13FB1284639462246D4
:101DD000FFF7A8FF10B9064602E0EC60C8F8004023
:101DE000304602B0BDE8F081F0B583B005460C4640
:101DF00000272846214601AAFFF75EFF061E0EDBDC
:101E0000284621463A46FFF78DFF014640B1EB6870
:101E10009C4238BFEC60019C002EEAD100E000211A
:101E2000084603B0F0BD00BF38B504460023C371B7
:101E30000122C260A06280F824304FF0FF32C262FB
:101E4000C4F8340280F83032C0F838220D46A9B107
:101E5000042971D8243019461A46FFF701FF0028DB
:101E60006CD000EB051595F8AE3105F5D47513F07F
:101E70007F0F65D1D5F80E500DB963E0002504F150
:101E8000240029460022FFF7EBFE034600285BD022
:101E9000B0F80B20B2F5007F58D1027C022A57D14E
:101EA000C289002A56D0407B2071421E62710022F6
:101EB000A27101280DD01146012203E012B9A171CF
:101EC000002038BD5200D2B20131C9B29042F5D1E2
:101ED000A171D98A01B9596A2161DA892A44A261BA
:101EE000B3F81100208102EB41022262B3F8111015
:101EF000490101F2FF1102EB61226261B3F8131094
:101F000001B9196AAA1A1144A27921FA02F2511CE4
:101F1000E16140F6F4718A4203D80C23E37100209A
:101F200038BD4FF6F4718A4291BF1023DB6A2362F9
:101F30002023E371012038BD002038BD002038BDCA
:101F4000002038BD002038BD002038BD002038BD3D
:101F5000002038BD002038BD044B1B6804481840E1
:101F6000D0F1010038BF0020704700BF30100B4097
:101F700001000F00024B186800F00100704700BF1D
:101F800024100B40014B1878704700BF9813FF1FB7
:101F900030B44FF47A7303FB00F0274B98423FD8DC
:101FA000012326495B001A01B1FBF2F2904238D2BC
:101FB000FF2BF7D935E021460132B5FBF1F4A04201
:101FC00005D2CC18102AF6D101E0194601224FF4AF
:101FD0007A7000FB01F11948B0FBF1F1184801607B
:101FE0001849086820F008000860086820F47F207D
:101FF00020F47F6040F46020DB0103F47F4318434A
:10200000013A1201D2B2104308600F4A136813F06C
:10201000080FFBD00B4B1A6842F008021A6009E067
:102020000123064AB2FBF3F29042CED259000122BC
:10203000024DC1E730BC70474FA9AB000095BA0A0A
:10204000A013FF1F2C100B4024100B4001207047E1
:1020500070B5044603F0BEFE0646064D04E003F0EC
:10206000B9FE801BA84203D8A0470028F7D170BD55
:10207000012070BD20A1070038B504460D46124866
:10208000FFF7E6FFC8B9114B1D6004331C60104810
:10209000FFF7DEFF98B90F4A11680F4B19601968F6
:1020A00011601B6813F0010F0BD00B4B1B6813F46E
:1020B000702F14BF0020012038BD002038BD002043
:1020C00038BD002038BD00BF751F000008100B4050
:1020D000591F000030100B408013FF1FF0B585B072
:1020E0000E461A4B1968FFF7C7FF074650B3184B47
:1020F0001B680093174B1B680193174B1B680293D7
:10210000164B1B68039306F10F040023144D013C8A
:102110001A46002BB8BFDA1C22F0030204A91144AE
:1021200013EA050203D5013A62F003020132D2003C
:1021300051F8101C21FA02F2227001330F2BE6D164
:102140000023F373384605B0F0BD00BF7013FF1FC6
:1021500010100B4014100B4018100B401C100B40BB
:102160000300008008B50748074B1968FFF784FF94
:1021700030B1064B186880F48070C0F3002008BDB1
:10218000012008BD00001A0D7013FF1F10100B4036
:1021900070B504460C4B186003F01CFE06460B4D50
:1021A0000BE003F017FE801BA84204D90022064B67
:1021B0001A60012070BD04F0E9FEA0470028F0D1AC
:1021C000014B186070BD00BF9C13FF1F20A10700CA
:1021D00008B50A48FFF7DCFF60B9094B1B6813F02C
:1021E000020F09D0064B1A68064B1A4214BF002092
:1021F000012008BD002008BD002008BD851F00008B
:102200008013FF1F00007F1138B504460D461548A6
:10221000FFF71EFF38B12922134B1A70E722134B28
:102220001A6000231CE00122114B1A700022114B8E
:102230001A60114B1D6008331C60104A043B1A6081
:102240000F4A34331A600F4A2C3B1A60FFF7C0FF65
:10225000034628B92321044A1170F121034A116071
:10226000184638BD652100004008FF1F7C13FF1F82
:102270009813FF1F8013FF1F00100B404000010048
:1022800002007F1111003A06F8B506460F461446C3
:102290001D4612F0030F00D143B96022174B1A708C
:1022A0004FF4A572164B1A600020F8BD1548FFF7D1
:1022B0006FFF40B12922114B1A7040F24D12104BA2
:1022C0001A600020F8BD01220F4B1A7000220F4B3C
:1022D0001A600F4B1C600F4B1B7803B97F020E4B2B
:1022E0001F602D0445F40075043B1D600B4A343318
:1022F0001A602C3B1E60FFF76BFFF8BD4008FF1F04
:102300007C13FF1F652100009813FF1F8013FF1F20
:1023100000100B407413FF1F08100B4002007F11C8
:1023200030B5ADF5017D144612F0030F10D118E061
:102330003122114B1A7040F25122104B1A600025C5
:1023400016E0204669464FF4007203F01DF90FE0D5
:102350000B486A460123FFF797FF05460028F0D196
:10236000E6E707480123FFF78FFF05460028DFD087
:1023700028460DF5017D30BD4008FF1F7C13FF1F6F
:1023800011003A112DE9F04106460C46154612F0AF
:10239000030F10D0E3B101EB030832681768304631
:1023A00021462A46B847024698B1013405F5007522
:1023B0004445F2D10DE00848FFF766FF024640B9F8
:1023C0003121064B197040F26321054B196000E082
:1023D00001221046BDE8F08137003A124008FF1F85
:1023E0007C13FF1F10B5ADF5007D0C4612F0030FF6
:1023F00006D0684611464FF4007203F0C5F86A46ED
:10240000084821460123FFF73FFF034630B9322138
:10241000054A117040F2C921044A116018460DF5B1
:10242000007D10BD01003A184008FF1F7C13FF1FFC
:102430002DE9F04106460C46154612F0030F10D068
:10244000E3B101EB030832689768304621462A461B
:10245000B847024698B1013405F500754445F2D1FC
:102460000DE00848FFF710FF024640B93321064B44
:10247000197040F2D921054B196000E00122104685
:10248000BDE8F08127003A194008FF1F7C13FF1FA9
:102490000023054A1360083A106804490860096877
:1024A0001160034A1370704738100B408013FF1FF0
:1024B0009813FF1F2DE9F04790B000239E4A137038
:1024C0009E4A13709E4A13709E4A13709E4A11686A
:1024D00041F04061116002F56A323032116841F416
:1024E00000311160994A13600432136004321360A2
:1024F0000432136004321360043213604FF08072B0
:10250000934B1A601A46136813F0807FFBD14FF487
:10251000C870FFF73DFD40F243438C4A136004321C
:1025200013604FF488610432116004321360043286
:10253000136004321360874A874B1A606022874B0E
:102540001A704FF40032A3F249331A60804B1A68B4
:1025500042F000621A601A46136813F0006FFBD154
:1025600000200146FFF788FD044638B92022734B4E
:102570001A7040F2CD127A4B1A603CE10A24794E6F
:102580004FF4D57530462946FFF776FD90B1764B6E
:102590001B68B3F5D57F08D02522684B1A7040F22E
:1025A000D3126F4B1A60002425E10122654B1A708B
:1025B0006E4F08E0013CE5D1624B1B78002B6B4F5E
:1025C00008BF4FF4401703F005FC8046684C694E85
:1025D000654D20460021FFF74FFD58B13046394682
:1025E000FFF74AFD30B103F0F5FBC8EB0000624B8A
:1025F000984208D94322514B1A704FF4EF72584B4E
:102600001A600024F7E02B68002BE2DA564B1968B9
:102610005A4A11601B6813F0804F02D00122484BC8
:102620001A7057480021FFF727FD044638B92122C8
:10263000424B1A704FF4F472494B1A60DBE0514878
:102640000021FFF719FD044638B922223B4B1A70CE
:1026500040F2EB12424B1A60CDE0434B1B681B0C5F
:102660001B04494A136049484949FFF737FD0446AE
:1026700038B92622314B1A704FF4F872384B1A6071
:10268000B9E044484449FFF729FD044638B92722F8
:102690002A4B1A7040F2F312314B1A60ABE03F48FC
:1026A000394B1968FFF7E8FC044638B92422234B5C
:1026B0001A704FF4FB722A4B1A609CE02C48324B84
:1026C0001968FFF7D9FC28B135480221FFF7D4FC7F
:1026D000044640B94022194B1A704FF4FD72204B4A
:1026E0001A60002487E02F4B1A6822F006021A6055
:1026F0001A6842F002021A604FF010121C331A607E
:102700006FF07F406946FFF77FFD90B19DF80D3077
:1027100013F0020F0DD024486946FFF775FD40B154
:102720009DF8103003F00F03012B08BF4CF250301E
:102730003CD046F2A81039E08413FF1F4008FF1F69
:102740007413FF1F5C13FF1F00D8004000D004402B
:102750002C100B400B007F1134100B4051E400E0B3
:102760007C13FF1F00001A0810100B4000003040BF
:1027700000001A370000022920A107007813FF1F6C
:102780000000090200001A037013FF1F000009096E
:102790008813FF1F0000090A6013FF1F00001B07BA
:1027A00000001A0628100B40F1FFFF80DFF860A040
:1027B0000023CAF80030DFF85C90C9F80030DFF879
:1027C0005880C8F800300E4F3B600E4E33600E4DFF
:1027D0002B60FFF7DDFB40F24343CAF80030C9F835
:1027E00000304FF48862C8F800203B6033602B60F3
:1027F0000122064B1A70204610B0BDE8F08700BFDA
:102800000CD0044010D0044014D004408413FF1FA7
:1028100000D0044004D0044008D00440014B0360C1
:10282000704700BF78230100704700BF014B036071
:10283000704700BF7823010010B50446024B0360C7
:1028400004F0F8F9204610BD7823010010B50446C5
:10285000024B036004F0EEF9204610BD782301001E
:1028600038B505460C460846002128220CF08CF9A4
:10287000204609490B220CF0FDFB0023E3720122E4
:10288000E260AA6822610322626163620023A3619D
:10289000E361024B236238BD902301000AD7233C39
:1028A00010B4034C0460816042715DF8044B7047C2
:1028B000A023010070B50E461546094C417920460B
:1028C00000F03EFC2046314600F05AFA20462946E8
:1028D00000F056FA204600F057FD012070BD00BF01
:1028E0001C14FF1F08B50A4601733D21FFF7E2FFE4
:1028F0001E2003F093FA08BD70B504460E46057B12
:102900000021FFF7EFFF192003F088FA2046072186
:102910000022FFF7CFFF2EB120463F218022FFF794
:10292000C9FF04E020463F210022FFF7C3FF0A2031
:1029300003F074FA20462946FFF7D4FF142003F071
:102940006DFA70BD70B505460E460B4C2046697990
:1029500000F0F6FB2046314600F012FA204600F067
:1029600013FD20466979012200F008FD204600F0A1
:1029700033FAC0B270BD00BF1C14FF1FF8B5044687
:102980000F46254800F0D0FA20460021FFF7DAFF75
:10299000A02809D04FF47A7003F040FA20460021B5
:1029A000FFF7D0FFA02835D120460021FFF79AFF7E
:1029B00020463F212022FFF77DFF00250A2602E066
:1029C000304603F02BFA20462946FFF7BBFFA0282C
:1029D000F6D1322003F022FA20463E210022FFF7F2
:1029E00069FF0A2003F01AFA204607210022FFF7A8
:1029F00061FF20463F210022FFF75CFF0A2003F021
:102A00000DFA20463946FFF76DFF142003F006FA51
:102A10000120F8BD0020F8BD1C14FF1FF8B50F46BB
:102A200016461D46069C3521FFF78CFF0FB1830922
:102A30003B7016B1C0F30113337015B1C0F38103BD
:102A40002B7014B100F003002070F8BD2DE9F041A7
:102A500007460E4690461D46104C2046797900F0F8
:102A60006FFB2046314600F08BF9204600F08CFCCD
:102A7000204679792A4600F081FC65B108F1FF34DF
:102A80006E1E58FA86F6054D284600F0A5F904F8A2
:102A9000010FB442F8D10120BDE8F0811C14FF1FE2
:102AA000F0B583B004460E461546002118220CF0FE
:102AB0006BF800230093ADF80430304629466A468F
:102AC0000623FFF7C3FF9DF801009DF8003043EA9D
:102AD00000209DF803209DF8023043EA02279DF86C
:102AE00005209DF8043043EA0226083D262D00F219
:102AF0008580DFE805F06883838383831483838381
:102B000083833083838383834C838383838383831F
:102B1000838383838383688383838383680000B292
:102B20000AF0EAFC0022374B0AF04CFDC4E9000130
:102B300038B20AF0E1FC0022324B0AF043FDC4E94E
:102B4000020130B20AF0D8FC00222E4B0AF03AFD06
:102B5000C4E9040152E000B20AF0CEFC00222A4B84
:102B60000AF05AFEC4E9000138B20AF0C5FC00229E
:102B7000254B0AF051FEC4E9020130B20AF0BCFC58
:102B80000022214B0AF048FEC4E9040136E000B2FD
:102B90000AF0B2FC00221B4B0AF014FDC4E900014C
:102BA00038B20AF0A9FC0022164B0AF00BFDC4E96A
:102BB000020130B20AF0A0FC0022124B0AF002FD22
:102BC000C4E904011AE000B20AF096FC00220F4B9F
:102BD0000AF022FEC4E9000138B20AF08DFC00229E
:102BE0000A4B0AF019FEC4E9020130B20AF084FC73
:102BF0000022064B0AF010FEC4E90401204603B08F
:102C0000F0BD00BF0000B03F00208C4000005940E4
:102C100070B588B005460C46242608460021324689
:102C20000BF0B2FF2660AB6863600323A3600E4B1A
:102C30001B680193019B236102A829461A22FFF712
:102C40002FFFDDE902010AF09FFF6061DDE9040169
:102C50000AF09AFFA061DDE906010AF095FFE06144
:102C6000012008B070BD00BF081BFF1F284B1A6869
:102C700042F480521A60274B274A1A60274ADA60CA
:102C800002F180421A61264A1A60264B1B7813F023
:102C9000030302D0012B05D009E04FF41072224B40
:102CA0001A6008E04FF40072204B1A6003E04FF402
:102CB00000721F4B1A601B4B1B7813F00C0302D0E1
:102CC000042B05D009E04FF400721A4B1A6008E09B
:102CD0004FF40072184B1A6003E04FF40072174B68
:102CE0001A60104B1B7813F0300302D0102B05D064
:102CF00009E04FF41072124B1A6070474FF40072E3
:102D0000104B1A6070474FF400720F4B1A607047F7
:102D10003C80044000C0024001401F000110003808
:102D200000001F80FD1BFF1F18B0044008C00440B6
:102D3000409004401CB004400CC004404490044047
:102D400014B0044004C004403C900440044BD878C4
:102D5000C0B2044B1B6898421CBF024B18607047FE
:102D6000006006404408FF1F08B5FFF7EFFF10F0B2
:102D7000020FFAD00222014BDA7008BD0060064053
:102D80000B4B1B7813B90B4B1B7873B10A4B1B7899
:102D9000202B03D90123037100207047581C064AD9
:102DA0001070064AD154012070470020704700BFC0
:102DB0002E14FF1FF013FF1F2F14FF1FCC13FF1F34
:102DC000704700BF024B1878024B1B78C01A70473F
:102DD0002D14FF1F2C14FF1F074B1B78074A127876
:102DE0009A4205D9591C044A1170054AD05C7047B3
:102DF0004FF0FF30704700BF2C14FF1F2D14FF1F32
:102E0000F413FF1F054B1B78054A12789A4286BFC0
:102E1000044AD05C4FF0FF30704700BF2C14FF1FF6
:102E20002D14FF1FF413FF1F08B5104BDB7813F0B0
:102E3000200F0CD1122002F0DBFC0D4B1B689BB164
:102E400000210C4A11700C4A1078984708BD0B4AB3
:102E500013780133DBB21370012B02D8084B1B78B7
:102E600013B9122002F0C4FC08BD00BF0060064088
:102E7000C813FF1F2C14FF1F2D14FF1F1814FF1F52
:102E8000F013FF1F38B514460D4B1B7813B90D4BCB
:102E90001B7893B10C4B1D78C5F12103A34202D2DC
:102EA000012202711C4609482844224602F06CFBAC
:102EB0002544054B1D70204638BD002038BD00BF9D
:102EC0002E14FF1FF013FF1F2F14FF1FCC13FF1F23
:102ED000002202714FF47A7181600273014A02602C
:102EE000704700BFC02301000B4B1B6813F0400F5D
:102EF00010D00A4B994203D82C22094B5A7006E095
:102F0000084B994294BF1C221222054B5A7004228E
:102F1000034B9A71704700BF348004407F1A06004B
:102F2000006006403F420F0008B500232C4A137092
:102F30002C4A116841F0400111602B4A93702B4BD1
:102F40001B78122B04D14FF41972294B1A601AE026
:102F5000112B04D14FF41972264B1A6013E0222B67
:102F600004D140F26452244B1A600CE0082B04D1C7
:102F700040F26472214B1A6005E0302B03D14FF40C
:102F800019721F4B1A601F4B1B78132B04D14FF47F
:102F900019721D4B1A601AE0102B04D14FF41972EC
:102FA0001A4B1A6013E0212B04D140F26452184BE3
:102FB0001A600CE0072B04D140F26472154B1A60C2
:102FC00005E02F2B03D14FF41972134B1A601349EC
:102FD000FFF78AFF044B20225A7180229A7008BDA5
:102FE000F013FF1F34800440006006404108FF1FBB
:102FF0000CA0044004A0044064D004400CC0044071
:1030000024C004404808FF1F08A0044000A004405A
:1030100060D0044008C0044020C00440A0860100E5
:1030200008B53D4BDB78DBB213F0100F06D0102152
:10303000394AD17013F0400F03D108BD13F0400F8F
:103040002CD013F0040F1BD00023344A1370344AE1
:103050001370344B1B681BB19847314B1B782BB94D
:1030600001222F4B1A7000222F4B1A702A4BD022AC
:103070009A702D4A12781A7101222C4B1A7009E0AD
:103080000122264B1A700022294B1A70224BC022B3
:103090009A701B790222204BDA7008BD1E4A927882
:1030A00012F0100F1CD013F0010F14D11F4B1B781E
:1030B0001B4A12789A4207D9591C1C4A11701A4AA5
:1030C000D25C154B1A7102E00022134B1A71D02208
:1030D000114B9A701BE0104BC0229A701B7916E0BE
:1030E0000022144B1A7012201349032202F04CFCE8
:1030F000094B1B79DAB20E4B1B781F2B07D80749F7
:10310000097821B1581C0A4908700C49CA54022296
:10311000014BDA7008BD00BF00600640C513FF1FF9
:103120002F14FF1F1414FF1FCC13FF1F3014FF1F99
:103130002D14FF1F1814FF1F292E0000F413FF1F6A
:103140004900044B19700123034A1370034A13709A
:10315000704700BFCC13FF1F2E14FF1F2F14FF1F3B
:103160002DE9F04182B08846374B1222DA709B7805
:1031700013F0200F03D0B422334B9A701DE0334B71
:103180001B680093009D314C0CE023680193019B68
:103190005B1B0F2B06D92C4B00229A7080229A7051
:1031A00004204EE0FFF7D2FD10F0200FEDD10022F9
:1031B000274B1A70B022244B9A70FFF7C7FD10F00E
:1031C000200FFAD0234B1B787BB30024224E1E4DD8
:1031D000204F335D2B71FFF7B9FD10F0020F02D1C4
:1031E00010F0200FF7D10223EB70FFF7AFFD10F0C6
:1031F000100F04D08022144B9A70042018E010F0B5
:10320000200F04D18022104B9A70042010E010F09F
:10321000010F04D0002C0CBF022003200BE001346E
:10322000E4B23B78A342D4D801E0002000E00020C3
:10323000B8F1000F02D08022034B9A700022074B96
:103240001A7002B0BDE8F08100600640081BFF1F45
:10325000F013FF1F2F14FF1FCC13FF1F2E14FF1F8F
:103260002DE9F8430D461446984600233E4A137054
:103270003E4A13703E4B1222DA709B7813F0200FF7
:1032800003D0B4223A4B9A700AE0FFF75FFD10F0CA
:10329000200FFAD10022374B1A70B022344B9A70AB
:1032A0006D0045F00105EDB2314B1D71FFF75CFD7E
:1032B000FFF74CFD10F0110005D080222C4B9A70C6
:1032C0000020BDE8F88344B9B8F1000F0CBFA0227C
:1032D0008022274B9A70BDE8F883012C04D1244B3F
:1032E000A8229A701B7938E0214BA0229A701B7992
:1032F000012C32D900251E4E4FF0A8091E4FFFF7B2
:1033000033FD013CE4B2012C08BF86F802901F2D6A
:1033100004D86A1C33797B55D5B200E03379012C8F
:10332000EDD1FFF721FDB022114B9A701F2D07D868
:103330002B465D1CEDB20E4A11790F4AD15401E0C3
:103340000B4B1B79B8F1000F02D08022084B9A700A
:10335000064B1D702846BDE8F883FFF705FDB02237
:10336000034B9A700023E4E72C14FF1F2D14FF1F5A
:1033700000600640F013FF1FF413FF1F08B5012380
:10338000FFF76EFF08BD00BF08B50121FFF7E8FE9B
:1033900008BD00BF08B50248FFF79AFD08BD00BF91
:1033A0001C14FF1FFF22027342738273C2737047A3
:1033B0002DE9F8430446884690F90F30B3F1FF3FFA
:1033C0000DD1184B4FF00042DA6259631A46D36AA6
:1033D000002BFCDA134B986BC0B2BDE8F8830725CD
:1033E0000026B14601277600F6B2E07B494602F09E
:1033F00059FA07FA05F3607B03EA080102F052FA72
:10340000E07B394602F04EFAA07B02F06FFA08B179
:1034100046F00106013DB5F1FF3FE4D13046BDE87D
:10342000F88300BF00C00240F8B504460E461546BA
:1034300090F90C30B3F1FF3F10D14D4F3846217851
:10344000FFF77EFE38463146FFF79AFC384629469C
:10345000FFF796FC3846FFF797FFF8BD90F90F305D
:10346000B3F1FF3F48D1434B1B78002B35D072B6E8
:10347000404B1B7813F0010F07D03F4B19683F4AB0
:1034800012680A403E490A601A603A4B1B7813F0F2
:10349000020F07D03B4B1968384A52680A40384936
:1034A0004A601A60334B1B7813F0040F07D0364B79
:1034B0001968324A92680A4031498A601A602D4B75
:1034C0001B7813F0080F07D0304B19682B4AD268CD
:1034D0000A402B49CA601A6062B62D4BDA682D4B40
:1034E0009A4209D02A4B2C4A1A602A4ADA6002F121
:1034F00080421A61294A1A60207B002102F0D2F929
:10350000204606F07F01FFF753FF20462946FFF7CC
:103510004FFF207B012102F0C5F994F90F30B3F180
:10352000FF3F24D1134B1B780BB313F0010F03D0D3
:10353000134B1A681A4B1A600E4B1B7813F0020FCC
:1035400003D00F4B5A68174B1A600A4B1B7813F0C5
:10355000040F03D00A4B9A68134B1A60054B1B7873
:1035600013F0080F03D0064BDA68104B1A60F8BD51
:103570001C14FF1FC413FF1F80E100E0A413FF1FF2
:10358000B413FF1F84E100E088E100E08CE100E07B
:1035900000C002400650003801401F0000001F809C
:1035A00000E100E004E100E008E100E00CE100E0FF
:1035B00070B504460D4690F90C30B3F1FF3F15D1BC
:1035C000504E30462178FFF7BBFD30462946FFF7C5
:1035D000D7FB3046FFF7D8FE304621780122FFF7AF
:1035E000CDFE3046FFF7F8FBC5B289E090F90F3009
:1035F000B3F1FF3F48D1444B1B78002B35D072B656
:10360000414B1B7813F0010F07D0404B1968404A1B
:1036100012680A403F490A601A603B4B1B7813F05E
:10362000020F07D03C4B1968394A52680A403949A1
:103630004A601A60344B1B7813F0040F07D0374BE5
:103640001968334A92680A4032498A601A602E4BE0
:103650001B7813F0080F07D0314B19682C4AD26839
:103660000A402C49CA601A6062B62E4BDA682E4BAB
:103670009A4209D02B4B2D4A1A602B4ADA6002F18C
:1036800080421A612A4A1A60207B002102F00AF95E
:10369000204645F08001FFF78BFE20460021FFF712
:1036A00087FE0546207B012102F0FCF894F90F30DB
:1036B000B3F1FF3F24D1144B1B780BB313F0010F70
:1036C00003D0144B1A681B4B1A600F4B1B7813F076
:1036D000020F03D00F4B5A68174B1A600A4B1B7826
:1036E00013F0040F03D00B4B9A68144B1A60064B6F
:1036F0001B7813F0080F03D0064BDA68104B1A60E2
:10370000284670BD1C14FF1FC413FF1F80E100E09A
:10371000A413FF1FB413FF1F84E100E088E100E061
:103720008CE100E000C002400650003801401F005C
:1037300000001F8000E100E004E100E008E100E09B
:103740000CE100E070B504460D4690F90C30B3F181
:10375000FF3F1BD1574E30462178FFF7F1FC304632
:103760002946FFF70DFB3046FFF70EFE3046217865
:103770000222FFF703FE3046FFF72EFB05463046D8
:10378000FFF72AFB40EA052085B290E090F90F3060
:10379000B3F1FF3F48D1484B1B78002B35D072B6B0
:1037A000454B1B7813F0010F07D0444B1968444A6E
:1037B00012680A4043490A601A603F4B1B7813F0B5
:1037C000020F07D0404B19683D4A52680A403D49F4
:1037D0004A601A60384B1B7813F0040F07D03B4B3C
:1037E0001968374A92680A4036498A601A60324B33
:1037F0001B7813F0080F07D0354B1968304AD26890
:103800000A403049CA601A6062B6324BDA68324BFD
:103810009A4209D02F4B314A1A602F4ADA6002F1DE
:1038200080421A612E4A1A60207B002102F03AF889
:10383000204645F08001FFF7BBFD20460021FFF741
:10384000B7FD054620460021FFF7B2FD40EA0520FE
:1038500085B2207B012102F025F894F90F30B3F1F5
:10386000FF3F24D1144B1B780BB313F0010F03D08F
:10387000144B1A681B4B1A600F4B1B7813F0020F86
:1038800003D0104B5A68184B1A600B4B1B7813F07F
:10389000040F03D00B4B9A68144B1A60064B1B782D
:1038A00013F0080F03D0074BDA68114B1A60284653
:1038B00070BD00BF1C14FF1FC413FF1F80E100E098
:1038C000A413FF1FB413FF1F84E100E088E100E0B0
:1038D0008CE100E000C002400650003801401F00AB
:1038E00000001F8000E100E004E100E008E100E0EA
:1038F0000CE100E008B5FFF725FF031243EA0020C2
:1039000080B208BD10B504468821FFF7F3FF20827E
:1039100020468A21FFF7EEFF608220468C21FFF7C8
:10392000E9FFA08220468E21FFF7E4FFE0822046D7
:103930009021FFF7DFFF208320469221FFF7DAFF77
:10394000608320469421FFF7D5FFA083204696216F
:10395000FFF7D0FFE08320469821FFF7CBFF2084BC
:1039600020469A21FFF7C6FF608420469C21FFF77E
:10397000C1FFA08420469E21FFF7BCFFE08410BD5C
:1039800038B5044615460170007B43B2B3F1FF3FE2
:1039900003D11848FFF7C8FA19E0012101F082FFAE
:1039A000207B012101F0B0FFE07B43B2B3F1FF3F88
:1039B00002D1FFF75BF90AE0012101F0A5FF607B6E
:1039C000012101F0A1FFA07B002101F09DFF204615
:1039D000D021FFF7EDFDA84209D12046FFF792FF65
:1039E0002046F4213F22FFF71FFD012038BD0020B3
:1039F00038BD00BF1C14FF1F70B504460D4690F97A
:103A00000C30B3F1FF3F1ED15A4E30462178FFF7FC
:103A100097FB30462946FFF7B3F93046FFF7B4FC71
:103A2000304621780322FFF7A9FC3046FFF7D4F98E
:103A300005023046FFF7D0F9284305023046FFF76C
:103A4000CBF9054394E090F90F30B3F1FF3F48D133
:103A5000494B1B78002B35D072B6474B1B7813F0BF
:103A6000010F07D0454B1968454A12680A4045497D
:103A70000A601A60404B1B7813F0020F07D0424BCC
:103A800019683F4A52680A403E494A601A603A4BF8
:103A90001B7813F0040F07D03C4B1968384A926822
:103AA0000A4038498A601A60334B1B7813F0080FBC
:103AB00007D0374B1968324AD2680A403149CA6088
:103AC0001A6062B6334BDA68334B9A4209D0314BF5
:103AD000324A1A60304ADA6002F180421A61304A92
:103AE0001A60207B002101F0DDFE204645F08001B8
:103AF000FFF75EFC20460021FFF75AFC0502204636
:103B00000021FFF755FC2843050220460021FFF75E
:103B10004FFC0543207B012101F0C4FE94F90F30D6
:103B2000B3F1FF3F24D1144B1B780BB313F0010FFB
:103B300003D0144B1A681B4B1A600F4B1B7813F001
:103B4000020F03D00F4B5A68174B1A600A4B1B78B1
:103B500013F0040F03D00B4B9A68144B1A60064BFA
:103B60001B7813F0080F03D0064BDA68104B1A606D
:103B7000284670BD1C14FF1FC413FF1F80E100E026
:103B8000A413FF1FB413FF1F84E100E088E100E0ED
:103B90008CE100E000C002400650003801401F00E8
:103BA00000001F8000E100E004E100E008E100E027
:103BB0000CE100E010B50446FA21FFF71DFF228A50
:103BC000C2EB20235200C2EBE010B4F9122002FB3A
:103BD00000F003FB03F31B13B4F9142002FB03F3FF
:103BE0009B1303EBE020A06000EB8000803000120C
:103BF00007EE900AB8EEE70ADFED027A80EE270AB8
:103C000010BD00BF0000C8422DE9F04F83B08046D0
:103C1000FFF7D0FF4046F721FFF7EEFE8446D8F8C5
:103C20000800C117B0F5FA3041F1FF3100FB01F394
:103C3000A0FB00AB0BEB430BB8F82090B8F81E309C
:103C40000093B8F81C400194B8F91820D31702FB70
:103C500001F400FB0344A2FB002323441F0347EAB3
:103C600012571603B8F91A40E5170AFB05F304FBCF
:103C70000B33AAFB04451D44220A42EA05622B12BB
:103C8000921943EB0703003243F50043B8F816607E
:103C9000A2FB064506FB03556A10EB1752EA030622
:103CA00000F094800FFA89F6F7170AFB07F406FB79
:103CB0000B44AAFB06ABA344009E36B2F71706FBE3
:103CC00001F100FB0715A6FB000129444D0445EA5C
:103CD000D03544041AEB040A4BEB050B4FEA2C1CBD
:103CE000CCF5801C4FEAEC71CD0745EA5C054FEA44
:103CF000CC74019E36B23046C700002616EB0A0689
:103D000047EB0B07A41B65EB0705261945EB0507D9
:103D1000361947EB0507B90141EA9661B00136183B
:103D200047EB0107B90041EA9671B000061941EB73
:103D30000507B90041EA9671B000001941EB050191
:103D40000AF080F8420B42EAC1424B13B8F9264010
:103D5000E51704FB03F602FB0566A4FB02453544A8
:103D600002FB05F504FB0355A2FB04232B44540E70
:103D700044EAC3145D16241845EB0105B8F9242064
:103D8000D31702FB01F100FB0313A2FB000119444E
:103D9000C20C42EA4132CB14121943EB0503100A5C
:103DA00040EA03601912B8F92240E5172B0143EAF3
:103DB00014732201801841EB03010AF005F89FED0E
:103DC000060A07EE900A27EE800A01E09FED030A3B
:103DD00003B0BDE8F08F00BF0000803B0000000092
:103DE00008B52DED028BB0EE408AFFF70DFFDFED39
:103DF000167A80EE270A80EE080A10EE100A09F003
:103E00008DFB41EC100B9FED0C1B06F05FFC0020BE
:103E10000E4953EC102B09F021FA09A3D3E9002332
:103E200009F0D0FB09F0B0FE00EE100ABDEC028BE9
:103E300008BD00BFAFF3008000000020C05BC83F9A
:103E40000000000040A5E5400000C8420000F03F2F
:103E5000014B0360704700BF7823010070B584B048
:103E600004460E4600238DF80F30594D2B685B68D1
:103E70002846584913229847284602F0DFFE002EB4
:103E80006AD020460C21FEF779FD60B9002384F842
:103E90007D312B685B6828464F4913229847284696
:103EA00002F0CCFE58E0012684F87D6120463146C0
:103EB000FEF722FD464D2B685B68284647491222D3
:103EC0009847284602F0BAFE0DF10F0300932046F2
:103ED00003A90DF10D020DF10E03FEF79FFD2B68F6
:103EE0005B6828463E491122984728469DF80C10E9
:103EF0000A22002302F0C8FE2B685B682846394975
:103F00000622984728469DF80D100A22002302F049
:103F1000BBFE2B685B682846334907229847284632
:103F20009DF80E100A22002302F0AEFE2B685B689B
:103F300028462E490522984728469DF80F100A2248
:103F4000002302F0A1FE2B685B6828462849324610
:103F50009847284602F072FE1D4D2B685B68284684
:103F6000244913229847284602F068FE04F1100005
:103F700077215822FFF704FD48B92B685B68284673
:103F80001D4913229847284602F058FE17E00123E6
:103F900084F87C310E4D2B685B6828461749122245
:103FA0009847284602F04AFE09E040F8082C40F8FD
:103FB000042C026041601430013BF6D105E004F1AD
:103FC00058000F2300220021EFE704B070BD00BFAE
:103FD000001CFF1FD8230100EC2301000024010076
:103FE0001424010028240100302401003824010099
:103FF000B42201004024010054240100682401007F
:1040000070B52DED028B0646154C164D9FED168AA8
:104010001EE023685B68204629461222984706F175
:104020001000B0EE480AFFF7DBFE10EE100A09F0B0
:1040300075FA02460B4620460C4902F017FE23682B
:104040005B6820460A4901229847204602F0F6FDA7
:1040500002F0DCFC0028DCDDBDEC028B70BD00BF93
:10406000001CFF1FBC24010000507D44D02401002F
:10407000B4220100F0B597B00546234C234F244EDF
:104080003CE004A829461A22FEF70AFD0AA82946A0
:104090002822FEF705FD10A829462E22FEF700FD76
:1040A000DDE90623CDE90023DDE90823CDE902237C
:1040B00020463946DDE9042302F0D8FDDDE912236C
:1040C000CDE90023DDE91423CDE902232046314662
:1040D000DDE9102302F0CAFDDDE90C23CDE9002360
:1040E000DDE90E23CDE9022320460A49DDE90A2352
:1040F00002F0BCFD4FF4FA6001F090FE02F086FC85
:104100000028BEDD17B0F0BD001CFF1FD824010041
:10411000FC240100242501002DE9F04184B08046F3
:1041200000258DF80F50344C23685B6820463349D6
:1041300016229847204602F081FD314F314E0DF195
:104140000F030093404603A90DF10D020DF10E037C
:10415000FEF764FC23685B682046394611229847C5
:1041600020469DF80C100A22002302F08DFD2368E2
:104170005B68204631460622984720469DF80D1080
:104180000A22002302F080FD23685B6820461E4956
:104190000722984720469DF80E100A22002302F0BD
:1041A00073FD23685B68204618490522984720461E
:1041B0009DF80F100A22002302F066FD23685B6859
:1041C0002046134901229847204602F037FD9DF80A
:1041D0000E30022B07D901354FF4967001F01EFE08
:1041E000042DACDD05E04FF4967001F017FE0025BC
:1041F000A5E704B0BDE8F081001CFF1F4C250100BD
:104200001424010028240100302401003824010076
:10421000B422010000B585B000238DF80F300DF1F8
:104220000F03009303A90DF10D020DF10E03FEF72C
:10423000F5FB05B05DF804FB10B52DED068B8CB0D9
:104240000446684621462E22FEF72AFC06A821468F
:104250002822FEF725FCDDE9000109F095FC09EEB6
:10426000100ADDE9020109F08FFC08EE900ADDE991
:10427000040109F089FC08EE100ADDE9060109F0E5
:1042800083FC0AEE900ADDE9080109F07DFC0AEEE4
:10429000100ADDE90A0109F077FC09EE900A29EE1F
:1042A000097A68EEA87A37EE277A68EE087A77EE10
:1042B000277A17EE900A09F031F941EC100B9FEDC7
:1042C0001A1B06F003FA1A4B03F2BC4282ED009A65
:1042D00003F59862C2ED008A03F2C44282ED008ABF
:1042E00003F59962C2ED00AA03F2CC4282ED00AA66
:1042F00003F59A63C3ED009A2046FFF78BFF29EE82
:104300002A0A68EE8A8A30EE280A28EE298A30EED8
:10431000080ADFED087A80EE270A0CB0BDEC068BA8
:1043200010BD00BFAFF30080000000000000E03FC0
:10433000B415FF1FC3F51C4184B030B58DB00546E0
:1043400011AC84E80E00684629461A22FEF7A8FB45
:1043500006A829461422FEF7A3FB254C04F59C650C
:10436000DDE9000109F010FC286004F59D65DDE938
:10437000020109F009FC286004F2E445DDE90401CA
:1043800009F002FC286004F2D445DDE9060109F0D9
:10439000FBFB286004F2DC45DDE9080109F0F4FBD1
:1043A000286004F59B65DDE90A0109F0EDFB286052
:1043B000149BC4F8A43404F59563119A1A6004F2AE
:1043C000AC43129A1A6004F59763139A1A6004F2C8
:1043D000EC43169A1A6004F59E63179A1A6004F269
:1043E000F444189B23600DB0BDE8304004B0704722
:1043F000B415FF1F13680B6053684B6093688B60A4
:10440000D368CB6013690B61704700BF84B070B58F
:104410002DED028B054607A880E80E0005F5BE715C
:1044200005F15006A1F1140428462246FFF7E2FFE9
:104430002146B442F6D100230B93284605F15001E2
:1044400007AAFFF7D7FF9DED0A6AF8EE466A05F561
:10445000BC720F239FED447A12ED016AF8EE467AA2
:1044600077EEE67AC7EE877A17EE901A42F81419BB
:10447000013BF1D105F160030022DFED3C6AB0EEB3
:10448000665AF0EE665AB0EE666AD3ED007A36EE02
:10449000276A27EEA77A75EE875A13ED047A35EE70
:1044A000075A67EE877A76EEA76A013214330F2A2D
:1044B000EBD126EE058AF2EE0E7A66EEA76A38EEAA
:1044C000668A26EE066A65EEA77A76EE677A88EE49
:1044D000278A274B83ED008A05F174000823DFED5E
:1044E000237AF6EE005A50ED076A10ED027A76EE66
:1044F000876A66EEA56A10ED056A0246143092EDF1
:10450000007A36EE477A26EE877A77EE877A013B95
:10451000E9D1184BC3ED007A38EE278AB0EE480A8D
:1045200005F0BAFF90B1DFED147AB4EEE78AF1EE50
:1045300010FA0EDCFAEE047AB4EE678AF1EE10FAA5
:10454000DFED0A7A48BFB0EE678A04E09FED078A84
:1045500001E09FED068AB0EE480ABDEC028BBDE893
:10456000704004B0704700BF002474490000000090
:10457000641AFF1F681AFF1F0000964330B585B00C
:1045800005460C4610309FED1B0AFFF729FCD5EDC0
:10459000117A30EE670A84ED000A95F848304BB185
:1045A000154B1B680393039B4FF47A7202FB03F3D2
:1045B000E36002E001F00EFCE060E3680F4A934222
:1045C00084BF012385F848302846FFF735FE84ED87
:1045D000020A04F10C0393E803008DE8030094E859
:1045E0000E002846FFF712FF84ED010A012005B0F6
:1045F00030BD00BF00507D44081BFF1F00EA56FA83
:1046000038B5054610309FED0D0AFFF7E9FB85ED43
:10461000110A0B4C23685B6820460A49162298470A
:10462000686C08F07BFF41EC100B2046022102F081
:1046300073FB204602F002FB38BD00BF00507D44F2
:10464000001CFF1F6425010010B50C4C20464FF0E4
:10465000FF312822FEF724F904F11000FEF7A2FE34
:10466000002384F8483084F87C3184F87D3120467A
:104670000349044A09F0C2FE10BD00BF3414FF1FF5
:10468000513E00003C08FF1F037C13F0080F04D0CC
:10469000C26A436AD01A02D47047002070476FF094
:1046A0000040704708B51030FCF740FD08BD00BF62
:1046B00000B583B002AB03F8011D1030194601228A
:1046C000FCF734FD03B05DF804FB00BF08B5103003
:1046D000FCF76CFC08BD00BF08B51030FCF792FB7E
:1046E00008BD00BF00B583B010300DF107010122F5
:1046F000FCF7C4FA01280CBF9DF807004FF0FF300B
:1047000003B05DF804FB00BFF0B58FB0044600F5C0
:1047100094652846FDF7CEFE00B3264646F8405F76
:1047200004F27C473846FCF785FC30460121FDF752
:104730007BFB20B930460021FDF776FB70B138468F
:104740003146FCF77FFA034640B194F87C2412F01E
:10475000700F1ABF2D4A176000236BB92C4D2B68C0
:104760005B6828462B4914229847284602F066FACF
:10477000002384F83C3046E0254D2B685B682846D2
:10478000254913229847284602F058FA012384F855
:104790003C3000228DF814208DF815208DF808206B
:1047A0004FF47A7103918DF810201C4A019205A8EC
:1047B00039461B4AFCF746FC9DF814303BB113F018
:1047C000080F04D00C9A0A9BD31A17D4B3B9104C13
:1047D00023685B68204613491922984723685B6861
:1047E00020460F491122984723685B6820460E49EE
:1047F00017229847204602F021FA04E00C9BA3639D
:1048000005A8FCF717FC0FB0F0BD00BF5413FF1F45
:10481000001CFF1FA0250100B8250100882501000C
:10482000CC250100E0250100FC250100F0B599B080
:10483000064600238DF83C308DF83D308DF8303041
:104840004FF47A720D928DF838305C4B0B930FA8B1
:1048500006F27C415A4A6323FCF7F4FB9DF83C3096
:10486000002B00F0A880D6F8A44406F595631868DC
:1048700008F054FECDE9000106F2AC43186808F0D8
:104880004DFECDE9020106F59763186808F046FE73
:10489000CDE9040106F59663186808F03FFECDE9FE
:1048A000060106F2B443186808F038FECDE90801A5
:1048B0000BA84449224602F0D9F9434F06F2BC4303
:1048C000186808F02BFE04460D4606F59863186834
:1048D00008F024FECDE9000106F2C443186808F090
:1048E0001DFECDE9020106F59963186808F016FE71
:1048F000CDE9040106F2CC43186808F00FFECDE9BB
:10490000060106F59A63186808F008FECDE908016B
:104910000BA8394622462B4602F0A8F906F2D443EA
:10492000186808F0FBFD04460D4606F59B63186801
:1049300008F0F4FDCDE9000106F2DC43186808F048
:10494000EDFDCDE9020106F59C63186808F0E6FD6F
:10495000CDE9040106F2E443186808F0DFFDCDE973
:10496000060106F59D63186808F0D8FDCDE9080139
:104970000BA8394622462B4602F078F906F59F63CC
:10498000186808F0CBFD02460B46B6F9FC140091FE
:10499000B6F9FE1401910BA80C4902F067F90B9BC4
:1049A0005B680BA80A49002298470BA802F046F959
:1049B0000FA8FCF73FFB19B0F0BD00BF8825010030
:1049C000142601002426010044260100642601006B
:1049D0004825010030B59BB000F27C443E4D204696
:1049E0002946FCF78BFB20463C49FCF787FB00235C
:1049F0008DF810308DF811308DF804304FF47A7244
:104A000002928DF80C30364B009304A821462A46BA
:104A10006323FCF717FB9DF8103053B9314D2B6819
:104A20005B68284630491F229847284602F006F95D
:104A30000DE01AAD55F8683D5B6868462B49D222F7
:104A40009847684602F0FAF804A8FCF7F3FA002346
:104A50008DF844308DF845308DF838304FF47A7247
:104A60000F928DF840301E4B0D9311A821461B4A22
:104A70006323FCF7E7FA04AC11AD0FCD0FC40FCDE3
:104A80000FC42B6823609DF838308DF804300F9BDD
:104A900002939DF840308DF80C309DF8103053B9DA
:104AA000104C23685B6820460F491F229847204618
:104AB00002F0C4F80DE01AAC54F8683D5B68684633
:104AC0000B490E229847684602F0B8F804A8FCF794
:104AD000B1FA1BB030BD00BF14260100A0260100B2
:104AE00088250100001CFF1FD8260100F8260100C0
:104AF000CC2701000B4B00221A745A741A714FF420
:104B00007A7199601A73084919605A6383F83C20D6
:104B100083F8472083F87C2483F87D24034AC3F874
:104B2000A0247047B415FF1F8825010058230100F9
:104B300008B50220012100F0E7FE0320012100F06A
:104B4000E3FE0620012100F0DFFE0420002100F03A
:104B5000DBFE0520002100F0D7FE1620002100F02A
:104B6000D3FE1720002100F0CFFE08BD00B583B0B2
:104B700070EEC00ADFED127A60EEE70ADFED117A1F
:104B8000F4EEE70AF1EE10FA09DAF5EE400AF1EE7A
:104B900010FADFED0D7A98BFF0EE670A01E0DFED65
:104BA000090A436B826B0092FDEEE00A10EE900A58
:104BB0000021642202F0DCF903B05DF804FB00BFC1
:104BC000000048420000C84200000000D0B5064680
:104BD000174641B10220012100F064FE03200021AC
:104BE00000F060FE07E00220002100F05BFE0320E1
:104BF000012100F057FE172000F078FE041C18BFBA
:104C00000124162000F072FE003018BF01200D4B69
:104C100083F8014583F800052CB158B106203946C8
:104C200000F032FFD0BD0620002100F02DFF336CD4
:104C30007363D0BD0620002100F026FF336CB36300
:104C4000D0BD00BFB415FF1F10B50446416400F08D
:104C5000F9FBE26B002A05DB13480121D2B2FFF712
:104C6000B5FF05E0524210480021D2B2FFF7AEFF77
:104C70000D4B1A6C636CD31A002BB8BF5B42032B2D
:104C800008DC0A4A13780133DBB21370072B05D80E
:104C9000002010BD0020054B187010BD0022034BF2
:104CA0001A70012010BD00BFB81AFF1F001BFF1FA4
:104CB0002DE9F04182B00446162501273C2604E088
:104CC000204639463246FFF781FF284600F00EFEA7
:104CD0000028F5D1236CA3634FF47A7001F09EF89D
:104CE000172500273C2604E0204639463246FFF7C8
:104CF0006DFF284600F0FAFD0028F5D1236C6363B0
:104D00004FF47A7001F08AF80F2502E0284601F08E
:104D100085F801F07BFE30B92046B4F93410FFF776
:104D200093FF0028F2D0204601210022FFF74EFF1A
:104D3000904800F065FB4FF4967001F06FF84FF06B
:104D400019080027642602E00F2001F067F801F03F
:104D50005DFE68B9636BA56B0095404639463246E7
:104D600002F006F901B22046FFF76EFF0028EBD0F3
:104D7000204601210022FFF729FF7E4800F040FB7A
:104D80004FF4967001F04AF84FF03208002764267D
:104D900002E00F2001F042F801F038FE68B9636BC1
:104DA000A56B009540463946324602F0E1F801B263
:104DB0002046FFF749FF0028EBD0204601210022C2
:104DC000FFF704FF6B4800F01BFB4FF4967001F0F7
:104DD00025F84FF04B080027642602E00F2001F071
:104DE0001DF801F013FE68B9636BA56B0095404692
:104DF0003946324602F0BCF801B22046FFF724FFE4
:104E00000028EBD0204601210022FFF7DFFE5948A1
:104E100000F0F6FAC82001F001F8642700260F25FB
:104E200002E0284600F0FAFF01F0F0FD68B9636B7C
:104E3000A26B0092384631463A4602F099F801B228
:104E40002046FFF701FF0028EBD020460121002279
:104E5000FFF7BCFE474800F0D3FA4FF4967000F01D
:104E6000DDFF4FF04B080027642602E00F2000F022
:104E7000D5FF01F0CBFD68B9636BA56B009540468B
:104E80003946324602F074F801B22046FFF7DCFEE4
:104E90000028EBD0204601210022FFF797FE35487D
:104EA00000F0AEFA4FF4967000F0B8FF4FF0320801
:104EB0000027642602E00F2000F0B0FF01F0A6FDFD
:104EC00068B9636BA56B009540463946324602F0DF
:104ED0004FF801B22046FFF7B7FE0028EBD020467E
:104EE00001210022FFF772FE224800F089FA4FF4F8
:104EF000967000F093FF4FF019080027642602E037
:104F00000F2000F08BFF01F081FD68B9636BA56B8A
:104F1000009540463946324602F02AF801B2204652
:104F2000FFF792FE0028EBD0204601210022FFF778
:104F30004DFE104800F064FA4FF4967000F06EFFDA
:104F40000F2502E0284600F069FF01F05FFD30B94F
:104F50002046B4F93410FFF777FE0028F2D020463F
:104F600001210022FFF732FE024800F049FA02B0A8
:104F7000BDE8F081041BFF1F2DE9F0472DED048BE8
:104F80009CB0DFF8BC81674D40462946FCF7B6F877
:104F900000268DF818608DF819608DF80C604FF4BC
:104FA0007A7304938DF814601CAC5F4B44F8683D31
:104FB00006A841462A466323FCF744F8029B5B6837
:104FC00020465A490D229847204601F037FE06A890
:104FD000FCF730F800F0FEFE8046DFF88C91DFF839
:104FE0008CA19FED538ADFED539A9FED539ADFED2D
:104FF000538A00238DF84C308DF84D308DF84030B9
:105000004FF47A7211928DF84830474B0F9313A8E2
:105010004B49444A6323FCF715F806AC13AD0FCD9A
:105020000FC40FCD0FC42B6823609DF840308DF85E
:105030000C30119B04939DF848308DF8143000F02B
:10504000C9FEC8EB00043F4B9C423CD93E4B9C42FE
:1050500012D8A4F57423A3F5107307EE103AF8EEF6
:10506000477AC7EE887A67EEA87AFCEEE77A17EE01
:10507000906AF6B2012731E0344B9C4226D9344B7A
:105080009C4226D94C4514D8A4F57413A3F510639B
:1050900007EE103AF8EE477AC7EE887A67EEA97AFB
:1050A00077EE897AFCEEE77A17EE906AF6B201277E
:1050B00014E0284B9C420FD9544598BF0026544514
:1050C00098BF01270AE0FF26012707E000260127F5
:1050D00004E03F26012701E0FF2600271E4D284659
:1050E00039463246FFF772FD2B6C0097019302A8F8
:1050F0001A492246334601F0B9FD029B5B6802A8BB
:1051000017490022984702A801F098FD06A8FBF76E
:1051100091FF144B9C427FF66CAF1CB0BDEC048B2E
:10512000BDE8F087DC27010088250100F027010099
:10513000002474490000404300007C4200007F438B
:10514000301AFF1F3F420F007F841E00BFC62D0094
:10515000FF083D007F8D5B00B81AFF1F002801008B
:1051600048250100FF117A003F4B4C00BFCF6A0079
:1051700010B582B00F4C6FF0FE030093FF23019334
:10518000204604F1400104F13C0204F144039FED88
:105190000A0AF6EE000A9FED091ADFED091A00F07F
:1051A0003DF900236363FA22A263E363636402B000
:1051B00010BD00BFB81AFF1F37894940E71DA73D42
:1051C0000000F44338B5464C23685B6820464549E7
:1051D0003A229847204601F031FD23685B6820465B
:1051E00041493B229847204601F028FD23685B682F
:1051F00020463E493B229847204601F01FFD236888
:105200005B6820463A493B229847204601F016FD4C
:1052100023685B68204637493B229847204601F0C7
:105220000DFD23685B68204633493B2298472046A2
:1052300001F004FD2368314D5B68204629460022B9
:105240009847204601F0FAFC23685B6820462C4909
:1052500037229847204601F0F1FC23685B6820461E
:1052600028491C229847204601F0E8FC23685B6827
:105270002046294600229847204601F0DFFC23689B
:105280005B68204620494C229847204601F0D6FC16
:1052900023685B6820461D4938229847204601F064
:1052A000CDFC052000F0BAFD23685B682046184954
:1052B00030229847204601F0C1FC23685B682046F5
:1052C000144940229847204601F0B8FC23685B68E7
:1052D0002046294600229847204601F0AFFC38BD01
:1052E000001CFF1F80280100BC280100F8280100D5
:1052F0003429010070290100AC2901004825010072
:10530000E8290100202A0100402A0100902A01001A
:10531000CC2A0100002B010010B52E4C23685B68DD
:1053200020462D4900229847204601F087FC23683B
:105330005B68204629491E229847204601F07EFCE2
:1053400023685B68204626491D229847204601F0C5
:1053500075FC23685B682046224915229847204641
:1053600001F06CFC23685B6820461F4919229847AE
:10537000204601F063FC23685B6820461B491B2222
:105380009847204601F05AFC23685B68204618497C
:1053900028229847204601F051FC23685B6820468C
:1053A00014491C229847204601F048FC23685B689A
:1053B0002046114920229847204601F03FFC2368EF
:1053C0005B6820460D4914229847204601F036FCC0
:1053D00010BD00BF001CFF1F48250100442B010029
:1053E000642B0100842B01009C2B0100B82B0100D1
:1053F000D42B0100002C0100202C0100442C0100C2
:1054000010B5022404E0204600F008FD01F0B2FAD5
:1054100001F0FCFA0028F6DC10BD00BF30B4002516
:10542000456242610161836180ED000AC0ED010ABD
:1054300080ED021AC0ED031A029BC362039B036353
:1054400030BC704738B5044603691A6883691B6825
:105450009D1A00F0BFFCA36AC31A06EE903AF8EE5C
:10546000666ADFED457AC6EEA76A04EE905AB8EE9A
:10547000E47AD4ED087A77EE677A94ED016A27EE44
:10548000866A26EE266AD4ED075A36EE256A84ED42
:10549000076AC7EEA67AD4ED025A67EEA55A94EDD4
:1054A0000C5AF8EEC57AB4EEE76AF1EE10FA02DDB6
:1054B000C4ED077A0AE0D4ED0B4AB8EEE45AB4EE34
:1054C000C56AF1EE10FA48BF84ED075A9FED2B6ACA
:1054D000F4EEC66AF1EE10FA06DDD4ED006A67EE6E
:1054E000266A0023E36109E0D4ED006A67EE266ACC
:1054F00094ED076A76EE866A76EEA56AF4EEE76AC0
:10550000F1EE10FA0ADC94ED0B5AF8EEC57AF4EEDF
:10551000E76AF1EE10FA58BFF0EE667ADFED186A2E
:10552000F4EEE67AF1EE10FA06D5F2EE046AF4EE45
:10553000E67AF1EE10FA12DCDFED126AF4EEE67AAA
:10554000F1EE10FA0DDDFAEE046AF4EE667AF1EE91
:1055500010FADFED0C6A48BFF0EE667A01E0DFED8D
:10556000087A6369FDEEE77AC3ED007AC4ED095A63
:1055700084ED087AA06238BD002474493108AC3C3F
:1055800000007042000070C2844641EA000313F03C
:1055900003036DD1403A41D351F8043B40F8043B3A
:1055A00051F8043B40F8043B51F8043B40F8043BFD
:1055B00051F8043B40F8043B51F8043B40F8043BED
:1055C00051F8043B40F8043B51F8043B40F8043BDD
:1055D00051F8043B40F8043B51F8043B40F8043BCD
:1055E00051F8043B40F8043B51F8043B40F8043BBD
:1055F00051F8043B40F8043B51F8043B40F8043BAD
:1056000051F8043B40F8043B51F8043B40F8043B9C
:1056100051F8043B40F8043B403ABDD2303211D33C
:1056200051F8043B40F8043B51F8043B40F8043B7C
:1056300051F8043B40F8043B51F8043B40F8043B6C
:10564000103AEDD20C3205D351F8043B40F8043B3C
:10565000043AF9D2043208D0D2071CBF11F8013B3A
:1056600000F8013B01D30B8803806046704700BF00
:10567000082A13D38B078DD010F003038AD0C3F10F
:105680000403D21ADB071CBF11F8013B00F8013BF1
:1056900080D331F8023B20F8023B7BE7043AD9D3B0
:1056A000013A11F8013B00F8013BF9D20B78037085
:1056B0004B7843708B78837060467047024B1A6852
:1056C00001321A60704700BF081BFF1F08B50D4C60
:1056D000236813F4802F01D000F030FD236813F409
:1056E000806F01D002F09EF8236813F4006F01D0A0
:1056F00002F05AFC236813F4805FE9D002F018FF2F
:10570000E6E700BF3480044008B5FFF7DFFF00BFC5
:105710001022014B1A80704700200540704700BFDF
:10572000024A136818441060184670474C08FF1F5F
:10573000FEE700BFEFF31383ABB9EFF31083ABB910
:10574000EFF3058323B10F2B05D9094A985C03E0D9
:105750004FF4807000E00020EFF311833BB18342EF
:1057600038BF184670474FF0FF3070470020704731
:10577000F0E300E00B4B1B78DBB2802B0ED10A4A22
:105780000A4B1A60002203F5573303F2BD331A7037
:10579000044A1378DBB2802BFBD001E00020704775
:1057A0000120704703E007400000282244800440A5
:1057B0000B4B1B78DBB2012B0FD1602203F180432E
:1057C00003F5FC231A70064A1378DBB2802BFBD159
:1057D000044A054B1A60012070470020704700BF43
:1057E00003E007400000060244800440704700BF09
:1057F0001D4B03EBC000436803F14042A2F5922227
:105800007C2A18D903F14042A2F594227C2A14D9AB
:1058100003F14042A2F596227C2A10D903F14042BE
:10582000A2F598227C2A0CD903F14042A2F59A22D3
:105830007C2A08D970470D4906E00D4904E00D495E
:1058400002E00D4900E00D4972B61A6822F0877235
:1058500022F4803242F080721A60C3F38403084A53
:1058600041F8232062B670475C2C01005008FF1FEE
:10587000C808FF1F2809FF1F5809FF1F9809FF1FAD
:10588000ED570000044B00221A6004490A60044AE4
:10589000106010221A60704714D0034004D00340F7
:1058A00000D003403F281ED80F4B53F8303093F8F8
:1058B000802212F0FF0F08D019B1012283F8802056
:1058C0007047012283F800217047074B03EBC000AB
:1058D000436821B11A6842F003021A6070471A68DF
:1058E00022F002021A6070475C2C01003F2806D8A3
:1058F000044B53F8303093F80002C0B270470020D8
:10590000704700BF5C2C01003F283AD81D4B03EBC9
:10591000C0035B68012919D0042925D0194A52F81F
:105920003020002082F8800219B94FF480721A608A
:105930007047022903D140F203121A60704703290D
:105940000CBF4FF4817200221A6070470D4A52F862
:105950003020012182F880124FF4A2721A601A6876
:1059600022F020021A607047064A52F830200121C6
:1059700082F880124FF4A2721A601A6842F0200274
:105980001A6070475C2C010070B50D463F2861D845
:10599000042A5FD8DFE802F00709050B03000B2398
:1059A00006E00A2304E0082302E00C2300E00923B8
:1059B0001E04294B03EBC0035C68236813F4E06FFB
:1059C00002D10021FFF7A0FF244B254AC3F82C2168
:1059D000244AC3F83021244AC3F83421234AC3F8A7
:1059E0003821234AC3F83C2104F14043A3F5922314
:1059F0007C2B18D904F14042A2F594227C2A14D9B8
:105A000004F14043A3F596237C2B10D904F14043C5
:105A1000A3F598237C2B0CD904F14043A3F59A23DA
:105A20007C2B08D970BD134906E0134904E01349E3
:105A300002E0134900E0134972B6236823F470238F
:105A40002360C4F3840241F8225043F080731E4364
:105A5000266062B670BD00BF5C2C01000002FF1F13
:105A60001108FF1FE507FF1FB907FF1F8D07FF1F65
:105A70006107FF1F5008FF1FC808FF1F2809FF1FED
:105A80005809FF1F9809FF1F10B50446A0F14203F3
:105A9000DBB2012B15D8974B1B780B2B03D8C3F126
:105AA0000C03994003E00C2B84BF0C3B1941422CA2
:105AB00003D1084601F024FB10BD084601F03CFB71
:105AC00010BD8C4B1B78012202FA03F0002908DC80
:105AD00020460021FFF7E6FE20460121FFF714FFD4
