:1000000000000320D1010000C15000008550000015
:10001000855000008550000085500000855000008C
:10002000855000008550000085500000C150000040
:10003000C150000085500000C15000007550000004
:10004000C1500000C1500000C1500000C15000006C
:10005000C1500000C1500000C1500000C15000005C
:10006000C1500000C1500000C1500000C15000004C
:10007000C1500000C1500000C1500000C15000003C
:10008000C1500000C1500000C1500000C15000002C
:10009000C1500000C1500000C1500000C15000001C
:1000A00009300000C1500000C1500000C1500000E4
:1000B000C1500000C1500000C1500000456F000059
:1000C000C1500000C9760000C1500000517C000002
:1000D000C15000007D820000C1500000C1500000EE
:1000E000C1500000C1500000C1500000C1500000CC
:1000F000C1500000C1500000C1500000C1500000BC
:10010000C1500000C1500000C1500000C1500000AB
:10011000C15000008D570000C1500000C1500000C8
:10012000C1500000C1500000C1500000C15000008B
:10013000C1500000C1500000C1500000C15000007B
:10014000C1500000C1500000CD870000C150000028
:10015000C1500000C1500000C1500000C15000005B
:10016000C1500000C1500000C1500000C15000004B
:10017000C1500000C1500000C1500000C15000003B
:10018000C150000059250000C1500000C1500000BE
:10019000C1500000C15000002D8E0000C150000071
:1001A000C1500000C1500000C1500000C15000000B
:1001B000C1500000C1500000C1500000C1500000FB
:1001C000C1500000C1500000C1500000C1500000EB
:1001D0005C4B4CF2205210B51A804DF628121A8052
:1001E00000BF00BF04F070FF574B4FF030621A6041
:1001F000564A9A60564ADA60564B4FF470021A60BB
:10020000554B564A1A60564B1A6812F4807204D144
:1002100054490A604FF4A8521A60534B1A781107D8
:1002200003D51A7842F008021A70504B504C5148CE
:10023000AA221A70504A00239918A14203D21958D1
:1002400099500433F8E74D4B4D4900228B4202D2BE
:1002500043F8042BFAE74B484B4900235A581A50ED
:100260000433B3F5E87FF9D1484B494A802103F8BC
:10027000011B9342FBD1474B424A1A60464B8A22EC
:100280001A70A3F5805324225A70A0221A709A790A
:100290009207FCD59A79D406FCD4404B9A7902F0A7
:1002A0000C02082AFAD13E4B60221A7002331A78E7
:1002B000802AFCD1394B01221A715D225A719A7938
:1002C0009006FCD59979354A4906FBD5354B364918
:1002D00019600021596020231370937903F00C03F7
:1002E0000C2BFAD1314B324A1A60324B324A1A6027
:1002F00000225A60072243F8042C304AC3F80C2D20
:1003000062B605F0C9F8174B1B68DA0705D52C480B
:1003100004F094FF2B4B2C4A1A602C4B1B785B0685
:1003200009D5284C284A2368934204D1244804F074
:1003300085FF002323600BF049FB04F0CBFE05F0A2
:1003400099FFFEE70E20054030800440823F040004
:100350000100002B88ED00E0002008E0030000858C
:1003600010D0034014D0034002D0074000E0074003
:100370007C13FF1FB40D01006007FF1F7C13FF1FDC
:100380000420FF1F0002FF1F0000000000E400E047
:1003900064E400E008ED00E0005006400040064044
:1003A00001E007404480044000000602048004404D
:1003B000C010070014E000E01FBF02000000202072
:1003C000E46582001CE00340A5C3945A00F0074096
:1003D000FFFFFFFFFFFFFFFFFFFFFFFFFFFFFFFF2D
:1003E000FFFFFFFFFFFFFFFFFFFFFFFFFFFFFFFF1D
:1003F000FFFFFFFFFFFFFFFFFFFFFFFFFFFFFFFF0D
:10040000FFFFFFFFFFFFFFFFFFFFFFFFDEF9FFFF23
:1004100010B5054C237833B9044B13B10448AFF33E
:1004200000800123237010BD7C13FF1F000000001B
:10043000AC0D010008B5064B1BB106480649AFF3E9
:1004400000800648036813B1054B03B1984708BD07
:1004500000000000AC0D01008013FF1F7C13FF1F84
:100460000000000084B02DE9F04F2DED028BC1B0EB
:1004700006464DAC84E80E009DED4E7A50990591EC
:1004800033ACA24D0FCD0FC40FCD0FC42B6823602A
:10049000DDED4D6ACDED066A8DED077A9DED4F6A73
:1004A0008DED086A9A4B1A680599891A07EE901A19
:1004B000F8EE677ADFED975AC7EEA57A059A1A60CB
:1004C00027EEA75AF6EE005A25EE255A8DED0C5A66
:1004D000CDED0D7A4FF07E530E93CDED347A8E4BE9
:1004E00083FB0613F617C6EBE31636B2C6F1010618
:1004F00007EE906AB8EEE75A9FED888A25EE088AE3
:10050000DFED877A38EE278ADFED867A25EE275AE7
:1005100075EE277ADFED844A77EEA47A28EE278AF3
:10052000DFED827A67EE277A27EE877A67EE255A23
:1005300028EE258A9FED7E5A88EE058ADFED7D7ACA
:1005400037EEC88AF2EE047AB4EEE76AF1EE10FAFA
:100550000EDD794C23685B68204678490B2298476A
:10056000204605F0B9FEDFED767A38EE278A11E0F5
:10057000F3EE047AF4EEE76AF1EE10FA0AD5FBEE38
:10058000047AF4EE676AF1EE10FADFED6E7AC8BF16
:10059000B0EE678AB0EE480A09F0F4F860B93CA8FA
:1005A000372106F097F868483CA903F025FE3CA8DF
:1005B00006F022F89FED638A644D28460CA90322B9
:1005C0000123B0EE480A04F0F1F8DFF88C8103242F
:1005D00000944FF0010ACDF804A009AE0296284617
:1005E00033A94246234604F021F8CDF800A0CDF807
:1005F000048028460CA93246234604F05BF8DFF855
:100600005C910094019418AE0296284633A94A469C
:10061000234604F00BF821AF0097284633A9224661
:10062000234604F09FF8009401940DF1A80BCDF837
:1006300008B0284631463A46234603F0F7FF0094B7
:10064000CDF8049028465946414A234604F032F832
:100650000094019628463F494A46234604F02AF86A
:1006600028463146224604F0BBF8009401940DF16F
:100670003C0BCDF808B0284649463246234603F0E5
:10068000D5FFCDF800A00196284606A9424623468C
:1006900004F03CF80094CDF804A00297284659468F
:1006A0003246234603F0C2FFCDF800A0CDF8048007
:1006B000284641463A46234603F0FCFF0094CDF815
:1006C00004A00296284659464A46234603F0AEFF48
:1006D000CDF800A0CDF8049028464946324623467E
:1006E00004F014F8D8F8003052990B60D8F80430B0
:1006F0004B60D8F808308B60059ACA6041B0BDECF9
:10070000028BBDE8F04F04B0704700BFFCFC000056
:100710001C14FF1F002474491F85EB51CDCCCC3E27
:100720007CF2B03AF0B3C13B16187937CDCC9C3F80
:100730002D254740C3F51CC1401CFF1F20FD0000B4
:10074000F9D24042000000003816FF1F281BFF1F8F
:100750004008FF1F6408FF1FC013FF1FF813FF1F8F
:100760002DE9F04792B0DFF86480DFF864A0DFF88D
:10077000649023E008AC4046214603F053FB9AF80E
:1007800000500DAE02960BAF97E803008DE8030012
:1007900094E80E002846FFF765FE02AD0FCE0FC5A8
:1007A00033682B6097E803008DE8030094E80E009F
:1007B000404603F001FA484603F040FC05F04EFCC9
:1007C0000028D7D012B0BDE8F08700BFE014FF1FAB
:1007D000CC13FF1F3816FF1F2DE9F04F91B03F4B90
:1007E0003F4A9A603F4A5A603F4A1A601A464FF49D
:1007F000FA3142F80C1F3D4E3D49B1603D497160F0
:100800003D493160B1463D4949F80C1F3C4D3D49D9
:10081000A9603D4969603D492960A8463C4948F8BE
:100820000C1F3C4C029492E803008DE803000ECBB1
:100830000020FFF717FE0DF1100B5846364905F062
:1008400027FFDFF8E0A0CDF808B004F10C0797E827
:1008500003008DE8030094E80E00504603F0DAFD33
:10086000584605F0C9FE029499E803008DE803009C
:1008700096E80E000020FFF7F5FD08AE3046274948
:1008800005F006FF029697E803008DE8030094E860
:100890000E00504603F0BEFD304605F0ADFE02945A
:1008A00098E803008DE8030095E80E000020FFF7AC
:1008B000D9FD0CAD28461A4905F0EAFE029597E8E5
:1008C00003008DE8030094E80E00504603F0A2FDFB
:1008D000284605F091FE11B0BDE8F08FD013FF1F40
:1008E000A0BACD423B01D9400378CB3EAC13FF1FE9
:1008F000286FDD423D8AFC41D49A9640D0660500BF
:10090000E413FF1FF1230A43590675424FAF7F419D
:10091000D82309009813FF1F2CFD000034FD0000B0
:100920003CFD0000241BFF1F10B5204C23685B68B2
:1009300020461F491D229847204605F0CDFC23681C
:100940005B6820461B4913229847204605F0C4FCEB
:1009500023685B682046184917229847204605F00F
:10096000BBFC23685B68204614491922984720463F
:1009700005F0B2FC23685B6820461149262298479F
:10098000204605F0A9FC23685B6820460D49192222
:100990009847204605F0A0FC23685B6820460A497A
:1009A00012229847204605F097FC10BD401CFF1FFF
:1009B00044FD000064FD000078FD000090FD000093
:1009C000ACFD0000D4FD0000F0FD000038B50D20A6
:1009D000012104F067FC0D20012104F03FFC4FF4DD
:1009E0007A7004F043FD144C23685B682046134979
:1009F00011229847204605F06FFC2368104D5B6874
:100A00002046294603229847204605F065FC2368C6
:100A10005B682046294603229847204605F05CFC87
:100A2000084803F05BFD084802F0B6FC074803F0F5
:100A3000BDFAFFF779FF38BD401CFF1F04FE000020
:100A400018FE0000241BFF1FE014FF1F3816FF1FB5
:100A500010B5022404E0204604F008FD05F0B2FAC7
:100A600005F0FCFA0028F6DC10BD00BF10B588B018
:100A700005F0F4FA002840F3C88005F0A3FA4138E5
:100A8000122800F2A280DFE800F02D401DA0A05F38
:100A9000A0A0A0A050A03DA0A0A0A0A00A005C4CD7
:100AA00023685B6820465B491B229847204605F077
:100AB00013FCFFF7CDFF584802F06EFC574803F0D7
:100AC00075FAA0E0524C23685B68204654491F2207
:100AD0009847204605F000FCFFF7BAFF4E4802F0A9
:100AE00047FF90E04A4C23685B6820464D4924222A
:100AF0009847204605F0F0FBFFF7AAFF464802F0B2
:100B000087FE80E0FFF7A4FF7DE0414C23685B682F
:100B10002046454931229847204605F0DDFBFFF786
:100B200097FF3D4802F044FE6DE0394C23685B6856
:100B300020463E4924229847204605F0CDFBFFF78A
:100B400087FFFFF749FE5EE0314C23685B68204673
:100B5000374923229847204605F0BEFBFFF778FF70
:100B60002E4803F0ABFB2C4B93F854311BB12A4BAE
:100B700093F85531ABB9264C23685B6820462D4964
:100B800037229847204605F0A7FB6846302105F03C
:100B9000A1FD2248694603F02FFB684605F02CFDB5
:100BA00031E01B4C23685B68204623491522984797
:100BB000204605F091FB184803F070F94FF4FA60F5
:100BC00004F054FCFFF7CCFD1DE0114C23685B687A
:100BD00020461A4915229847204605F07DFB2368D8
:100BE0001B682046164A11789847204605F074FB8A
:100BF00004A8362105F06EFD084804A903F0FCFAAC
:100C000004A805F0F9FCFFF78FFE08B010BD00BF87
:100C1000401CFF1F1CFE0000E014FF1F3816FF1FC2
:100C200038FE000058FE000080FE0000B4FE000008
:100C3000DCFE000000FF000038FF000050FF000055
:100C4000CD13FF1F08B5837863F07F0383700246DE
:100C5000806852F8101F01F0F5F808BD2DE9F8433F
:100C60000446037813F0200F32D143691D4A9342A2
:100C700030D8FFF7E7FF0646002830D0A06821698A
:100C800001F078F88046A06824304146052201F042
:100C90004BF8814600B300214FF400720BF046FA86
:100CA000A3681F79012F0ED901251868026897687B
:100CB00005EB08014A46B84780B10135EDB2A3689B
:100CC0001F79BD42F1D3636903EB4723636106E0FB
:100CD000002604E0002602E0002600E0064630463A
:100CE000BDE8F883FFFD1F0010B504460A46806882
:100CF0002430A16901F018F8034628B1A08800F05B
:100D00000F0003EB401010BD002010BD38B50446A5
:100D10000D46037893B9002124220BF007FAA56051
:100D2000EB79102B02D0202B03D009E02023237075
:100D300001E0402323700120A07038BD002038BDA1
:100D4000002038BD2DE9F04F83B00446884600925C
:100D50000378002B00F0AA80827812F0010F00F0D7
:100D6000A58013F0080F08D0C2694369D31A009A0E
:100D70009A4228BF1A4600920DE013F0200F0AD0C5
:100D800083681A894369C3EB42139BB2009A9A4263
:100D900028BF1A460092009B002B00F083801E465D
:100DA0004FF0000A04F110020192D3466369C3F3C5
:100DB0000807227812F0200F04D0A268126A02EB12
:100DC000532922E0A06890F805A00AEA532AB7B98F
:100DD000BAF1000F13D133B912F0400F14BF036AF8
:100DE000236A23610BE02169019A00F0C9FF002802
:100DF0005CDB20B9237813F0700F54D156E0A06863
:100E0000216900F0B7FF00EB0A0937B9B6F5007F9A
:100E100003D3A068C36A994513D1C7F50075AE42E4
:100E200038BF3546A068243049465A4600F07CFF5A
:100E3000014600283AD0404639442A4604F080F85A
:100E400029E0B6F5806F1DD3C6F34727227812F04C
:100E5000200F06D10279CAEB0202D2B2BA4238BFE1
:100E600017467D02994502D83B44994525D3A3688E
:100E700018680368D3F80CC0494642463B46E04731
:100E800048B913E0006803681B6849464246984722
:100E900060B14FF40075A84463692B446361761B0D
:100EA00084D100E0009E009B981B0CE0637843F027
:100EB000020363704FF0FF3005E0243000F00AFFBA
:100EC0000028D4D1F2E703B0BDE8F08F70B582B04E
:100ED0000446466905690DF107010122FFF732FF5B
:100EE000012803BF9DF80700666125614FF0FF30C0
:100EF00002B070BD30B583B004464369C3F34315F7
:100F000005B171B920460DF107010122FFF71AFF63
:100F100040B2012801D0002009E063691F336361FA
:100F200001E020334361A068303000EB451003B08E
:100F300030BD00BF2DE9F04104460E460769037835
:100F4000002B3CD042698A423DD011B90023036195
:100F500031E013F0080F03D0C1698E422FD808E0AA
:100F600013F0200F05D083681B89B1EB431F26D8EF
:100F700021E0A1688D790935501EE84006F1FF3C5B
:100F80002CFA05F5A84200D832B913F0400F14BF6F
:100F90000B6A236A23610AE02D1A08E0A068216920
:100FA000424600F0EDFE013D002802DC07E004F1BE
:100FB0001008002DF2D166610120BDE8F0812761A3
:100FC0000020BDE8F0810120BDE8F081F8B50446BD
:100FD0000E4615461F46002124220BF0A7F8B068E4
:100FE000A060A580336AE36000F1300305F00F02D2
:100FF00003EB4212D37A13F0080F34D103F0170336
:101000002370D17A11F0180F04BF43F00803237046
:101010009DF81830E37017F0320F03D0237813F0E7
:10102000110F20D107F00F03A370C36AA361918A47
:10103000538B43EA014117F0100F08D011B100F0B3
:1010400037FF80B1A37863F07F03A37002E02162D1
:10105000D369E36117F0200F09D02046E169FFF75B
:1010600069FF034620B900202070034600E00123F9
:101070001846F8BD38B504460378002B39D090F9EE
:101080000230002B1EDA0121FFF72EFE054650B379
:101090000378E52B27D0237813F0080F1CBFE369F2
:1010A000C361238C4383638C8382134B1B682BB1F6
:1010B000183005F1160198472B8B6B82A37803F04B
:1010C0007F03A370A56805F1240000F003FE50B172
:1010D00005F50C7000F0FEFD28B1286803685B6818
:1010E0009847034630B9637843F0010363700023E7
:1010F00000E00123184638BD2414FF1F10B5044634
:10110000FFF7B8FF0023237010BD00BF2DE9F041A9
:1011100092B006460C460192984600238DF8243082
:101120008DF825300378002B44D10B7813F0700F25
:1011300042D0134612782F2A14D10133019313F8A9
:10114000012B2F2AFAD02AB93046A168FFF7DEFD1D
:10115000024632E009A8A168FFF7D8FD0246002840
:101160002BD009AC0127019803A901AA00F06EF960
:10117000024610B3019A1378A3B13046214603AA60
:101180003B4600F0ADFB0246B8B109AC35460FCD89
:101190000FC40FCD0FC42B6823603046FFF7AEFF9E
:1011A00009ACE0E73046214603AA434600F098FB2D
:1011B000024602E0002200E00022104612B0BDE824
:1011C000F08100BF10B58AB004460A4600238DF8AE
:1011D00004308DF8053001A821460223FFF796FF61
:1011E000034618B101A800F069FA034618460AB090
:1011F00010BD00BF2DE9F84F04468846924603789B
:1012000013F0080F00F0BB80837813F0020F00F09A
:10121000B68013F0040F05D0E169FFF78BFE0028BC
:1012200000F0AD806369DB439A4500F2A880BAF113
:10123000000F00F0888056464FF001094FF0050B73
:10124000A06863694579C3F3080715EA532521D1DE
:10125000002F40F09C80216981B104F1100200F060
:101260008FFD0028C0F28B80002840F0958020463A
:10127000FFF7E8FC002840F08F8080E0236A3BB94C
:101280002046FFF7DFFC002879D02369236283E042
:10129000236181E0216900F06DFD4119002F40F0CC
:1012A0008C80B6F5007F7DD318E04A4600E05A46B0
:1012B000A068243000F038FD002860D03844414652
:1012C0002A4603F03DFE2F44B7F5007F34D1A068D5
:1012D000243000F0FFFC00282ED150E0B6F5806FDE
:1012E00017D3A26813795D1BEDB2C6F34723AB4257
:1012F00028BF2B465D02D06A884202D31844884238
:1013000061D8A2681068026817694246B84798B960
:1013100035E0A368DA6A914205D1002283F82420DF
:101320004FF0FF32DA62A368186803689B68424690
:10133000984720B34FF4007563692B446361A84458
:10134000761B7FF47DAF6369E269934205D9E3615F
:10135000A37863F07F03A37006E01E4B1B681BB1EC
:10136000A37863F07F03A370A37813F0080F03D072
:101370002046FFF77FFE10B15046BDE8F88F637836
:1013800043F0010363704FF0FF30BDE8F88F21692F
:1013900000F0F0FC014610E0A068216900F0EAFCD2
:1013A00001467EE7C7F50075AE4238BF3546626933
:1013B000E3699A42BFF47BAF77E7C7F50075AE42A9
:1013C00038BF354671E7002082F824004FF0FF3027
:1013D000D06296E72414FF1F042904D800EB4101D2
:1013E000B1F8010070470A2904D8013900EB410027
:1013F000C088704710299DBF013100EB41008088F3
:101400000020704700231A46510841EAC212C15C0D
:1014100051FA82F2D2B201330B2BF5D1104670474C
:1014200038B504460D46CB681BB98968FFF76EFCDA
:1014300038BD002124220AF079FE102323700120F8
:10144000A070AB68A360EB68236238BD2DE9F00F94
:1014500082B00378202B05D1431C18460133047851
:10146000202CFAD08860037823B12F2B04D00546B6
:10147000002407E0002400E0002407193B4622E096
:101480002F2BFAD05C2B00F0FA8003F0F706222E07
:1014900000F0F7803A2B00F0F68003F0BF063C2EF8
:1014A00000F0F380A3F13E06F6B2012E40F2EF8089
:1014B000203BDBB25E2B00F2EC80013415F8013FDB
:1014C000002BDDD1D9E71E4613F8015B202DFAD0A1
:1014D0002F2DF8D0166074B13A4612F8013D2E2B2C
:1014E00001D0202B02D1013CF7D104E0FF2CC8BF72
:1014F000002000F3DF804C6000232025CA185573BC
:1015000001330B2BFAD1002300E00133C25C2E2AF9
:10151000FBD0202AF9D01E46D3F1010738BF00279F
:10152000651E06D4425D2E2A03D0013DB5F1FF3F72
:1015300005D1A64207DB00200190009087E0425DC4
:101540002E2AF2D1F5E74FF0070900260196009602
:101550004FF0080AB446AB46C25C202A66D02E2A59
:1015600002D19D4264D122E0222A20D07C2A1ED0C2
:10157000A2F12A085FFA88F8B8F1050F02D82D2ADF
:1015800015D10DE0A2F13A085FFA88F8B8F1050F1D
:101590000DD9A2F15B085FFA88F8B8F1020F06D9FD
:1015A000A2F121085FFA88F8B8F15D0F02D9AB42C9
:1015B00003D178E0AB4202D175E067465F224E4529
:1015C0006DD809E0AB4241DC5B464FF00A090826C2
:1015D0004FF0100A674635E0A2F161085FFA88F81B
:1015E000B8F1190F08D8203AD2B2DDF8008048EAE5
:1015F0000A08CDF800800CE0A2F141085FFA88F8F3
:10160000B8F1190F05D8DDF8048048EA0A08CDF8CA
:10161000048006F101085FFA88F80E447273B8F18D
:10162000060F07D881F80C8046460BE0674609E0B4
:10163000674607E0464605E05B464FF00A09082684
:101640004FF0100A0133A34286DB00E000274B7BFA
:10165000202B20D057B10198009A00EA0203002BFA
:10166000134618BF02230B70012023E001200870ED
:101670000B7B19447E234B7331238B731AE00020BC
:1016800018E0002016E0002014E0002012E0002006
:1016900010E000200EE000200CE000200AE0B9F18C
:1016A0000A0F8FD102E0B9F10A0FC5D14B7B202B75
:1016B000DCD1F2E702B0BDE8F00F70472DE9F0434E
:1016C0008BB0044600238DF804308DF80530037884
:1016D00013F0080F00F08280837813F0020F7FD0A0
:1016E000016A31B1806800F0E3FB0346002800F096
:1016F000888020460121FFF7F7FA0546002871D0BF
:10170000FFF780FE0746E5232B7000232370A568B2
:1017100005F1240000F0DEFA002871D005F50C7008
:1017200000F0D8FA00286BD0286803685B689847F7
:101730000346002865D0E278002A62D001A821463D
:10174000FFF76EFE034600285BD0E378002B4BD0FA
:1017500001254FF000084FF0E509A188491B01A8B9
:101760004901FFF7E7FB034600284AD001A841469C
:10177000FFF7C0FB002839D0C27A0F2A38D102788F
:1017800002F01F018D4235D1417BB94234D180F83E
:101790000090A36893F8241041F0010183F824100D
:1017A00012F0400F14D0A46804F1240000F092FA63
:1017B00048B104F50C7000F08DFA30B12068036870
:1017C0005B68984702E0002000E00020034618E034
:1017D0000135EDB2E378AB42BFD20FE0002310E059
:1017E00000230EE000230CE000230AE0002308E0C1
:1017F000002306E0002304E0002302E0002300E0D1
:10180000002318460BB0BDE8F08300BF2DE9F84F68
:1018100004460F460E7B4FF002094FF07E0A01F19D
:101820000D085FFA89F3012B03D8BA19303393738B
:1018300024E0796809EB01039BB2B86849B102461C
:10184000084412F8011B03EB43134B409BB2824246
:10185000F7D1032E28BF0326321DD2B2B2420DD9D2
:1018600003F00F011046092994BF30313731384455
:1018700041731B09013AD2B2B242F1D8BB1983F8C5
:101880000DA020460021FFF755FB01254FF00B0B63
:1018900020462946FFF72EFB014630B96078D0F18B
:1018A000010038BF0020BDE8F88F037853B1C37A38
:1018B00013F0080FECD140465A460AF0A3FB00286B
:1018C000E6D105E00120BDE8F88F0020BDE8F88FE3
:1018D00009F101091FFA89F9B9F1640FA1D1F4E7FF
:1018E0002DE9F04F8FB009900E4605920A9351688A
:1018F0000491337813F0700F00F0D5810378002B3A
:1019000040F0D381137813F0030F09D001F10C02DA
:101910007F4BA3FB02139B0801335FFA83FA01E0BC
:101920004FF0010A30460021FFF704FB00270B9718
:1019300006973C46B84608974FF0010B059A0D32C2
:10194000079220E04FF000081DE04FF000081AE079
:101950004FF0000817E006934FF0000813E04FF037
:10196000000810E0039C4FF000080CE0039C4FF0CF
:10197000000808E04FF0000805E0CDF820B002E0D4
:10198000DDF83480039C7369C3F34F193046594620
:10199000FFF7B0FA054620B97378002B00F09B8062
:1019A00085E10378E52B00D043B9002C08BF4F46F2
:1019B00054453CBF0134E4B223B98CE0544538BFF0
:1019C000002401E0E52BBDD02E2BBED0EA7A0F2AF1
:1019D0005AD1B8F1000F09D113F0400FD3D003F062
:1019E0001F086B7B0B93CDF818800AE006994A1EFE
:1019F000D2B206929342ABD16A7B0B998A42AAD1AA
:101A00000693069A531E03EB430203EB82020392F2
:101A10009146049B9342A2D902F10D010C91CDF89D
:101A20003480904603940C46C8EB09012846C9B29D
:101A3000FFF7D2FC049A914507D1DDF83480039C6E
:101A4000002818BF4FF000089DE7FF288AD8C0B2D1
:101A5000A0F14103DBB2192B9CBF2030C0B209F1C9
:101A6000010305998A6812F80920A2F14101C9B25F
:101A700019299CBF2032D2B290427FF477AFA342A3
:101A80003FF47EAF9946CFE712F0080F7FF472AFB4
:101A9000B8F1000F0BD0069A012A40F00A812846BF
:101AA000FFF7B0FC0B9B98420FD000230CE12846B7
:101AB00007990B220AF0A6FA00287FF464AF059973
:101AC0000B7813F0010F7FF458AF0A9A12F0800FD1
:101AD00000F0DF80EFE00A9901F04203422B40F072
:101AE000EC80002C18BFB946544522D20025304660
:101AF0002946FFF7FFF930B97378002B40F0DF80FB
:101B0000544507D315E00134E4B2A245EFD810E004
:101B10004FECC44E3046FFF7A1F80346002800F012
:101B2000D380B3681B79012B03D81034E4B2A245EB
:101B3000F0D8089A3AB130460599FFF767FE034698
:101B4000002800F0C18030464FEA4911FFF7F2F952
:101B50000346002800F0B8800AF1FF3818F0FF08AB
:101B60005DD04746002548F0400A049CDDF814B0DB
:101B7000CDF810A030462946FFF7BCF98146002871
:101B800000F09F80B36893F8242042F0010283F8AC
:101B900024204745DDF810A018BFBA4680F800A001
:101BA0000F23C37205730BF10D00FFF72BFC89F8AF
:101BB0000D0089F81A5089F81B50DBF808100AF05C
:101BC0001F0A0AF1FF3A0AEB4A0E0AEB8E0E724622
:101BD0002B468E44A24202D21EF8030004E0A01A53
:101BE00018BF6FF0000080B2D9B2042904D809EB05
:101BF0004301A1F801000AE00A2903D809EB4301D7
:101C0000888004E010299CBF09EB4301C8800133A0
:101C100001320D2BDED1013F17F0FF07AAD1736906
:101C2000C3F34F1930460021FFF764F9044600283A
:101C300049D0002120220AF079FA059B53F80D1FA4
:101C40005A68216062601A899B7A2281A372059981
:101C50000B7803F0180323731D4B1B682BB104F1A1
:101C6000100004F10E01984707E021232374282374
:101C700063740023A3730823E373238A638223839B
:101C8000E389E382B36893F8242042F0010283F8E9
:101C90002420CDF80080099831464A460A9BFFF778
:101CA00095F9034610E000230EE000230CE000232A
:101CB0000AE0002308E0002306E0002304E00023FC
:101CC00002E0002300E0002318460FB0BDE8F08FCB
:101CD0002414FF1FF8B50446037813F0010F1DD03C
:101CE00000F10C064368186803689B68A1683246D7
:101CF00098470546A8B1237813F0020F09D063680E
:101D0000186802681969A368976819443246B84789
:101D100030B1237823F00103237002E0012500E0B5
:101D200005462846F8BD00BF70B504460D46164668
:101D300083688B4211D0FFF7CDFFB0B116F0040FCE
:101D400008D16368186803681B68294604F10C020F
:101D5000984760B100232370A56006F0030623783E
:101D60001E43204600F80C6B70BD002070BD0020A3
:101D700070BD00BF023983799940406908447047BB
:101D800070B504460D461646C379202B0FD18169E4
:101D900000F50C7001EBD5110222FFF7C5FFD8B199
:101DA00005F07F0550F8253023F070430EE0102B2E
:101DB00014D1C1F30721836900F50C701944022284
:101DC000FFF7B2FF60B1EDB230F81530E1698B4238
:101DD00008D83360012006E0FF2004E0FF2002E085
:101DE000FF2000E0002040B270BD00BF38B50C46B7
:101DF0001546C379202B0ED1816900F50C7001EBDB
:101E0000D4110322FFF790FFB0B104F07F0440F833
:101E10002450012038BD102B10D1C1F30721836954
:101E200000F50C7019440322FFF77EFF40B1E4B2C5
:101E300020F81450012038BD002038BD002038BDE6
:101E4000002038BD2DE9F04182B0054690460F468E
:101E500009B9C66800E00E4634460134EB699C427D
:101E600088BF02242846214601AAFFF789FF0028DF
:101E700004DB08B1019B1BB1B442EED1002613E094
:101E8000284621466FF07042FFF7B0FF064658B172
:101E90003FB1284639462246FFF7A8FF10B906464B
:101EA00002E0EC60C8F80040304602B0BDE8F081C6
:101EB000F0B583B005460C4600272846214601AA06
:101EC000FFF75EFF061E0EDB284621463A46FFF767
:101ED0008DFF014640B1EB689C4238BFEC60019C2D
:101EE000002EEAD100E00021084603B0F0BD00BF9B
:101EF00038B504460023C3710122C260A06280F895
:101F000024304FF0FF32C262C4F8340280F830321D
:101F1000C0F838220D46A9B1042971D824301946D9
:101F20001A46FFF701FF00286CD000EB051595F865
:101F3000AE3105F5D47513F07F0F65D1D5F80E508D
:101F40000DB963E0002504F1240029460022FFF7C3
:101F5000EBFE034600285BD0B0F80B20B2F5007F03
:101F600058D1027C022A57D1C289002A56D0407B20
:101F70002071421E62710022A27101280DD011460B
:101F8000012203E012B9A171002038BD5200D2B283
:101F90000131C9B29042F5D1A171D98A01B9596A0A
:101FA0002161DA892A44A261B3F81100208102EB91
:101FB00041022262B3F81110490101F2FF1102EB54
:101FC00061226261B3F8131001B9196AAA1A1144A7
:101FD000A27921FA02F2511CE16140F6F4718A42C1
:101FE00003D80C23E371002038BD4FF6F4718A4208
:101FF00091BF1023DB6A23622023E371012038BDE7
:10200000002038BD002038BD002038BD002038BD7C
:10201000002038BD002038BD002038BD002038BD6C
:10202000044B1B6804481840D0F1010038BF002061
:10203000704700BF30100B4001000F00024B1868C2
:1020400000F00100704700BF24100B40014B1878CE
:10205000704700BF6414FF1F30B44FF47A7303FB62
:1020600000F0274B98423FD8012326495B001A0114
:10207000B1FBF2F2904238D2FF2BF7D935E021467E
:102080000132B5FBF1F4A04205D2CC18102AF6D1EA
:1020900001E0194601224FF47A7000FB01F1194862
:1020A000B0FBF1F1184801601849086820F00800F9
:1020B0000860086820F47F2020F47F6040F46020EE
:1020C000DB0103F47F431843013A1201D2B21043FB
:1020D00008600F4A136813F0080FFBD00B4B1A6807
:1020E00042F008021A6009E00123064AB2FBF3F24B
:1020F0009042CED259000122024DC1E730BC704758
:102100004FA9AB000095BA0A6C14FF1F2C100B40AE
:1021100024100B400120704770B5044603F082F98B
:102120000646064D04E003F07DF9801BA84203D863
:10213000A0470028F7D170BD012070BD20A1070085
:1021400038B504460D461248FFF7E6FFC8B9114BF3
:102150001D6004331C601048FFF7DEFF98B90F4A7A
:1021600011680F4B1960196811601B6813F0010F9B
:102170000BD00B4B1B6813F4702F14BF00200120F1
:1021800038BD002038BD002038BD002038BD00BF5C
:102190003D20000008100B402120000030100B40B3
:1021A0004C14FF1FF0B585B00E461A4B1968FFF7A7
:1021B000C7FF074650B3184B1B680093174B1B68AB
:1021C0000193174B1B680293164B1B68039306F190
:1021D0000F040023144D013C1A46002BB8BFDA1C33
:1021E00022F0030204A9114413EA050203D5013ABF
:1021F00062F003020132D20051F8101C21FA02F2FF
:10220000227001330F2BE6D10023F373384605B05B
:10221000F0BD00BF3C14FF1F10100B4014100B400A
:1022200018100B401C100B400300008008B5074835
:10223000074B1968FFF784FF30B1064B186880F42C
:102240008070C0F3002008BD012008BD00001A0DF9
:102250003C14FF1F10100B4070B504460C4B186067
:1022600003F0E0F806460B4D0BE003F0DBF8801BB3
:10227000A84204D90022064B1A60012070BD04F068
:102280004DFAA0470028F0D1014B186070BD00BF87
:102290006814FF1F20A1070008B50A48FFF7DCFFFC
:1022A00060B9094B1B6813F0020F09D0064B1A687E
:1022B000064B1A4214BF0020012008BD002008BDB3
:1022C000002008BD4D2000004C14FF1F00007F11AE
:1022D00038B504460D461548FFF71EFF38B12922D0
:1022E000134B1A70E722134B1A6000231CE00122E3
:1022F000114B1A700022114B1A60114B1D600833EC
:102300001C60104A043B1A600F4A34331A600F4AAB
:102310002C3B1A60FFF7C0FF034628B92321044A6B
:102320001170F121034A1160184638BD2D220000BA
:102330008808FF1F4814FF1F6414FF1F4C14FF1F61
:1023400000100B404000010002007F1111003A060E
:10235000F8B506460F4614461D4612F0030F00D18D
:1023600043B96022174B1A704FF4A572164B1A60CE
:102370000020F8BD1548FFF76FFF40B12922114B2F
:102380001A7040F24D12104B1A600020F8BD012265
:102390000F4B1A7000220F4B1A600F4B1C600F4B33
:1023A0001B7803B97F020E4B1F602D0445F40075A6
:1023B000043B1D600B4A34331A602C3B1E60FFF750
:1023C0006BFFF8BD8808FF1F4814FF1F2D22000077
:1023D0006414FF1F4C14FF1F00100B404014FF1F1C
:1023E00008100B4002007F1130B5ADF5017D144699
:1023F00012F0030F10D118E03122114B1A7040F285
:102400005122104B1A60002516E0204669464FF411
:10241000007202F095FD0FE00B486A460123FFF7BA
:1024200097FF05460028F0D1E6E707480123FFF7AC
:102430008FFF05460028DFD028460DF5017D30BD11
:102440008808FF1F4814FF1F11003A112DE9F041C1
:1024500006460C46154612F0030F10D0E3B101EB0F
:10246000030832681768304621462A46B8470246B4
:1024700098B1013405F500754445F2D10DE00848E6
:10248000FFF766FF024640B93121064B197040F252
:102490006321054B196000E001221046BDE8F08180
:1024A00037003A128808FF1F4814FF1F10B5ADF51A
:1024B000007D0C4612F0030F06D0684611464FF41B
:1024C000007202F03DFD6A46084821460123FFF7ED
:1024D0003FFF034630B93221054A117040F2C9214D
:1024E000044A116018460DF5007D10BD01003A1830
:1024F0008808FF1F4814FF1F2DE9F04106460C46CF
:10250000154612F0030F10D0E3B101EB0308326857
:102510009768304621462A46B847024698B10134AA
:1025200005F500754445F2D10DE00848FFF710FFAE
:10253000024640B93321064B197040F2D921054BB0
:10254000196000E001221046BDE8F08127003A1929
:102550008808FF1F4814FF1F0023054A1360083A2C
:1025600010680449086009681160034A13707047D5
:1025700038100B404C14FF1F6414FF1F2DE9F04767
:1025800090B000239E4A13709E4A13709E4A1370A7
:102590009E4A13709E4A116841F04061116002F535
:1025A0006A323032116841F400311160994A136087
:1025B0000432136004321360043213600432136077
:1025C000043213604FF08072934B1A601A461368FE
:1025D00013F0807FFBD14FF4C870FFF73DFD40F250
:1025E00043438C4A1360043213604FF48861043211
:1025F0001160043213600432136004321360874A9E
:10260000874B1A606022874B1A704FF40032A3F296
:1026100049331A60804B1A6842F000621A601A4609
:10262000136813F0006FFBD100200146FFF788FD0F
:10263000044638B92022734B1A7040F2CD127A4BFF
:102640001A603CE10A24794E4FF4D575304629468C
:10265000FFF776FD90B1764B1B68B3F5D57F08D0B8
:102660002522684B1A7040F2D3126F4B1A60002477
:1026700025E10122654B1A706E4F08E0013CE5D15F
:10268000624B1B78002B6B4F08BF4FF4401702F0D2
:10269000C9FE8046684C694E654D20460021FFF713
:1026A0004FFD58B130463946FFF74AFD30B102F0D0
:1026B000B9FEC8EB0000624B984208D94322514B47
:1026C0001A704FF4EF72584B1A600024F7E02B6831
:1026D000002BE2DA564B19685A4A11601B6813F056
:1026E000804F02D00122484B1A7057480021FFF753
:1026F00027FD044638B92122424B1A704FF4F47278
:10270000494B1A60DBE051480021FFF719FD0446F0
:1027100038B922223B4B1A7040F2EB12424B1A603E
:10272000CDE0434B1B681B0C1B04494A136049480E
:102730004949FFF737FD044638B92622314B1A7054
:102740004FF4F872384B1A60B9E044484449FFF737
:1027500029FD044638B927222A4B1A7040F2F31299
:10276000314B1A60ABE03F48394B1968FFF7E8FC82
:10277000044638B92422234B1A704FF4FB722A4BBB
:102780001A609CE02C48324B1968FFF7D9FC28B13D
:1027900035480221FFF7D4FC044640B94022194BCA
:1027A0001A704FF4FD72204B1A60002487E02F4B03
:1027B0001A6822F006021A601A6842F002021A60D1
:1027C0004FF010121C331A606FF07F406946FFF71C
:1027D0007FFD90B19DF80D3013F0020F0DD024480D
:1027E0006946FFF775FD40B19DF8103003F00F0307
:1027F000012B08BF4CF250303CD046F2A81039E013
:102800005014FF1F8808FF1F4014FF1F2814FF1FCC
:1028100000D8004000D004402C100B400B007F116A
:1028200034100B4051E400E04814FF1F00001A0868
:1028300010100B400000304000001A370000022941
:1028400020A107004414FF1F0000090200001A0322
:102850003C14FF1F000009095414FF1F0000090A5F
:102860002C14FF1F00001B0700001A0628100B4045
:10287000F1FFFF80DFF860A00023CAF80030DFF826
:102880005C90C9F80030DFF85880C8F800300E4F6F
:102890003B600E4E33600E4D2B60FFF7DDFB40F2C8
:1028A0004343CAF80030C9F800304FF48862C8F8D2
:1028B00000203B6033602B600122064B1A702046DB
:1028C00010B0BDE8F08700BF0CD0044010D0044029
:1028D00014D004405014FF1F00D0044004D0044022
:1028E00008D00440014B0360704700BFB0FF0000F8
:1028F000704700BF014B0360704700BFB0FF00008E
:1029000010B50446024B036003F0BCFC204610BD2A
:10291000B0FF000010B50446024B036003F0B2FCA8
:10292000204610BDB0FF000038B505460C460846ED
:102930000021282209F0FAFB204609490B2209F060
:10294000D1FE0023E3720122E260AA682261032221
:10295000626163620023A361E361024B236238BDBD
:10296000C8FF00000AD7233C10B4034C0460816008
:1029700042715DF8044B7047D8FF000070B50E46F9
:102980001546094C4179204600F0CEFB20463146E1
:1029900000F0EAF92046294600F0E6F9204600F06A
:1029A000E7FC012070BD00BFC814FF1F08B50A4630
:1029B00001733D21FFF7E2FF1E2002F057FD08BD25
:1029C00070B504460E46057B0021FFF7EFFF192086
:1029D00002F04CFD204607210022FFF7CFFF2EB169
:1029E00020463F218022FFF7C9FF04E020463F2117
:1029F0000022FFF7C3FF0A2002F038FD20462946D7
:102A0000FFF7D4FF142002F031FD70BD70B505460C
:102A10000E460B4C2046697900F086FB2046314675
:102A200000F0A2F9204600F0A3FC204669790122BB
:102A300000F098FC204600F0C3F9C0B270BD00BFA2
:102A4000C814FF1FF8B504460F46254800F060FA89
:102A500020460021FFF7DAFFA02809D04FF47A7052
:102A600002F004FD20460021FFF7D0FFA02835D159
:102A700020460021FFF79AFF20463F212022FFF742
:102A80007DFF00250A2602E0304602F0EFFC2046DA
:102A90002946FFF7BBFFA028F6D1322002F0E6FC62
:102AA00020463E210022FFF769FF0A2002F0DEFCEB
:102AB000204607210022FFF761FF20463F21002228
:102AC000FFF75CFF0A2002F0D1FC20463946FFF7F1
:102AD0006DFF142002F0CAFC0120F8BD0020F8BDF3
:102AE000C814FF1FF8B50F4616461D46069C352133
:102AF000FFF78CFF0FB183093B7016B1C0F30113D0
:102B0000337015B1C0F381032B7014B100F00300D2
:102B10002070F8BD2DE9F04107460E4690461D464F
:102B2000104C2046797900F0FFFA2046314600F03B
:102B30001BF9204600F01CFC204679792A4600F05B
:102B400011FC65B108F1FF346E1E58FA86F6054D8A
:102B5000284600F035F904F8010FB442F8D10120FD
:102B6000BDE8F081C814FF1FF0B583B004460E46DF
:102B700015460021182209F0D9FA00230093ADF878
:102B80000430304629466A460623FFF7C3FF9DF806
:102B900001009DF8003043EA00209DF803209DF8D5
:102BA000023043EA02279DF805209DF8043043EAED
:102BB0000226083D262D00F28580DFE805F06883B7
:102BC0008383838314838383838330838383838397
:102BD0004C83838383838383838383838383688317
:102BE00083838383680000B208F042FB0022374BE6
:102BF00008F0A4FBC4E9000138B208F039FB002258
:102C0000324B08F09BFBC4E9020130B208F030FB04
:102C100000222E4B08F092FBC4E9040152E000B2FE
:102C200008F026FB00222A4B08F0B2FCC4E90001A0
:102C300038B208F01DFB0022254B08F0A9FCC4E9BE
:102C4000020130B208F014FB0022214B08F0A0FC76
:102C5000C4E9040136E000B208F00AFB00221B4B75
:102C600008F06CFBC4E9000138B208F001FB002257
:102C7000164B08F063FBC4E9020130B208F0F8FA21
:102C80000022124B08F05AFBC4E904011AE000B21A
:102C900008F0EEFA00220F4B08F07AFCC4E90001BC
:102CA00038B208F0E5FA00220A4B08F071FCC4E9DA
:102CB000020130B208F0DCFA0022064B08F068FC92
:102CC000C4E90401204603B0F0BD00BF0000B03FDE
:102CD00000208C400000594070B588B005460C4675
:102CE000242608460021324609F020FA2660AB6807
:102CF00063600323A3600E4B1B680193019B236158
:102D000002A829461A22FFF72FFFDDE9020108F089
:102D1000F7FD6061DDE9040108F0F2FDA061DDE985
:102D2000060108F0EDFDE061012008B070BD00BFB4
:102D3000481BFF1F044BD878C0B2044B1B68984255
:102D40001CBF024B18607047006006408C08FF1FD4
:102D500008B5FFF7EFFF10F0020FFAD00222014B87
:102D6000DA7008BD006006400B4B1B7813B90B4BA3
:102D70001B7873B10A4B1B78202B03D901230371F5
:102D800000207047581C064A1070064AD154012092
:102D900070470020704700BFDA14FF1F9C14FF1F0C
:102DA000DB14FF1F7814FF1F704700BF024B187819
:102DB000024B1B78C01A7047D914FF1FD814FF1F8D
:102DC000074B1B78074A12789A4205D9591C044AC6
:102DD0001170054AD05C70474FF0FF30704700BF5C
:102DE000D814FF1FD914FF1FA014FF1F054B1B7819
:102DF000054A12789A4286BF044AD05C4FF0FF30F1
:102E0000704700BFD814FF1FD914FF1FA014FF1F65
:102E100008B5104BDB7813F0200F0CD1122002F014
:102E2000C3F90D4B1B689BB100210C4A11700C4A71
:102E30001078984708BD0B4A13780133DBB2137042
:102E4000012B02D8084B1B7813B9122002F0ACF901
:102E500008BD00BF006006407414FF1FD814FF1F98
:102E6000D914FF1FC414FF1F9C14FF1F38B514464C
:102E70000D4B1B7813B90D4B1B7893B10C4B1D7880
:102E8000C5F12103A34202D2012202711C46094866
:102E90002844224602F054F82544054B1D70204674
:102EA00038BD002038BD00BFDA14FF1F9C14FF1F7F
:102EB000DB14FF1F7814FF1F002202714FF47A7198
:102EC00081600273014A0260704700BFF8FF000092
:102ED0000B4B1B6813F0400F10D00A4B994203D8DC
:102EE0002C22094B5A7006E0084B994294BF1C22D1
:102EF0001222054B5A700422034B9A71704700BF8F
:102F0000348004407F1A0600006006403F420F00F4
:102F100008B500232C4A13702C4A116841F0400177
:102F200011602B4A93702B4B1B78122B04D14FF45A
:102F30001972294B1A601AE0112B04D14FF419723F
:102F4000264B1A6013E0222B04D140F26452244B2A
:102F50001A600CE0082B04D140F26472214B1A6015
:102F600005E0302B03D14FF419721F4B1A601F4B31
:102F70001B78132B04D14FF419721D4B1A601AE001
:102F8000102B04D14FF419721A4B1A6013E0212B45
:102F900004D140F26452184B1A600CE0072B04D1A4
:102FA00040F26472154B1A6005E02F2B03D14FF4E9
:102FB0001972134B1A601349FFF78AFF044B202242
:102FC0005A7180229A7008BD9C14FF1F34800440FF
:102FD000006006408908FF1F0CA0044004A00440C4
:102FE00064D004400CC0044024C004409008FF1F7B
:102FF00008A0044000A0044060D0044008C0044081
:1030000020C00440A086010008B53D4BDB78DBB250
:1030100013F0100F06D01021394AD17013F0400F71
:1030200003D108BD13F0400F2CD013F0040F1BD0B8
:103030000023344A1370344A1370344B1B681BB19D
:103040009847314B1B782BB901222F4B1A70002265
:103050002F4B1A702A4BD0229A702D4A12781A716F
:1030600001222C4B1A7009E00122264B1A70002213
:10307000294B1A70224BC0229A701B790222204BD6
:10308000DA7008BD1E4A927812F0100F1CD013F0AF
:10309000010F14D11F4B1B781B4A12789A4207D993
:1030A000591C1C4A11701A4AD25C154B1A7102E065
:1030B0000022134B1A71D022114B9A701BE0104B57
:1030C000C0229A701B7916E00022144B1A7012204D
:1030D0001349032202F026F9094B1B79DAB20E4B91
:1030E0001B781F2B07D80749097821B1581C0A49BA
:1030F00008700C49CA540222014BDA7008BD00BFA7
:10310000006006407014FF1FDB14FF1FC014FF1F78
:103110007814FF1FDC14FF1FD914FF1FC414FF1FF6
:10312000112E0000A014FF1F4900044B1970012349
:10313000034A1370034A1370704700BF7814FF1FCF
:10314000DA14FF1FDB14FF1F2DE9F04182B088461F
:10315000374B1222DA709B7813F0200F03D0B42281
:10316000334B9A701DE0334B1B680093009D314C2C
:103170000CE023680193019B5B1B0F2B06D92C4BA2
:1031800000229A7080229A7004204EE0FFF7D2FD50
:1031900010F0200FEDD10022274B1A70B022244BE3
:1031A0009A70FFF7C7FD10F0200FFAD0234B1B7861
:1031B0007BB30024224E1E4D204F335D2B71FFF751
:1031C000B9FD10F0020F02D110F0200FF7D1022349
:1031D000EB70FFF7AFFD10F0100F04D08022144BFE
:1031E0009A70042018E010F0200F04D18022104BB8
:1031F0009A70042010E010F0010F04D0002C0CBFD6
:10320000022003200BE00134E4B23B78A342D4D87F
:1032100001E0002000E00020B8F1000F02D0802281
:10322000034B9A700022074B1A7002B0BDE8F08180
:1032300000600640481BFF1F9C14FF1FDB14FF1F8C
:103240007814FF1FDA14FF1F2DE9F8430D461446CA
:10325000984600233E4A13703E4A13703E4B12229A
:10326000DA709B7813F0200F03D0B4223A4B9A7097
:103270000AE0FFF75FFD10F0200FFAD10022374B74
:103280001A70B022344B9A706D0045F00105EDB212
:10329000314B1D71FFF75CFDFFF74CFD10F0110085
:1032A00005D080222C4B9A700020BDE8F88344B9E9
:1032B000B8F1000F0CBFA0228022274B9A70BDE806
:1032C000F883012C04D1244BA8229A701B7938E092
:1032D000214BA0229A701B79012C32D900251E4E59
:1032E0004FF0A8091E4FFFF733FD013CE4B2012C5B
:1032F00008BF86F802901F2D04D86A1C33797B55CD
:10330000D5B200E03379012CEDD1FFF721FDB022D9
:10331000114B9A701F2D07D82B465D1CEDB20E4A3B
:1033200011790F4AD15401E00B4B1B79B8F1000F12
:1033300002D08022084B9A70064B1D702846BDE8CB
:10334000F883FFF705FDB022034B9A700023E4E7F2
:10335000D814FF1FD914FF1F006006409C14FF1FE4
:10336000A014FF1F08B50123FFF76EFF08BD00BFC3
:1033700008B50121FFF7E8FE08BD00BF08B5024807
:10338000FFF79AFD08BD00BFC814FF1F014A426144
:1033900042607047B0FF0000F0B58BB004460023D8
:1033A0008DF80B3003A84FF0FF312822FFF7DCFA2D
:1033B0009DF8103023729DF811306372059BE36015
:1033C0009DF81830237407A842F2657101F05CFB88
:1033D0009DF820302376099BE36104F1140003215A
:1033E00001F008FC50B94A4D2B685B6828464949F2
:1033F00013229847284602F06FFF0CE0012384F85F
:103400005431434D2B685B68284643491222984744
:10341000284602F061FF261D30460C21FFF712FB03
:1034200050B93B4D2B685B6828463C4913229847AE
:10343000284602F051FF63E0012784F855713046B9
:103440003946FFF7BDFA324D2B685B682846344990
:1034500012229847284602F03FFF0DF10B0300931C
:10346000304602A90DF109020DF10A03FFF73AFBFC
:103470002B685B6828462B491122984728469DF8FF
:1034800008100A22002302F04DFF2B685B682846D3
:1034900025490622984728469DF809100A2200234C
:1034A00002F040FF2B685B682846204907229847B6
:1034B00028469DF80A100A22002302F033FF2B68E9
:1034C0005B6828461A490522984728469DF80B1044
:1034D0000A22002302F026FF2B685B682846154964
:1034E0003A469847284602F0F7FE09E043F8081CE0
:1034F00043F8041C196058601433013AF6D105E012
:1035000004F130030F2200210020EFE70BB0F0BDE3
:10351000401CFF1F100001002400010038000100C2
:103520004C00010060000100740001007C000100FB
:1035300084000100B0FE000030B583B0044600F105
:103540001405284601F016FB88B1284601A901F0B0
:1035500079FC28469FED080ADFED087ADDED010AC7
:10356000C0EEA70A01F098FA84ED090A01E094ED93
:10357000090A03B030BD00BF00507D440000C842BE
:1035800038B52DED088B0D461446D1E9000108F041
:10359000B7F90AEE100AD5E9020108F0B1F909EE0F
:1035A000900AD5E9040108F0ABF909EE100AD4E954
:1035B000000108F0A5F908EE900AD4E9020108F02C
:1035C0009FF908EE100AD4E9040108F099F907EE12
:1035D000900A6AEE28AA29EE887A7AEE87AA29EE5E
:1035E000277A7AEE87AA68EEA88A28EE088A38EE4B
:1035F000888A67EEA77A78EE277A17EE900A07F0A6
:1036000049FE9FED5F8B41EC100BB0EE481AF0EED7
:10361000681A06F035F955EC104B2AEE0A7A69EE75
:10362000A97A37EE277A69EE097A77EE277A17EECC
:10363000900A07F02FFE41EC100BB0EE481AF0EEA6
:10364000681A06F01DF951EC100B08F059F908EE54
:10365000900A2046294608F053F907EE100A67EE53
:10366000287ACAEEA77A17EE900A07F013FE41EC0B
:10367000100B06F0A3F851EC100B08F041F99FED88
:1036800042BA07EE900A27EE8BBA8AEEA88A3F4C20
:1036900023685B6820463E491622984723685B688A
:1036A00020463C49012298471AEE100A07F0F2FD25
:1036B00041EC100B2046022102F072FE2368364DC9
:1036C0005B68204629460122984719EE900A07F0C8
:1036D000E1FD41EC100B2046022102F061FE23685F
:1036E0005B68204629460122984719EE100A07F028
:1036F000D1FD41EC100B2046022102F051FE23685F
:103700005B682046254902229847204602F0E4FDE6
:1037100023685B682046224907229847DFED217A1B
:10372000CBEE277A17EE900A07F0B4FD41EC100BB0
:103730002046022102F034FE204602F0CDFD23682F
:103740005B68204618491622984718EE100A07F0C1
:10375000A1FD41EC100B2046022102F021FE23685E
:103760005B682046114900229847204602F0B4FDCC
:10377000B0EE480ABDEC088B38BD00BFAFF3008047
:10378000000000000000E03F00003443401CFF1F29
:103790008C000100A4000100A8000100AC000100A1
:1037A000B0000100DB0F4940B8000100C403010074
:1037B000F8B50746124C134E134D1BE023685B68A7
:1037C00020463146122298473846FFF7B5FE10EEE4
:1037D000100A07F05FFD02460B462046294602F01C
:1037E00093FD23685B6820460849012298472046DC
:1037F00002F072FD02F032FC0028DFDDF8BD00BFF0
:10380000401CFF1FD0000100E4000100B0FE0000DA
:103810002DE9F04399B006464F4C504F504D92E081
:1038200006F10408684641462822FFF79DF906A8DC
:1038300041462E22FFF798F923685B6820463946F7
:103840001922984723685B68204629460122984739
:1038500020469DED060B022102F0A2FD2368DFF851
:1038600008815B68204641460122984720469DED2D
:10387000080B022102F094FD23685B682046414654
:103880000122984720469DED0A0B022102F088FD97
:103890002368DFF8D8905B682046494602229847A3
:1038A000204602F019FD23685B6820462D49152249
:1038B000984723685B68204629460122984720469E
:1038C0009DED000B022102F06BFD23685B68204632
:1038D00041460122984720469DED020B022102F04D
:1038E0005FFD23685B6820464146012298472046D9
:1038F0009DED040B022102F053FD23685B68204616
:10390000494602229847204602F0E6FC00210CA816
:10391000084406AB0B44D3E90023C0E90023083177
:103920001829F4D1002112A8084400AB0B44D3E9B4
:103930000023C0E9002308311829F4D130460CA92E
:1039400012AAFFF71DFE02F089FB00287FF768AF7F
:1039500019B0BDE8F08300BF401CFF1FEC00010060
:10396000A400010008010100A8000100AC00010052
:103970002DE9F04184B0804600258DF80F50354C7C
:1039800023685B682046344916229847204602F097
:10399000A3FC324F324E0DF10F03009308F10400E7
:1039A00003A90DF10D020DF10E03FFF79BF823683B
:1039B0005B68204639461122984720469DF80C1036
:1039C0000A22002302F0AEFC23685B6820463146E1
:1039D0000622984720469DF80D100A22002302F087
:1039E000A1FC23685B6820461E49072298472046B1
:1039F0009DF80E100A22002302F094FC23685B68F5
:103A0000204619490522984720469DF80F100A22A2
:103A1000002302F087FC23685B68204613490122DB
:103A20009847204602F058FC9DF80E30022B07D92B
:103A300001354FF4967001F019FD042DABDD05E062
:103A40004FF4967001F012FD0025A4E704B0BDE824
:103A5000F08100BF401CFF1F200101006000010039
:103A6000740001007C00010084000100B0FE000031
:103A700000B589B000238DF80F300DF10F030093CE
:103A8000043003A90DF10D020DF10E03FFF72AF822
:103A90009DF80E30022B0AD804A8312102F01AFE3C
:103AA000044804A900F0A8FB04A802F0A5FD09B091
:103AB0005DF804FB3816FF1F30B52DED068B8DB079
:103AC0000446051D684629462E22FFF74DF806A834
:103AD00029462822FFF748F8DDE9000107F010FF2A
:103AE00009EE100ADDE9020107F00AFF08EE900A6C
:103AF000DDE9040107F004FF08EE100ADDE9060124
:103B000007F0FEFE0AEE900ADDE9080107F0F8FE74
:103B10000AEE100ADDE90A0107F0F2FE09EE900A4A
:103B200029EE097A68EEA87A37EE277A68EE087AE5
:103B300077EE277A17EE900A07F0ACFB41EC100BFA
:103B40009FED191B05F09CFE194B03F5966282ED63
:103B5000009A03F2B442C2ED008A03F5976282ED47
:103B6000008A03F2BC42C2ED00AA03F5986282ED1E
:103B700000AA03F2C443C3ED009A2046FFF778FF82
:103B800029EE2A0A68EE8A8A30EE280A28EE298A67
:103B900030EE080ADFED077A80EE270A0DB0BDECA3
:103BA000068B30BDAFF30080000000000000E03F56
:103BB0003816FF1FC3F51C4184B030B58DB011AC71
:103BC00084E80E00041D684621461A22FEF7CCFF49
:103BD00006A821461422FEF7C7FF254C04F2D4455F
:103BE000DDE9000107F08CFE286004F2DC45DDE928
:103BF000020107F085FE286004F59B65DDE90401FC
:103C000007F07EFE286004F59965DDE9060107F0FE
:103C100077FE286004F59A65DDE9080107F070FE7B
:103C2000286004F2CC45DDE90A0107F069FE28604E
:103C3000149BC4F8983404F29C43119A1A6004F55A
:103C40009463129A1A6004F2AC43139A1A6004F552
:103C50009C63169A1A6004F2E443179A1A6004F5FA
:103C60009D64189B23600DB0BDE8304004B07047E0
:103C70003816FF1F13680B6053684B6093688B60A6
:103C8000D368CB6013690B61704700BF84B070B517
:103C90002DED028B88B005460FA880E80E0005F5D3
:103CA000AA7105F12806A1F1140428462246FFF75F
:103CB000E1FF2146B442F6D100231393284605F1D3
:103CC00028010FAAFFF7D6FF9DED126AF8EE466AAB
:103CD00005F5A8720F239FED4D7A12ED016AF8EEFB
:103CE000467A77EEE67AC7EE877A17EE901A42F8B0
:103CF0001419013BF1D105F138030F22DFED446ABD
:103D0000B0EE665AF0EE665AB0EE666AD3ED007A0F
:103D100036EE276A27EEA77A75EE875A13ED047AF6
:103D200035EE075A67EE877A76EEA76A1433013AC2
:103D3000ECD126EE058AF2EE0E7A66EEA76A38EE30
:103D4000668A26EE066A65EEA77A76EE677A88EED0
:103D5000278A304B83ED008A05F14C000823DFED04
:103D60002C7AF6EE005A50ED076A10ED027A76EEE4
:103D7000876A66EEA56A10ED056A0246143092ED78
:103D8000007A36EE477A26EE877A77EE877A013B1D
:103D9000E9D1214BC3ED007A38EE278AB0EE480A0C
:103DA00005F0F0FC68B96846322102F093FC1B482C
:103DB000694600F021FA684602F01EFC9FED148A65
:103DC0001AE0DFED177AB4EEE78AF1EE10FA06DCBE
:103DD000FAEE047AB4EEE78AF1EE10FA0CD504A8F4
:103DE000332102F077FC0D4804A900F005FA04A87D
:103DF00002F002FC9FED068AB0EE480A08B0BDEC66
:103E0000028BBDE8704004B0704700BF00247449C5
:103E100000000000DC1AFF1FE01AFF1F3816FF1F0A
:103E20000000964330B585B005460C46FFF784FB8D
:103E3000D5ED007A30EE670A84ED000A95F820305F
:103E40004BB1144B1B680393039B4FF47A7202FB34
:103E500003F3E36002E001F0E5FAE060E3680E4A94
:103E6000934284BF012385F820302846FFF724FEC3
:103E700084ED020A04F10C0393E803008DE80300CB
:103E800094E80E002846FFF701FF84ED010A05B013
:103E900030BD00BF481BFF1F00EA56FA38B5054683
:103EA000FFF74AFB85ED000A282001F0DFFA2846DB
:103EB000FFF742FB85ED000A094C23685B6820464A
:103EC000084916229847286807F0E4F941EC100BDE
:103ED0002046022102F064FA204602F0FDF938BDC6
:103EE000401CFF1F3801010010B50D4C201D4FF084
:103EF000FF312822FEF738FD04F114004FF0FF31A6
:103F000000F0C2FD002384F8203084F8543184F896
:103F1000553120460349044A07F042FD10BD00BF59
:103F2000E014FF1F8D3300003C08FF1F037C13F0DB
:103F3000080F04D0C26A436AD01A02D47047002026
:103F400070476FF00040704708B51030FDF752F928
:103F500008BD00BF00B583B002AB03F8011D1030EF
:103F600019460122FDF746F903B05DF804FB00BFD6
:103F700008B51030FDF77EF808BD00BF08B5103059
:103F8000FCF7A4FF08BD00BF00B583B010300DF1F1
:103F900007010122FCF7D6FE01280CBF9DF807009F
:103FA0004FF0FF3003B05DF804FB00BF70B504466E
:103FB00000F294452846FEF7E1FA00B3264646F89B
:103FC000345F04F58E652846FDF798F830460121E8
:103FD000FDF78EFF20B930460021FDF789FF70B153
:103FE00028463146FCF792FE034640B194F870240F
:103FF00012F0700F1ABF0D4A1560002353B90C4C14
:1040000023685B6820460B4914229847204602F03B
:1040100063F970BD064C23685B682046064913228D
:104020009847204602F058F970BD00BF2014FF1FCA
:10403000401CFF1F700101008801010070B59AB09B
:10404000064600238DF844308DF845308DF8383021
:104050004FF47A720F928DF84030604B0D9311A897
:1040600006F58E615E4A6323FDF750F89DF84430F3
:10407000002B00F0B180D6F8984406F29C431868F3
:1040800007F008F9CDE9000106F59463186807F018
:1040900001F9CDE9020106F2A443186807F0FAF825
:1040A000CDE9040106F59563186807F0F3F8CDE94A
:1040B00006010DA84B49224602F026F906F2AC4350
:1040C000186807F0E7F804460D4606F59663186889
:1040D00007F0E0F8CDE9000106F2B443186807F0F4
:1040E000D9F8CDE9020106F59763186807F0D2F810
:1040F000CDE9040106F2BC43186807F0CBF8CDE91E
:10410000060106F59863186807F0C4F8CDE90801C0
:1041100006F2C443186807F0BDF8CDE90A010DA8FE
:10412000314922462B4602F0EFF806F599631868EC
:1041300007F0B0F804460D4606F2CC43186807F0C5
:10414000A9F8CDE9000106F59A63186807F0A2F80E
:10415000CDE9020106F2D443186807F09BF8CDE9D7
:10416000040106F59B63186807F094F8CDE9060191
:1041700006F2DC43186807F08DF8CDE908010DA8B8
:104180001A4922462B4602F0BFF806F59C631868D0
:1041900007F080F804460D4606F2E443186807F07D
:1041A00079F8CDE9000106F59D66306807F072F8F0
:1041B000CDE902010DA80E4922462B4602F0A4F8D3
:1041C0000D9B5B680DA80B49002298470DA802F0D3
:1041D00083F811A8FCF792FF1AB070BD58010100D6
:1041E0009C010100AC010100C8010100EC010100CB
:1041F0000C020100C403010010B58EB00C46002370
:104200008DF814308DF815308DF808304FF47A722F
:1042100003928DF81030204B019300F58E6105A8B4
:104220001E4A6323FCF772FF1D4B1B680093009A24
:104230009DF814302BB307EE902AB8EE677ADFEDC5
:10424000197AC7EE277A17EE900A07F023F802468C
:104250000B4601A8144902F057F8019B5B6801A8BE
:1042600012490122984701A8214602F00FF8019B4C
:104270005B6801A80E490022984701A802F02CF8BB
:1042800005E00C4803685B680B491922984705A8AC
:10429000FCF734FF0EB010BD580101001C020100F4
:1042A000481BFF1F00007A4430020100A8000100F3
:1042B000C4030100401CFF1F3802010030B59BB051
:1042C00000F58E643E4D20462946FCF77BFF2046D4
:1042D0003C49FCF777FF00238DF810308DF8113042
:1042E0008DF804304FF47A7202928DF80C30364B10
:1042F000009304A821462A466323FCF707FF9DF894
:10430000103053B9314D2B685B68284630491F2265
:104310009847284601F0E0FF0DE01AAD55F8683DDA
:104320005B6868462B49D3229847684601F0D4FF62
:1043300004A8FCF7E3FE00238DF844308DF84530E7
:104340008DF838304FF47A720F928DF840301E4B52
:104350000D9311A821461B4A6323FCF7D7FE04AC3A
:1043600011AD0FCD0FC40FCD0FC42B6823609DF886
:1043700038308DF804300F9B02939DF840308DF853
:104380000C309DF8103053B9104C23685B68204600
:104390000F491F229847204601F09EFF0DE01AACFE
:1043A00054F8683D5B6868460B490E22984768469A
:1043B00001F092FF04A8FCF7A1FE1BB030BD00BFC6
:1043C0009C0101001C02010058010100401CFF1F5C
:1043D0005402010074020100480301000A4B00224C
:1043E0001A745A741A714FF47A7199601A730749E2
:1043F000196083F83B2083F8702483F87124044A01
:10440000C3F89424704700BF3816FF1F58010100FD
:1044100090FF000084B010B503A880E80E002A4C7D
:10442000204601F059FF2046089901F02FFF204651
:1044300001F052FF23685B68204624490822984710
:10444000039806F027FF41EC100B2046032101F0F2
:10445000A7FF204601F040FF23685B6820461C4907
:1044600008229847049806F015FF41EC100B2046EF
:10447000042101F095FF204601F02EFF23685B68C0
:104480002046144908229847059806F003FF41EC9E
:10449000100B2046032101F083FF204601F01CFF92
:1044A00023685B6820460C490822984720460699F5
:1044B0000622002301F036FF204601F00DFFBDE883
:1044C000104004B0704700BF401CFF1F980301005C
:1044D000A4030100B0030100BC03010038B5454C42
:1044E00023685B682046444934229847204601F0FF
:1044F000F3FE23685B6820464049352298472046F2
:1045000001F0EAFE23685B6820463D493622984761
:10451000204601F0E1FE23685B68204639493522D8
:104520009847204601F0D8FE23685B68204636494C
:1045300035229847204601F0CFFE23685B6820466D
:10454000324936229847204601F0C6FE2368304D96
:104550005B682046294600229847204601F0BCFEB1
:1045600023685B6820462B4937229847204601F094
:10457000B3FE23685B6820462749252298472046DA
:1045800001F0AAFE23685B6820462946002298476E
:10459000204601F0A1FE23685B6820461F494C229B
:1045A0009847204601F098FE23685B6820461C4926
:1045B00038229847204601F08FFE23685B6820462A
:1045C000184930229847204601F086FE23685B6830
:1045D0002046154940229847204601F07DFE236879
:1045E0005B682046294600229847204601F074FE69
:1045F00038BD00BF401CFF1FC803010000040100BC
:104600003804010070040100A8040100E004010066
:10461000C4030100180501005005010078050100E0
:10462000C805010004060100380601002DE9F00F5D
:1046300082B00A9F002B009336DD0B9B9800DDF8BB
:1046400030904FEA870B88464FF0000A0192DFED69
:10465000186A1EE0E1EC016A002F10DD2A4663466D
:10466000B3EC017AD2ED007A67EE277A11ED017A88
:1046700077EE277A41ED017A0244A342F0D1043566
:10468000B142E7D10AF1010A8144D844009B9A451E
:104690000AD00B9B002BF5DD019D00EB090608EB12
:1046A0000B044946C446D5E702B0BDE8F00F704799
:1046B000000000002DE9F00FDDF820C0DDF82490A7
:1046C000002B20DD4FEA8C088B4601EB080A002600
:1046D00037460DE0B1EC017AF0EC017A77EE277AFB
:1046E000E4EC017AA942F5D1013746449F420AD051
:1046F000BCF1000FF8DD06EB0A0509EB0604901982
:104700000BEB0601E6E7BDE8F00F70472DE9F00F6F
:10471000DDF820C0DDF82490002B20DD4FEA8C0866
:104720008B4601EB080A002637460DE0B1EC017A12
:10473000F0EC017A77EE677AE4EC017AA942F5D1E0
:10474000013746449F420AD0BCF1000FF8DD06EB6A
:104750000A0509EB060490190BEB0601E6E7BDE834
:10476000F00F70472DE9F003B2F100091ADD4FEAAE
:104770008308069A4FEA89074FF0000C0BE050F8C7
:10478000045B25603C448642F9D10CF1010C4144A4
:104790000432CC4506D0002BF7DD08EB01061446A9
:1047A0000846ECE7BDE8F003704700BF70B4002A8C
:1047B00013DD9E0000250BE0D0ED007A67EE807AD5
:1047C000E0EC017AA042F7D101353144954204D0A2
:1047D000002BF9DD74180846EEE770BC704700BF87
:1047E0002DE9F04F8BB000AF7962501E38604FEA70
:1047F000820909F10A0323F00703ADEB030DC7F8A3
:104800000CD0002A40F3A6803A61CA46CB46C7F8CE
:1048100008900023FB619C46541CBC619FED726AAA
:10482000F7EE005A786A786087E0D1ED007AF5EE0D
:10483000C07AF1EE10FAD4BFB1EE677AB0EE677AC3
:10484000B4EEE67AF1EE10FA09DBF5EEC07AF1EE9D
:1048500010FAD4BFF1EE676AF0EE676A18460133CA
:1048600051449342E1D138623B6A02FB03F101EB10
:104870000C037C6A04EB8303D3ED007AF5EE407AF7
:10488000F1EE10FA0BD1594C23685B682046584969
:1048900027229847204601F01FFD0020A0E0386A3B
:1048A000844500F083800CFB02F07C6A04EB8003FB
:1048B00004EB81013C6920447C6A04EB80001C68A5
:1048C0000D6843F8045B41F8044B8342F7D16DE077
:1048D000D3ED007A67EE877AE3EC017A8B42F7D169
:1048E000786A00EB8C067D680024C7F814A0D7F81E
:1048F00008A0A44513D0D6ED006A86ED006A09EB46
:10490000050041462B4693ED007AF1EC017A67EE03
:10491000A67A77EE677AE3EC017A8342F3D1013429
:104920005D4456449442E4D1D7F814A0F96901F1EA
:10493000010C94450ED0C7F81CC0624594DDBB69DC
:104940000CFB03F17C6A04EB81016346F0EE466ADE
:10495000386A6AE73868002824DBF96801EB820CC2
:10496000A9F104067B6A1E444FF0000882469B466C
:104970005CF8041D51450ED0002A0CDD0BEB8101C3
:10498000334640461C680D681D600C6001304B4486
:1049900049449042F6D10AF1FF3A043EBAF1FF3F92
:1049A000E6D101E001201BE0012019E03C6AF86833
:1049B00040F82C40B9690CFB01F37C6A04EB8301DD
:1049C00091ED007A85EE877AC1ED005ACCEB0303B6
:1049D00004EB83083869034404EB8301434677E71B
:1049E0002C37BD46BDE8F08F00000000401CFF1FC3
:1049F00080060100014B0360704700BFB0FF00005C
:104A000010B50446024B036001F03CFC204610BD8B
:104A1000B0FF000038B505460C46084600212822A4
:104A200007F084FB20460A490B2207F05BFE0023B7
:104A3000E3720122E260AA68226106226261636277
:104A4000044BA361044BE361044B236238BD00BFF8
:104A5000A806010000808944000096430AD7233C41
:104A6000084B5A898A1A198901FB02F2D213B3F949
:104A70001200C002B3F91430134490FBF3F0104459
:104A8000704700BF2C1BFF1F014A02608160704706
:104A9000B8060100FFFFFFFF08B5C0EE800A10EE68
:104AA000900A06F0F7FB41EC100B9FED0B1B04F096
:104AB000E7FE00200C4953EC102B06F08BFA08A3FC
:104AC000D3E9002306F03AFC06F01AFF00EE100AC4
:104AD00008BD00BFAFF3008000000020C05BC83FEE
:104AE0000000000040A5E5400000F03FAFF300806B
:104AF00070B506460D46084C20467721FEF714FB9C
:104B000020463146FEF730F920462946FEF72CF9BB
:104B10002046FEF72DFC70BDC814FF1F08B5054BDD
:104B2000197889013431F42001F0FC01FFF7E0FF2E
:104B300008BD00BF441BFF1F70B506460D460C4C58
:104B400020467721FEF7F0FA20463146FEF70CF9B1
:104B50002046FEF70DFC204677210122FEF702FCDD
:104B60002046FEF72DF928702046FEF701FC70BDA7
:104B7000C814FF1F00B583B0F4200DF10701FFF743
:104B8000DBFF9DF8070080F02000C0F3401003B069
:104B90005DF804FB70B506460D460F4C20467721A4
:104BA000FEF7C2FA20463146FEF7DEF82046FEF751
:104BB000DFFB204677210222FEF7D4FB2046FEF7DA
:104BC000FFF806462046FEF7FBF840EA062028805C
:104BD0002046FEF7CDFB70BDC814FF1F10B582B094
:104BE0000C460DF10601FFF7D5FFBDF80630238016
:104BF00002B010BD10B582B00C462548FEF788F90A
:104C0000D0200DF10701FFF797FF9DF80730552BD6
:104C10003AD1032C28BF03241E4B1C701E4CAA2023
:104C20002146FFF7DBFFAC20A11CFFF7D7FFAE202A
:104C3000211DFFF7D3FFB020A11DFFF7ABFFB2206E
:104C400004F10801FFF7A6FFB42004F10A01FFF701
:104C5000A1FFB62004F10C01FFF7C0FFB82004F15A
:104C60000E01FFF7BBFFBA2004F11001FFF7B6FFFA
:104C7000BC2004F11201FFF7B1FFBE2004F11401C2
:104C8000FFF7ACFF012000E0002002B010BD00BF24
:104C9000C814FF1F441BFF1F2C1BFF1F10B582B041
:104CA0000446F4202E21FFF723FF062000F0DEFB50
:104CB000F6200DF10601FFF76DFFBDF80630236009
:104CC00002B010BDF0B583B007460D4602A8002221
:104CD00040F8042DFFF7E2FF464C2178890134317A
:104CE000F42001F0FC01FFF703FF2378012B07D02C
:104CF00013B1022B08D00BE0052000F0B7FB0AE04F
:104D0000082000F0B3FB06E00E2000F0AFFB02E04D
:104D10001A2000F0ABFBF6200DF10201FFF73AFF7D
:104D2000BDF802603602012000F0A0FBF8200DF172
:104D30000101FFF701FF2F4B1C789DF801301E4445
:104D4000C4F108031E4138460199FFF789FEA0F51A
:104D50007A6000FB00F21213274BB3F9047000FBDA
:104D600007F7B3F90C1001FB02F1091401EB6731ED
:104D70000231891001F50041DF8807FB01F1C90B01
:104D8000B3F90070B3F90EC002FB0CF2B3F90230B4
:104D900000FB03F0C01200EBE22202EB8703A3400A
:104DA0000233A6EBA3064CF25033234103FB06F378
:104DB000002BA7BF5C00B4FBF1F4B3FBF1F464007B
:104DC000231203FB03F340F6DE3202FB03F30B4A2C
:104DD00002FB04F2121402EB234303F6CF6304EB4D
:104DE000231407EE104AF8EEC77AC5ED007A03B037
:104DF000F0BD00BF441BFF1F2C1BFF1F43E3FFFF41
:104E000070B582B005460C4624260846002132467D
:104E100007F08CF92660AB6863600623A36000236B
:104E20002361284601A9FFF74DFFDFED057A9DEDCF
:104E3000017AC7EE277AC4ED057A012002B070BD71
:104E40000000C842F0B583B005460E46002301932A
:104E5000F6200DF10201FFF79DFEBDF802703F0242
:104E6000F8200DF10101FFF767FE9DF801201744BE
:104E7000304C2378C3F108031F4101A8FFF70EFF50
:104E8000FFF74CFE28460199FFF7EAFDA0F57A608E
:104E900000FB00F52D132278274BB3F9044000FBEB
:104EA00004F4B3F90C1001FB05F1091401EB6434AF
:104EB0000234A41004F50044D98801FB04F4E40B87
:104EC000B3F90010B3F90EC005FB0CF5B3F90230CD
:104ED00000FB03F0C01200EBE52505EB81019140DA
:104EE0000231A7EBA1074CF2503141FA02F202FB6A
:104EF00007F2002AA7BF5300B3FBF4F3B2FBF4F3AD
:104F00005B001A1202FB02F240F6DE3101FB02F2F4
:104F10000A4901FB03F1091401EB224202F6CF62B8
:104F200003EB221307EE103AF8EEC77AC6ED007ACB
:104F300003B0F0BD441BFF1F2C1BFF1F43E3FFFF0B
:104F4000844641EA000313F003036DD1403A41D394
:104F500051F8043B40F8043B51F8043B40F8043B53
:104F600051F8043B40F8043B51F8043B40F8043B43
:104F700051F8043B40F8043B51F8043B40F8043B33
:104F800051F8043B40F8043B51F8043B40F8043B23
:104F900051F8043B40F8043B51F8043B40F8043B13
:104FA00051F8043B40F8043B51F8043B40F8043B03
:104FB00051F8043B40F8043B51F8043B40F8043BF3
:104FC00051F8043B40F8043B51F8043B40F8043BE3
:104FD000403ABDD2303211D351F8043B40F8043B83
:104FE00051F8043B40F8043B51F8043B40F8043BC3
:104FF00051F8043B40F8043B103AEDD20C3205D393
:1050000051F8043B40F8043B043AF9D2043208D08A
:10501000D2071CBF11F8013B00F8013B01D30B88FC
:1050200003806046704700BF082A13D38B078DD0DA
:1050300010F003038AD0C3F10403D21ADB071CBFAC
:1050400011F8013B00F8013B80D331F8023B20F816
:10505000023B7BE7043AD9D3013A11F8013B00F84F
:10506000013BF9D20B7803704B7843708B788370D7
:1050700060467047024B1A6801321A60704700BFE1
:10508000481BFF1F08B50D4C236813F4802F01D077
:1050900000F07CFB236813F4806F01D001F052FF15
:1050A000236813F4006F01D002F00EFB236813F4A1
:1050B000805FE9D002F0CCFDE6E700BF3480044019
:1050C00008B5FFF7DFFF00BF1022014B1A807047C1
:1050D00000200540704700BF024A13681844106062
:1050E000184670479408FF1FFEE700BFEFF31383D5
:1050F000ABB9EFF31083ABB9EFF3058323B10F2BFB
:1051000005D9094A985C03E04FF4807000E0002064
:10511000EFF311833BB1834238BF184670474FF01D
:10512000FF30704700207047F0E300E00B4B1B7826
:10513000DBB2802B0ED10A4A0A4B1A60002203F51B
:10514000573303F2BD331A70044A1378DBB2802B55
:10515000FBD001E0002070470120704703E00740CA
:1051600000002822448004400B4B1B78DBB2012B4B
:105170000FD1602203F1804303F5FC231A70064A25
:105180001378DBB2802BFBD1044A054B1A60012057
:1051900070470020704700BF03E007400000060290
:1051A00044800440704700BF1D4B03EBC0004368C0
:1051B00003F14042A2F592227C2A18D903F1404221
:1051C000A2F594227C2A14D903F14042A2F596223A
:1051D0007C2A10D903F14042A2F598227C2A0CD9EE
:1051E00003F14042A2F59A227C2A08D970470D4962
:1051F00006E00D4904E00D4902E00D4900E00D49CB
:1052000072B61A6822F0877222F4803242F08072FD
:105210001A60C3F38403084A41F8232062B670473A
:10522000D00601009808FF1F1009FF1F7009FF1F1B
:10523000A009FF1FE009FF1FA5510000044B002239
:105240001A6004490A60044A106010221A6070470C
:1052500014D0034004D0034000D003403F281ED8A0
:105260000F4B53F8303093F8802212F0FF0F08D024
:1052700019B1012283F880207047012283F80021B0
:105280007047074B03EBC000436821B11A6842F036
:1052900003021A6070471A6822F002021A6070470F
:1052A000D00601003F283AD81D4B03EBC0035B68D2
:1052B000012919D0042925D0194A52F8302000209C
:1052C00082F8800219B94FF480721A60704702297F
:1052D00003D140F203121A60704703290CBF4FF448
:1052E000817200221A6070470D4A52F83020012165
:1052F00082F880124FF4A2721A601A6822F020021B
:105300001A607047064A52F83020012182F8801254
:105310004FF4A2721A601A6842F020021A607047B5
:10532000D006010070B50D463F2861D8042A5FD829
:10533000DFE802F00709050B03000B2306E00A2350
:1053400004E0082302E00C2300E009231E04294B9B
:1053500003EBC0035C68236813F4E06F02D1002103
:10536000FFF7A0FF244B254AC3F82C21244AC3F899
:105370003021244AC3F83421234AC3F83821234A70
:10538000C3F83C2104F14043A3F592237C2B18D9A8
:1053900004F14042A2F594227C2A14D904F140433E
:1053A000A3F596237C2B10D904F14043A3F5982351
:1053B0007C2B0CD904F14043A3F59A237C2B08D90C
:1053C00070BD134906E0134904E0134902E0134994
:1053D00000E0134972B6236823F470232360C4F3FA
:1053E000840241F8225043F080731E43266062B667
:1053F00070BD00BFD00601000002FF1F1108FF1F93
:10540000E507FF1FB907FF1F8D07FF1F6107FF1F7C
:105410009808FF1F1009FF1F7009FF1FA009FF1F39
:10542000E009FF1F72B60D4B1B680D4A12680D494B
:10543000096862B611F0806F02D0322B88BF01324A
:10544000C3F52F3303F21F339B080749A1FB030366
:105450009B084FF47A7000FB0230704718E000E0C0
:10546000481BFF1F04ED00E0176CC11638B5054658
:10547000FFF7D8FF044625B938BD013D0AD004F531
:105480007A74FFF7CFFF001BB0F57A7FF5D201F0F9
:1054900045F9F6E738BD00BF70B5404B4FF00062EC
:1054A0001A604FF080521A604FF000521A604FF0AD
:1054B00080421A604FF000421A600022384B1A6096
:1054C0004EF6FF7004331860282336490B6008310C
:1054D0000B6008310B6008310B6008310B6008313C
:1054E0000B6008310B6008310B602F4D2B602F4C87
:1054F000236001F5002101F6D8710B6008310B60C3
:1055000008310B6008310B6008310B6008310B600B
:105510000921274E316006F5805604363260043684
:1055200030600436336008363360143E316006F56F
:10553000FE260436326004363060043633600836A6
:105540003360143E316006F580560436326004360E
:1055500030602B602360174801601749086840F4E9
:10556000007008602839086840F00070086001F594
:1055700001210A6047F6FF71104A1160043213607E
:105580000832136008220E4B1A6001F0F7F84FF44E
:10559000C870FFF76BFF00F079FC70BD04E100E01C
:1055A000048003400C8003400C900B4014900B408F
:1055B0000080034000900B402C80044008900C4079
:1055C00000900C4030B40E4B1B7843F002020D4C9F
:1055D00004EBC20460600C48007800280CBF8824EB
:1055E000C82444EA0141074D45F8321080F001001B
:1055F000054A107083F00103014A137030BC7047F4
:10560000B41BFF1F0000FF1F2D1CFF1F10B4431E03
:10561000032B11D872B60A4A52F8230050B14268DF
:10562000074941F82320074A32F813400188611ADC
:1056300022F8131062B600E000205DF8044B7047BA
:10564000A41BFF1FEC1FFF1F013803280DD872B6E3
:10565000074B53F820302BB1002001305B68002B42
:10566000FBD100E0002062B670470020704700BF09
:10567000F81BFF1F38B572B601231B491B4C5A1883
:1056800012F8012C12F0080F24D09A0054F832506E
:105690006DB9164B03EBC20108304860144943F85A
:1056A0003210144B1A78013A1A7062B638BD42F0C3
:1056B000010254F832506DB90C4B03EBC2010830B3
:1056C00048600D4943F832100A4B1A78013A1A70B3
:1056D00062B638BD0133052BD1D162B60022054B2D
:1056E0001A7000F045FC38BD080901000000FF1FDA
:1056F00088004000221CFF1FC800400010B4431E59
:10570000032B37D8400140F010001C4A104472B6F9
:105710001B4AD25C032A09D8DFE802F019021B05F4
:105720000830022216E00830042213E0154A52F82D
:1057300023201AB9134A42F8231003E0124A52F800
:1057400023205160104A42F8231062B612E003226F
:1057500000E005220A4CE25401F10803436000F026
:105760000803002B0CBF8823C8230A8843EA02439E
:10577000036062B65DF8044B704700BF0000FF1F76
:10578000601BFF1FF81BFF1F081CFF1F2DE9F84FB0
:10579000A34CDFF8E092DFF8E0A2DFF8E0B2257872
:1057A000EDB215F0040F1DD09E4B1B7813F0FF0FC8
:1057B00016D09D4B1B7803F0FF022BB1531EDBB2BA
:1057C000994A137003B900BE984B1B7803F0FF028F
:1057D00033B1531EDBB2954A13700BB900F026FDAE
:1057E0000423237015F0080F00F0E48299F80030CC
:1057F000DBB21D0940F021828D4D9E0805EBC603EA
:105800005A6855F83630C3F38303013B0C2B00F282
:105810001082DFE813F0CB01CB010E020E020E0264
:105820000E020E020E02E8010E020E020E020D0022
:10583000804913680B6052684A607F4A45F83620F9
:1058400000227E490A607A490A618A6101217C4A04
:1058500011709BB240F28162934218D8B3F5D06FB9
:105860002ED2B3F5817F00F01E8106D8802B00F088
:10587000C980822B00F0CC8066E140F20232934274
:1058800000F02681B3F5A06F00F062815CE142F286
:105890002102934200F0868107D8B3F5086F00F02B
:1058A000AB80B3F5106F11D04EE142F2212293424A
:1058B00000F0418142F22132934200F0498143E1FC
:1058C000604B5D68002D40F0188130E1594B9A78AB
:1058D000544B1A70564D05F180062B6A13F0800F59
:1058E00003D0686A083800F043FB0835B542F4D1AC
:1058F000DFF88C8100263746534AB05828B14568F6
:1059000000F036FB0DB12846F9E700234E497350ED
:105910004E4AB3504E4BF05828B1456800F028FB72
:105920000DB12846F9E7002349497350494AB3505D
:1059300028F8023F484BFB5C023B032B0AD8DFE808
:1059400003F0020602060022434BDA5502E0012270
:10595000414BDA5501370436102ECDD100223F4B92
:105960001A7001253E4EDFF81C81314F05EB08030C
:1059700013F8013C06F8043B13F0080F2DD000F09B
:10598000D7FA48B1A90007EB451200F108035360AC
:10599000344A47F8312007E0AB00002247F83320B3
:1059A0002E4B1A7801321A7000F0C2FA58B1AB00CF
:1059B00043F0010307EBC30100F108024A601E4AED
:1059C00047F8332009E0AB0043F00103002247F819
:1059D0003320224B1A7801321A70AA0042F00201D9
:1059E000002347F8313042F0030247F832300135E6
:1059F0001D4B9E42BAD11EE20A4B1B781B4D2B70E9
:105A00000127AAE0194D00232B706B700227A4E038
:105A1000084B9B88042B37D90F22154B1A70C1E015
:105A2000802007402C1CFF1FB51BFF1F2E1CFF1FD3
:105A30000000FF1F181CFF1FC80040004C1BFF1F69
:105A40002D1CFF1F0C090100A41BFF1F501BFF1F73
:105A5000F81BFF1F081CFF1F601BFF1F221CFF1FDE
:105A6000C420074088004000D4200740241CFF1FAA
:105A7000C02007409020074094200740982007400E
:105A8000EA1FFF1F08090100A04A00211170517090
:105A90009F4A12F8233013F0020F5CD09B4D012374
:105AA0002B70022759E09B4B9B8803F07F03042B4C
:105AB00002DC984A52881AB10F22954B1A7071E095
:105AC000934A12F8231021F0020102F82310B2E1E8
:105AD000904B9B8803F07F03042B02DC8D4A528895
