:1000000000000320D10100006159000025590000C3
:1000100025590000255900002559000025590000E8
:10002000255900002559000025590000615900009C
:100030006159000025590000615900001559000060
:1000400061590000615900006159000061590000C8
:1000500061590000615900006159000061590000B8
:1000600061590000615900006159000061590000A8
:100070006159000061590000615900006159000098
:100080006159000061590000615900006159000088
:100090006159000061590000615900006159000078
:1000A0007938000061590000615900006159000071
:1000B000615900006159000061590000B57C0000E1
:1000C000615900003984000061590000C1890000B5
:1000D00061590000ED8F0000615900006159000076
:1000E0006159000061590000615900006159000028
:1000F0006159000061590000615900006159000018
:100100006159000061590000615900006159000007
:1001100061590000956300006159000061590000B9
:1001200061590000615900006159000061590000E7
:1001300061590000615900006159000061590000D7
:1001400061590000615900003D95000061590000AF
:1001500061590000615900006159000061590000B7
:1001600061590000615900006159000061590000A7
:100170006159000061590000615900006159000097
:1001800061590000C92D000061590000615900004B
:1001900061590000615900009D9B000061590000F9
:1001A0006159000061590000615900006159000067
:1001B0006159000061590000615900006159000057
:1001C0006159000061590000615900006159000047
:1001D0005C4B4CF2205210B51A804DF628121A8052
:1001E00000BF00BF05F0C0FB574B4FF030621A60F4
:1001F000564A9A60564ADA60564B4FF470021A60BB
:10020000554B564A1A60564B1A6812F4807204D144
:1002100054490A604FF4A8521A60534B1A781107D8
:1002200003D51A7842F008021A70504B504C5148CE
:10023000AA221A70504A00239918A14203D21958D1
:1002400099500433F8E74D4B4D4900228B4202D2BE
:1002500043F8042BFAE74B484B4900235A581A50ED
:100260000433B3F5E87FF9D1484B494A802103F8BC
:10027000011B9342FBD1474B424A1A60464B8A22EC
:100280001A70A3F5805324225A70A0221A709A790A
:100290009207FCD59A79D406FCD4404B9A7902F0A7
:1002A0000C02082AFAD13E4B60221A7002331A78E7
:1002B000802AFCD1394B01221A715D225A719A7938
:1002C0009006FCD59979354A4906FBD5354B364918
:1002D00019600021596020231370937903F00C03F7
:1002E0000C2BFAD1314B324A1A60324B324A1A6027
:1002F00000225A60072243F8042C304AC3F80C2D20
:1003000062B605F0CDFE174B1B68DA0705D52C4801
:1003100005F0E4FB2B4B2C4A1A602C4B1B785B0638
:1003200009D5284C284A2368934204D1244805F073
:10033000D5FB002323600EF0B1F905F01BFB06F09E
:100340009DFDFEE70E20054030800440823F040002
:100350000100002B88ED00E0002008E0030000858C
:1003600010D0034014D0034002D0074000E0074003
:100370007C13FF1FCC3D01006007FF1F7C13FF1F94
:100380000420FF1F0002FF1F0000000000E400E047
:1003900064E400E008ED00E0005006400040064044
:1003A00001E007404480044000000602048004404D
:1003B000C010070014E000E01FBF02000000202072
:1003C0000B1E21051CE00340A5C3945A00F0074012
:1003D000FFFFFFFFFFFFFFFFFFFFFFFFFFFFFFFF2D
:1003E000FFFFFFFFFFFFFFFFFFFFFFFFFFFFFFFF1D
:1003F000FFFFFFFFFFFFFFFFFFFFFFFFFFFFFFFF0D
:10040000FFFFFFFFFFFFFFFFFFFFFFFFDEF9FFFF23
:1004100010B5054C237833B9044B13B10448AFF33E
:1004200000800123237010BD7C13FF1F000000001B
:10043000C43D010008B5064B1BB106480649AFF3A1
:1004400000800648036813B1054B03B1984708BD07
:1004500000000000C43D01008013FF1F7C13FF1F3C
:1004600000000000037C13F0080F04D0C26A436A46
:10047000D01A02D47047002070476FF000407047D8
:1004800008B5103001F0EEFA08BD00BF00B583B02A
:1004900002AB03F8011D10301946012201F0E2FA07
:1004A00003B05DF804FB00BF08B5103001F01AFA84
:1004B00008BD00BF08B5103001F040F908BD00BF0D
:1004C00000B583B010300DF10701012201F072F880
:1004D00001280CBF9DF807004FF0FF3003B05DF816
:1004E00004FB00BF10B5062005F02CFB04460720D6
:1004F00005F028FB8442044B1A680CBF02F1FF325E
:1005000001321A6010BD00BFDC13FF1F38B50D208B
:10051000012105F025FB0D20012105F0EFFA4FF434
:100520007A7005F0A7FD1E4C23685B6820461D49C4
:1005300011229847204606F0D3FC23681A4D5B68C9
:100540002046294603229847204606F0C9FC236826
:100550005B682046294603229847204606F0C0FCE7
:10056000124D284604F0A8FA114804F023F8114867
:1005700003F04AFB104804F06FFA06200F490322EB
:1005800005F02EFB23685B6820460D490B22984737
:10059000204606F0A5FC284604F038FB38BD00BF15
:1005A000401CFF1F142A0100282A0100241BFF1FE2
:1005B0002816FF1FD014FF1F201BFF1FE50400009B
:1005C0002C2A01002DE9F0472DED068BB0EE409A64
:1005D000F0EE609A11EE106A11EE90AA9FED60AAFB
:1005E00060EE0A7A17EE900A0DF0BCFC41EC180B95
:1005F00041EC100B0AF0B6FC59EC108B89EE0AAAFC
:100600001AEE100A0DF0AEFC41EC100B0AF0AAFC39
:1006100055EC104B30460DF0A5FC22462B460DF054
:10062000F5FC41EC100B09F03BFF57EC106BB0EE02
:10063000480AF0EE680A0AF095FC55EC104B0020D1
:10064000484942464B460DF00BFE32463B460DF004
:10065000DDFC0DF0BDFF0DF085FC02460B4620468B
:1006600029460DF0D3FC41EC100B0AF0D5F80AF046
:100670005FFA57EC106B50460DF074FC04460D46C3
:10068000F7EE007AC7EE897A17EE900A0DF06AFC51
:1006900032463B460DF0BAFC02460B462046294640
:1006A0000DF000FB0DF094FF07EE900A77EEE99A4B
:1006B000F8EE007A69EE277A67EEA97A17EE900ACB
:1006C0000DF050FC41EC100B0AF0AEF90020264969
:1006D00053EC102B0DF0E6FA0DF07AFF08EE100A3D
:1006E000B5EE408AF1EE10FADFED207A48BFB0EEA9
:1006F000678A69EE299A19EE900A0DF033FC41ECF5
:10070000100B0AF091F959EC108BDFED157A87EE9A
:10071000899A19EE100A0DF025FC41EC100B0AF035
:1007200021FC57EC106B18EE100A0DF01BFC41EC8D
:10073000100B0AF017FC55EC104B40464946324668
:100740003B460DF063FC22462B460DF05FFC0DF09E
:100750003FFF00EE100ABDEC068BBDE8F08700BF3E
:10076000C3F51C410000F0BF0000F03F0000000096
:1007700008B52DED028BF0EE408AB0EE608A9FED59
:100780001C7A37EE407ADFED1B7A67EE277A17EE98
:10079000900A0DF0E7FB41EC100B0AF045F9F3EE7F
:1007A000047AB4EEE78AF1EE10FA0AD59FED120A48
:1007B000F0EE680A9FED111ADFED0D1AFFF702FF48
:1007C00013E0F3EE047AB4EEE78AF1EE10FA0ADBF6
:1007D0009FED0B0AF0EE680AB0EE671ADFED091A1A
:1007E000FFF7F0FE01E09FED050ABDEC028B08BDAE
:1007F0000000ED43D6AB80BAD6AB003A0000000053
:10080000CA83543ACA30E94384B02DE9F04F2DED44
:10081000028BC1B006464DA880E80E009DED4E7AD1
:100820005099059133ACA34D0FCD0FC40FCD0FC41C
:100830002B682360DDED4D4ACDED064A8DED077A3C
:10084000DDED4F6ACDED086A9B4B1A680599891A50
:1008500007EE901AF8EE677A9FED986AC7EE867AEF
:10086000059A1A6067EEA75AB6EE006A65EE865AD8
:10087000CDED0C5ACDED0D7A4FF07E530E93CDEDAC
:10088000347A8F4B83FB0613F217C2EBE3131BB2D0
:10089000C3F1010307EE903AB8EEE75A07EE906A0B
:1008A000F8EEE75A9FED878A25EE088A9FED864A83
:1008B00025EE844ADFED857A84EE274A38EE048AF5
:1008C0009FED834A25EE045A9FED824A65EE845AD5
:1008D000C5EEA77A75EE277A28EE278ADFED7E7AB5
:1008E00067EE277A27EE877A27EE066A28EE068AD1
:1008F000DFED7A5A88EE258ADFED797A37EEC88AFD
:10090000F2EE047AF4EEE76AF1EE10FA04DDDFEDC0
:10091000757A38EE278A11E0F3EE047AF4EEE74AAE
:10092000F1EE10FA0AD5FBEE047AF4EE674AF1EE26
:1009300010FADFED6D7AC8BFB0EE678AB0EE480AF4
:1009400009F0F2FF60B93CA8372106F043FD674883
:100950003CA903F0FDFE3CA806F0E2FC9FED628A94
:10096000634D28460CA903220123B0EE480A04F087
:100970006BFADFF88881032400944FF0010ACDF868
:1009800004A009AE0296284633A94246234604F045
:100990009BF9CDF800A0CDF8048028460CA932467A
:1009A000234604F0D5F9DFF858910094019418AE6D
:1009B0000296284633A94A46234604F085F921AF1A
:1009C0000097284633A92246234604F019FA0094DA
:1009D00001940DF1A80BCDF808B0284631463A46EF
:1009E000234604F071F90094CDF804902846594646
:1009F000404A234604F0ACF90094019628463E494B
:100A00004A46234604F0A4F928463146224604F01B
:100A100035FA009401940DF13C0BCDF808B028464E
:100A200049463246234604F04FF9CDF800A001961E
:100A3000284606A94246234604F0B6F90094CDF8AC
:100A400004A00297284659463246234604F03CF952
:100A5000CDF800A0CDF80480284641463A4623460A
:100A600004F076F90094CDF804A002962846594681
:100A70004A46234604F028F9CDF800A0CDF80490AA
:100A8000284649463246234604F08EF9D8F800300D
:100A900052990B60D8F804304B60D8F808308B605E
:100AA000059ACA6041B0BDEC028BBDE8F04F04B0BE
:100AB000704700BFF02901000814FF1F002474498B
:100AC0001F85EB51D7A3F03E713D0A3F0000C8439C
:100AD000F0B3C13B6027423C3D0A973F02BC554002
:100AE000C3F51CC192060B42000000002816FF1F30
:100AF000281BFF1F4008FF1F6408FF1F9C13FF1FD8
:100B0000E413FF1F2DE9F04393B0DFF8709008AEB7
:100B1000DFF86C802AE04846314603F0FDFC0DAD5D
:100B200002950BAF97E803008DE8030096E80E00EE
:100B30000020FFF769FE02AC0FCD0FC42B682360C5
:100B400097E803008DE8030096E80E00484603F09E
:100B5000E7FB9DED080ADDED090AFFF709FE08F243
:100B6000F44383ED000A404603F06CFD06F07AF88A
:100B70000028D0D013B0BDE8F08300BFD014FF1F11
:100B80002816FF1F10B5022404E0204605F072FA73
:100B900006F01CF806F066F80028F6DC10BD00BF71
:100BA0002DE9F0472DED048B9CB0DFF8BC81674D3B
:100BB0004046294600F03EFF00268DF818608DF86B
:100BC00019608DF80C604FF47A7304938DF81460FB
:100BD0001CAC5F4B44F8683D06A841462A46632397
:100BE00000F0CCFE029B5B6820465A490D229847D4
:100BF000204606F075F906A800F0B8FE05F016FAD2
:100C00008046DFF89091DFF890A19FED538ADFEDE9
:100C1000539A9FED539ADFED538A00238DF84C30A1
:100C20008DF84D308DF840304FF47A7211928DF876
:100C30004830474B0F9313A84B49444A632300F0B5
:100C40009DFE06AC13AD0FCD0FC40FCD0FC42B68A6
:100C500023609DF840308DF80C30119B04939DF873
:100C600048308DF8143005F0E1F9C8EB00043F4B33
:100C70009C423CD93E4B9C4212D8A4F57423A3F568
:100C8000107307EE103AF8EE477AC7EE887A67EEEF
:100C9000A87AFCEEE77A17EE906AF6B2012731E007
:100CA000344B9C4226D9344B9C4226D94C4514D80F
:100CB000A4F57413A3F5106307EE103AF8EE477A23
:100CC000C7EE887A67EEA97A77EE897AFCEEE77A42
:100CD00017EE906AF6B2012714E0284B9C420FD918
:100CE000544598BF0026544598BF01270AE0FF26C7
:100CF000012707E00026012704E03F26012701E045
:100D0000FF2600271E483946324603F0BBFE1D4B26
:100D10001B680097019302A81B492246334606F040
:100D2000F7F8029B5B6802A818490022984702A8BE
:100D300006F0D6F806A800F019FE154B9C427FF687
:100D40006CAF1CB0BDEC048BBDE8F087382A010005
:100D5000D82901004C2A01000024744900004043B6
:100D600000007C4200007F43A01AFF1F3F420F009B
:100D70007F841E00BFC62D00FF083D007F8D5B00F5
:100D8000201BFF1FDC13FF1F5C2A01004430010001
:100D9000FF117A003F4B4C00BFCF6A0010B51B4BD0
:100DA00018601B4804F02CFC1A4B1A68002A05DB5B
:100DB00019480121D2B203F065FE05E052421648FF
:100DC0000021D2B203F05EFE144C23685B6820461B
:100DD000134900229847204606F082F823685B6892
:100DE0002046104919229847204606F079F82368D2
:100DF0005B6820460C49082298470C4B196820462E
:100E000006F0D0F8204606F06BF810BD9813FF1FCF
:100E1000A813FF1F0C14FF1F201BFF1F401CFF1FE8
:100E2000443001006C2A0100882A0100DC13FF1FF6
:100E30002DE9F84F4FF00009CA46CB46DFF8A882EB
:100E40002EE0A04C23685B6820469F490322984708
:100E50002046294606F0A6F823685B6820469B4991
:100E6000042298472046394606F09CF823685B68C0
:100E700020469749042298472046314606F092F8CA
:100E8000204606F02DF823685B682046914904222D
:100E900098472046494606F085F8204606F020F897
:100EA00005F0E0FE002840F0A280002D00F08881CF
:100EB000002F00F07D81002E00F08B81B9F1000F32
:100EC00040F095808CE17F4C23685B6820467E492A
:100ED000032298472046294606F064F823685B6899
:100EE00020467A49042298472046394606F05AF8A7
:100EF00023685B682046764904229847204631469D
:100F000006F050F8204605F0EBFF23685B682046AA
:100F10007049042298472046414606F043F820468F
:100F200005F0DEFF05F09EFE002840F09D80002DBC
:100F300000F08A81002F00F06C81002E00F06181AA
:100F4000B8F1000F40F090806CE15E4C23685B6864
:100F500020465D49032298472046294606F022F89C
:100F600023685B6820465949042298472046394641
:100F700006F018F823685B68204655490422984714
:100F80002046314606F00EF8204605F0A9FF2368FA
:100F90005B6820464F49042298472046494606F0A0
:100FA00001F8204605F09CFF05F05CFE002840F0AB
:100FB0007F81002D00F05A81002F00F04F81002E1C
:100FC00000F06F81B9F1000F40F0728157E1012606
:100FD000D8F80050404B1B68ED1A002DB8BF6D4289
:100FE000032DCCBF002501252BE7012729E7FFF7BB
:100FF000C9FD344C2368394D5B68204629460022E0
:101000009847204605F06CFF23685B68204634490A
:101010003F229847204605F063FF23685B6820461F
:10102000294600229847204605F05AFF4FF4FA60FF
:1010300005F020F84FF00008464647464546B246C0
:10104000C346DFF8A4906DE70126D9F80050224B83
:101050001B68ED1A002DB8BF6D42032DCCBF0025D3
:10106000012530E701272EE7FFF78CFD154C23689B
:101070001A4D5B682046294600229847204605F015
:101080002FFF23685B68204616493D22984720467B
:1010900005F026FF23685B68204629460022984712
:1010A000204605F01DFF4FF4FA6004F0E3FF4FF017
:1010B00000094E464F464D46B046CB46DFF828A0C5
:1010C00072E700BF401CFF1FBC2D0100942A0100E5
:1010D0009C2A0100A42A01009813FF1F443001003C
:1010E000AC2A0100EC2A0100DC13FF1F0126DAF80C
:1010F0000050704B1B68ED1A002DB8BF6D42032DD8
:10110000CCBF0025012520E701271EE7D8F80020E5
:10111000684B1B68D31A002BB8BF5B42032B7FF7C9
:1011200056AF564601E04FF00109D8F80020614B58
:101130001B68D31A002BB8BF5B42032B7FF755AF58
:10114000574645E7D9F800205A4B1B68D31A002BA5
:10115000B8BF5B42032B7FF777AF564601E04FF0F5
:101160000108D9F80020534B1B68D31A002BB8BFD5
:101170005B42032B7FF776AF574666E7DAF800202D
:101180004C4B1B68D31A002BB8BF5B42032BADDD61
:10119000464601E04FF00109DAF80020454B1B6894
:1011A000D31A002BB8BF5B42032BADDD47469EE749
:1011B000C820FFF7F3FD142004F05CFF5646B4E7A7
:1011C000C820FFF7EBFD142004F054FF56465F469D
:1011D000FEE6C820FFF7E2FD142004F04BFF95E780
:1011E000C820FFF7DBFD142004F044FFD8F80020EE
:1011F000304B1B68D31A002BB8BF5B42032B92DD28
:1012000084E74FF44870FFF7C9FD142004F032FF63
:1012100098E74FF44870FFF7C1FD142004F02AFF4F
:1012200056469EE74FF44870FFF7B8FD142004F0CF
:1012300021FFD9F800201F4B1B68D31A002BB8BF21
:101240005B42032B8BDD7DE74FF44870FFF7A6FD73
:10125000142004F00FFF56465F46F6E64046FFF7BF
:101260009DFD142004F006FF464695E74046FFF733
:1012700095FD142004F0FEFE46465F4637E74046E3
:10128000FFF78CFD142004F0F5FEDAF80020094B7E
:101290001B68D31A002BB8BF5B42032B7FF77AAFD2
:1012A0006CE74046FFF77AFD142004F0E3FE65E7A3
:1012B000BDE8F88F9813FF1F10B584B005F0D2FC7D
:1012C000002840F3B38005F081FC4138122800F279
:1012D0008C80DFE800F02D5B1D8A3D6B8A8A8A8A4C
:1012E0008A8A4C8A8A8A8A8A0A00514C23685B68F7
:1012F000204650491B229847204605F0F1FDFFF794
:1013000041FC4D4802F080FC4C4803F053F98AE060
:10131000474C23685B68204649491F22984720466E
:1013200005F0DEFDFFF72EFC434802F07BFF7AE07C
:101330003F4C23685B682046424924229847204658
:1013400005F0CEFDFFF71EFC3B4802F0BDFE6AE053
:10135000FFF718FC364C23685B6820463A49222286
:101360009847204605F0BCFDFFF71AFC5BE0FFF74D
:1013700009FC2F4C23685B68204634491E2298479D
:10138000204605F0ADFDFFF753FD4CE0284C2368E7
:101390005B6820462E4931229847204605F0A0FD83
:1013A000FFF7F0FB244802F05FFE3CE0204C23688E
:1013B0005B682046274923229847204605F090FD88
:1013C000FFF7E0FB1D4803F09BFA23685B682046AB
:1013D000214915229847204605F082FD4FF4FA6016
:1013E00004F048FEFFF78EFB1DE0114C23685B689C
:1013F00020461A4915229847204605F071FD2368BA
:101400001B682046164A11789847204605F068FD6B
:101410006846362105F0DEFF0848694603F098F972
:10142000684605F07DFF0F4803F0F0FB04B010BDE7
:10143000401CFF1F2C2B0100D014FF1F2816FF1F7C
:10144000482B0100682B0100902B0100B42B0100F8
:10145000D42B0100082C01002C2C0100442C01008D
:10146000E013FF1F241BFF1F00B583B06FF0FE03C6
:101470000093FF23019308480849094A094BB2EE3B
:10148000000ADFED090A9FED091ADFED091A04F0E1
:10149000A3F803B05DF804FBA813FF1FDC13FF1FC4
:1014A0000C14FF1F9813FF1FD5780940000000009F
:1014B00033B34A4408B5837863F07F0383700246F0
:1014C000806852F8101F01F0F5F808BD2DE9F843C7
:1014D0000446037813F0200F32D143691D4A93422A
:1014E00030D8FFF7E7FF0646002830D0A068216912
:1014F00001F078F88046A06824304146052201F0CA
:101500004BF8814600B300214FF400720DF076FCD9
:10151000A3681F79012F0ED9012518680268976802
:1015200005EB08014A46B84780B10135EDB2A36822
:101530001F79BD42F1D3636903EB4723636106E082
:10154000002604E0002602E0002600E006463046C1
:10155000BDE8F883FFFD1F0010B504460A46806809
:101560002430A16901F018F8034628B1A08800F0E2
:101570000F0003EB401010BD002010BD38B504462D
:101580000D46037893B9002124220DF037FCA560A5
:10159000EB79102B02D0202B03D009E020232370FD
:1015A00001E0402323700120A07038BD002038BD29
:1015B000002038BD2DE9F04F83B0044688460092E4
:1015C0000378002B00F0AA80827812F0010F00F05F
:1015D000A58013F0080F08D0C2694369D31A009A96
:1015E0009A4228BF1A4600920DE013F0200F0AD04D
:1015F00083681A894369C3EB42139BB2009A9A42EB
:1016000028BF1A460092009B002B00F083801E46E4
:101610004FF0000A04F110020192D3466369C3F34C
:101620000807227812F0200F04D0A268126A02EB99
:10163000532922E0A06890F805A00AEA532AB7B916
:10164000BAF1000F13D133B912F0400F14BF036A7F
:10165000236A23610BE02169019A00F0C9FF002889
:101660005CDB20B9237813F0700F54D156E0A068EA
:10167000216900F0B7FF00EB0A0937B9B6F5007F22
:1016800003D3A068C36A994513D1C7F50075AE426C
:1016900038BF3546A068243049465A4600F07CFFE2
:1016A000014600283AD0404639442A4604F098F8CA
:1016B00029E0B6F5806F1DD3C6F34727227812F0D4
:1016C000200F06D10279CAEB0202D2B2BA4238BF69
:1016D00017467D02994502D83B44994525D3A36816
:1016E00018680368D3F80CC0494642463B46E047B9
:1016F00048B913E0006803681B68494642469847AA
:1017000060B14FF40075A84463692B446361761B94
:1017100084D100E0009E009B981B0CE0637843F0AE
:10172000020363704FF0FF3005E0243000F00AFF41
:101730000028D4D1F2E703B0BDE8F08F70B582B0D5
:101740000446466905690DF107010122FFF732FFE2
:10175000012803BF9DF80700666125614FF0FF3047
:1017600002B070BD30B583B004464369C3F343157E
:1017700005B171B920460DF107010122FFF71AFFEB
:1017800040B2012801D0002009E063691F33636182
:1017900001E020334361A068303000EB451003B016
:1017A00030BD00BF2DE9F04104460E4607690378BD
:1017B000002B3CD042698A423DD011B9002303611D
:1017C00031E013F0080F03D0C1698E422FD808E032
:1017D00013F0200F05D083681B89B1EB431F26D877
:1017E00021E0A1688D790935501EE84006F1FF3CE3
:1017F0002CFA05F5A84200D832B913F0400F14BFF7
:101800000B6A236A23610AE02D1A08E0A0682169A7
:10181000424600F0EDFE013D002802DC07E004F145
:101820001008002DF2D166610120BDE8F08127612A
:101830000020BDE8F0810120BDE8F081F8B5044644
:101840000E4615461F46002124220DF0D7FAB06837
:10185000A060A580336AE36000F1300305F00F0259
:1018600003EB4212D37A13F0080F34D103F01703BD
:101870002370D17A11F0180F04BF43F008032370CE
:101880009DF81830E37017F0320F03D0237813F06F
:10189000110F20D107F00F03A370C36AA361918ACF
:1018A000538B43EA014117F0100F08D011B100F03B
:1018B00037FF80B1A37863F07F03A37002E0216259
:1018C000D369E36117F0200F09D02046E169FFF7E3
:1018D00069FF034620B900202070034600E0012381
:1018E0001846F8BD38B504460378002B39D090F976
:1018F0000230002B1EDA0121FFF72EFE054650B301
:101900000378E52B27D0237813F0080F1CBFE36979
:10191000C361238C4383638C8382134B1B682BB17D
:10192000183005F1160198472B8B6B82A37803F0D2
:101930007F03A370A56805F1240000F003FE50B1F9
:1019400005F50C7000F0FEFD28B1286803685B689F
:101950009847034630B9637843F00103637000236E
:1019600000E00123184638BD1414FF1F10B50446CB
:10197000FFF7B8FF0023237010BD00BF2DE9F04131
:1019800092B006460C460192984600238DF824300A
:101990008DF825300378002B44D10B7813F0700FAD
:1019A00042D0134612782F2A14D10133019313F831
:1019B000012B2F2AFAD02AB93046A168FFF7DEFDA5
:1019C000024632E009A8A168FFF7D8FD02460028C8
:1019D0002BD009AC0127019803A901AA00F06EF9E8
:1019E000024610B3019A1378A3B13046214603AAE8
:1019F0003B4600F0ADFB0246B8B109AC35460FCD11
:101A00000FC40FCD0FC42B6823603046FFF7AEFF25
:101A100009ACE0E73046214603AA434600F098FBB4
:101A2000024602E0002200E00022104612B0BDE8AB
:101A3000F08100BF10B58AB004460A4600238DF835
:101A400004308DF8053001A821460223FFF796FFE8
:101A5000034618B101A800F069FA034618460AB017
:101A600010BD00BF2DE9F84F044688469246037822
:101A700013F0080F00F0BB80837813F0020F00F022
:101A8000B68013F0040F05D0E169FFF78BFE002844
:101A900000F0AD806369DB439A4500F2A880BAF19B
:101AA000000F00F0888056464FF001094FF0050BFB
:101AB000A06863694579C3F3080715EA532521D166
:101AC000002F40F09C80216981B104F1100200F0E8
:101AD0008FFD0028C0F28B80002840F095802046C2
:101AE000FFF7E8FC002840F08F8080E0236A3BB9D4
:101AF0002046FFF7DFFC002879D02369236283E0CA
:101B0000236181E0216900F06DFD4119002F40F053
:101B10008C80B6F5007F7DD318E04A4600E05A4637
:101B2000A068243000F038FD002860D038444146D9
:101B30002A4603F055FE2F44B7F5007F34D1A06844
:101B4000243000F0FFFC00282ED150E0B6F5806F65
:101B500017D3A26813795D1BEDB2C6F34723AB42DE
:101B600028BF2B465D02D06A884202D318448842BF
:101B700061D8A2681068026817694246B84798B9E8
:101B800035E0A368DA6A914205D1002283F8242067
:101B90004FF0FF32DA62A368186803689B68424618
:101BA000984720B34FF4007563692B446361A844E0
:101BB000761B7FF47DAF6369E269934205D9E361E7
:101BC000A37863F07F03A37006E01E4B1B681BB174
:101BD000A37863F07F03A370A37813F0080F03D0FA
:101BE0002046FFF77FFE10B15046BDE8F88F6378BE
:101BF00043F0010363704FF0FF30BDE8F88F2169B7
:101C000000F0F0FC014610E0A068216900F0EAFC59
:101C100001467EE7C7F50075AE4238BF35466269BA
:101C2000E3699A42BFF47BAF77E7C7F50075AE4230
:101C300038BF354671E7002082F824004FF0FF30AE
:101C4000D06296E71414FF1F042904D800EB410169
:101C5000B1F8010070470A2904D8013900EB4100AE
:101C6000C088704710299DBF013100EB410080887A
:101C70000020704700231A46510841EAC212C15C95
:101C800051FA82F2D2B201330B2BF5D110467047D4
:101C900038B504460D46CB681BB98968FFF76EFC62
:101CA00038BD002124220DF0A9F810232370012053
:101CB000A070AB68A360EB68236238BD2DE9F00F1C
:101CC00082B00378202B05D1431C184601330478D9
:101CD000202CFAD08860037823B12F2B04D005463E
:101CE000002407E0002400E0002407193B4622E01E
:101CF0002F2BFAD05C2B00F0FA8003F0F706222E8F
:101D000000F0F7803A2B00F0F68003F0BF063C2E7F
:101D100000F0F380A3F13E06F6B2012E40F2EF8010
:101D2000203BDBB25E2B00F2EC80013415F8013F62
:101D3000002BDDD1D9E71E4613F8015B202DFAD028
:101D40002F2DF8D0166074B13A4612F8013D2E2BB3
:101D500001D0202B02D1013CF7D104E0FF2CC8BFF9
:101D6000002000F3DF804C6000232025CA18557343
:101D700001330B2BFAD1002300E00133C25C2E2A81
:101D8000FBD0202AF9D01E46D3F1010738BF002727
:101D9000651E06D4425D2E2A03D0013DB5F1FF3FFA
:101DA00005D1A64207DB00200190009087E0425D4C
:101DB0002E2AF2D1F5E74FF007090026019600968A
:101DC0004FF0080AB446AB46C25C202A66D02E2AE1
:101DD00002D19D4264D122E0222A20D07C2A1ED04A
:101DE000A2F12A085FFA88F8B8F1050F02D82D2A67
:101DF00015D10DE0A2F13A085FFA88F8B8F1050FA5
:101E00000DD9A2F15B085FFA88F8B8F1020F06D984
:101E1000A2F121085FFA88F8B8F15D0F02D9AB4250
:101E200003D178E0AB4202D175E067465F224E45B0
:101E30006DD809E0AB4241DC5B464FF00A09082649
:101E40004FF0100A674635E0A2F161085FFA88F8A2
:101E5000B8F1190F08D8203AD2B2DDF8008048EA6C
:101E60000A08CDF800800CE0A2F141085FFA88F87A
:101E7000B8F1190F05D8DDF8048048EA0A08CDF852
:101E8000048006F101085FFA88F80E447273B8F115
:101E9000060F07D881F80C8046460BE0674609E03C
:101EA000674607E0464605E05B464FF00A0908260C
:101EB0004FF0100A0133A34286DB00E000274B7B82
:101EC000202B20D057B10198009A00EA0203002B82
:101ED000134618BF02230B70012023E00120087075
:101EE0000B7B19447E234B7331238B731AE0002044
:101EF00018E0002016E0002014E0002012E000208E
:101F000010E000200EE000200CE000200AE0B9F113
:101F10000A0F8FD102E0B9F10A0FC5D14B7B202BFC
:101F2000DCD1F2E702B0BDE8F00F70472DE9F043D5
:101F30008BB0044600238DF804308DF8053003780B
:101F400013F0080F00F08280837813F0020F7FD027
:101F5000016A31B1806800F0E3FB0346002800F01D
:101F6000888020460121FFF7F7FA0546002871D046
:101F7000FFF780FE0746E5232B7000232370A5683A
:101F800005F1240000F0DEFA002871D005F50C7090
:101F900000F0D8FA00286BD0286803685B6898477F
:101FA0000346002865D0E278002A62D001A82146C5
:101FB000FFF76EFE034600285BD0E378002B4BD082
:101FC00001254FF000084FF0E509A188491B01A841
:101FD0004901FFF7E7FB034600284AD001A8414624
:101FE000FFF7C0FB002839D0C27A0F2A38D1027817
:101FF00002F01F018D4235D1417BB94234D180F8C6
:102000000090A36893F8241041F0010183F8241094
:1020100012F0400F14D0A46804F1240000F092FAEA
:1020200048B104F50C7000F08DFA30B120680368F7
:102030005B68984702E0002000E00020034618E0BB
:102040000135EDB2E378AB42BFD20FE0002310E0E0
:1020500000230EE000230CE000230AE0002308E048
:10206000002306E0002304E0002302E0002300E058
:10207000002318460BB0BDE8F08300BF2DE9F84FF0
:1020800004460F460E7B4FF002094FF07E0A01F125
:102090000D085FFA89F3012B03D8BA193033937313
:1020A00024E0796809EB01039BB2B86849B10246A4
:1020B000084412F8011B03EB43134B409BB28242CE
:1020C000F7D1032E28BF0326321DD2B2B2420DD95A
:1020D00003F00F011046092994BF303137313844DD
:1020E00041731B09013AD2B2B242F1D8BB1983F84D
:1020F0000DA020460021FFF755FB01254FF00B0BEB
:1021000020462946FFF72EFB014630B96078D0F112
:10211000010038BF0020BDE8F88F037853B1C37ABF
:1021200013F0080FECD140465A460CF0D3FD0028BE
:10213000E6D105E00120BDE8F88F0020BDE8F88F6A
:1021400009F101091FFA89F9B9F1640FA1D1F4E786
:102150002DE9F04F8FB009900E4605920A93516811
:102160000491337813F0700F00F0D5810378002BC1
:1021700040F0D381137813F0030F09D001F10C0262
:102180007F4BA3FB02139B0801335FFA83FA01E044
:102190004FF0010A30460021FFF704FB00270B97A0
:1021A00006973C46B84608974FF0010B059A0D324A
:1021B000079220E04FF000081DE04FF000081AE001
:1021C0004FF0000817E006934FF0000813E04FF0BF
:1021D000000810E0039C4FF000080CE0039C4FF057
:1021E000000808E04FF0000805E0CDF820B002E05C
:1021F000DDF83480039C7369C3F34F1930465946A8
:10220000FFF7B0FA054620B97378002B00F09B80E9
:1022100085E10378E52B00D043B9002C08BF4F4679
:1022200054453CBF0134E4B223B98CE0544538BF77
:10223000002401E0E52BBDD02E2BBED0EA7A0F2A78
:102240005AD1B8F1000F09D113F0400FD3D003F0E9
:102250001F086B7B0B93CDF818800AE006994A1E85
:10226000D2B206929342ABD16A7B0B998A42AAD131
:102270000693069A531E03EB430203EB820203927A
:102280009146049B9342A2D902F10D010C91CDF825
:102290003480904603940C46C8EB09012846C9B225
:1022A000FFF7D2FC049A914507D1DDF83480039CF6
:1022B000002818BF4FF000089DE7FF288AD8C0B259
:1022C000A0F14103DBB2192B9CBF2030C0B209F151
:1022D000010305998A6812F80920A2F14101C9B2E7
:1022E00019299CBF2032D2B290427FF477AFA3422B
:1022F0003FF47EAF9946CFE712F0080F7FF472AF3C
:10230000B8F1000F0BD0069A012A40F00A81284646
:10231000FFF7B0FC0B9B98420FD000230CE128463E
:1023200007990B220CF0D6FC00287FF464AF0599C6
:102330000B7813F0010F7FF458AF0A9A12F0800F58
:1023400000F0DF80EFE00A9901F04203422B40F0F9
:10235000EC80002C18BFB946544522D200253046E7
:102360002946FFF7FFF930B97378002B40F0DF8082
:10237000544507D315E00134E4B2A245EFD810E08C
:102380004FECC44E3046FFF7A1F80346002800F09A
:10239000D380B3681B79012B03D81034E4B2A24573
:1023A000F0D8089A3AB130460599FFF767FE034620
:1023B000002800F0C18030464FEA4911FFF7F2F9DA
:1023C0000346002800F0B8800AF1FF3818F0FF0833
:1023D0005DD04746002548F0400A049CDDF814B063
:1023E000CDF810A030462946FFF7BCF981460028F9
:1023F00000F09F80B36893F8242042F0010283F834
:1024000024204745DDF810A018BFBA4680F800A088
:102410000F23C37205730BF10D00FFF72BFC89F836
:102420000D0089F81A5089F81B50DBF808100AF0E3
:102430001F0A0AF1FF3A0AEB4A0E0AEB8E0E7246A9
:102440002B468E44A24202D21EF8030004E0A01ADA
:1024500018BF6FF0000080B2D9B2042904D809EB8C
:102460004301A1F801000AE00A2903D809EB43015E
:10247000888004E010299CBF09EB4301C880013328
:1024800001320D2BDED1013F17F0FF07AAD173698E
:10249000C3F34F1930460021FFF764F904460028C2
:1024A00049D0002120220CF0A9FC059B53F80D1FF8
:1024B0005A68216062601A899B7A2281A372059909
:1024C0000B7803F0180323731D4B1B682BB104F129
:1024D000100004F10E01984707E0212323742823FC
:1024E00063740023A3730823E373238A6382238323
:1024F000E389E382B36893F8242042F0010283F871
:102500002420CDF80080099831464A460A9BFFF7FF
:1025100095F9034610E000230EE000230CE00023B1
:102520000AE0002308E0002306E0002304E0002383
:1025300002E0002300E0002318460FB0BDE8F08F52
:102540001414FF1FF8B50446037813F0010F1DD0D3
:1025500000F10C064368186803689B68A16832465E
:1025600098470546A8B1237813F0020F09D0636895
:10257000186802681969A368976819443246B84711
:1025800030B1237823F00103237002E0012500E03D
:1025900005462846F8BD00BF70B504460D461646F0
:1025A00083688B4211D0FFF7CDFFB0B116F0040F56
:1025B00008D16368186803681B68294604F10C0297
:1025C000984760B100232370A56006F003062378C6
:1025D0001E43204600F80C6B70BD002070BD00202B
:1025E00070BD00BF02398379994040690844704743
:1025F00070B504460D461646C379202B0FD181696C
:1026000000F50C7001EBD5110222FFF7C5FFD8B120
:1026100005F07F0550F8253023F070430EE0102BB5
:1026200014D1C1F30721836900F50C70194402220B
:10263000FFF7B2FF60B1EDB230F81530E1698B42BF
:1026400008D83360012006E0FF2004E0FF2002E00C
:10265000FF2000E0002040B270BD00BF38B50C463E
:102660001546C379202B0ED1816900F50C7001EB62
:10267000D4110322FFF790FFB0B104F07F0440F8BB
:102680002450012038BD102B10D1C1F307218369DC
:1026900000F50C7019440322FFF77EFF40B1E4B24D
:1026A00020F81450012038BD002038BD002038BD6E
:1026B000002038BD2DE9F04182B0054690460F4616
:1026C00009B9C66800E00E4634460134EB699C4205
:1026D00088BF02242846214601AAFFF789FF002867
:1026E00004DB08B1019B1BB1B442EED1002613E01C
:1026F000284621466FF07042FFF7B0FF064658B1FA
:102700003FB1284639462246FFF7A8FF10B90646D2
:1027100002E0EC60C8F80040304602B0BDE8F0814D
:10272000F0B583B005460C4600272846214601AA8D
:10273000FFF75EFF061E0EDB284621463A46FFF7EE
:102740008DFF014640B1EB689C4238BFEC60019CB4
:10275000002EEAD100E00021084603B0F0BD00BF22
:1027600038B504460023C3710122C260A06280F81C
:1027700024304FF0FF32C262C4F8340280F83032A5
:10278000C0F838220D46A9B1042971D82430194661
:102790001A46FFF701FF00286CD000EB051595F8ED
:1027A000AE3105F5D47513F07F0F65D1D5F80E5015
:1027B0000DB963E0002504F1240029460022FFF74B
:1027C000EBFE034600285BD0B0F80B20B2F5007F8B
:1027D00058D1027C022A57D1C289002A56D0407BA8
:1027E0002071421E62710022A27101280DD0114693
:1027F000012203E012B9A171002038BD5200D2B20B
:102800000131C9B29042F5D1A171D98A01B9596A91
:102810002161DA892A44A261B3F81100208102EB18
:1028200041022262B3F81110490101F2FF1102EBDB
:1028300061226261B3F8131001B9196AAA1A11442E
:10284000A27921FA02F2511CE16140F6F4718A4248
:1028500003D80C23E371002038BD4FF6F4718A428F
:1028600091BF1023DB6A23622023E371012038BD6E
:10287000002038BD002038BD002038BD002038BD04
:10288000002038BD002038BD002038BD002038BDF4
:10289000044B1B6804481840D0F1010038BF0020E9
:1028A000704700BF30100B4001000F00024B18684A
:1028B00000F00100704700BF24100B40014B187856
:1028C000704700BF5414FF1F30B44FF47A7303FBFA
:1028D00000F0274B98423FD8012326495B001A019C
:1028E000B1FBF2F2904238D2FF2BF7D935E0214606
:1028F0000132B5FBF1F4A04205D2CC18102AF6D172
:1029000001E0194601224FF47A7000FB01F11948E9
:10291000B0FBF1F1184801601849086820F0080080
:102920000860086820F47F2020F47F6040F4602075
:10293000DB0103F47F431843013A1201D2B2104382
:1029400008600F4A136813F0080FFBD00B4B1A688E
:1029500042F008021A6009E00123064AB2FBF3F2D2
:102960009042CED259000122024DC1E730BC7047DF
:102970004FA9AB000095BA0A5C14FF1F2C100B4046
:1029800024100B400120704770B5044603F04EFB45
:102990000646064D04E003F049FB801BA84203D81D
:1029A000A0470028F7D170BD012070BD20A107000D
:1029B00038B504460D461248FFF7E6FFC8B9114B7B
:1029C0001D6004331C601048FFF7DEFF98B90F4A02
:1029D00011680F4B1960196811601B6813F0010F23
:1029E0000BD00B4B1B6813F4702F14BF0020012079
:1029F00038BD002038BD002038BD002038BD00BFE4
:102A0000AD28000008100B409128000030100B404A
:102A10003C14FF1FF0B585B00E461A4B1968FFF73E
:102A2000C7FF074650B3184B1B680093174B1B6832
:102A30000193174B1B680293164B1B68039306F117
:102A40000F040023144D013C1A46002BB8BFDA1CBA
:102A500022F0030204A9114413EA050203D5013A46
:102A600062F003020132D20051F8101C21FA02F286
:102A7000227001330F2BE6D10023F373384605B0E3
:102A8000F0BD00BF2C14FF1F10100B4014100B40A2
:102A900018100B401C100B400300008008B50748BD
:102AA000074B1968FFF784FF30B1064B186880F4B4
:102AB0008070C0F3002008BD012008BD00001A0D81
:102AC0002C14FF1F10100B4070B504460C4B1860FF
:102AD00003F0ACFA06460B4D0BE003F0A7FA801B9F
:102AE000A84204D90022064B1A60012070BD04F0F0
:102AF00095FCA0470028F0D1014B186070BD00BFC5
:102B00005814FF1F20A1070008B50A48FFF7DCFF93
:102B100060B9094B1B6813F0020F09D0064B1A6805
:102B2000064B1A4214BF0020012008BD002008BD3A
:102B3000002008BDBD2800003C14FF1F00007F11CD
:102B400038B504460D461548FFF71EFF38B1292257
:102B5000134B1A70E722134B1A6000231CE001226A
:102B6000114B1A700022114B1A60114B1D60083373
:102B70001C60104A043B1A600F4A34331A600F4A33
:102B80002C3B1A60FFF7C0FF034628B92321044AF3
:102B90001170F121034A1160184638BD9D2A0000CA
:102BA0008808FF1F3814FF1F5414FF1F3C14FF1F19
:102BB00000100B404000010002007F1111003A0696
:102BC000F8B506460F4614461D4612F0030F00D115
:102BD00043B96022174B1A704FF4A572164B1A6056
:102BE0000020F8BD1548FFF76FFF40B12922114BB7
:102BF0001A7040F24D12104B1A600020F8BD0122ED
:102C00000F4B1A7000220F4B1A600F4B1C600F4BBA
:102C10001B7803B97F020E4B1F602D0445F400752D
:102C2000043B1D600B4A34331A602C3B1E60FFF7D7
:102C30006BFFF8BD8808FF1F3814FF1F9D2A000096
:102C40005414FF1F3C14FF1F00100B403014FF1FD3
:102C500008100B4002007F1130B5ADF5017D144620
:102C600012F0030F10D118E03122114B1A7040F20C
:102C70005122104B1A60002516E0204669464FF499
:102C8000007202F0ADFD0FE00B486A460123FFF72A
:102C900097FF05460028F0D1E6E707480123FFF734
:102CA0008FFF05460028DFD028460DF5017D30BD99
:102CB0008808FF1F3814FF1F11003A112DE9F04159
:102CC00006460C46154612F0030F10D0E3B101EB97
:102CD000030832681768304621462A46B84702463C
:102CE00098B1013405F500754445F2D10DE008486E
:102CF000FFF766FF024640B93121064B197040F2DA
:102D00006321054B196000E001221046BDE8F08107
:102D100037003A128808FF1F3814FF1F10B5ADF5B1
:102D2000007D0C4612F0030F06D0684611464FF4A2
:102D3000007202F055FD6A46084821460123FFF75C
:102D40003FFF034630B93221054A117040F2C921D4
:102D5000044A116018460DF5007D10BD01003A18B7
:102D60008808FF1F3814FF1F2DE9F04106460C4666
:102D7000154612F0030F10D0E3B101EB03083268DF
:102D80009768304621462A46B847024698B1013432
:102D900005F500754445F2D10DE00848FFF710FF36
:102DA000024640B93321064B197040F2D921054B38
:102DB000196000E001221046BDE8F08127003A19B1
:102DC0008808FF1F3814FF1F0023054A1360083AC4
:102DD00010680449086009681160034A137070475D
:102DE00038100B403C14FF1F5414FF1F2DE9F0470F
:102DF00090B000239E4A13709E4A13709E4A13702F
:102E00009E4A13709E4A116841F04061116002F5BC
:102E10006A323032116841F400311160994A13600E
:102E200004321360043213600432136004321360FE
:102E3000043213604FF08072934B1A601A46136885
:102E400013F0807FFBD14FF4C870FFF73DFD40F2D7
:102E500043438C4A1360043213604FF48861043298
:102E60001160043213600432136004321360874A25
:102E7000874B1A606022874B1A704FF40032A3F21E
:102E800049331A60804B1A6842F000621A601A4691
:102E9000136813F0006FFBD100200146FFF788FD97
:102EA000044638B92022734B1A7040F2CD127A4B87
:102EB0001A603CE10A24794E4FF4D5753046294614
:102EC000FFF776FD90B1764B1B68B3F5D57F08D040
:102ED0002522684B1A7040F2D3126F4B1A600024FF
:102EE00025E10122654B1A706E4F08E0013CE5D1E7
:102EF000624B1B78002B6B4F08BF4FF4401703F059
:102F000095F88046684C694E654D20460021FFF7D4
:102F10004FFD58B130463946FFF74AFD30B103F056
:102F200085F8C8EB0000624B984208D94322514B08
:102F30001A704FF4EF72584B1A600024F7E02B68B8
:102F4000002BE2DA564B19685A4A11601B6813F0DD
:102F5000804F02D00122484B1A7057480021FFF7DA
:102F600027FD044638B92122424B1A704FF4F472FF
:102F7000494B1A60DBE051480021FFF719FD044678
:102F800038B922223B4B1A7040F2EB12424B1A60C6
:102F9000CDE0434B1B681B0C1B04494A1360494896
:102FA0004949FFF737FD044638B92622314B1A70DC
:102FB0004FF4F872384B1A60B9E044484449FFF7BF
:102FC00029FD044638B927222A4B1A7040F2F31221
:102FD000314B1A60ABE03F48394B1968FFF7E8FC0A
:102FE000044638B92422234B1A704FF4FB722A4B43
:102FF0001A609CE02C48324B1968FFF7D9FC28B1C5
:1030000035480221FFF7D4FC044640B94022194B51
:103010001A704FF4FD72204B1A60002487E02F4B8A
:103020001A6822F006021A601A6842F002021A6058
:103030004FF010121C331A606FF07F406946FFF7A3
:103040007FFD90B19DF80D3013F0020F0DD0244894
:103050006946FFF775FD40B19DF8103003F00F038E
:10306000012B08BF4CF250303CD046F2A81039E09A
:103070004014FF1F8808FF1F3014FF1F1814FF1F84
:1030800000D8004000D004402C100B400B007F11F2
:1030900034100B4051E400E03814FF1F00001A0800
:1030A00010100B400000304000001A3700000229C9
:1030B00020A107003414FF1F0000090200001A03BA
:1030C0002C14FF1F000009094414FF1F0000090A07
:1030D0001C14FF1F00001B0700001A0628100B40DD
:1030E000F1FFFF80DFF860A00023CAF80030DFF8AE
:1030F0005C90C9F80030DFF85880C8F800300E4FF7
:103100003B600E4E33600E4D2B60FFF7DDFB40F24F
:103110004343CAF80030C9F800304FF48862C8F859
:1031200000203B6033602B600122064B1A70204662
:1031300010B0BDE8F08700BF0CD0044010D00440B0
:1031400014D004404014FF1F00D0044004D00440B9
:1031500008D00440014B0360704700BF882C010079
:10316000704700BF014B0360704700BF882C01000F
:1031700010B50446024B036003F088FE204610BDE4
:10318000882C010010B50446024B036003F07EFE5C
:10319000204610BD882C010038B505460C4608466F
:1031A000002128220BF02AFE204609490B220CF0B0
:1031B00001F90023E3720122E260AA68226103227E
:1031C000626163620023A361E361024B236238BD45
:1031D000A02C01000AD7233C10B4034C046081608A
:1031E00042715DF8044B7047B02C010070B50E467B
:1031F0001546094C4179204600F0CEFB2046314669
:1032000000F0EAF92046294600F0E6F9204600F0F1
:10321000E7FC012070BD00BFB814FF1F08B50A46C7
:1032200001733D21FFF7E2FF1E2002F023FF08BDDE
:1032300070B504460E46057B0021FFF7EFFF19200D
:1032400002F018FF204607210022FFF7CFFF2EB122
:1032500020463F218022FFF7C9FF04E020463F219E
:103260000022FFF7C3FF0A2002F004FF2046294690
:10327000FFF7D4FF142002F0FDFE70BD70B50546C7
:103280000E460B4C2046697900F086FB20463146FD
:1032900000F0A2F9204600F0A3FC20466979012243
:1032A00000F098FC204600F0C3F9C0B270BD00BF2A
:1032B000B814FF1FF8B504460F46254800F060FA21
:1032C00020460021FFF7DAFFA02809D04FF47A70DA
:1032D00002F0D0FE20460021FFF7D0FFA02835D114
:1032E00020460021FFF79AFF20463F212022FFF7CA
:1032F0007DFF00250A2602E0304602F0BBFE204694
:103300002946FFF7BBFFA028F6D1322002F0B2FE1B
:1033100020463E210022FFF769FF0A2002F0AAFEA4
:10332000204607210022FFF761FF20463F210022AF
:10333000FFF75CFF0A2002F09DFE20463946FFF7AA
:103340006DFF142002F096FE0120F8BD0020F8BDAC
:10335000B814FF1FF8B50F4616461D46069C3521CA
:10336000FFF78CFF0FB183093B7016B1C0F3011357
:10337000337015B1C0F381032B7014B100F003005A
:103380002070F8BD2DE9F04107460E4690461D46D7
:10339000104C2046797900F0FFFA2046314600F0C3
:1033A0001BF9204600F01CFC204679792A4600F0E3
:1033B00011FC65B108F1FF346E1E58FA86F6054D12
:1033C000284600F035F904F8010FB442F8D1012085
:1033D000BDE8F081B814FF1FF0B583B004460E4677
:1033E0001546002118220BF009FD00230093ADF8CB
:1033F0000430304629466A460623FFF7C3FF9DF88E
:1034000001009DF8003043EA00209DF803209DF85C
:10341000023043EA02279DF805209DF8043043EA74
:103420000226083D262D00F28580DFE805F068833E
:10343000838383831483838383833083838383831E
:103440004C8383838383838383838383838368839E
:1034500083838383680000B20AF072FD0022374B39
:103460000AF0D4FDC4E9000138B20AF069FD002277
:10347000324B0AF0CBFDC4E9020130B20AF060FD24
:1034800000222E4B0AF0C2FDC4E9040152E000B252
:103490000AF056FD00222A4B0AF0E2FEC4E90001C0
:1034A00038B20AF04DFD0022254B0AF0D9FEC4E9DE
:1034B000020130B20AF044FD0022214B0AF0D0FE96
:1034C000C4E9040136E000B20AF03AFD00221B4BC9
:1034D0000AF09CFDC4E9000138B20AF031FD002277
:1034E000164B0AF093FDC4E9020130B20AF028FD40
:1034F0000022124B0AF08AFDC4E904011AE000B26E
:103500000AF01EFD00220F4B0AF0AAFEC4E90001DA
:1035100038B20AF015FD00220A4B0AF0A1FEC4E9F8
:10352000020130B20AF00CFD0022064B0AF098FEB0
:10353000C4E90401204603B0F0BD00BF0000B03F65
:1035400000208C400000594070B588B005460C46FC
:1035500024260846002132460BF050FC2660AB685A
:1035600063600323A3600E4B1B680193019B2361DF
:1035700002A829461A22FFF72FFFDDE902010BF00E
:1035800027F86061DDE904010BF022F8A061DDE9B4
:1035900006010BF01DF8E061012008B070BD00BF0E
:1035A000481BFF1F044BD878C0B2044B1B689842DD
:1035B0001CBF024B18607047006006408C08FF1F5C
:1035C00008B5FFF7EFFF10F0020FFAD00222014B0F
:1035D000DA7008BD006006400B4B1B7813B90B4B2B
:1035E0001B7873B10A4B1B78202B03D9012303717D
:1035F00000207047581C064A1070064AD15401201A
:1036000070470020704700BFCA14FF1F8C14FF1FB3
:10361000CB14FF1F6814FF1F704700BF024B1878C0
:10362000024B1B78C01A7047C914FF1FC814FF1F34
:10363000074B1B78074A12789A4205D9591C044A4D
:103640001170054AD05C70474FF0FF30704700BFE3
:10365000C814FF1FC914FF1F9014FF1F054B1B78D0
:10366000054A12789A4286BF044AD05C4FF0FF3078
:10367000704700BFC814FF1FC914FF1F9014FF1F1D
:1036800008B5104BDB7813F0200F0CD1122002F09C
:10369000DBF90D4B1B689BB100210C4A11700C4AE1
:1036A0001078984708BD0B4A13780133DBB21370CA
:1036B000012B02D8084B1B7813B9122002F0C4F971
:1036C00008BD00BF006006406414FF1FC814FF1F40
:1036D000C914FF1FB414FF1F8C14FF1F38B5144604
:1036E0000D4B1B7813B90D4B1B7893B10C4B1D7808
:1036F000C5F12103A34202D2012202711C460948EE
:103700002844224602F06CF82544054B1D702046E3
:1037100038BD002038BD00BFCA14FF1F8C14FF1F26
:10372000CB14FF1F6814FF1F002202714FF47A713F
:1037300081600273014A0260704700BFD02C010013
:103740000B4B1B6813F0400F10D00A4B994203D863
:103750002C22094B5A7006E0084B994294BF1C2258
:103760001222054B5A700422034B9A71704700BF16
:10377000348004407F1A0600006006403F420F007C
:1037800008B500232C4A13702C4A116841F04001FF
:1037900011602B4A93702B4B1B78122B04D14FF4E2
:1037A0001972294B1A601AE0112B04D14FF41972C7
:1037B000264B1A6013E0222B04D140F26452244BB2
:1037C0001A600CE0082B04D140F26472214B1A609D
:1037D00005E0302B03D14FF419721F4B1A601F4BB9
:1037E0001B78132B04D14FF419721D4B1A601AE089
:1037F000102B04D14FF419721A4B1A6013E0212BCD
:1038000004D140F26452184B1A600CE0072B04D12B
:1038100040F26472154B1A6005E02F2B03D14FF470
:103820001972134B1A601349FFF78AFF044B2022C9
:103830005A7180229A7008BD8C14FF1F3480044096
:10384000006006408908FF1F0CA0044004A004404B
:1038500064D004400CC0044024C004409008FF1F02
:1038600008A0044000A0044060D0044008C0044008
:1038700020C00440A086010008B53D4BDB78DBB2D8
:1038800013F0100F06D01021394AD17013F0400FF9
:1038900003D108BD13F0400F2CD013F0040F1BD040
:1038A0000023344A1370344A1370344B1B681BB125
:1038B0009847314B1B782BB901222F4B1A700022ED
:1038C0002F4B1A702A4BD0229A702D4A12781A71F7
:1038D00001222C4B1A7009E00122264B1A7000229B
:1038E000294B1A70224BC0229A701B790222204B5E
:1038F000DA7008BD1E4A927812F0100F1CD013F037
:10390000010F14D11F4B1B781B4A12789A4207D91A
:10391000591C1C4A11701A4AD25C154B1A7102E0EC
:103920000022134B1A71D022114B9A701BE0104BDE
:10393000C0229A701B7916E00022144B1A701220D4
:103940001349032202F04CF9094B1B79DAB20E4BF2
:103950001B781F2B07D80749097821B1581C0A4941
:1039600008700C49CA540222014BDA7008BD00BF2E
:10397000006006406014FF1FCB14FF1FB014FF1F30
:103980006814FF1FCC14FF1FC914FF1FB414FF1FBE
:10399000813600009014FF1F4900044B1970012369
:1039A000034A1370034A1370704700BF6814FF1F67
:1039B000CA14FF1FCB14FF1F2DE9F04182B08846C7
:1039C000374B1222DA709B7813F0200F03D0B42209
:1039D000334B9A701DE0334B1B680093009D314CB4
:1039E0000CE023680193019B5B1B0F2B06D92C4B2A
:1039F00000229A7080229A7004204EE0FFF7D2FDD8
:103A000010F0200FEDD10022274B1A70B022244B6A
:103A10009A70FFF7C7FD10F0200FFAD0234B1B78E8
:103A20007BB30024224E1E4D204F335D2B71FFF7D8
:103A3000B9FD10F0020F02D110F0200FF7D10223D0
:103A4000EB70FFF7AFFD10F0100F04D08022144B85
:103A50009A70042018E010F0200F04D18022104B3F
:103A60009A70042010E010F0010F04D0002C0CBF5D
:103A7000022003200BE00134E4B23B78A342D4D807
:103A800001E0002000E00020B8F1000F02D0802209
:103A9000034B9A700022074B1A7002B0BDE8F08108
:103AA00000600640481BFF1F8C14FF1FCB14FF1F34
:103AB0006814FF1FCA14FF1F2DE9F8430D46144672
:103AC000984600233E4A13703E4A13703E4B122222
:103AD000DA709B7813F0200F03D0B4223A4B9A701F
:103AE0000AE0FFF75FFD10F0200FFAD10022374BFC
:103AF0001A70B022344B9A706D0045F00105EDB29A
:103B0000314B1D71FFF75CFDFFF74CFD10F011000C
:103B100005D080222C4B9A700020BDE8F88344B970
:103B2000B8F1000F0CBFA0228022274B9A70BDE88D
:103B3000F883012C04D1244BA8229A701B7938E019
:103B4000214BA0229A701B79012C32D900251E4EE0
:103B50004FF0A8091E4FFFF733FD013CE4B2012CE2
:103B600008BF86F802901F2D04D86A1C33797B5554
:103B7000D5B200E03379012CEDD1FFF721FDB02261
:103B8000114B9A701F2D07D82B465D1CEDB20E4AC3
:103B900011790F4AD15401E00B4B1B79B8F1000F9A
:103BA00002D08022084B9A70064B1D702846BDE853
:103BB000F883FFF705FDB022034B9A700023E4E77A
:103BC000C814FF1FC914FF1F006006408C14FF1F9C
:103BD0009014FF1F08B50123FFF76EFF08BD00BF5B
:103BE00008B50121FFF7E8FE08BD00BF08B502488F
:103BF000FFF79AFD08BD00BFB814FF1F014A02611C
:103C000002607047882C010070B584B0054600231F
:103C10008DF80F300C21FFF74DFB50B9664C23682F
:103C20005B682046654913229847204603F058F9FF
:103C300058E0012685F8556128463146FFF7F8FA25
:103C40005D4C23685B6820465D49122298472046F8
:103C500003F046F90DF10F030093284603A90DF177
:103C60000D020DF10E03FFF775FB23685B6820461C
:103C700054491122984720469DF80C100A2200232F
:103C800003F054F923685B6820464F4906229847A1
:103C900020469DF80D100A22002303F047F92368FF
:103CA0005B68204649490722984720469DF80E1038
:103CB0000A22002303F03AF923685B68204644494E
:103CC0000522984720469DF80F100A22002303F092
:103CD0002DF923685B6820463E49324698472046C6
:103CE00003F0FEF805F11000032101F0CFFA50B9FE
:103CF000314C23685B682046374913229847204699
:103D000003F0EEF845E0012385F854312A4C23688E
:103D10005B682046314912229847204603F0E0F8BC
:103D200037E040F8082C40F8042C02604160013371
:103D300014300F2BF5D1204C23685B6820462849AE
:103D40001222984720464FF4ED7103F02BF92046DC
:103D500003F0C6F823685B68204622490B22984787
:103D600020469FED110B022103F026F9204603F0B7
:103D7000B7F823685B6820461B4912229847204603
:103D80009FED0B0B022103F017F9204603F0A8F872
:103D900005E005F13000002300221946C1E704B018
:103DA00070BD00BFAFF300800000004080B70A4044
:103DB0000000006091EDCC3F401CFF1FE82C01008B
:103DC000FC2C0100102D0100242D01002C2D0100E0
:103DD000342D0100042C01003C2D0100502D010068
:103DE000642D0100782D0100842D0100AFF30080C7
:103DF00030B583B0044600F11005284601F006FAFC
:103E000088B1284601A901F069FB28469FED080A00
:103E1000DFED087ADDED010AC0EEA70A01F088F9AE
:103E200084ED090A01E094ED090A03B030BD00BF3A
:103E300000507D440000C84238B52DED088B0D467A
:103E40001446D1E900010AF0C3FB0AEE100AD5E9D5
:103E500002010AF0BDFB09EE900AD5E904010AF05F
:103E6000B7FB09EE100AD4E900010AF0B1FB08EE35
:103E7000900AD4E902010AF0ABFB08EE100AD4E97B
:103E800004010AF0A5FB07EE900A6AEE28AA29EEC3
:103E9000887A7AEE87AA29EE277A7AEE87AA68EEE0
:103EA000A88A28EE088A38EE888A67EEA77A78EE24
:103EB000277A17EE900A0AF055F89FED5F8B41ECD8
:103EC000100BB0EE481AF0EE681A06F0ABFE55EC97
:103ED000104B2AEE0A7A69EEA97A37EE277A69EE54
:103EE000097A77EE277A17EE900A0AF03BF841EC50
:103EF000100BB0EE481AF0EE681A06F093FE51EC83
:103F0000100B0AF065FB08EE900A204629460AF0DD
:103F10005FFB07EE100A67EE287ACAEEA77A17EE63
:103F2000900A0AF01FF841EC100B06F019FD51EC55
:103F3000100B0AF04DFB9FED42BA07EE900A27EEF8
:103F40008BBA8AEEA88A3F4C23685B6820463E49BC
:103F50001622984723685B6820463C49012298470F
:103F60001AEE100A09F0FEFF41EC100B2046022168
:103F700003F022F82368364D5B682046294601226B
:103F8000984719EE900A09F0EDFF41EC100B20461E
:103F9000022103F011F823685B68204629460122BC
:103FA000984719EE100A09F0DDFF41EC100B20468E
:103FB000022103F001F823685B68204625490222AC
:103FC0009847204602F08CFF23685B682046224910
:103FD00007229847DFED217ACBEE277A17EE900A79
:103FE00009F0C0FF41EC100B2046022102F0E4FF73
:103FF000204602F075FF23685B68204618491622A8
:10400000984718EE100A09F0ADFF41EC100B20465E
:10401000022102F0D1FF23685B682046114900228B
:104020009847204602F05CFFB0EE480ABDEC088BD2
:1040300038BD00BFAFF30080000000000000E03F8B
:1040400000003443401CFF1F982D0100B02D0100DB
:10405000C02E0100B42D0100B82D0100DB0F494036
:10406000C02D010044300100F8B50746124C134E34
:10407000134D1BE023685B682046314612229847A7
:104080003846FFF7B5FE10EE100A09F06BFF024646
:104090000B462046294602F03BFF23685B6820461A
:1040A000084901229847204602F01AFF02F0DAFD83
:1040B0000028DFDDF8BD00BF401CFF1FD82D010028
:1040C000EC2D0100042C01002DE9F04399B00546C8
:1040D0004E4C4F4F4F4E90E0684629462822FFF73E
:1040E0007BF906A829462E22FFF776F923685B683C
:1040F000204639461922984723685B682046314696
:104100000122984720469DED060B022102F054FF44
:104110002368DFF808815B68204641460122984702
:1041200020469DED080B022102F046FF23685B68E4
:10413000204641460122984720469DED0A0B022168
:1041400002F03AFF2368DFF8D8905B6820464946C2
:1041500002229847204602F0C3FE23685B6820468F
:104160002D491522984723685B6820463146012275
:10417000984720469DED000B022102F01DFF2368A9
:104180005B68204641460122984720469DED020B80
:10419000022102F011FF23685B682046414601229C
:1041A000984720469DED040B022102F005FF23688D
:1041B0005B682046494602229847204602F090FE5E
:1041C00000210CA8084406AB0B44D3E90023C0E946
:1041D000002308311829F4D1002112A8084400ABAB
:1041E0000B44D3E90023C0E9002308311829F4D196
:1041F00028460CA912AAFFF71FFE02F033FD002883
:104200007FF76AAF19B0BDE8F08300BF401CFF1F05
:10421000F42D0100B02D0100102E0100C02E010070
:10422000B42D01002DE9F04184B0804600258DF8C1
:104230000F50344C23685B68204633491622984758
:10424000204602F04DFE314F314E0DF10F03009329
:10425000404603A90DF10D020DF10E03FFF77AF8A8
:1042600023685B68204639461122984720469DF80E
:104270000C100A22002302F059FE23685B682046D6
:1042800031460622984720469DF80D100A22002349
:1042900002F04CFE23685B6820461E4907229847BF
:1042A00020469DF80E100A22002302F03FFE2368EC
:1042B0005B68204618490522984720469DF80F1054
:1042C0000A22002302F032FE23685B68204613496D
:1042D00001229847204602F003FE9DF80E30022B83
:1042E00007D901354FF4967001F0C4FE042DACDD02
:1042F00005E04FF4967001F0BDFE0025A5E704B07F
:10430000BDE8F081401CFF1F282E0100102D010088
:10431000242D01002C2D0100342D0100042C01005E
:1043200084B001A880E80E000E4B049AC3F8A024C4
:1043300003F2A4420199116003F59562029911609C
:1043400003F2B4420399116003F59D62069911606E
:1043500003F2EC420799116003F59E63089A1A6014
:1043600004B070472816FF1F13680B6053684B603A
:1043700093688B60D368CB6013690B61704700BF93
:1043800084B070B52DED028B88B005460FA880E88B
:104390000E0005F5AA7105F12806A1F114042846BE
:1043A0002246FFF7E1FF2146B442F6D100231393E2
:1043B000284605F128010FAAFFF7D6FF9DED126AE6
:1043C000F8EE466A05F5A8720F239FED4D7A12EDBF
:1043D000016AF8EE467A77EEE67AC7EE877A17EE4C
:1043E000901A42F81419013BF1D105F138030F225C
:1043F000DFED446AB0EE665AF0EE665AB0EE666AD9
:10440000D3ED007A36EE276A27EEA77A75EE875A43
:1044100013ED047A35EE075A67EE877A76EEA76ACF
:104420001433013AECD126EE058AF2EE0E7A66EEEE
:10443000A76A38EE668A26EE066A65EEA77A76EEF9
:10444000677A88EE278A304B83ED008A05F14C00AD
:104450000823DFED2C7AF6EE005A50ED076A10EDD6
:10446000027A76EE876A66EEA56A10ED056A024664
:10447000143092ED007A36EE477A26EE877A77EEA0
:10448000877A013BE9D1214BC3ED007A38EE278AC8
:10449000B0EE480A06F048FA68B96846322102F0E0
:1044A00099FF1B48694600F053F9684602F038FF4F
:1044B0009FED148A1AE0DFED177AB4EEE78AF1EE89
:1044C00010FA06DCFAEE047AB4EEE78AF1EE10FA9E
:1044D0000CD504A8332102F07DFF0D4804A900F09B
:1044E00037F904A802F01CFF9FED068AB0EE480AD7
:1044F00008B0BDEC028BBDE8704004B0704700BF4F
:104500000024744900000000D41AFF1FD81AFF1FAE
:104510002816FF1F0000964330B583B005460C46B1
:10452000104800F077F970B90F4C23685B6820469B
:104530000E490D229847204602F0D2FC4FF47A70C3
:1045400001F098FD0CE004F10C0393E803008DE802
:10455000030094E80E002846FFF712FF84ED010ADD
:1045600003B030BD2816FF1F401CFF1F402E010066
:1045700010B50D4C20464FF0FF312822FEF72CFEDF
:1045800004F1100042F2657100F0CCFD002384F8C4
:10459000203084F8543184F8553120460349044AC8
:1045A0000AF066F810BD00BFD014FF1FFD3B0000ED
:1045B0003C08FF1F70B5044600F29C452846FEF7F4
:1045C00015FC00B3264646F83C5F04F58F65284687
:1045D000FDF7CCF930460121FEF7C2F820B930468C
:1045E0000021FEF7BDF870B128463146FCF7C6FF42
:1045F000034640B194F8782412F0700F1ABF0D4AA8
:104600001560002353B90C4C23685B6820460B49A6
:1046100014229847204602F063FC70BD064C2368C4
:104620005B682046064913229847204602F058FC52
:1046300070BD00BF1014FF1F401CFF1F682E01003B
:10464000802E010070B598B0064600238DF83C30EE
:104650008DF83D308DF830304FF47A720D928DF830
:104660003830354B0B930FA806F58F61334A63231F
:10467000FDF784F99DF83C30002B5BD0D6F8A044C0
:1046800006F2A443186809F06DFCCDE9000106F5B7
:104690009563186809F066FCCDE9020106F2B4439F
:1046A000186809F05FFCCDE9040106F2AC43186814
:1046B00009F058FCCDE9060106F59663186809F083
:1046C00051FCCDE908010BA81D49224602F020FC4F
:1046D00006F59D63186809F045FC04460D4606F290
:1046E000EC43186809F03EFCCDE9000106F59E6335
:1046F000186809F037FCCDE902010BA811492246E0
:104700002B4602F005FC06F2F446306809F02AFC5C
:1047100002460B460BA80C4902F0FAFB0B9B5B68A8
:104720000BA80A49002298470BA802F0D9FB0FA852
:10473000FDF71CF918B070BDD8290100942E0100B6
:10474000A42E0100C42E0100D42E0100443001002B
:1047500010B58EB00C4600238DF814308DF815304E
:104760008DF808304FF47A7203928DF81030204B98
:10477000019300F58F6105A81E4A6323FDF7FEF83B
:104780001D4B1B680093009A9DF814302BB307EE65
:10479000902AB8EE677ADFED197AC7EE277A17EE1E
:1047A000900A09F0DFFB02460B4601A8144902F00B
:1047B000AFFB019B5B6801A812490122984701A841
:1047C000214602F067FB019B5B6801A80E490022AD
:1047D000984701A802F084FB05E00C4803685B6879
:1047E0000B491922984705A8FDF7C0F80EB010BD77
:1047F000D8290100DC2E0100481BFF1F00007A446D
:10480000F02E0100C02E010044300100401CFF1FAB
:10481000F82E010030B52DED048B93B004460D4603
:1048200000238DF814308DF815308DF808304FF4D2
:104830007A7203928DF810302C4B019305A804F581
:104840008F612B4A0123FDF799F89DF81430002B56
:1048500036D013F0080F33D00C9A0A9BD31A28D401
:104860003BBB2DE005A8FCF79DFF01A802F022FD4F
:10487000B0EE409A01A802F01DFDF0EE408A01A8BA
:1048800002F018FDB0EE408A0A9B636305A8FDF7AD
:104890006DF8DFED187A29EE279ABCEEC99A85EDFE
:1048A000039AC5ED008A85ED028A01201AE00020F6
:1048B00018E0616B4A1C48F652139A42F7DCD1E7C4
:1048C0000D4803685B680D492D2298470EA83521D5
:1048D00002F080FD20460EA9FFF73AFF0EA802F075
:1048E0001FFD002013B0BDEC048B30BDD8290100A2
:1048F000142F010000247449401CFF1F282F0100C1
:1049000030B59BB000F58F643E4D20462946FDF73B
:1049100091F820463C49FDF78DF800238DF81030C2
:104920008DF811308DF804304FF47A7202928DF8C0
:104930000C30364B009304A821462A466323FDF72A
:104940001DF89DF8103053B9314D2B685B6828462F
:1049500030491F229847284602F0C2FA0DE01AADEE
:1049600055F8683D5B6868462B494C229847684675
:1049700002F0B6FA04A8FCF7F9FF00238DF84430E2
:104980008DF845308DF838304FF47A720F928DF8EB
:1049900040301E4B0D9311A821461B4A6323FCF7A0
:1049A000EDFF04AC11AD0FCD0FC40FCD0FC42B68BC
:1049B00023609DF838308DF804300F9B02939DF8EA
:1049C00040308DF80C309DF8103053B9104C2368EE
:1049D0005B6820460F491F229847204602F080FA64
:1049E0000DE01AAC54F8683D5B6868460B490E222E
:1049F0009847684602F074FA04A8FCF7B7FF1BB0AA
:104A000030BD00BF942E0100DC2E0100D82901002A
:104A1000401CFF1F582F0100782F0100C82F0100F4
:104A20000A4B00221A745A741A714FF47A71996001
:104A30001A73074919605A6383F8432083F878246E
:104A400083F87924034AC3F89C2470472816FF1F73
:104A5000D8290100682C010008B50420012101F0CB
:104A60007FF80520012101F07BF80820012101F0E9
:104A700077F80620002101F073F80720002101F0EB
:104A80006FF808BD10B5144641B10420012101F0B2
:104A900035F80520002101F031F807E0042000215D
:104AA00001F02CF80520012101F028F8082021460A
:104AB00001F016F910BD00BF38B5464C23685B689D
:104AC000204645493A229847204602F009FA2368D1
:104AD0005B68204641493B229847204602F000FA95
:104AE00023685B6820463E493B229847204602F0F7
:104AF000F7F923685B6820463A493B2298472046ED
:104B000002F0EEF923685B68204637493B2298475C
:104B1000204602F0E5F923685B68204633493B22D2
:104B20009847204602F0DCF92368314D5B68204647
:104B3000294600229847204602F0D2F923685B6894
:104B400020462C4937229847204602F0C9F92368AD
:104B50005B68204628491C229847204602F0C0F98D
:104B600023685B682046294600229847204602F0C9
:104B7000B7F923685B68204620494C2298472046B5
:104B800002F0AEF923685B6820461D493822984739
:104B9000204602F0A5F9052001F06CFA23685B6855
:104BA0002046184930229847204602F099F9236898
:104BB0005B682046144940229847204602F090F94D
:104BC00023685B682046294600229847204602F069
:104BD00087F938BD401CFF1F4830010084300100B8
:104BE000C0300100FC300100383101007431010097
:104BF00044300100B0310100E83101000832010009
:104C00005832010094320100C832010010B5254C21
:104C100023685B68204624491D229847204602F0FD
:104C20005FF923685B682046204915229847204693
:104C300002F056F923685B6820461D4919229847FF
:104C4000204602F04DF923685B68204619491B2273
:104C50009847204602F044F923685B6820461649CD
:104C600028229847204602F03BF923685B682046DB
:104C700012491C229847204602F032F923685B68EB
:104C800020460F4920229847204602F029F9236840
:104C90005B6820460B4914229847204602F020F911
:104CA00010BD00BF401CFF1F0C3301002C3301005E
:104CB00044330100603301007C330100A83301005C
:104CC000C8330100EC3301002DE9F00F82B00A9FD8
:104CD000002B009336DD0B9B9800DDF830904FEAF7
:104CE000870B88464FF0000A0192DFED186A1EE03C
:104CF000E1EC016A002F10DD2A466346B3EC017A2D
:104D0000D2ED007A67EE277A11ED017A77EE277AF5
:104D100041ED017A0244A342F0D10435B142E7D11A
:104D20000AF1010A8144D844009B9A450AD00B9BA2
:104D3000002BF5DD019D00EB090608EB0B0449464D
:104D4000C446D5E702B0BDE8F00F70470000000090
:104D50002DE9F00FDDF820C0DDF82490002B20DDD8
:104D60004FEA8C088B4601EB080A002637460DE017
:104D7000B1EC017AF0EC017A77EE277AE4EC017A73
:104D8000A942F5D1013746449F420AD0BCF1000F39
:104D9000F8DD06EB0A0509EB060490190BEB06019A
:104DA000E6E7BDE8F00F70472DE9F00FDDF820C011
:104DB000DDF82490002B20DD4FEA8C088B4601EBB8
:104DC000080A002637460DE0B1EC017AF0EC017AD2
:104DD00077EE677AE4EC017AA942F5D101374644CF
:104DE0009F420AD0BCF1000FF8DD06EB0A0509EB83
:104DF000060490190BEB0601E6E7BDE8F00F7047DB
:104E00002DE9F003B2F100091ADD4FEA8308069A92
:104E10004FEA89074FF0000C0BE050F8045B256067
:104E20003C448642F9D10CF1010C41440432CC459A
:104E300006D0002BF7DD08EB010614460846ECE728
:104E4000BDE8F003704700BF70B4002A13DD9E0078
:104E500000250BE0D0ED007A67EE807AE0EC017A75
:104E6000A042F7D101353144954204D0002BF9DD41
:104E700074180846EEE770BC704700BF2DE9F04F8C
:104E80008BB000AF7962501E38604FEA820909F199
:104E90000A0323F00703ADEB030DC7F80CD0002A7B
:104EA00040F3A6803A61CA46CB46C7F80890002373
:104EB000FB619C46541CBC619FED726AF7EE005A80
:104EC000786A786087E0D1ED007AF5EEC07AF1EE8D
:104ED00010FAD4BFB1EE677AB0EE677AB4EEE67A34
:104EE000F1EE10FA09DBF5EEC07AF1EE10FAD4BF5C
:104EF000F1EE676AF0EE676A184601335144934257
:104F0000E1D138623B6A02FB03F101EB0C037C6ADE
:104F100004EB8303D3ED007AF5EE407AF1EE10FA5C
:104F20000BD1594C23685B68204658492722984783
:104F3000204601F0D5FF0020A0E0386A844500F04B
:104F400083800CFB02F07C6A04EB800304EB81019C
:104F50003C6920447C6A04EB80001C680D6843F8BF
:104F6000045B41F8044B8342F7D16DE0D3ED007A46
:104F700067EE877AE3EC017A8B42F7D1786A00EB2F
:104F80008C067D680024C7F814A0D7F808A0A445B3
:104F900013D0D6ED006A86ED006A09EB05004146A4
:104FA0002B4693ED007AF1EC017A67EEA67A77EE64
:104FB000677AE3EC017A8342F3D101345D445644CD
:104FC0009442E4D1D7F814A0F96901F1010C944599
:104FD0000ED0C7F81CC0624594DDBB690CFB03F121
:104FE0007C6A04EB81016346F0EE466A386A6AE740
:104FF0003868002824DBF96801EB820CA9F104066B
:105000007B6A1E444FF0000882469B465CF8041DF4
:1050100051450ED0002A0CDD0BEB81013346404692
:105020001C680D681D600C6001304B44494490427F
:10503000F6D10AF1FF3A043EBAF1FF3FE6D101E0B2
:1050400001201BE0012019E03C6AF86840F82C4080
:10505000B9690CFB01F37C6A04EB830191ED007AE2
:1050600085EE877AC1ED005ACCEB030304EB83088D
:105070003869034404EB8301434677E72C37BD4688
:10508000BDE8F08F00000000401CFF1F0834010045
:10509000014B0360704700BF882C010010B5044627
:1050A000024B036001F0F2FE204610BD882C010087
:1050B00038B505460C4608460021282209F09EFE18
:1050C00020460A490B220AF075F90023E3720122F7
:1050D000E260AA682261062262616362044BA361F6
:1050E000044BE361044B236238BD00BF3034010040
:1050F00000808944000096430AD7233C084B5A8914
:105100008A1A198901FB02F2D213B3F91200C00204
:10511000B3F91430134490FBF3F01044704700BF10
:105120002C1BFF1F014A0260816070474034010060
:1051300008B5C0EE800A10EE900A08F013FF41ECAB
:10514000100B9FED0B1B05F06DFD00200C4953EC7F
:10515000102B08F0A7FD08A3D3E9002308F056FFA1
:1051600009F036FA00EE100A08BD00BFAFF3008068
:1051700000000020C05BC83F0000000040A5E540E3
:105180000000F03FAFF3008070B506460D46084CB6
:1051900020467721FEF700FC20463146FEF71CFA38
:1051A00020462946FEF718FA2046FEF719FD70BD85
:1051B000B814FF1F08B5054B197889013431F42064
:1051C00001F0FC01FFF7E0FF08BD00BF441BFF1F1B
:1051D00070B506460D460C4C20467721FEF7DCFBE9
:1051E00020463146FEF7F8F92046FEF7F9FC204646
:1051F00077210122FEF7EEFC2046FEF719FA28700F
:105200002046FEF7EDFC70BDB814FF1F00B583B05B
:10521000F4200DF10701FFF7DBFF9DF8070080F098
:105220002000C0F3401003B05DF804FB70B50646E3
:105230000D460F4C20467721FEF7AEFB2046314647
:10524000FEF7CAF92046FEF7CBFC20467721022262
:10525000FEF7C0FC2046FEF7EBF906462046FEF7B7
:10526000E7F940EA062028802046FEF7B9FC70BD29
:10527000B814FF1F10B582B00C460DF10601FFF700
:10528000D5FFBDF80630238002B010BD10B582B046
:105290000C462548FEF774FAD0200DF10701FFF700
:1052A00097FF9DF80730552B3AD1032C28BF0324D4
:1052B0001E4B1C701E4CAA202146FFF7DBFFAC20C2
:1052C000A11CFFF7D7FFAE20211DFFF7D3FFB020B1
:1052D000A11DFFF7ABFFB22004F10801FFF7A6FF05
:1052E000B42004F10A01FFF7A1FFB62004F10C017C
:1052F000FFF7C0FFB82004F10E01FFF7BBFFBA2093
:1053000004F11001FFF7B6FFBC2004F11201FFF712
:10531000B1FFBE2004F11401FFF7ACFF012000E053
:10532000002002B010BD00BFB814FF1F441BFF1FB8
:105330002C1BFF1F10B582B00446F4202E21FFF76E
:1053400023FF062000F096FEF6200DF10601FFF780
:105350006DFFBDF80630236002B010BDF0B583B01C
:1053600007460D4602A8002240F8042DFFF7E2FF91
:10537000464C217889013431F42001F0FC01FFF71B
:1053800003FF2378012B07D013B1022B08D00BE0C9
:10539000052000F06FFE0AE0082000F06BFE06E03A
:1053A0000E2000F067FE02E01A2000F063FEF620F7
:1053B0000DF10201FFF73AFFBDF80260360201204D
:1053C00000F058FEF8200DF10101FFF701FF2F4B0F
:1053D0001C789DF801301E44C4F108031E41384674
:1053E0000199FFF78BFEA0F57A6000FB00F2121323
:1053F000274BB3F9047000FB07F7B3F90C1001FB5E
:1054000002F1091401EB67310231891001F5004105
:10541000DF8807FB01F1C90BB3F90070B3F90EC0C7
:1054200002FB0CF2B3F9023000FB03F0C01200EBF8
:10543000E22202EB8703A3400233A6EBA3064CF261
:105440005033234103FB06F3002BA7BF5C00B4FBE2
:10545000F1F4B3FBF1F46400231203FB03F340F611
:10546000DE3202FB03F30B4A02FB04F2121402EBDE
:10547000234303F6CF6304EB231407EE104AF8EE40
:10548000C77AC5ED007A03B0F0BD00BF441BFF1F13
:105490002C1BFF1F43E3FFFF70B582B005460C468F
:1054A000242608460021324609F0A8FC2660AB6895
:1054B00063600623A36000232361284601A9FFF748
:1054C0004DFFDFED057A9DED017AC7EE277AC4ED39
:1054D000057A012002B070BD0000C842F0B583B06B
:1054E00005460E4600230193F6200DF10201FFF759
:1054F0009DFEBDF802703F02F8200DF10101FFF79B
:1055000067FE9DF801201744304C2378C3F108034F
:105510001F4101A8FFF70EFFFFF74CFE2846019937
:10552000FFF7ECFDA0F57A6000FB00F52D13227863
:10553000274BB3F9044000FB04F4B3F90C1001FB52
:1055400005F1091401EB64340234A41004F500449D
:10555000D98801FB04F4E40BB3F90010B3F90EC0D1
:1055600005FB0CF5B3F9023000FB03F0C01200EBB1
:10557000E52505EB810191400231A7EBA1074CF233
:10558000503141FA02F202FB07F2002AA7BF530092
:10559000B3FBF4F3B2FBF4F35B001A1202FB02F26A
:1055A00040F6DE3101FB02F20A4901FB03F1091466
:1055B00001EB224202F6CF6203EB221307EE103A10
:1055C000F8EEC77AC6ED007A03B0F0BD441BFF1FAA
:1055D0002C1BFF1F43E3FFFF30B4002545624261EF
:1055E0000161836180ED000AC0ED010A80ED021ABD
:1055F000C0ED031A029BC362039B036330BC704778
:1056000070B52DED048B054603691A6883691B6824
:105610009B1A08EE903A00F009FD0646AB6AC31AE1
:1056200009EE103AB8EE499ADFED657A89EE279ACD
:10563000F8EEE88AD5ED089A78EEE99AD5ED017A88
:1056400069EEA77A67EE897A95ED077A77EE877A21
:10565000C5ED077AC9EE899A95ED027A69EE879AC7
:10566000D5ED0C6AB8EEE68AF4EEC87AF1EE10FADF
:1056700002DD85ED078A0AE0D5ED0B6AB8EEE67A21
:10568000F4EEC77AF1EE10FA48BF85ED077ADFED48
:105690004D7AB4EEE79AF1EE10FA06DDD5ED007A18
:1056A00068EEA77A0023EB6109E0D5ED007A68EE99
:1056B000A77A95ED077A77EE877A77EEA97AF4EEF6
:1056C000C87AF1EE10FA0ADC95ED0B7AB8EEC78ACB
:1056D000F4EEC87AF1EE10FA58BFB0EE678A6B6943
:1056E000FDEEC87AC3ED007A374C23685B6820462C
:1056F00036490B22984718EE100A08F033FC41ECAB
:10570000100B2046022101F057FC204601F0E8FB77
:1057100023685B6820462E490A229847D5ED007A17
:1057200068EEA77A17EE900A08F01CFC41EC100B0B
:105730002046022101F040FC204601F0D1FB236805
:105740005B682046234907229847E86908F00AFC6D
:1057500041EC100B2046052101F02EFC204601F003
:10576000BFFB23685B6820461B490722984719EE58
:10577000900A08F0F7FB41EC100B2046022101F0E3
:105780001BFC204601F0ACFB23685B6820461349F4
:105790000422984719EE100A08F0E4FB41EC100BC4
:1057A0002046052101F008FC204601F099FBC5EDDB
:1057B000099AC5ED088AAE62BDEC048B70BD00BFCE
:1057C00000247449CDCCCC3E401CFF1F583401004E
:1057D0006434010070340100783401008034010029
:1057E000844641EA000313F003036DD1403A41D3EC
:1057F00051F8043B40F8043B51F8043B40F8043BAB
:1058000051F8043B40F8043B51F8043B40F8043B9A
:1058100051F8043B40F8043B51F8043B40F8043B8A
:1058200051F8043B40F8043B51F8043B40F8043B7A
:1058300051F8043B40F8043B51F8043B40F8043B6A
:1058400051F8043B40F8043B51F8043B40F8043B5A
:1058500051F8043B40F8043B51F8043B40F8043B4A
:1058600051F8043B40F8043B51F8043B40F8043B3A
:10587000403ABDD2303211D351F8043B40F8043BDA
:1058800051F8043B40F8043B51F8043B40F8043B1A
:1058900051F8043B40F8043B103AEDD20C3205D3EA
:1058A00051F8043B40F8043B043AF9D2043208D0E2
:1058B000D2071CBF11F8013B00F8013B01D30B8854
:1058C00003806046704700BF082A13D38B078DD032
:1058D00010F003038AD0C3F10403D21ADB071CBF04
:1058E00011F8013B00F8013B80D331F8023B20F86E
:1058F000023B7BE7043AD9D3013A11F8013B00F8A7
:10590000013BF9D20B7803704B7843708B7883702E
:1059100060467047024B1A6801321A60704700BF38
:10592000481BFF1F08B50D4C236813F4802F01D0CE
:1059300000F030FD236813F4806F01D002F0BAF953
:10594000236813F4006F01D002F076FD236813F48E
:10595000805FE9D003F034F8E6E700BF348004400C
:1059600008B5FFF7DFFF00BF1022014B1A80704718
:1059700000200540704700BF024A136818441060B9
:10598000184670479408FF1FFEE700BFEFF313832C
:10599000ABB9EFF31083ABB9EFF3058323B10F2B52
:1059A00005D9094A985C03E04FF4807000E00020BC
:1059B000EFF311833BB1834238BF184670474FF075
:1059C000FF30704700207047F0E300E00B4B1B787E
:1059D000DBB2802B0ED10A4A0A4B1A60002203F573
:1059E000573303F2BD331A70044A1378DBB2802BAD
:1059F000FBD001E0002070470120704703E0074022
:105A000000002822448004400B4B1B78DBB2012BA2
:105A10000FD1602203F1804303F5FC231A70064A7C
:105A20001378DBB2802BFBD1044A054B1A600120AE
:105A300070470020704700BF03E0074000000602E7
:105A400044800440704700BF1D4B03EBC000436817
:105A500003F14042A2F592227C2A18D903F1404278
:105A6000A2F594227C2A14D903F14042A2F5962291
:105A70007C2A10D903F14042A2F598227C2A0CD945
:105A800003F14042A2F59A227C2A08D970470D49B9
:105A900006E00D4904E00D4902E00D4900E00D4922
:105AA00072B61A6822F0877222F4803242F0807255
:105AB0001A60C3F38403084A41F8232062B6704792
:105AC000883401009808FF1F1009FF1F7009FF1F8D
:105AD000A009FF1FE009FF1F455A0000044B0022E8
