:1000000000000320D1010000DD510000A1510000DB
:10001000A1510000A1510000A1510000A151000018
:10002000A1510000A1510000A1510000DD510000CC
:10003000DD510000A1510000DD5100009151000090
:10004000DD510000DD510000DD510000DD510000F8
:10005000DD510000DD510000DD510000DD510000E8
:10006000DD510000DD510000DD510000DD510000D8
:10007000DD510000DD510000DD510000DD510000C8
:10008000DD510000DD510000DD510000DD510000B8
:10009000DD510000DD510000DD510000DD510000A8
:1000A0002D2F0000DD510000DD510000DD5100006A
:1000B000DD510000DD510000DD510000057400003D
:1000C000DD510000897B0000DD510000118100003E
:1000D000DD5100003D870000DD510000DD510000D2
:1000E000DD510000DD510000DD510000DD51000058
:1000F000DD510000DD510000DD510000DD51000048
:10010000DD510000DD510000DD510000DD51000037
:10011000DD510000115C0000DD510000DD510000E8
:10012000DD510000DD510000DD510000DD51000017
:10013000DD510000DD510000DD510000DD51000007
:10014000DD510000DD5100008D8C0000DD5100000C
:10015000DD510000DD510000DD510000DD510000E7
:10016000DD510000DD510000DD510000DD510000D7
:10017000DD510000DD510000DD510000DD510000C7
:10018000DD5100007D240000DD510000DD51000044
:10019000DD510000DD510000ED920000DD51000056
:1001A000DD510000DD510000DD510000DD51000097
:1001B000DD510000DD510000DD510000DD51000087
:1001C000DD510000DD510000DD510000DD51000077
:1001D0005C4B4CF2205210B51A804DF628121A8052
:1001E00000BF00BF04F0FEFF574B4FF030621A60B3
:1001F000564A9A60564ADA60564B4FF470021A60BB
:10020000554B564A1A60564B1A6812F4807204D144
:1002100054490A604FF4A8521A60534B1A781107D8
:1002200003D51A7842F008021A70504B504C5148CE
:10023000AA221A70504A00239918A14203D21958D1
:1002400099500433F8E74D4B4D4900228B4202D2BE
:1002500043F8042BFAE74B484B4900235A581A50ED
:100260000433B3F5E87FF9D1484B494A802103F8BC
:10027000011B9342FBD1474B424A1A60464B8A22EC
:100280001A70A3F5805324225A70A0221A709A790A
:100290009207FCD59A79D406FCD4404B9A7902F0A7
:1002A0000C02082AFAD13E4B60221A7002331A78E7
:1002B000802AFCD1394B01221A715D225A719A7938
:1002C0009006FCD59979354A4906FBD5354B364918
:1002D00019600021596020231370937903F00C03F7
:1002E0000C2BFAD1314B324A1A60324B324A1A6027
:1002F00000225A60072243F8042C304AC3F80C2D20
:1003000062B605F00BFB174B1B68DA0705D52C48C6
:1003100005F022F82B4B2C4A1A602C4B1B785B06FD
:1003200009D5284C284A2368934204D1244805F073
:1003300013F8002323600DF059FD04F059FF06F077
:10034000DBF9FEE70E20054030800440823F0400C8
:100350000100002B88ED00E0002008E0030000858C
:1003600010D0034014D0034002D0074000E0074003
:100370003413FF1FD43401006007FF1F3413FF1F25
:10038000941FFF1F0002FF1F0000000000E400E0B8
:1003900064E400E008ED00E0005006400040064044
:1003A00001E007404480044000000602048004404D
:1003B000C010070014E000E01FBF02000000202072
:1003C000E81393031CE00340A5C3945A00F00740D0
:1003D000FFFFFFFFFFFFFFFFFFFFFFFFFFFFFFFF2D
:1003E000FFFFFFFFFFFFFFFFFFFFFFFFFFFFFFFF1D
:1003F000FFFFFFFFFFFFFFFFFFFFFFFFFFFFFFFF0D
:10040000FFFFFFFFFFFFFFFFFFFFFFFFDEF9FFFF23
:1004100010B5054C237833B9044B13B10448AFF33E
:1004200000800123237010BD3413FF1F0000000063
:10043000CC34010008B5064B1BB106480649AFF3A2
:1004400000800648036813B1054B03B1984708BD07
:1004500000000000CC3401003813FF1F3413FF1FCD
:100460000000000010B5062004F0AAFF0446072093
:1004700004F0A6FF8442044B1A6C0CBF02F1FF3259
:1004800001321A6410BD00BF6C1AFF1F2DE9F0473E
:100490002DED068BB0EE409AF0EE609A11EE106AE8
:1004A00011EE90AA9FED60AA60EE0A7A17EE900A0C
:1004B0000DF000F941EC180B41EC100B0AF0FAF8C2
:1004C00059EC108B89EE0AAA1AEE100A0DF0F2F818
:1004D00041EC100B0AF0EEF855EC104B30460DF0E5
:1004E000E9F822462B460DF039F941EC100B09F0E2
:1004F0007FFB57EC106BB0EE480AF0EE680A0AF08A
:10050000D9F855EC104B0020484942464B460DF0B7
:100510004FFA32463B460DF021F90DF001FC0DF08B
:10052000C9F802460B46204629460DF017F941EC62
:10053000100B09F019FD09F0A3FE57EC106B5046A3
:100540000DF0B8F804460D46F7EE007AC7EE897A4A
:1005500017EE900A0DF0AEF832463B460DF0FEF86D
:1005600002460B46204629460CF044FF0DF0D8FB0E
:1005700007EE900A77EEE99AF8EE007A69EE277AAC
:1005800067EEA97A17EE900A0DF094F841EC100B83
:1005900009F0F2FD0020264953EC102B0CF02AFF45
:1005A0000DF0BEFB08EE100AB5EE408AF1EE10FA2F
:1005B000DFED207A48BFB0EE678A69EE299A19EE1E
:1005C000900A0DF077F841EC100B09F0D5FD59ECCD
:1005D000108BDFED157A87EE899A19EE100A0DF06F
:1005E00069F841EC100B0AF065F857EC106B18EE47
:1005F000100A0DF05FF841EC100B0AF05BF855ECB7
:10060000104B4046494632463B460DF0A7F822467D
:100610002B460DF0A3F80DF083FB00EE100ABDECA5
:10062000068BBDE8F08700BFC3F51C410000F0BF9A
:100630000000F03F0000000008B52DED028BB0EE89
:10064000408AF0EE608A9FED217A37EE407ADFED46
:10065000207A67EE277A17EE900A0DF02BF841EC1E
:10066000100B09F089FDDFED1B7AF4EEE78AF1EE5D
:1006700010FA0AD59FED180AF0EE480A9FED171AF6
:10068000DFED121AFFF702FF1DE0DFED127AF4EE44
:10069000E78AF1EE10FA11DBDFED0C7AB4EEE78AAF
:1006A000F1EE10FA0DD59FED0E0AF0EE480A9FED1F
:1006B000091ADFED0C1AFFF7E9FE04E09FED070AC7
:1006C00001E09FED060ABDEC028B08BD0000E3438C
:1006D000D6AB80BA00002042D6AB003A0000000042
:1006E000CA83543A76C6BB432DE9F0432DED028B05
:1006F00093B0DFF8D890314E314F35E09DED080AC8
:10070000DDED090AFFF798FFB0EE408A30469DED17
:10071000090AF0EE480A03F04FFD0FFA80F8304660
:10072000414603F093FD02AC0DAD0FCD0FC42B6815
:1007300023600BAB93E803008DE8030008AB0ECBFE
:10074000484603F011F907F59F6383ED008A336C87
:10075000A7F8FC34736CA7F8FE34384603F012FB9C
:100760003046414603F072FD05F0BAFE28B948460E
:1007700008A903F0E1F90028C0D1124C23685B6896
:10078000204611492C229847204605F0C1FF0B4D09
:1007900000240F2602E0304605F0AAF8284621463C
:1007A00003F054FD0028F6D004480121002203F094
:1007B00033FD13B0BDEC028BBDE8F0836C1AFF1F54
:1007C0006C15FF1FD01BFF1F542001001414FF1FC6
:1007D00038B50546424C23685B68204641491B22D8
:1007E0009847204605F094FF3F4804F0CDF83F4875
:1007F00003F036FA3E48294602F060FD23685B6844
:1008000020463C49122298473B4B196C204605F084
:10081000E1FF204605F07CFF204605F079FF2368C4
:100820005B68204635491E229847204605F070FF38
:1008300023685B68204632491222984720464FF4CD
:10084000E37105F0C7FF204605F062FF23685B688F
:1008500020462C490B22984720469FED1B0B022176
:1008600005F0C2FF204605F053FF23685B68204671
:1008700025491222984720469FED150B022105F0CD
:10088000B3FF204605F044FF23685B6820461F49FC
:100890000E2298472046282105F09CFF204605F0AF
:1008A00037FF23685B68204619490E229847204687
:1008B0009FED090B022105F097FF204605F028FF68
:1008C000204605F025FF38BD0000004080B70A40F3
:1008D0000000006091EDCC3F0B4B54B0CE787740D8
:1008E000D01BFF1F84200100B81AFF1F6C15FF1FCB
:1008F0001414FF1FA02001006C1AFF1FB420010078
:10090000D4200100E8200100F420010008210100AA
:1009100018210100AFF3008038B50D20012104F04B
:100920005DFD0D20012104F027FD40F6B83004F0F4
:10093000DFFF4FF47A7004F0DBFF184C23685B682C
:100940002046174911229847204605F0E1FE23680A
:10095000144D5B682046294603229847204605F03F
:10096000D7FE23685B682046294603229847204625
:1009700005F0CEFE0C4C204603F0D2FE0120FFF71E
:1009800027FF0A4803F0FAFB06200949032204F076
:1009900065FD204603F06EFF38BD00BFD01BFF1F72
:1009A000282101003C210100B81AFF1F6C1AFF1F0B
:1009B0006504000010B505F093FD002840F3B480F5
:1009C00005F042FD4138122800F29880DFE800F07F
:1009D0001F520E96306396969696969641969696E8
:1009E00096960A000120FFF7F3FE9AE04F4C236829
:1009F0005B6820464E491F229847204605F088FE36
:100A00004C4803F0C1FF4C4802F030FF89E0474CEE
:100A100023685B682046494924229847204605F010
:100A200077FE444803F0B0FF434802F071FE78E0DF
:100A3000404803F0A9FF3D4C23685B6820464049CD
:100A400022229847204605F063FE3E4803F042FD0F
:100A500067E0384803F098FF344C23685B68204611
:100A600039491E229847204605F052FE354803F0CA
:100A70005BFC56E02D4C23685B68204633493122ED
:100A80009847204605F044FE2A4803F07DFF2A4897
:100A900002F00EFE45E0254C23685B6820462C4999
:100AA00023229847204605F033FE224803F06CFFCE
:100AB0000020FFF78DFE274C204603F0B1FA94F892
:100AC0003C3053B9194C23685B68204622494122C7
:100AD0009847204605F01CFE23E0144C23685B6811
:100AE00020461E4915229847204605F011FE4FF476
:100AF000FA6004F0FDFEFFF7F7FD12E00B4C2368EF
:100B00005B682046164915229847204605F000FEEE
:100B100023681B682046134A11789847204605F041
:100B2000F7FD044803F0A6FE10BD00BFD01BFF1F59
:100B300040210100B81AFF1F1414FF1F602101009B
:100B4000882101006C1AFF1FAC210100CC2101009B
:100B5000002201006C15FF1F242201006822010001
:100B6000802201005013FF1F08B5837863F07F03D4
:100B700083700246806852F8101F01F0F5F808BD36
:100B80002DE9F8430446037813F0200F32D143696E
:100B90001D4A934230D8FFF7E7FF0646002830D0C1
:100BA000A068216901F078F88046A06824304146A9
:100BB000052201F04BF8814600B300214FF400728A
:100BC0000DF0C4FCA3681F79012F0ED90125186808
:100BD0000268976805EB08014A46B84780B10135BD
:100BE000EDB2A3681F79BD42F1D3636903EB4723DC
:100BF000636106E0002604E0002602E0002600E033
:100C000006463046BDE8F883FFFD1F0010B50446D8
:100C10000A4680682430A16901F018F8034628B11B
:100C2000A08800F00F0003EB401010BD002010BDA5
:100C300038B504460D46037893B9002124220DF0FF
:100C400085FCA560EB79102B02D0202B03D009E0A6
:100C50002023237001E0402323700120A07038BDC1
:100C6000002038BD002038BD2DE9F04F83B0044688
:100C7000884600920378002B00F0AA80827812F058
:100C8000010F00F0A58013F0080F08D0C269436976
:100C9000D31A009A9A4228BF1A4600920DE013F028
:100CA000200F0AD083681A894369C3EB42139BB2B1
:100CB000009A9A4228BF1A460092009B002B00F02F
:100CC00083801E464FF0000A04F110020192D346C1
:100CD0006369C3F30807227812F0200F04D0A268DA
:100CE000126A02EB532922E0A06890F805A00AEAF4
:100CF000532AB7B9BAF1000F13D133B912F0400F2C
:100D000014BF036A236A23610BE02169019A00F092
:100D1000C9FF00285CDB20B9237813F0700F54D191
:100D200056E0A068216900F0B7FF00EB0A0937B967
:100D3000B6F5007F03D3A068C36A994513D1C7F500
:100D40000075AE4238BF3546A068243049465A4641
:100D500000F07CFF014600283AD0404639442A463C
:100D600004F07CF929E0B6F5806F1DD3C6F3472760
:100D7000227812F0200F06D10279CAEB0202D2B219
:100D8000BA4238BF17467D02994502D83B4499457F
:100D900025D3A36818680368D3F80CC049464246B7
:100DA0003B46E04748B913E0006803681B684946C2
:100DB0004246984760B14FF40075A84463692B44DC
:100DC0006361761B84D100E0009E009B981B0CE0C1
:100DD000637843F0020363704FF0FF3005E0243086
:100DE00000F00AFF0028D4D1F2E703B0BDE8F08F8D
:100DF00070B582B00446466905690DF1070101220C
:100E0000FFF732FF012803BF9DF8070066612561E7
:100E10004FF0FF3002B070BD30B583B00446436977
:100E2000C3F3431505B171B920460DF10701012245
:100E3000FFF71AFF40B2012801D0002009E06369E2
:100E40001F33636101E020334361A068303000EB61
:100E5000451003B030BD00BF2DE9F04104460E46F9
:100E600007690378002B3CD042698A423DD011B912
:100E70000023036131E013F0080F03D0C1698E42F3
:100E80002FD808E013F0200F05D083681B89B1EB41
:100E9000431F26D821E0A1688D790935501EE8400E
:100EA00006F1FF3C2CFA05F5A84200D832B913F040
:100EB000400F14BF0B6A236A23610AE02D1A08E071
:100EC000A0682169424600F0EDFE013D002802DCE9
:100ED00007E004F11008002DF2D166610120BDE8A1
:100EE000F08127610020BDE8F0810120BDE8F0819C
:100EF000F8B504460E4615461F46002124220DF083
:100F000025FBB068A060A580336AE36000F1300380
:100F100005F00F0203EB4212D37A13F0080F34D11D
:100F200003F017032370D17A11F0180F04BF43F0B8
:100F3000080323709DF81830E37017F0320F03D0C8
:100F4000237813F0110F20D107F00F03A370C36AA9
:100F5000A361918A538B43EA014117F0100F08D027
:100F600011B100F037FF80B1A37863F07F03A37065
:100F700002E02162D369E36117F0200F09D0204617
:100F8000E169FFF769FF034620B90020207003469E
:100F900000E001231846F8BD38B504460378002B5D
:100FA00039D090F90230002B1EDA0121FFF72EFE16
:100FB000054650B30378E52B27D0237813F0080FAC
:100FC0001CBFE369C361238C4383638C8382134B0F
:100FD0001B682BB1183005F1160198472B8B6B82DB
:100FE000A37803F07F03A370A56805F1240000F047
:100FF00003FE50B105F50C7000F0FEFD28B1286825
:1010000003685B689847034630B9637843F001038F
:101010006370002300E00123184638BD5813FF1FFA
:1010200010B50446FFF7B8FF0023237010BD00BFC2
:101030002DE9F04192B006460C46019298460023F5
:101040008DF824308DF825300378002B44D10B78AF
:1010500013F0700F42D0134612782F2A14D10133A7
:10106000019313F8012B2F2AFAD02AB93046A16830
:10107000FFF7DEFD024632E009A8A168FFF7D8FDC0
:10108000024600282BD009AC0127019803A901AA28
:1010900000F06EF9024610B3019A1378A3B13046FE
:1010A000214603AA3B4600F0ADFB0246B8B109ACAD
:1010B00035460FCD0FC40FCD0FC42B6823603046CB
:1010C000FFF7AEFF09ACE0E73046214603AA4346EE
:1010D00000F098FB024602E0002200E000221046E9
:1010E00012B0BDE8F08100BF10B58AB004460A46D0
:1010F00000238DF804308DF8053001A82146022325
:10110000FFF796FF034618B101A800F069FA0346FD
:1011100018460AB010BD00BF2DE9F84F04468846B6
:101120009246037813F0080F00F0BB80837813F029
:10113000020F00F0B68013F0040F05D0E169FFF74D
:101140008BFE002800F0AD806369DB439A4500F216
:10115000A880BAF1000F00F0888056464FF00109D0
:101160004FF0050BA06863694579C3F3080715EADA
:10117000532521D1002F40F09C80216981B104F1D9
:10118000100200F08FFD0028C0F28B80002840F094
:1011900095802046FFF7E8FC002840F08F8080E033
:1011A000236A3BB92046FFF7DFFC002879D023698A
:1011B000236283E0236181E0216900F06DFD411924
:1011C000002F40F08C80B6F5007F7DD318E04A46B2
:1011D00000E05A46A068243000F038FD002860D0B6
:1011E000384441462A4603F039FF2F44B7F5007FC3
:1011F00034D1A068243000F0FFFC00282ED150E04C
:10120000B6F5806F17D3A26813795D1BEDB2C6F3F4
:101210004723AB4228BF2B465D02D06A884202D3E7
:101220001844884261D8A26810680268176942466B
:10123000B84798B935E0A368DA6A914205D100222F
:1012400083F824204FF0FF32DA62A368186803683D
:101250009B684246984720B34FF4007563692B445E
:101260006361A844761B7FF47DAF6369E2699342B2
:1012700005D9E361A37863F07F03A37006E01E4BFA
:101280001B681BB1A37863F07F03A370A37813F0EE
:10129000080F03D02046FFF77FFE10B15046BDE88F
:1012A000F88F637843F0010363704FF0FF30BDE8BF
:1012B000F88F216900F0F0FC014610E0A068216978
:1012C00000F0EAFC01467EE7C7F50075AE4238BF84
:1012D00035466269E3699A42BFF47BAF77E7C7F5A9
:1012E0000075AE4238BF354671E7002082F8240011
:1012F0004FF0FF30D06296E75813FF1F042904D83F
:1013000000EB4101B1F8010070470A2904D8013906
:1013100000EB4100C088704710299DBF013100EBF0
:10132000410080880020704700231A46510841EA96
:10133000C212C15C51FA82F2D2B201330B2BF5D149
:101340001046704738B504460D46CB681BB989680E
:10135000FFF76EFC38BD002124220DF0F7F81023B2
:1013600023700120A070AB68A360EB68236238BDD6
:101370002DE9F00F82B00378202B05D1431C1846CD
:1013800001330478202CFAD08860037823B12F2B06
:1013900004D00546002407E0002400E000240719DB
:1013A0003B4622E02F2BFAD05C2B00F0FA8003F0B2
:1013B000F706222E00F0F7803A2B00F0F68003F0BB
:1013C000BF063C2E00F0F380A3F13E06F6B2012EDC
:1013D00040F2EF80203BDBB25E2B00F2EC80013468
:1013E00015F8013F002BDDD1D9E71E4613F8015B4C
:1013F000202DFAD02F2DF8D0166074B13A4612F88D
:10140000013D2E2B01D0202B02D1013CF7D104E06D
:10141000FF2CC8BF002000F3DF804C600023202594
:10142000CA18557301330B2BFAD1002300E00133A6
:10143000C25C2E2AFBD0202AF9D01E46D3F1010728
:1014400038BF0027651E06D4425D2E2A03D0013D19
:10145000B5F1FF3F05D1A64207DB002001900090C7
:1014600087E0425D2E2AF2D1F5E74FF0070900260A
:10147000019600964FF0080AB446AB46C25C202A9B
:1014800066D02E2A02D19D4264D122E0222A20D0A9
:101490007C2A1ED0A2F12A085FFA88F8B8F1050F5D
:1014A00002D82D2A15D10DE0A2F13A085FFA88F88A
:1014B000B8F1050F0DD9A2F15B085FFA88F8B8F111
:1014C000020F06D9A2F121085FFA88F8B8F15D0F82
:1014D00002D9AB4203D178E0AB4202D175E0674656
:1014E0005F224E456DD809E0AB4241DC5B464FF0D0
:1014F0000A0908264FF0100A674635E0A2F1610894
:101500005FFA88F8B8F1190F08D8203AD2B2DDF89E
:10151000008048EA0A08CDF800800CE0A2F14108FA
:101520005FFA88F8B8F1190F05D8DDF8048048EAA9
:101530000A08CDF8048006F101085FFA88F80E4425
:101540007273B8F1060F07D881F80C8046460BE09D
:10155000674609E0674607E0464605E05B464FF010
:101560000A0908264FF0100A0133A34286DB00E087
:1015700000274B7B202B20D057B10198009A00EA1E
:101580000203002B134618BF02230B70012023E037
:10159000012008700B7B19447E234B7331238B731E
:1015A0001AE0002018E0002016E0002014E00020DF
:1015B00012E0002010E000200EE000200CE00020EF
:1015C0000AE0B9F10A0F8FD102E0B9F10A0FC5D1D3
:1015D0004B7B202BDCD1F2E702B0BDE8F00F704767
:1015E0002DE9F0438BB0044600238DF804308DF8CC
:1015F0000530037813F0080F00F08280837813F031
:10160000020F7FD0016A31B1806800F0E3FB03462E
:10161000002800F0888020460121FFF7F7FA0546F0
:10162000002871D0FFF780FE0746E5232B700023CA
:101630002370A56805F1240000F0DEFA002871D0BF
:1016400005F50C7000F0D8FA00286BD02868036804
:101650005B6898470346002865D0E278002A62D08C
:1016600001A82146FFF76EFE034600285BD0E37811
:10167000002B4BD001254FF000084FF0E509A18861
:10168000491B01A84901FFF7E7FB034600284AD0A0
:1016900001A84146FFF7C0FB002839D0C27A0F2AC3
:1016A00038D1027802F01F018D4235D1417BB94219
:1016B00034D180F80090A36893F8241041F0010120
:1016C00083F8241012F0400F14D0A46804F1240011
:1016D00000F092FA48B104F50C7000F08DFA30B1C8
:1016E000206803685B68984702E0002000E0002063
:1016F000034618E00135EDB2E378AB42BFD20FE00C
:10170000002310E000230EE000230CE000230AE099
:10171000002308E0002306E0002304E0002302E0A9
:10172000002300E0002318460BB0BDE8F08300BFA3
:101730002DE9F84F04460F460E7B4FF002094FF09B
:101740007E0A01F10D085FFA89F3012B03D8BA195B
:101750003033937324E0796809EB01039BB2B868D6
:1017600049B10246084412F8011B03EB43134B40F6
:101770009BB28242F7D1032E28BF0326321DD2B27C
:10178000B2420DD903F00F011046092994BF303140
:101790003731384441731B09013AD2B2B242F1D811
:1017A000BB1983F80DA020460021FFF755FB01254A
:1017B0004FF00B0B20462946FFF72EFB014630B9B0
:1017C0006078D0F1010038BF0020BDE8F88F0378C1
:1017D00053B1C37A13F0080FECD140465A460CF0CF
:1017E00021FE0028E6D105E00120BDE8F88F0020A9
:1017F000BDE8F88F09F101091FFA89F9B9F1640F01
:10180000A1D1F4E72DE9F04F8FB009900E46059273
:101810000A9351680491337813F0700F00F0D5816A
:101820000378002B40F0D381137813F0030F09D015
:1018300001F10C027F4BA3FB02139B0801335FFAFB
:1018400083FA01E04FF0010A30460021FFF704FB64
:1018500000270B9706973C46B84608974FF0010BB8
:10186000059A0D32079220E04FF000081DE04FF07E
:1018700000081AE04FF0000817E006934FF0000848
:1018800013E04FF0000810E0039C4FF000080CE05C
:10189000039C4FF0000808E04FF0000805E0CDF889
:1018A00020B002E0DDF83480039C7369C3F34F1964
:1018B00030465946FFF7B0FA054620B97378002B39
:1018C00000F09B8085E10378E52B00D043B9002C24
:1018D00008BF4F4654453CBF0134E4B223B98CE005
:1018E000544538BF002401E0E52BBDD02E2BBED0DF
:1018F000EA7A0F2A5AD1B8F1000F09D113F0400F3C
:10190000D3D003F01F086B7B0B93CDF818800AE04F
:1019100006994A1ED2B206929342ABD16A7B0B99CA
:101920008A42AAD10693069A531E03EB430203EBA5
:10193000820203929146049B9342A2D902F10D01C7
:101940000C91CDF83480904603940C46C8EB090105
:101950002846C9B2FFF7D2FC049A914507D1DDF8B9
:101960003480039C002818BF4FF000089DE7FF2833
:101970008AD8C0B2A0F14103DBB2192B9CBF203042
:10198000C0B209F1010305998A6812F80920A2F191
:101990004101C9B219299CBF2032D2B290427FF4D2
:1019A00077AFA3423FF47EAF9946CFE712F0080F1E
:1019B0007FF472AFB8F1000F0BD0069A012A40F005
:1019C0000A812846FFF7B0FC0B9B98420FD00023FA
:1019D0000CE1284607990B220CF024FD00287FF427
:1019E00064AF05990B7813F0010F7FF458AF0A9A92
:1019F00012F0800F00F0DF80EFE00A9901F042035F
:101A0000422B40F0EC80002C18BFB946544522D23E
:101A1000002530462946FFF7FFF930B97378002BCF
:101A200040F0DF80544507D315E00134E4B2A2450D
:101A3000EFD810E04FECC44E3046FFF7A1F8034654
:101A4000002800F0D380B3681B79012B03D8103431
:101A5000E4B2A245F0D8089A3AB130460599FFF7AA
:101A600067FE0346002800F0C18030464FEA491166
:101A7000FFF7F2F90346002800F0B8800AF1FF38BA
:101A800018F0FF085DD04746002548F0400A049C46
:101A9000DDF814B0CDF810A030462946FFF7BCF9A8
:101AA0008146002800F09F80B36893F8242042F01C
:101AB000010283F824204745DDF810A018BFBA467C
:101AC00080F800A00F23C37205730BF10D00FFF720
:101AD0002BFC89F80D0089F81A5089F81B50DBF8A7
:101AE00008100AF01F0A0AF1FF3A0AEB4A0E0AEB45
:101AF0008E0E72462B468E44A24202D21EF803007E
:101B000004E0A01A18BF6FF0000080B2D9B2042917
:101B100004D809EB4301A1F801000AE00A2903D81F
:101B200009EB4301888004E010299CBF09EB4301C5
:101B3000C880013301320D2BDED1013F17F0FF07C2
:101B4000AAD17369C3F34F1930460021FFF764F936
:101B50000446002849D0002120220CF0F7FC059B08
:101B600053F80D1F5A68216062601A899B7A22819E
:101B7000A37205990B7803F0180323731D4B1B68A0
:101B80002BB104F1100004F10E01984707E0212366
:101B90002374282363740023A3730823E373238A25
:101BA00063822383E389E382B36893F8242042F0BD
:101BB000010283F82420CDF80080099831464A4676
:101BC0000A9BFFF795F9034610E000230EE000237F
:101BD0000CE000230AE0002308E0002306E00023D5
:101BE00004E0002302E0002300E0002318460FB0C9
:101BF000BDE8F08F5813FF1FF8B50446037813F0C3
:101C0000010F1DD000F10C064368186803689B683B
:101C1000A168324698470546A8B1237813F0020F11
:101C200009D06368186802681969A368976819443D
:101C30003246B84730B1237823F00103237002E025
:101C4000012500E005462846F8BD00BF70B50446F2
:101C50000D46164683688B4211D0FFF7CDFFB0B119
:101C600016F0040F08D16368186803681B682946DA
:101C700004F10C02984760B100232370A56006F0C0
:101C8000030623781E43204600F80C6B70BD00202D
:101C900070BD002070BD00BF023983799940406952
:101CA0000844704770B504460D461646C379202B8C
:101CB0000FD1816900F50C7001EBD5110222FFF7FD
:101CC000C5FFD8B105F07F0550F8253023F07043EB
:101CD0000EE0102B14D1C1F30721836900F50C70BD
:101CE00019440222FFF7B2FF60B1EDB230F81530AF
:101CF000E1698B4208D83360012006E0FF2004E050
:101D0000FF2002E0FF2000E0002040B270BD00BFD5
:101D100038B50C461546C379202B0ED1816900F5E4
:101D20000C7001EBD4110322FFF790FFB0B104F067
:101D30007F0440F82450012038BD102B10D1C1F38E
:101D40000721836900F50C7019440322FFF77EFF19
:101D500040B1E4B220F81450012038BD002038BD55
:101D6000002038BD002038BD2DE9F04182B0054685
:101D700090460F4609B9C66800E00E463446013465
:101D8000EB699C4288BF02242846214601AAFFF73E
:101D900089FF002804DB08B1019B1BB1B442EED1DE
:101DA000002613E0284621466FF07042FFF7B0FF8F
:101DB000064658B13FB1284639462246FFF7A8FFEC
:101DC00010B9064602E0EC60C8F80040304602B0A8
:101DD000BDE8F081F0B583B005460C4600272846E3
:101DE000214601AAFFF75EFF061E0EDB28462146AC
:101DF0003A46FFF78DFF014640B1EB689C4238BF81
:101E0000EC60019C002EEAD100E00021084603B0FE
:101E1000F0BD00BF38B504460023C3710122C26083
:101E2000A06280F824304FF0FF32C262C4F834025E
:101E300080F83032C0F838220D46A9B1042971D893
:101E4000243019461A46FFF701FF00286CD000EB3A
:101E5000051595F8AE3105F5D47513F07F0F65D1F2
:101E6000D5F80E500DB963E0002504F12400294691
:101E70000022FFF7EBFE034600285BD0B0F80B20F2
:101E8000B2F5007F58D1027C022A57D1C289002ABC
:101E900056D0407B2071421E62710022A27101283F
:101EA0000DD01146012203E012B9A171002038BD06
:101EB0005200D2B20131C9B29042F5D1A171D98A92
:101EC00001B9596A2161DA892A44A261B3F8110083
:101ED000208102EB41022262B3F81110490101F2A4
:101EE000FF1102EB61226261B3F8131001B9196AA4
:101EF000AA1A1144A27921FA02F2511CE16140F6BA
:101F0000F4718A4203D80C23E371002038BD4FF6E8
:101F1000F4718A4291BF1023DB6A23622023E371AC
:101F2000012038BD002038BD002038BD002038BD5C
:101F3000002038BD002038BD002038BD002038BD4D
:101F4000002038BD044B1B6804481840D0F1010044
:101F500038BF0020704700BF30100B4001000F0059
:101F6000024B186800F00100704700BF24100B40BE
:101F7000014B1878704700BF9813FF1F30B44FF41F
:101F80007A7303FB00F0274B98423FD80123264980
:101F90005B001A01B1FBF2F2904238D2FF2BF7D965
:101FA00035E021460132B5FBF1F4A04205D2CC1850
:101FB000102AF6D101E0194601224FF47A7000FB95
:101FC00001F11948B0FBF1F118480160184908689F
:101FD00020F008000860086820F47F2020F47F606B
:101FE00040F46020DB0103F47F431843013A1201FF
:101FF000D2B2104308600F4A136813F0080FFBD0E9
:102000000B4B1A6842F008021A6009E00123064AE5
:10201000B2FBF3F29042CED259000122024DC1E749
:1020200030BC70474FA9AB000095BA0AA013FF1F40
:102030002C100B4024100B400120704770B5044653
:1020400003F032FC0646064D04E003F02DFC801B35
:10205000A84203D8A0470028F7D170BD012070BD69
:1020600020A1070038B504460D461248FFF7E6FFE9
:10207000C8B9114B1D6004331C601048FFF7DEFF28
:1020800098B90F4A11680F4B1960196811601B68E5
:1020900013F0010F0BD00B4B1B6813F4702F14BF00
:1020A0000020012038BD002038BD002038BD0020B0
:1020B00038BD00BF611F000008100B40451F000025
:1020C00030100B408013FF1FF0B585B00E461A4B41
:1020D0001968FFF7C7FF074650B3184B1B680093FA
:1020E000174B1B680193174B1B680293164B1B6819
:1020F000039306F10F040023144D013C1A46002BF4
:10210000B8BFDA1C22F0030204A9114413EA050245
:1021100003D5013A62F003020132D20051F8101CDB
:1021200021FA02F2227001330F2BE6D10023F37360
:10213000384605B0F0BD00BF7013FF1F10100B40F4
:1021400014100B4018100B401C100B4003000080B3
:1021500008B50748074B1968FFF784FF30B1064BF5
:10216000186880F48070C0F3002008BD012008BD0D
:1021700000001A0D7013FF1F10100B4070B50446BD
:102180000C4B186003F090FB06460B4D0BE003F080
:102190008BFB801BA84204D90022064B1A60012049
:1021A00070BD04F0E3FCA0470028F0D1014B18609B
:1021B00070BD00BF9C13FF1F20A1070008B50A488F
:1021C000FFF7DCFF60B9094B1B6813F0020F09D061
:1021D000064B1A68064B1A4214BF0020012008BDA6
:1021E000002008BD002008BD711F00008013FF1FE4
:1021F00000007F1138B504460D461548FFF71EFF55
:1022000038B12922134B1A70E722134B1A600023AE
:102210001CE00122114B1A700022114B1A60114B65
:102220001D6008331C60104A043B1A600F4A3433A7
:102230001A600F4A2C3B1A60FFF7C0FF034628B90B
:102240002321044A1170F121034A1160184638BD58
:10225000512100004008FF1F7C13FF1F9813FF1F30
:102260008013FF1F00100B404000010002007F118F
:1022700011003A06F8B506460F4614461D4612F000
:10228000030F00D143B96022174B1A704FF4A572A7
:10229000164B1A600020F8BD1548FFF76FFF40B1DC
:1022A0002922114B1A7040F24D12104B1A60002077
:1022B000F8BD01220F4B1A7000220F4B1A600F4B12
:1022C0001C600F4B1B7803B97F020E4B1F602D045F
:1022D00045F40075043B1D600B4A34331A602C3BF7
:1022E0001E60FFF76BFFF8BD4008FF1F7C13FF1F48
:1022F000512100009813FF1F8013FF1F00100B4097
:102300007413FF1F08100B4002007F1130B5ADF5AC
:10231000017D144612F0030F10D118E03122114B49
:102320001A7040F25122104B1A60002516E0204628
:1023300069464FF4007202F091FE0FE00B486A46C6
:102340000123FFF797FF05460028F0D1E6E707488D
:102350000123FFF78FFF05460028DFD028460DF543
:10236000017D30BD4008FF1F7C13FF1F11003A1193
:102370002DE9F04106460C46154612F0030F10D029
:10238000E3B101EB030832681768304621462A465C
:10239000B847024698B1013405F500754445F2D1BD
:1023A0000DE00848FFF766FF024640B93121064BB1
:1023B000197040F26321054B196000E001221046BC
:1023C000BDE8F08137003A124008FF1F7C13FF1F61
:1023D00010B5ADF5007D0C4612F0030F06D068462F
:1023E00011464FF4007202F039FE6A460848214651
:1023F0000123FFF73FFF034630B93221054A117030
:1024000040F2C921044A116018460DF5007D10BD47
:1024100001003A184008FF1F7C13FF1F2DE9F0410F
:1024200006460C46154612F0030F10D0E3B101EB3F
:10243000030832689768304621462A46B847024664
:1024400098B1013405F500754445F2D10DE0084816
:10245000FFF710FF024640B93321064B197040F2D6
:10246000D921054B196000E001221046BDE8F0813A
:1024700027003A194008FF1F7C13FF1F0023054A5D
:102480001360083A10680449086009681160034A3B
:102490001370704738100B408013FF1F9813FF1FF5
:1024A0002DE9F04790B000239E4A13709E4A1370A6
:1024B0009E4A13709E4A13709E4A116841F0406113
:1024C000116002F56A323032116841F40031116056
:1024D000994A1360043213600432136004321360AB
:1024E00004321360043213604FF08072934B1A6011
:1024F0001A46136813F0807FFBD14FF4C870FFF7C2
:102500003DFD40F243438C4A1360043213604FF4A4
:1025100088610432116004321360043213600432A3
:102520001360874A874B1A606022874B1A704FF4FA
:102530000032A3F249331A60804B1A6842F00062FD
:102540001A601A46136813F0006FFBD10020014691
:10255000FFF788FD044638B92022734B1A7040F209
:10256000CD127A4B1A603CE10A24794E4FF4D575AE
:1025700030462946FFF776FD90B1764B1B68B3F5E0
:10258000D57F08D02522684B1A7040F2D3126F4BCA
:102590001A60002425E10122654B1A706E4F08E095
:1025A000013CE5D1624B1B78002B6B4F08BF4FF409
:1025B000401703F079F98046684C694E654D204616
:1025C0000021FFF74FFD58B130463946FFF74AFD6D
:1025D00030B103F069F9C8EB0000624B984208D9AA
:1025E0004322514B1A704FF4EF72584B1A6000247B
:1025F000F7E02B68002BE2DA564B19685A4A116053
:102600001B6813F0804F02D00122484B1A705748C4
:102610000021FFF727FD044638B92122424B1A70EA
:102620004FF4F472494B1A60DBE051480021FFF788
:1026300019FD044638B922223B4B1A7040F2EB12C6
:10264000424B1A60CDE0434B1B681B0C1B04494AEC
:10265000136049484949FFF737FD044638B9262237
:10266000314B1A704FF4F872384B1A60B9E0444895
:102670004449FFF729FD044638B927222A4B1A702E
:1026800040F2F312314B1A60ABE03F48394B196806
:10269000FFF7E8FC044638B92422234B1A704FF4A4
:1026A000FB722A4B1A609CE02C48324B1968FFF7EA
:1026B000D9FC28B135480221FFF7D4FC044640B9C3
:1026C0004022194B1A704FF4FD72204B1A600024FF
:1026D00087E02F4B1A6822F006021A601A6842F04F
:1026E00002021A604FF010121C331A606FF07F4024
:1026F0006946FFF77FFD90B19DF80D3013F0020F92
:102700000DD024486946FFF775FD40B19DF81030A3
:1027100003F00F03012B08BF4CF250303CD046F2BF
:10272000A81039E08413FF1F4008FF1F7413FF1F18
:102730005C13FF1F00D8004000D004402C100B4059
:102740000B007F1134100B4051E400E07C13FF1F9D
:1027500000001A0810100B400000304000001A372B
:102760000000022920A107007813FF1F00000902C2
:1027700000001A037013FF1F000009098813FF1FD0
:102780000000090A6013FF1F00001B0700001A0663
:1027900028100B40F1FFFF80DFF860A00023CAF88B
:1027A0000030DFF85C90C9F80030DFF85880C8F8D6
:1027B00000300E4F3B600E4E33600E4D2B60FFF726
:1027C000DDFB40F24343CAF80030C9F800304FF453
:1027D0008862C8F800203B6033602B600122064B02
:1027E0001A70204610B0BDE8F08700BF0CD004403E
:1027F00010D0044014D004408413FF1F00D00440C4
:1028000004D0044008D00440014B0360704700BF6F
:10281000C0220100704700BF014B0360704700BF3A
:10282000C022010010B50446024B036003F06CFFA8
:10283000204610BDC022010010B50446024B0360C3
:1028400003F062FF204610BDC022010038B50546E6
:102850000C460846002128220BF078FE2046094944
:102860000B220CF0E9F80023E3720122E260AA686F
:1028700022610322626163620023A361E361024B70
:10288000236238BDD82201000AD7233C10B4034C80
:102890000460816042715DF8044B7047E8220100DA
:1028A00070B50E461546094C4179204600F0CEFB26
:1028B0002046314600F0EAF92046294600F0E6F9C4
:1028C000204600F0E7FC012070BD00BFFC13FF1F95
:1028D00008B50A4601733D21FFF7E2FF1E2003F011
:1028E00007F808BD70B504460E46057B0021FFF7CA
:1028F000EFFF192002F0FCFF204607210022FFF71E
:10290000CFFF2EB120463F218022FFF7C9FF04E010
:1029100020463F210022FFF7C3FF0A2002F0E8FF14
:1029200020462946FFF7D4FF142002F0E1FF70BDD6
:1029300070B505460E460B4C2046697900F086FBC3
:102940002046314600F0A2F9204600F0A3FC2046C4
:102950006979012200F098FC204600F0C3F9C0B26A
:1029600070BD00BFFC13FF1FF8B504460F46254895
:1029700000F060FA20460021FFF7DAFFA02809D016
:102980004FF47A7002F0B4FF20460021FFF7D0FF29
:10299000A02835D120460021FFF79AFF20463F218D
:1029A0002022FFF77DFF00250A2602E0304602F0D4
:1029B0009FFF20462946FFF7BBFFA028F6D1322013
:1029C00002F096FF20463E210022FFF769FF0A2011
:1029D00002F08EFF204607210022FFF761FF20460C
:1029E0003F210022FFF75CFF0A2002F081FF204612
:1029F0003946FFF76DFF142002F07AFF0120F8BD81
:102A00000020F8BDFC13FF1FF8B50F4616461D4603
:102A1000069C3521FFF78CFF0FB183093B7016B17F
:102A2000C0F30113337015B1C0F381032B7014B1DF
:102A300000F003002070F8BD2DE9F04107460E4676
:102A400090461D46104C2046797900F0FFFA20464A
:102A5000314600F01BF9204600F01CFC2046797935
:102A60002A4600F011FC65B108F1FF346E1E58FAD9
:102A700086F6054D284600F035F904F8010FB442FA
:102A8000F8D10120BDE8F081FC13FF1FF0B583B041
:102A900004460E461546002118220BF057FD002370
:102AA0000093ADF80430304629466A460623FFF706
:102AB000C3FF9DF801009DF8003043EA00209DF817
:102AC00003209DF8023043EA02279DF805209DF877
:102AD000043043EA0226083D262D00F28580DFE817
:102AE00005F06883838383831483838383833083A4
:102AF000838383834C8383838383838383838383DD
:102B00008383688383838383680000B20AF0C0FDF7
:102B10000022374B0AF022FEC4E9000138B20AF065
:102B2000B7FD0022324B0AF019FEC4E9020130B2AF
:102B30000AF0AEFD00222E4B0AF010FEC4E904019B
:102B400052E000B20AF0A4FD00222A4B0AF030FF46
:102B5000C4E9000138B20AF09BFD0022254B0AF0BF
:102B600027FFC4E9020130B20AF092FD0022214B96
:102B70000AF01EFFC4E9040136E000B20AF088FD45
:102B800000221B4B0AF0EAFDC4E9000138B20AF04A
:102B90007FFD0022164B0AF0E1FDC4E9020130B2CC
:102BA0000AF076FD0022124B0AF0D8FDC4E90401B8
:102BB0001AE000B20AF06CFD00220F4B0AF0F8FE9A
:102BC000C4E9000138B20AF063FD00220A4B0AF0A2
:102BD000EFFEC4E9020130B20AF05AFD0022064BB2
:102BE0000AF0E6FEC4E90401204603B0F0BD00BFD0
:102BF0000000B03F00208C400000594070B588B004
:102C000005460C4624260846002132460BF09EFC61
:102C10002660AB6863600323A3600E4B1B680193BF
:102C2000019B236102A829461A22FFF72FFFDDE945
:102C300002010BF075F86061DDE904010BF070F83A
:102C4000A061DDE906010BF06BF8E061012008B03E
:102C500070BD00BFD81AFF1F044BD878C0B2044B18
:102C60001B6898421CBF024B18607047006006400A
:102C70004408FF1F08B5FFF7EFFF10F0020FFAD06E
:102C80000222014BDA7008BD006006400B4B1B7836
:102C900013B90B4B1B7873B10A4B1B78202B03D94C
:102CA0000123037100207047581C064A1070064A21
:102CB000D154012070470020704700BF0E14FF1F41
:102CC000D013FF1F0F14FF1FAC13FF1F704700BF6F
:102CD000024B1878024B1B78C01A70470D14FF1F67
:102CE0000C14FF1F074B1B78074A12789A4205D92C
:102CF000591C044A1170054AD05C70474FF0FF30F0
:102D0000704700BF0C14FF1F0D14FF1FD413FF1FCB
:102D1000054B1B78054A12789A4286BF044AD05C5C
:102D20004FF0FF30704700BF0C14FF1F0D14FF1F42
:102D3000D413FF1F08B5104BDB7813F0200F0CD114
:102D4000122002F0BFFA0D4B1B689BB100210C4A08
:102D500011700C4A1078984708BD0B4A137801335C
:102D6000DBB21370012B02D8084B1B7813B9122069
:102D700002F0A8FA08BD00BF00600640A813FF1FBC
:102D80000C14FF1F0D14FF1FF813FF1FD013FF1F9C
:102D900038B514460D4B1B7813B90D4B1B7893B106
:102DA0000C4B1D78C5F12103A34202D2012202710E
:102DB0001C4609482844224602F050F92544054B98
:102DC0001D70204638BD002038BD00BF0E14FF1F07
:102DD000D013FF1F0F14FF1FAC13FF1F002202713F
:102DE0004FF47A7181600273014A0260704700BF3C
:102DF000082301000B4B1B6813F0400F10D00A4B47
:102E0000994203D82C22094B5A7006E0084B99428C
:102E100094BF1C221222054B5A700422034B9A7154
:102E2000704700BF348004407F1A060000600640EF
:102E30003F420F0008B500232C4A13702C4A11683A
:102E400041F0400111602B4A93702B4B1B78122BE1
:102E500004D14FF41972294B1A601AE0112B04D1D6
:102E60004FF41972264B1A6013E0222B04D140F262
:102E70006452244B1A600CE0082B04D140F26472B7
:102E8000214B1A6005E0302B03D14FF419721F4B10
:102E90001A601F4B1B78132B04D14FF419721D4B72
:102EA0001A601AE0102B04D14FF419721A4B1A60F1
:102EB00013E0212B04D140F26452184B1A600CE04D
:102EC000072B04D140F26472154B1A6005E02F2BDA
:102ED00003D14FF41972134B1A601349FFF78AFF9D
:102EE000044B20225A7180229A7008BDD013FF1F14
:102EF00034800440006006404108FF1F0CA00440DD
:102F000004A0044064D004400CC0044024C0044029
:102F10004808FF1F08A0044000A0044060D00440FF
:102F200008C0044020C00440A086010008B53D4B05
:102F3000DB78DBB213F0100F06D01021394AD170C4
:102F400013F0400F03D108BD13F0400F2CD013F045
:102F5000040F1BD00023344A1370344A1370344BCF
:102F60001B681BB19847314B1B782BB901222F4BA3
:102F70001A7000222F4B1A702A4BD0229A702D4AB9
:102F800012781A7101222C4B1A7009E00122264B8B
:102F90001A700022294B1A70224BC0229A701B799A
:102FA0000222204BDA7008BD1E4A927812F0100FF0
:102FB0001CD013F0010F14D11F4B1B781B4A127841
:102FC0009A4207D9591C1C4A11701A4AD25C154BF7
:102FD0001A7102E00022134B1A71D022114B9A7021
:102FE0001BE0104BC0229A701B7916E00022144B94
:102FF0001A7012201349032202F030FA094B1B7990
:10300000DAB20E4B1B781F2B07D80749097821B17C
:10301000581C0A4908700C49CA540222014BDA7044
:1030200008BD00BF00600640A413FF1F0F14FF1F60
:10303000F413FF1FAC13FF1F1014FF1F0D14FF1F0D
:10304000F813FF1F352D0000D413FF1F4900044B58
:1030500019700123034A1370034A1370704700BFAD
:10306000AC13FF1F0E14FF1F0F14FF1F2DE9F041BB
:1030700082B08846374B1222DA709B7813F0200F0B
:1030800003D0B422334B9A701DE0334B1B6800937E
:10309000009D314C0CE023680193019B5B1B0F2BBF
:1030A00006D92C4B00229A7080229A7004204EE0A0
:1030B000FFF7D2FD10F0200FEDD10022274B1A7040
:1030C000B022244B9A70FFF7C7FD10F0200FFAD002
:1030D000234B1B787BB30024224E1E4D204F335DC3
:1030E0002B71FFF7B9FD10F0020F02D110F0200F85
:1030F000F7D10223EB70FFF7AFFD10F0100F04D0F3
:103100008022144B9A70042018E010F0200F04D194
:103110008022104B9A70042010E010F0010F04D0B0
:10312000002C0CBF022003200BE00134E4B23B78FA
:10313000A342D4D801E0002000E00020B8F1000F45
:1031400002D08022034B9A700022074B1A7002B003
:10315000BDE8F08100600640D81AFF1FD013FF1FA2
:103160000F14FF1FAC13FF1F0E14FF1F2DE9F843B0
:103170000D461446984600233E4A13703E4A13708B
:103180003E4B1222DA709B7813F0200F03D0B4224A
:103190003A4B9A700AE0FFF75FFD10F0200FFAD16A
:1031A0000022374B1A70B022344B9A706D0045F0F4
:1031B0000105EDB2314B1D71FFF75CFDFFF74CFDD2
:1031C00010F0110005D080222C4B9A700020BDE831
:1031D000F88344B9B8F1000F0CBFA0228022274B1E
:1031E0009A70BDE8F883012C04D1244BA8229A7070
:1031F0001B7938E0214BA0229A701B79012C32D91F
:1032000000251E4E4FF0A8091E4FFFF733FD013C6D
:10321000E4B2012C08BF86F802901F2D04D86A1C66
:1032200033797B55D5B200E03379012CEDD1FFF72E
:1032300021FDB022114B9A701F2D07D82B465D1C23
:10324000EDB20E4A11790F4AD15401E00B4B1B79B4
:10325000B8F1000F02D08022084B9A70064B1D7007
:103260002846BDE8F883FFF705FDB022034B9A70AE
:103270000023E4E70C14FF1F0D14FF1F006006403D
:10328000D013FF1FD413FF1F08B50123FFF76EFFF4
:1032900008BD00BF08B50121FFF7E8FE08BD00BF6B
:1032A00008B50248FFF79AFD08BD00BFFC13FF1FD9
:1032B000014A026102607047C022010070B584B00B
:1032C000044600238DF80F3000296AD00C21FFF747
:1032D0004BFB68B9002384F855314C4D2B685B6873
:1032E00028464B4913229847284603F011FA58E024
:1032F000012684F8556120463146FFF7F3FA434D25
:103300002B685B682846434912229847284603F0F9
:10331000FFF90DF10F030093204603A90DF10D02F3
:103320000DF10E03FFF770FB2B685B6828463A49E6
:103330001122984728469DF80C100A22002303F01A
:103340000DFA2B685B6828463449062298472846C0
:103350009DF80D100A22002303F000FA2B685B6829
:1033600028462F490722984728469DF80E100A2222
:10337000002303F0F3F92B685B68284629490522EE
:10338000984728469DF80F100A22002303F0E6F91B
:103390002B685B682846244932469847284603F044
:1033A000B7F904F11000032101F0FCFB68B9002318
:1033B00084F85431154D2B685B6828461B4913224D
:1033C0009847284603F0A4F918E0012384F8543103
:1033D0000E4D2B685B6828461549122298472846EF
:1033E00003F096F90AE040F8082C40F8042C02603B
:1033F0004160013314300F2BF5D105E004F13000AA
:10340000002300221946EEE704B070BDD01BFF1F59
:103410002023010034230100482301005C23010024
:10342000642301006C230100FC21010074230100CE
:103430008823010030B583B0044600F1100528460A
:1034400001F070FB88B1284601A901F0D3FC2846A1
:103450009FED080ADFED087ADDED010AC0EEA70A4C
:1034600001F0F2FA84ED090A01E094ED090A03B0D3
:1034700030BD00BF00507D440000C842FFFFFFFF89
:1034800038B52DED088B0D461446D1E900010AF040
:1034900047FC0AEE100AD5E902010AF041FC09EEE8
:1034A000900AD5E904010AF03BFC09EE100AD4E9C0
:1034B00000010AF035FC08EE900AD4E902010AF096
:1034C0002FFC08EE100AD4E904010AF029FC07EEEB
:1034D000900A6AEE28AA29EE887A7AEE87AA29EE5F
:1034E000277A7AEE87AA68EEA88A28EE088A38EE4C
:1034F000888A67EEA77A78EE277A17EE900A0AF0A4
:10350000D9F89FED5F8B41EC100BB0EE481AF0EE4E
:10351000681A06F02FFF55EC104B2AEE0A7A69EE76
:10352000A97A37EE277A69EE097A77EE277A17EECD
:10353000900A0AF0BFF841EC100BB0EE481AF0EE1A
:10354000681A06F017FF51EC100B0AF0E9FB08EEC1
:10355000900A204629460AF0E3FB07EE100A67EEC0
:10356000287ACAEEA77A17EE900A0AF0A3F841EC7F
:10357000100B06F09DFD51EC100B0AF0D1FB9FEDF6
:1035800042BA07EE900A27EE8BBA8AEEA88A3F4C21
:1035900023685B6820463E491622984723685B688B
:1035A00020463C49012298471AEE100A0AF082F898
:1035B00041EC100B2046022103F016F92368364D2A
:1035C0005B68204629460122984719EE900A0AF0C6
:1035D00071F841EC100B2046022103F005F9236835
:1035E0005B68204629460122984719EE100A0AF026
:1035F00061F841EC100B2046022103F0F5F8236836
:103600005B682046254902229847204603F080F84F
:1036100023685B682046224907229847DFED217A1C
:10362000CBEE277A17EE900A0AF044F841EC100B23
:103630002046022103F0D8F8204603F069F82368F9
:103640005B68204618491622984718EE100A0AF0BF
:1036500031F841EC100B2046022103F0C5F8236835
:103660005B682046114900229847204603F050F835
:10367000B0EE480ABDEC088B38BD00BFAFF3008048
:10368000000000000000E03F00003443D01BFF1F9B
:103690009C230100B423010030250100B823010060
:1036A000BC230100DB0F4940C4230100482701006F
:1036B000F8B50746124C134E134D1BE023685B68A8
:1036C00020463146122298473846FFF7B3FE10EEE7
:1036D000100A09F0EFFF02460B462046294603F088
:1036E0002FF823685B682046084901229847204646
:1036F00003F00EF802F0F4FE0028DFDDF8BD00BF95
:10370000D01BFF1FDC230100F0230100FC2101007E
:103710002DE9F04399B005464E4C4F4F4F4E90E087
:10372000684629462822FFF7B1F906A829462E2225
:10373000FFF7ACF923685B682046394619229847A1
:1037400023685B68204631460122984720469DED5C
:10375000060B022103F048F82368DFF808815B6854
:10376000204641460122984720469DED080B022144
:1037700003F03AF823685B682046414601229847E7
:1037800020469DED0A0B022103F02EF82368DFF896
:10379000D8905B682046494602229847204602F0AE
:1037A000B7FF23685B6820462D4915229847236898
:1037B0005B68204631460122984720469DED000B6C
:1037C000022103F011F823685B682046414601227C
:1037D000984720469DED020B022103F005F823686F
:1037E0005B68204641460122984720469DED040B28
:1037F000022102F0F9FF23685B6820464946022255
:103800009847204602F084FF00210CA8084406AB2C
:103810000B44D3E90023C0E9002308311829F4D16F
:10382000002112A8084400AB0B44D3E90023C0E9EF
:10383000002308311829F4D128460CA912AAFFF751
:103840001FFE02F04DFE00287FF76AAF19B0BDE8F9
:10385000F08300BFD01BFF1FF8230100B423010039
:103860001424010030250100B82301002DE9F041A6
:1038700084B0804600258DF80F50344C23685B6877
:103880002046334916229847204602F041FF314F27
:10389000314E0DF10F030093404603A90DF10D02C7
:1038A0000DF10E03FFF7B0F823685B682046394638
:1038B0001122984720469DF80C100A22002302F09E
:1038C0004DFF23685B682046314606229847204614
:1038D0009DF80D100A22002302F040FF23685B6868
:1038E00020461E490722984720469DF80E100A22BE
:1038F000002302F033FF23685B6820461849052245
:10390000984720469DF80F100A22002302F026FF58
:1039100023685B682046134901229847204602F03D
:10392000F7FE9DF80E30022B07D901354FF4967043
:1039300001F0DEFF042DACDD05E04FF4967001F0E0
:10394000D7FF0025A5E704B0BDE8F081D01BFF1F1D
:103950002C240100482301005C23010064230100A2
:103960006C230100FC21010084B001A880E80E0056
:103970000E4B049AC3F8A42403F5956201991160D3
:1039800003F2AC420299116003F59762039911604A
:1039900003F2EC420699116003F59E6207991160EB
:1039A00003F2F443089A1A6004B070476C15FF1FC5
:1039B00013680B6053684B6093688B60D368CB606F
:1039C00013690B61704700BF84B070B52DED028B99
:1039D000054607A880E80E0005F5AA7105F128063E
:1039E000A1F1140428462246FFF7E2FF2146B44223
:1039F000F6D100230B93284605F1280107AAFFF70B
:103A0000D7FF9DED0A6AF8EE466A05F5A8720F2306
:103A10009FED447A12ED016AF8EE467A77EEE67A87
:103A2000C7EE877A17EE901A42F81419013BF1D1CC
:103A300005F138030022DFED3C6AB0EE665AF0EE85
:103A4000665AB0EE666AD3ED007A36EE276A27EE44
:103A5000A77A75EE875A13ED047A35EE075A67EEAA
:103A6000877A76EEA76A013214330F2AEBD126EE5D
:103A7000058AF2EE0E7A66EEA76A38EE668A26EEC0
:103A8000066A65EEA77A76EE677A88EE278A274B74
:103A900083ED008A05F14C000823DFED237AF6EE72
:103AA000005A50ED076A10ED027A76EE876A66EEEC
:103AB000A56A10ED056A0246143092ED007A36EEE2
:103AC000477A26EE877A77EE877A013BE9D1184B61
:103AD000C3ED007A38EE278AB0EE480A06F0CCFA39
:103AE00090B1DFED147AB4EEE78AF1EE10FA0EDC55
:103AF000FAEE047AB4EE678AF1EE10FADFED0A7A94
:103B000048BFB0EE678A04E09FED078A01E09FEDB1
:103B1000068AB0EE480ABDEC028BBDE8704004B0E6
:103B2000704700BF00247449000000001C1AFF1FEA
:103B3000201AFF1F0000964370B582B006460C465F
:103B4000134800F08FF978B9124D2B685B6828464E
:103B500011490D229847284602F0DAFD4FF47A7099
:103B600001F0C6FE002503E00F2001F0C1FE012593
:103B700004F10C0393E803008DE8030094E80E00C1
:103B80003046FFF721FF84ED010A284602B070BDE0
:103B90006C15FF1FD01BFF1F4424010010B50D4CF6
:103BA00020464FF0FF312822FEF770FE04F110008E
:103BB00042F2657100F040FF002384F8203084F861
:103BC000543184F8553120460349044A0AF0F8F884
:103BD00010BD00BF1414FF1FB13200003C08FF1FCE
:103BE000037C13F0080F04D0C26A436AD01A02D4CF
:103BF0007047002070476FF00040704708B51030E4
:103C0000FDF78AFA08BD00BF00B583B002AB03F828
:103C1000011D103019460122FDF77EFA03B05DF850
:103C200004FB00BF08B51030FDF7B6F908BD00BFB2
:103C300008B51030FDF7DCF808BD00BF00B583B053
:103C400010300DF107010122FDF70EF801280CBF1D
:103C50009DF807004FF0FF3003B05DF804FB00BF94
:103C6000F0B58FB0044600F594652846FEF718FCC1
:103C700000B3264646F8405F04F27C473846FDF71D
:103C8000CFF930460121FEF7C5F820B930460021B2
:103C9000FEF7C0F870B138463146FCF7C9FF03465D
:103CA00040B194F87C2412F0700F1ABF2D4A1760AF
:103CB00000236BB92C4D2B685B6828462B491422D6
:103CC0009847284602F024FD002384F83C3046E063
:103CD000254D2B685B6828462549132298472846BE
:103CE00002F016FD012384F83C3000228DF81420E8
:103CF0008DF815208DF808204FF47A7103918DF816
:103D000010201C4A019205A839461B4AFDF790F97C
:103D10009DF814303BB113F0080F04D00C9A0A9BA5
:103D2000D31A17D4B3B9104C23685B6820461349E3
:103D30001922984723685B6820460F49112298474B
:103D400023685B6820460E4917229847204602F0F8
:103D5000DFFC04E00C9BA36305A8FDF761F90FB03D
:103D6000F0BD00BF5413FF1FD01BFF1F90240100A4
:103D7000A824010078240100BC240100D024010003
:103D8000EC24010030B599B0044600238DF83C3096
:103D90008DF83D308DF830304FF47A720D928DF8F9
:103DA00038302B4B0B930FA804F27C41294A632334
:103DB000FDF73EF99DF83C30002B46D0D4F8A454D2
:103DC00004F59563186809F075FCCDE9000104F26B
:103DD000AC43186809F06EFCCDE9020104F5976365
:103DE000186809F067FCCDE9040104F596631868CA
:103DF00009F060FCCDE9060104F2B443186809F04B
:103E000059FCCDE908010BA813492A4602F098FC99
:103E100004F59F63186809F04DFC02460B46B4F99F
:103E2000FC140091B4F9FE1401910BA80B4902F0A7
:103E300087FC0B9B5B680BA80949002298470BA8DD
:103E400002F066FC0FA8FDF7EBF819B030BD00BF1B
:103E50007824010004250100142501003425010007
:103E60004827010030B52DED048B8FB005460C4678
:103E700000238DF814308DF815308DF808304FF48C
:103E80007A7203928DF81030594B019305A805F210
:103E90007C41584A0123FDF7CBF89DF81430002BE4
:103EA00000F09A8013F0080F00F096800C9A0A9B9D
:103EB000D31A66D4002B64D18EE00020686392E0B0
:103EC0004D4C23685B6820464C49002298472046A9
:103ED00002F01EFC23685B68204649491C22984773
:103EE000204602F015FC23685B68204645490B22FA
:103EF00098472046696B02F06DFC204602F008FCF2
:103F000023685B68204640490722984718EE100A4C
:103F100009F0D0FB41EC100B2046042102F064FCB8
:103F200023685B682046394906229847204602F0FC
:103F3000EFFB23685B68204635490B22984718EE53
:103F4000900A09F0B7FB41EC100B2046042102F067
:103F50004BFC204602F0DCFB23685B6820462D49C1
:103F60000F22984719EE100A09F0A4FB41EC100B40
:103F70002046042102F038FC204602F0C9FB012053
:103F800031E005A8696BFCF767FF01A802F0AAFD04
:103F9000B0EE408A01A802F0A5FDF0EE408A01A82B
:103FA00002F0A0FDB0EE409A0A9B6B6305A8FDF7F6
:103FB00037F8DFED197A68EE277AFCEEE77AC4ED80
:103FC000037AC4ED008A84ED029A6B6B5A1CAB6BCA
:103FD0009A42BFF472AF73E7074803685B680F4902
:103FE0002D22984700200FB0BDEC048B30BD00BFE0
:103FF00078240100BC240100D01BFF1F48270100CA
:1040000040250100602501006C2501007425010098
:104010007C250100882501000024744998250100B1
:1040200030B59BB000F27C443E4D20462946FDF75A
:104030005BF820463C49FDF757F800238DF8103017
:104040008DF811308DF804304FF47A7202928DF8A9
:104050000C30364B009304A821462A466323FCF714
:10406000E7FF9DF8103053B9314D2B685B68284647
:1040700030491F229847284602F04AFB0DE01AAD4E
:1040800055F8683D5B6868462B4945229847684665
:1040900002F03EFB04A8FCF7C3FF00238DF8443078
:1040A0008DF845308DF838304FF47A720F928DF8D4
:1040B00040301E4B0D9311A821461B4A6323FCF789
:1040C000B7FF04AC11AD0FCD0FC40FCD0FC42B68DB
:1040D00023609DF838308DF804300F9B02939DF8D3
:1040E00040308DF80C309DF8103053B9104C2368D7
:1040F0005B6820460F491F229847204602F008FBC4
:104100000DE01AAC54F8683D5B6868460B490E2216
:104110009847684602F0FCFA04A8FCF781FF1BB040
:1041200030BD00BF04250100C8250100782401002E
:10413000D01BFF1F00260100202601006826010079
:104140000B4B00221A745A741A714FF47A719960E9
:104150001A73084919605A6383F83C2083F8472092
:1041600083F87C2483F87D24034AC3F8A024704795
:104170006C15FF1F78240100A022010008B504205F
:10418000012101F02BF90520012101F027F9082078
:10419000012101F023F90620002101F01FF9072079
:1041A000002101F01BF90920002101F017F9082076
:1041B000002101F013F908BD00B583B070EEC00A0C
:1041C000DFED127A60EEE70ADFED117AF4EEE70A2E
:1041D000F1EE10FA09DAF5EE400AF1EE10FADFED31
:1041E0000D7A98BFF0EE670A01E0DFED090A436B34
:1041F000826B0092FDEEE00A10EE900A002164222C
:1042000002F0A6FC03B05DF804FB00BF00004842CA
:104210000000C8420000000010B5144641B104205F
:10422000012101F0A9F80520002101F0A5F807E01F
:104230000420002101F0A0F80520012101F09CF8E4
:104240000820214601F08AF910BD00BF38B50446A8
:10425000416400F061FEE26B002A05DB2B4801217E
:10426000D2B2FFF7D9FF05E0524228480021D2B26E
:10427000FFF7D2FF254B1A6C636CD31A002BB8BF23
:104280005B42032B04DC224B1A7801321A7002E0E5
:1042900000221F4B1A701F4C23685B6820461E4982
:1042A00000229847204602F033FA23685B682046D4
:1042B0001A4919229847204602F02AFA23685B68B7
:1042C0002046174908229847104B196C204602F0E7
:1042D00081FA204602F01CFA23685B6820461149E7
:1042E000072298470A4D204629780A22002302F027
:1042F00035FA204602F00CFA2B78072B03D900225E
:104300002A70012038BD002038BD00BF6C1AFF1F85
:10431000B41AFF1FD01BFF1F482701007826010099
:1043200094260100A026010070B5044646260F25FC
:1043300002E0284601F0DCFA02F0D2F828B9204663
:104340003146FFF783FF0028F3D0204601210022E9
:10435000FFF762FF5E4800F017FB4FF4967001F024
:10436000C7FA8C260F2502E0284601F0C1FA02F0B8
:10437000B7F828B920463146FFF768FF0028F3D088
:10438000204601210022FFF747FF514800F0FCFAC8
:104390004FF4967001F0ACFAD2260F2502E02846C1
:1043A00001F0A6FA02F09CF828B920463146FFF742
:1043B0004DFF0028F3D0204601210022FFF72CFFFB
:1043C000434800F0E1FA4FF4967001F091FA4FF48F
:1043D0008C760F2502E0284601F08AFA02F080F878
:1043E00028B920463146FFF731FF0028F3D0204698
:1043F00001210022FFF710FF354800F0C5FAC82060
:1044000001F076FAD2260F2502E0284601F070FA74
:1044100002F066F828B920463146FFF717FF00285A
:10442000F3D0204601210022FFF7F6FE284800F0D5
:10443000ABFA4FF4967001F05BFA8C260F2502E080
:10444000284601F055FA02F04BF828B920463146CB
:10445000FFF7FCFE0028F3D0204601210022FFF7E1
:10446000DBFE1B4800F090FA4FF4967001F040FA22
:1044700046260F2502E0284601F03AFA02F030F80D
:1044800028B920463146FFF7E1FE0028F3D0204648
:1044900001210022FFF7C0FE0D4800F075FA4FF42D
:1044A000967001F025FA00260F2502E0284601F05B
:1044B0001FFA02F015F828B920463146FFF7C6FE6C
:1044C0000028F3D0204601210022FFF7A5FE70BD91
:1044D000B81AFF1F2DE9F0472DED048B9CB0DFF8D3
:1044E000BC81674D40462946FCF7FEFD00268DF84D
:1044F00018608DF819608DF80C604FF47A7304938E
:104500008DF814601CAC5F4B44F8683D06A841462A
:104510002A466323FCF78CFD029B5B6820465A49C0
:104520000D229847204602F0F3F806A8FCF778FD24
:1045300001F0BAF98046DFF88C91DFF88CA19FED8D
:10454000538ADFED539A9FED539ADFED538A002390
:104550008DF84C308DF84D308DF840304FF47A7234
:1045600011928DF84830474B0F9313A84B49444A9A
:104570006323FCF75DFD06AC13AD0FCD0FC40FCD6B
:104580000FC42B6823609DF840308DF80C30119BD0
:1045900004939DF848308DF8143001F085F9C8EB8C
:1045A00000043F4B9C423CD93E4B9C4212D8A4F5A0
:1045B0007423A3F5107307EE103AF8EE477AC7EEAE
:1045C000887A67EEA87AFCEEE77A17EE906AF6B280
:1045D000012731E0344B9C4226D9344B9C4226D9EA
:1045E0004C4514D8A4F57413A3F5106307EE103AE4
:1045F000F8EE477AC7EE887A67EEA97A77EE897A7D
:10460000FCEEE77A17EE906AF6B2012714E0284B29
:104610009C420FD9544598BF0026544598BF0127A6
:104620000AE0FF26012707E00026012704E03F26D5
:10463000012701E0FF2600271E4D28463946324655
:10464000FFF7EAFD2B6C0097019302A81A49224656
:10465000334602F075F8029B5B6802A817490022F6
:10466000984702A802F054F806A8FCF7D9FC144BAE
:104670009C427FF66CAF1CB0BDEC048BBDE8F087AC
:10468000A826010078240100BC26010000247449FA
:104690000000404300007C4200007F43E819FF1FF8
:1046A0003F420F007F841E00BFC62D00FF083D0063
:1046B0007F8D5B006C1AFF1FCC260100482701008C
:1046C000FF117A003F4B4C00BFCF6A0010B582B09B
:1046D0000F4C6FF0FE030093FF230193204604F17B
:1046E000400104F13C0204F144039FED0A0AF6EE96
:1046F000000A9FED091ADFED091A00F0F9FB00230B
:1047000063634FF48C72A263E363636402B010BD11
:104710006C1AFF1F37894940E71DA73D0000F4438D
:1047200038B5464C23685B68204645493A2298478D
:10473000204601F0EDFF23685B68204641493B229B
:104740009847204601F0E4FF23685B6820463E4915
:104750003B229847204601F0DBFF23685B68204638
:104760003A493B229847204601F0D2FF23685B6814
:10477000204637493B229847204601F0C9FF23686D
:104780005B68204633493B229847204601F0C0FF32
:104790002368314D5B682046294600229847204611
:1047A00001F0B6FF23685B6820462C493722984702
:1047B000204601F0ADFF23685B68204628491C2293
:1047C0009847204601F0A4FF23685B6820462946ED
:1047D00000229847204601F09BFF23685B68204633
:1047E00020494C229847204601F092FF23685B68DD
:1047F00020461D4938229847204601F089FF0520B0
:1048000001F076F823685B68204618493022984703
:10481000204601F07DFF23685B6820461449402252
:104820009847204601F074FF23685B6820462946BC
:1048300000229847204601F06BFF38BDD01BFF1FB8
:104840004C27010088270100C4270100002801002F
:104850003C2801007828010048270100B428010005
:10486000EC2801000C2901005C29010098290100B5
:10487000CC29010010B5374C23685B6820463649C7
:1048800000229847204601F043FF23685B682046DA
:10489000324913229847204601F03AFF23685B68AB
:1048A00020462F491E229847204601F031FF2368F9
:1048B0005B6820462B492C229847204601F028FFB0
:1048C00023685B68204628491D229847204601F04E
:1048D0001FFF23685B68204624491522984720461D
:1048E00001F016FF23685B6820462149192298478A
:1048F000204601F00DFF23685B6820461D491B22FE
:104900009847204601F004FF23685B6820461A4957
:1049100028229847204601F0FBFE23685B6820466A
:1049200016491C229847204601F0F2FE23685B6876
:104930002046134920229847204601F0E9FE2368CB
:104940005B6820460F4914229847204601F0E0FE9C
:1049500010BD00BFD01BFF1F48270100102A010017
:10496000242A0100442A0100742A0100942A01002B
:10497000AC2A0100C82A0100E42A0100102B010022
:10498000302B0100542B010010B5022404E0204616
:1049900000F0AEFF01F058FD01F0A2FD0028F6DCAA
:1049A00010BD00BF014B0360704700BFC022010073
:1049B00010B50446024B036001F0A6FE204610BD70
:1049C000C022010038B505460C46084600212822C1
:1049D00009F0BCFD20460A490B220AF02DF80023FD
:1049E000E3720122E260AA682261062262616362C8
:1049F000044BA361044BE361044B236238BD00BF49
:104A00006C2B010000808944000096430AD7233CA8
:104A1000084B5A898A1A198901FB02F2D213B3F999
:104A20001200C002B3F91430134490FBF3F01044A9
:104A3000704700BFBC1AFF1F014A026081607047C7
:104A4000802B0100FFFFFFFF08B5C0EE800A10EECB
:104A5000900A08F02FFE41EC100B9FED0B1B05F0A8
:104A600089FC00200C4953EC102B08F0C3FC08A370
:104A7000D3E9002308F072FE09F052F900EE100AA3
:104A800008BD00BFAFF3008000000020C05BC83F3E
:104A90000000000040A5E5400000F03FAFF30080BB
:104AA00070B506460D46084C20467721FEF7CEFA33
:104AB00020463146FEF7EAF820462946FEF7E6F89A
:104AC0002046FEF7E7FB70BDFC13FF1F08B5054B42
:104AD000197889013431F42001F0FC01FFF7E0FF7F
:104AE00008BD00BFD41AFF1F70B506460D460C4C1A
:104AF00020467721FEF7AAFA20463146FEF7C6F88F
:104B00002046FEF7C7FB204677210122FEF7BCFBBB
:104B10002046FEF7E7F828702046FEF7BBFB70BD85
:104B2000FC13FF1F00B583B0F4200DF10701FFF760
:104B3000DBFF9DF8070080F02000C0F3401003B0B9
:104B40005DF804FB70B506460D460F4C20467721F4
:104B5000FEF77CFA20463146FEF798F82046FEF72D
:104B600099FB204677210222FEF78EFB2046FEF7B6
:104B7000B9F806462046FEF7B5F840EA0620288038
:104B80002046FEF787FB70BDFC13FF1F10B582B0F7
:104B90000C460DF10601FFF7D5FFBDF80630238066
:104BA00002B010BD10B582B00C462548FEF742F9A0
:104BB000D0200DF10701FFF797FF9DF80730552B27
:104BC0003AD1032C28BF03241E4B1C701E4CAA2074
:104BD0002146FFF7DBFFAC20A11CFFF7D7FFAE207B
:104BE000211DFFF7D3FFB020A11DFFF7ABFFB220BF
:104BF00004F10801FFF7A6FFB42004F10A01FFF752
:104C0000A1FFB62004F10C01FFF7C0FFB82004F1AA
:104C10000E01FFF7BBFFBA2004F11001FFF7B6FF4A
:104C2000BC2004F11201FFF7B1FFBE2004F1140112
:104C3000FFF7ACFF012000E0002002B010BD00BF74
:104C4000FC13FF1FD41AFF1FBC1AFF1F10B582B040
:104C50000446F4202E21FFF723FF062000F048FE33
:104C6000F6200DF10601FFF76DFFBDF80630236059
:104C700002B010BDF0B583B007460D4602A8002271
:104C800040F8042DFFF7E2FF464C217889013431CA
:104C9000F42001F0FC01FFF703FF2378012B07D07C
:104CA00013B1022B08D00BE0052000F021FE0AE032
:104CB000082000F01DFE06E00E2000F019FE02E0C4
:104CC0001A2000F015FEF6200DF10201FFF73AFF61
:104CD000BDF802603602012000F00AFEF8200DF156
:104CE0000101FFF701FF2F4B1C789DF801301E4496
:104CF000C4F108031E4138460199FFF789FEA0F56B
:104D00007A6000FB00F21213274BB3F9047000FB2A
:104D100007F7B3F90C1001FB02F1091401EB67313D
:104D20000231891001F50041DF8807FB01F1C90B51
:104D3000B3F90070B3F90EC002FB0CF2B3F9023004
:104D400000FB03F0C01200EBE22202EB8703A3405A
:104D50000233A6EBA3064CF25033234103FB06F3C8
:104D6000002BA7BF5C00B4FBF1F4B3FBF1F46400CB
:104D7000231203FB03F340F6DE3202FB03F30B4A7C
:104D800002FB04F2121402EB234303F6CF6304EB9D
:104D9000231407EE104AF8EEC77AC5ED007A03B087
:104DA000F0BD00BFD41AFF1FBC1AFF1F43E3FFFF73
:104DB00070B582B005460C462426084600213246CE
:104DC00009F0C4FB2660AB6863600623A360002380
:104DD0002361284601A9FFF74DFFDFED057A9DED20
:104DE000017AC7EE277AC4ED057A012002B070BDC2
:104DF0000000C842F0B583B005460E46002301937B
:104E0000F6200DF10201FFF79DFEBDF802703F0292
:104E1000F8200DF10101FFF767FE9DF8012017440E
:104E2000304C2378C3F108031F4101A8FFF70EFFA0
:104E3000FFF74CFE28460199FFF7EAFDA0F57A60DE
:104E400000FB00F52D132278274BB3F9044000FB3B
:104E500004F4B3F90C1001FB05F1091401EB6434FF
:104E60000234A41004F50044D98801FB04F4E40BD7
:104E7000B3F90010B3F90EC005FB0CF5B3F902301D
:104E800000FB03F0C01200EBE52505EB810191402A
:104E90000231A7EBA1074CF2503141FA02F202FBBA
:104EA00007F2002AA7BF5300B3FBF4F3B2FBF4F3FD
:104EB0005B001A1202FB02F240F6DE3101FB02F245
:104EC0000A4901FB03F1091401EB224202F6CF6209
:104ED00003EB221307EE103AF8EEC77AC6ED007A1C
:104EE00003B0F0BDD41AFF1FBC1AFF1F43E3FFFF3E
:104EF00030B40025456242610161836180ED000AA2
:104F0000C0ED010A80ED021AC0ED031A029BC362D4
:104F1000039B036330BC704738B5044603691A68C5
:104F200083691B689D1A00F0BFFCA36AC31A06EED2
:104F3000903AF8EE666ADFED457AC6EEA76A04EEAF
:104F4000905AB8EEE47AD4ED087A77EE677A94ED69
:104F5000016A27EE866A26EE266AD4ED075A36EEF7
:104F6000256A84ED076AC7EEA67AD4ED025A67EE89
:104F7000A55A94ED0C5AF8EEC57AB4EEE76AF1EE54
:104F800010FA02DDC4ED077A0AE0D4ED0B4AB8EE60
:104F9000E45AB4EEC56AF1EE10FA48BF84ED075A40
:104FA0009FED2B6AF4EEC66AF1EE10FA06DDD4ED41
:104FB000006A67EE266A0023E36109E0D4ED006A27
:104FC00067EE266A94ED076A76EE866A76EEA56A43
:104FD000F4EEE76AF1EE10FA0ADC94ED0B5AF8EE03
:104FE000C57AF4EEE76AF1EE10FA58BFF0EE667A91
:104FF000DFED186AF4EEE67AF1EE10FA06D5F2EE7D
:10500000046AF4EEE67AF1EE10FA12DCDFED126AD1
:10501000F4EEE67AF1EE10FA0DDDFAEE046AF4EE43
:10502000667AF1EE10FADFED0C6A48BFF0EE667AB0
:1050300001E0DFED087A6369FDEEE77AC3ED007AFF
:10504000C4ED095A84ED087AA06238BD0024744981
:105050003108AC3C00007042000070C2844641EA56
:10506000000313F003036DD1403A41D351F8043BE0
:1050700040F8043B51F8043B40F8043B51F8043B32
:1050800040F8043B51F8043B40F8043B51F8043B22
:1050900040F8043B51F8043B40F8043B51F8043B12
:1050A00040F8043B51F8043B40F8043B51F8043B02
:1050B00040F8043B51F8043B40F8043B51F8043BF2
:1050C00040F8043B51F8043B40F8043B51F8043BE2
:1050D00040F8043B51F8043B40F8043B51F8043BD2
:1050E00040F8043B51F8043B40F8043B403ABDD241
:1050F000303211D351F8043B40F8043B51F8043BE3
:1051000040F8043B51F8043B40F8043B51F8043BA1
:1051100040F8043B103AEDD20C3205D351F8043B71
:1051200040F8043B043AF9D2043208D0D2071CBF3D
:1051300011F8013B00F8013B01D30B880380604666
:10514000704700BF082A13D38B078DD010F00303DC
:105150008AD0C3F10403D21ADB071CBF11F8013B4C
:1051600000F8013B80D331F8023B20F8023B7BE79B
:10517000043AD9D3013A11F8013B00F8013BF9D2C6
:105180000B7803704B7843708B7883706046704760
:10519000024B1A6801321A60704700BFD81AFF1F0D
:1051A00008B50D4C236813F4802F01D000F030FDBA
:1051B000236813F4806F01D002F024F9236813F4FC
:1051C000006F01D002F0E0FC236813F4805FE9D0A7
:1051D00002F09EFFE6E700BF3480044008B5FFF709
:1051E000DFFF00BF1022014B1A80704700200540EE
:1051F000704700BF024A1368184410601846704791
:105200004C08FF1FFEE700BFEFF31383ABB9EFF3CA
:105210001083ABB9EFF3058323B10F2B05D9094AEE
:10522000985C03E04FF4807000E00020EFF31183FE
:105230003BB1834238BF184670474FF0FF3070478C
:1052400000207047F0E300E00B4B1B78DBB2802BB3
:105250000ED10A4A0A4B1A60002203F5573303F2B3
:10526000BD331A70044A1378DBB2802BFBD001E007
:10527000002070470120704703E00740000028220B
:10528000448004400B4B1B78DBB2012B0FD1602212
:1052900003F1804303F5FC231A70064A1378DBB24E
:1052A000802BFBD1044A054B1A6001207047002077
:1052B000704700BF03E0074000000602448004403E
:1052C000704700BF1D4B03EBC000436803F1404231
:1052D000A2F592227C2A18D903F14042A2F5942229
:1052E0007C2A14D903F14042A2F596227C2A10D9D7
:1052F00003F14042A2F598227C2A0CD903F14042E6
:10530000A2F59A227C2A08D970470D4906E00D497A
:1053100004E00D4902E00D4900E00D4972B61A683B
:1053200022F0877222F4803242F080721A60C3F356
:105330008403084A41F8232062B67047982B010085
:105340005008FF1FC808FF1F2809FF1F5809FF1F2B
:105350009809FF1FC1520000044B00221A60044943
:105360000A60044A106010221A60704714D003408B
:1053700004D0034000D003403F281ED80F4B53F801
:10538000303093F8802212F0FF0F08D019B10122BB
:1053900083F880207047012283F800217047074B73
:1053A00003EBC000436821B11A6842F003021A609F
:1053B00070471A6822F002021A607047982B0100A9
:1053C0003F2806D8044B53F8303093F80002C0B29F
:1053D00070470020704700BF982B01003F283AD843
:1053E0001D4B03EBC0035B68012919D0042925D0AC
:1053F000194A52F83020002082F8800219B94FF47F
:1054000080721A607047022903D140F203121A60B9
:10541000704703290CBF4FF4817200221A60704755
:105420000D4A52F83020012182F880124FF4A27206
:105430001A601A6822F020021A607047064A52F871
:105440003020012182F880124FF4A2721A601A688B
:1054500042F020021A607047982B010070B50D468B
:105460003F2861D8042A5FD8DFE802F00709050B5E
:1054700003000B2306E00A2304E0082302E00C23C8
:1054800000E009231E04294B03EBC0035C6823687A
:1054900013F4E06F02D10021FFF7A0FF244B254A4F
:1054A000C3F82C21244AC3F83021244AC3F83421FC
:1054B000234AC3F83821234AC3F83C2104F140436E
:1054C000A3F592237C2B18D904F14042A2F5942233
:1054D0007C2A14D904F14043A3F596237C2B10D9E0
:1054E00004F14043A3F598237C2B0CD904F14043ED
:1054F000A3F59A237C2B08D970BD134906E0134904
:1055000004E0134902E0134900E0134972B623682E
:1055100023F470232360C4F3840241F8225043F043
:1055200080731E43266062B670BD00BF982B0100D9
:105530000002FF1F1108FF1FE507FF1FB907FF1F2C
:105540008D07FF1F6107FF1F5008FF1FC808FF1FBF
:105550002809FF1F5809FF1F9809FF1F10B50446AF
:10556000A0F14203DBB2012B15D8974B1B780B2B14
:1055700003D8C3F10C03994003E00C2B84BF0C3B10
:105580001941422C03D1084601F0AAFB10BD084680
:1055900001F0C2FB10BD8C4B1B78012202FA03F014
:1055A000002908DC20460021FFF7E6FE2046012105
:1055B000FFF714FF10BD0A46884208D82046012193
:1055C000FFF7DAFE20460121FFF708FF10BDE01EBD
:1055D000C0B2012806D87D48006800FB011222FAFB
:1055E00003F32BE0A4F11D00C0B2012806D87848CF
:1055F000006800FB011222FA03F31FE0022C0AD01C
:105600000E2C08D0E01FC0B2012804D9A4F1230059
:10561000C0B2032806D86F48006800FB022222FAB5
:1056200003F30BE0A4F11000C0B2012894BF6A4854
:105630006A48006800FB011222FA03F3A01E242826
:1056400000F22681DFE810F079005D00640056006A
:10565000410087008E0033003A0024012401240118
:1056600080002401B100B8002401240148004F004B
:1056700025002C00240124012401240124016B00B5
:105680007200240124012401240195009C00A30040
:10569000AA00534A136040F24442524B1A6010BDB4
:1056A000514A136040F24442504B1A6010BD504AB8
:1056B000136040F244424F4B1A6010BD4E4A1360D3
:1056C00040F244424D4B1A6010BD4D4A136040F207
:1056D00044424C4B1A6010BD4B4A136040F24442A6
:1056E0004A4B1A6010BD4A4A136040F24442494B8B
:1056F0001A6010BD484A136040F24442474B1A609A
:1057000010BD474A13604FF45172464B1A6010BDEA
:10571000454A13604FF45172444B1A6010BD444A1D
:1057200013604FF45172434B1A6010BD424A13602C
:105730004FF45172414B1A6010BD414A136040F260
:105740004442404B1A6010BD3F4A136040F244424D
:105750003E4B1A6010BD3E4A136040F244423D4B3E
:105760001A6010BD3C4A136040F244423B4B1A6041
:1057700010BD3B4A13604FF451723A4B1A6010BD92
:10578000394A13604FF45172384B1A6010BD384AD1
:1057900013604FF45172374B1A6010BD364A1360D4
:1057A0004FF45172354B1A6010BD354A136040F208
:1057B0004462344B1A6010BD334A136040F24462B5
:1057C000324B1A6010BD00BF040AFF1F089003404F
:1057D00008800B4008900B4008900C400880034064
:1057E0001080034004B004401880034008B0044017
:1057F000208003400CB004402880034010B00440D7
:105800003080034010C004403880034014C004407E
:105810004080034018C00440488003401CC004403E
:10582000109003403090044018900340349004409E
:1058300010800B4048A0044018800B404CA004404E
:1058400010900B4000C0044018900B4004C004406E
:1058500020900B4008C0044028900B400CC004402E
:1058600030900B4020B0044038900B4024B00440EE
:1058700040900B4028B0044048900B402CB00440AE
:1058800010900C4000A0044018900C4004A004406C
:1058900020467F29D4BF00210121FFF76DFD20465E
:1058A0000121FFF79BFD10BD72B60D4B1B680D4A21
:1058B00012680D49096862B611F0806F02D0322B70
:1058C00088BF0132C3F52F3303F21F339B0807490A
:1058D000A1FB03039B084FF47A7000FB0230704772
:1058E00018E000E0D81AFF1F04ED00E0176CC116A5
:1058F00038B50546FFF7D8FF044625B938BD013D48
:105900000AD004F57A74FFF7CFFF001BB0F57A7F59
:10591000F5D201F02BF9F6E738BD00BF70B5404B6A
:105920004FF000621A604FF080521A604FF0005240
:105930001A604FF080421A604FF000421A60002255
:10594000384B1A604EF6FF7004331860282336492E
:105950000B6008310B6008310B6008310B600831B7
:105960000B6008310B6008310B6008310B602F4D64
:105970002B602F4C236001F5002101F6D8710B60DC
:1059800008310B6008310B6008310B6008310B6087
:1059900008310B600921274E316006F58056043628
:1059A0003260043630600436336008363360143EAB
:1059B000316006F5FE260436326004363060043667
:1059C000336008363360143E316006F58056043685
:1059D0003260043630602B6023601748016017493D
:1059E000086840F4007008602839086840F00070CA
:1059F000086001F501210A6047F6FF71104A116045
:105A0000043213600832136008220E4B1A6001F052
:105A1000DDF84FF4C870FFF76BFF00F079FC70BD44
:105A200004E100E0048003400C8003400C900B4034
:105A300014900B400080034000900B402C800440E9
:105A400008900C4000900C4030B40E4B1B7843F093
:105A500002020D4C04EBC20460600C480078002880
:105A60000CBF8824C82444EA0141074D45F8321090
:105A700080F00100054A107083F00103014A1370A1
:105A800030BC7047441BFF1F0000FF1FBD1BFF1FE2
:105A900010B4431E032B11D872B60A4A52F82300E1
:105AA00050B14268074941F82320074A32F81340B1
:105AB0000188611A22F8131062B600E000205DF838
:105AC000044B7047341BFF1F7C1FFF1F0138032846
:105AD0000DD872B6074B53F820302BB1002001309F
