:1000000000000320D10100006D6400003164000095
:10001000316400003164000031640000316400008C
:100020003164000031640000316400006D64000040
:100030006D640000316400006D6400002164000004
:100040006D6400006D6400006D6400006D6400006C
:100050006D6400006D6400006D6400006D6400005C
:100060006D6400006D6400006D6400006D6400004C
:100070006D6400006D6400006D6400006D6400003C
:100080006D6400006D6400006D6400006D6400002C
:100090006D6400006D6400006D6400006D6400001C
:1000A000013100006D6400006D6400006D640000AB
:1000B0006D6400006D6400006D640000258A00001E
:1000C0006D640000A99100006D640000319700008C
:1000D0006D6400005D9D00006D6400006D640000B3
:1000E0006D6400006D6400006D6400006D640000CC
:1000F0006D6400006D6400006D6400006D640000BC
:100100006D6400006D6400006D6400006D640000AB
:100110006D640000A16E00006D6400006D6400005D
:100120006D6400006D6400006D6400006D6400008B
:100130006D6400006D6400006D6400006D6400007B
:100140006D6400006D640000ADA200006D640000ED
:100150006D6400006D6400006D6400006D6400005B
:100160006D6400006D6400006D6400006D6400004B
:100170006D6400006D6400006D6400006D6400003B
:100180006D640000712500006D6400006D64000066
:100190006D6400006D6400000DA900006D64000036
:1001A0006D6400006D6400006D6400006D6400000B
:1001B0006D6400006D6400006D6400006D640000FB
:1001C0006D6400006D6400006D6400006D640000EB
:1001D0005C4B4CF2205210B51A804DF628121A8052
:1001E00000BF00BF06F046F9574B4FF030621A606F
:1001F000564A9A60564ADA60564B4FF470021A60BB
:10020000554B564A1A60564B1A6812F4807204D144
:1002100054490A604FF4A8521A60534B1A781107D8
:1002200003D51A7842F008021A70504B504C5148CE
:10023000AA221A70504A00239918A14203D21958D1
:1002400099500433F8E74D4B4D4900228B4202D2BE
:1002500043F8042BFAE74B484B4900235A581A50ED
:100260000433B3F5E87FF9D1484B494A802103F8BC
:10027000011B9342FBD1474B424A1A60464B8A22EC
:100280001A70A3F5805324225A70A0221A709A790A
:100290009207FCD59A79D406FCD4404B9A7902F0A7
:1002A0000C02082AFAD13E4B60221A7002331A78E7
:1002B000802AFCD1394B01221A715D225A719A7938
:1002C0009006FCD59979354A4906FBD5354B364918
:1002D00019600021596020231370937903F00C03F7
:1002E0000C2BFAD1314B324A1A60324B324A1A6027
:1002F00000225A60072243F8042C304AC3F80C2D20
:1003000062B606F053FC174B1B68DA0705D52C487C
:1003100006F06AF92B4B2C4A1A602C4B1B785B06B3
:1003200009D5284C284A2368934204D1244806F072
:100330005BF9002323600FF07BF906F0A1F807F0CA
:1003400023FBFEE70E20054030800440823F04007E
:100350000100002B88ED00E0002008E0030000858C
:1003600010D0034014D0034002D0074000E0074003
:100370003813FF1FB86D01006007FF1F3813FF1F00
:100380001020FF1F0002FF1F0000000000E400E03B
:1003900064E400E008ED00E0005006400040064044
:1003A00001E007404480044000000602048004404D
:1003B000C010070014E000E01FBF02000000202072
:1003C000878606041CE00340A5C3945A00F007404A
:1003D000FFFFFFFFFFFFFFFFFFFFFFFFFFFFFFFF2D
:1003E000FFFFFFFFFFFFFFFFFFFFFFFFFFFFFFFF1D
:1003F000FFFFFFFFFFFFFFFFFFFFFFFFFFFFFFFF0D
:10040000FFFFFFFFFFFFFFFFFFFFFFFFDEF9FFFF23
:1004100010B5054C237833B9044B13B10448AFF33E
:1004200000800123237010BD3813FF1F000000005F
:10043000B06D010008B5064B1BB106480649AFF385
:1004400000800648036813B1054B03B1984708BD07
:1004500000000000B06D01003C13FF1F3813FF1FA8
:100460000000000010B5042006F0F2F80446052054
:1004700006F0EEF88442044B1A6C0CBF02F1FF3216
:1004800001321A6410BD00BFBC1AFF1F2DE9F047EE
:100490002DED068BB0EE409AF0EE609A11EE106AE8
:1004A00011EE90AA9FED60AA60EE0A7A17EE900A0C
:1004B0000EF034F941EC180B41EC100B0BF0A6FBDD
:1004C00059EC108B89EE0AAA1AEE100A0EF026F9E2
:1004D00041EC100B0BF09AFB55EC104B30460EF034
:1004E0001DF922462B460EF06DF941EC100B0AF077
:1004F0008FFE57EC106BB0EE480AF0EE680A0BF076
:1005000085FB55EC104B0020484942464B460EF007
:1005100083FA32463B460EF055F90EF035FC0EF0EC
:10052000FDF802460B46204629460EF04BF941ECF9
:10053000100B0BF029F80BF04FF957EC106B5046ED
:100540000EF0ECF804460D46F7EE007AC7EE897A15
:1005500017EE900A0EF0E2F832463B460EF032F902
:1005600002460B46204629460DF078FF0EF00CFCA3
:1005700007EE900A77EEE99AF8EE007A69EE277AAC
:1005800067EEA97A17EE900A0EF0C8F841EC100B4E
:100590000BF09EF80020264953EC102B0DF05EFF67
:1005A0000EF0F2FB08EE100AB5EE408AF1EE10FAFA
:1005B000DFED207A48BFB0EE678A69EE299A19EE1E
:1005C000900A0EF0ABF841EC100B0BF081F859ECEF
:1005D000108BDFED157A87EE899A19EE100A0EF06E
:1005E0009DF841EC100B0BF011FB57EC106B18EE63
:1005F000100A0EF093F841EC100B0BF007FB55ECD2
:10060000104B4046494632463B460EF0DBF8224648
:100610002B460EF0D7F80EF0B7FB00EE100ABDEC3B
:10062000068BBDE8F08700BFC3F51C410000F0BF9A
:100630000000F03F0000000008B52DED028BB0EE89
:10064000408AF0EE608A9FED217A37EE407ADFED46
:10065000207A67EE277A17EE900A0EF05FF841ECE9
:10066000100B0BF035F8DFED1B7AF4EEE78AF1EEB4
:1006700010FA0AD59FED180AF0EE480A9FED171AF6
:10068000DFED121AFFF702FF1DE0DFED127AF4EE44
:10069000E78AF1EE10FA11DBDFED0C7AB4EEE78AAF
:1006A000F1EE10FA0DD59FED0E0AF0EE480A9FED1F
:1006B000091ADFED0C1AFFF7E9FE04E09FED070AC7
:1006C00001E09FED060ABDEC028B08BD0000E3438C
:1006D000D6AB80BA00002042D6AB003A0000000042
:1006E000CA83543A76C6BB432DE9F0432DED028B05
:1006F00093B0DFF8E890344E344F35E09DED080AB2
:10070000DDED090AFFF798FFB0EE408A30469DED17
:10071000090AF0EE480A04F09FFA0FFA80F8304612
:10072000414604F033FB02AC0DAD0FCD0FC42B6876
:1007300023600BAB93E803008DE8030008AB0ECBFE
:10074000484603F069FE07F59F6383ED008A336C2A
:10075000A7F8FC34736CA7F8FE34384604F0D8F8D8
:100760003046414604F012FB07F002F828B948462B
:1007700008A903F073FF0028C0D1154C23685B68FB
:10078000204614492C229847204607F02FF912489A
:1007900004F056FF0C4D00240F2602E0304606F010
:1007A000EFF92846214604F0F1FA18B906F0E0FF07
:1007B0000028F3D004480121002204F07DFA13B090
:1007C000BDEC028BBDE8F083BC1AFF1FB815FF1FFC
:1007D0004C1CFF1FCC520100081BFF1F3814FF1FC9
:1007E00038B50546444C23685B68204643491B22C4
:1007F0009847204607F0FAF8414804F021FF4148A5
:1008000003F0F4FF4048294603F098FB3F4805F009
:10081000FBFA23685B6820463D49122298473D4B0E
:10082000196C204607F044F9204607F0DFF820460F
:1008300007F0DCF823685B68204637491E2298479A
:10084000204607F0D3F823685B682046334912221C
:10085000984720464FF4E37107F02AF9204607F045
:10086000C5F823685B6820462D490B22984720462F
:100870009FED1B0B022107F027F9204607F0B6F881
:1008800023685B68204627491222984720469FED3F
:10089000160B022107F018F9204607F0A7F8236885
:1008A0005B68204620490E2298472046282107F001
:1008B000FFF8204607F09AF823685B6820461B493A
:1008C0000E22984720469FED0A0B022107F0FCF804
:1008D000204607F08BF8204607F088F838BD00BFA7
:1008E0000000004080B70A400000006091EDCC3F5E
:1008F0000B4B54B0CE7877404C1CFF1FFC520100CC
:10090000081BFF1FB815FF1F3814FF1F0C1BFF1F0C
:1009100018530100BC1AFF1F2C5301004C53010057
:10092000605301006C53010080530100905301009B
:1009300038B50D20012105F099FE0D20012105F0AB
:1009400063FE40F6B83006F01BF94FF47A7006F0FB
:1009500017F9184C23685B682046174911229847FD
:10096000204607F043F82368144D5B68204629466B
:1009700003229847204607F039F823685B68204631
:10098000294603229847204607F030F80C4C2046B1
:1009900004F0F2FC0120FFF723FF0A4804F03EF9BF
:1009A00004200949032205F0A1FE204604F0A4FD1D
:1009B00038BD00BF4C1CFF1FA0530100B453010001
:1009C000081BFF1FBC1AFF1F6504000010B506F0CE
:1009D000CFFE002840F3168106F07EFE4138122833
:1009E00000F2F680DFE810F07200A5006100F4006C
:1009F0008300B600F400F4002800F400F400F400D2
:100A00009400F40041001700F4005A001300012084
:100A1000FFF7E6FEEFE07C4C23685B6820467B49ED
:100A20000A229847204606F0E1FF794804F008FEC4
:100A3000784804F051FCDEE0734C23685B68204684
:100A400075490E229847204606F0D0FF714C20468B
:100A50000021FF2204F030F9FA2006F091F8204638
:100A600000210A4604F028F9C5E0674C23685B685A
:100A700020466A490F229847204606F0B7FF654C8A
:100A800020460121FF2204F017F9FA2006F078F839
:100A900020460121002204F00FF9ACE05C4804F08C
:100AA000CFFD5F4805F0A0FAA5E0574C23685B68CE
:100AB00020465C491F229847204606F097FF54487D
:100AC00004F0BEFD584803F097FB94E04E4C2368B9
:100AD0005B682046554924229847204606F086FF49
:100AE0004B4804F0ADFD504803F034FB83E0484828
:100AF00004F0A6FD444C23685B6820464C49222242
:100B00009847204606F072FF424804F0E9FA72E086
:100B10003F4804F095FD3C4C23685B6820464549FE
:100B20001E229847204606F061FF3A4804F062F919
:100B300061E0354C23685B6820463F493122984785
:100B4000204606F053FF324804F07AFD364803F0A1
:100B5000C7FA50E02C4C23685B68204637492322B3
:100B60009847204606F042FF294804F069FD00201E
:100B7000FFF736FE324803F09FFF2B4B93F87C3192
:100B80003BB1294B93F87D311BB12D4B93F83C3091
:100B900053B91D4C23685B6820462A494122984777
:100BA000204606F023FF26E0174C23685B682046AA
:100BB000254915229847204606F018FF1A4803F0E9
:100BC0008FFD4FF4FA6005F0DBFFFFF78DFD12E0BB
:100BD0000D4C23685B6820461C492022984720461C
:100BE00006F004FF23681B682046194A11789847CD
:100BF000204606F0FBFE064C204604F021FD204670
:100C000004F07AFC10BD00BF4C1CFF1FB85301005C
:100C1000081BFF1FBC1AFF1FC4530100D45301005F
:100C20000C1BFF1FE45301003814FF1F0454010084
:100C30002C5401005054010070540100A4540100D0
:100C4000B815FF1FC85401000C55010024550100C0
:100C50005413FF1F08B505F0F1FA08BD08B58378F5
:100C600063F07F0383700246806852F8101F01F022
:100C7000F5F808BD2DE9F8430446037813F0200F7A
:100C800032D143691D4A934230D8FFF7E7FF064649
:100C9000002830D0A068216901F078F88046A0686B
:100CA00024304146052201F04BF8814600B3002173
:100CB0004FF400720FF06CF8A3681F79012F0ED962
:100CC000012518680268976805EB08014A46B8478D
:100CD00080B10135EDB2A3681F79BD42F1D36369DC
:100CE00003EB4723636106E0002604E0002602E0F0
:100CF000002600E006463046BDE8F883FFFD1F00F1
:100D000010B504460A4680682430A16901F018F83D
:100D1000034628B1A08800F00F0003EB401010BD7F
:100D2000002010BD38B504460D46037893B9002164
:100D300024220FF02DF8A560EB79102B02D0202B88
:100D400003D009E02023237001E040232370012019
:100D5000A07038BD002038BD002038BD2DE9F04F0F
:100D600083B00446884600920378002B00F0AA80E6
:100D7000827812F0010F00F0A58013F0080F08D060
:100D8000C2694369D31A009A9A4228BF1A46009250
:100D90000DE013F0200F0AD083681A894369C3EB72
:100DA00042139BB2009A9A4228BF1A460092009BB7
:100DB000002B00F083801E464FF0000A04F1100261
:100DC0000192D3466369C3F30807227812F0200F1B
:100DD00004D0A268126A02EB532922E0A06890F8BE
:100DE00005A00AEA532AB7B9BAF1000F13D133B9F3
:100DF00012F0400F14BF036A236A23610BE02169DC
:100E0000019A00F0C9FF00285CDB20B9237813F0B9
:100E1000700F54D156E0A068216900F0B7FF00EBD5
:100E20000A0937B9B6F5007F03D3A068C36A9945AC
:100E300013D1C7F50075AE4238BF3546A0682430DF
:100E400049465A4600F07CFF014600283AD0404609
:100E500039442A4605F050F929E0B6F5806F1DD3D4
:100E6000C6F34727227812F0200F06D10279CAEB89
:100E70000202D2B2BA4238BF17467D02994502D863
:100E80003B44994525D3A36818680368D3F80CC080
:100E9000494642463B46E04748B913E000680368CC
:100EA0001B6849464246984760B14FF40075A84414
:100EB00063692B446361761B84D100E0009E009B34
:100EC000981B0CE0637843F0020363704FF0FF302F
:100ED00005E0243000F00AFF0028D4D1F2E703B087
:100EE000BDE8F08F70B582B00446466905690DF122
:100EF00007010122FFF732FF012803BF9DF8070019
:100F0000666125614FF0FF3002B070BD30B583B02F
:100F100004464369C3F3431505B171B920460DF189
:100F200007010122FFF71AFF40B2012801D000207B
:100F300009E063691F33636101E020334361A06806
:100F4000303000EB451003B030BD00BF2DE9F0415B
:100F500004460E4607690378002B3CD042698A425A
:100F60003DD011B90023036131E013F0080F03D025
:100F7000C1698E422FD808E013F0200F05D0836896
:100F80001B89B1EB431F26D821E0A1688D79093573
:100F9000501EE84006F1FF3C2CFA05F5A84200D8A7
:100FA00032B913F0400F14BF0B6A236A23610AE0C1
:100FB0002D1A08E0A0682169424600F0EDFE013DCF
:100FC000002802DC07E004F11008002DF2D1666170
:100FD0000120BDE8F08127610020BDE8F0810120FB
:100FE000BDE8F081F8B504460E4615461F460021BF
:100FF00024220EF0CDFEB068A060A580336AE360C5
:1010000000F1300305F00F0203EB4212D37A13F024
:10101000080F34D103F017032370D17A11F0180FA1
:1010200004BF43F0080323709DF81830E37017F0F5
:10103000320F03D0237813F0110F20D107F00F03E4
:10104000A370C36AA361918A538B43EA014117F0ED
:10105000100F08D011B100F037FF80B1A37863F012
:101060007F03A37002E02162D369E36117F0200FD0
:1010700009D02046E169FFF769FF034620B9002047
:101080002070034600E001231846F8BD38B5044639
:101090000378002B39D090F90230002B1EDA0121A1
:1010A000FFF72EFE054650B30378E52B27D02378B3
:1010B00013F0080F1CBFE369C361238C4383638C67
:1010C0008382134B1B682BB1183005F1160198472A
:1010D0002B8B6B82A37803F07F03A370A56805F1C7
:1010E000240000F003FE50B105F50C7000F0FEFD89
:1010F00028B1286803685B689847034630B963786D
:1011000043F001036370002300E00123184638BD5B
:101110005C13FF1F10B50446FFF7B8FF00232370D0
:1011200010BD00BF2DE9F04192B006460C46019279
:10113000984600238DF824308DF825300378002B55
:1011400044D10B7813F0700F42D0134612782F2A37
:1011500014D10133019313F8012B2F2AFAD02AB9A5
:101160003046A168FFF7DEFD024632E009A8A1681B
:10117000FFF7D8FD024600282BD009AC01270198C3
:1011800003A901AA00F06EF9024610B3019A137880
:10119000A3B13046214603AA3B4600F0ADFB024610
:1011A000B8B109AC35460FCD0FC40FCD0FC42B68B5
:1011B00023603046FFF7AEFF09ACE0E7304621463A
:1011C00003AA434600F098FB024602E0002200E03A
:1011D0000022104612B0BDE8F08100BF10B58AB001
:1011E00004460A4600238DF804308DF8053001A826
:1011F00021460223FFF796FF034618B101A800F02D
:1012000069FA034618460AB010BD00BF2DE9F84F31
:10121000044688469246037813F0080F00F0BB801E
:10122000837813F0020F00F0B68013F0040F05D09E
:10123000E169FFF78BFE002800F0AD806369DB43B6
:101240009A4500F2A880BAF1000F00F08880564657
:101250004FF001094FF0050BA06863694579C3F3AE
:10126000080715EA532521D1002F40F09C80216901
:1012700081B104F1100200F08FFD0028C0F28B80D4
:10128000002840F095802046FFF7E8FC002840F059
:101290008F8080E0236A3BB92046FFF7DFFC0028FF
:1012A00079D02369236283E0236181E0216900F022
:1012B0006DFD4119002F40F08C80B6F5007F7DD385
:1012C00018E04A4600E05A46A068243000F038FD95
:1012D000002860D0384441462A4604F00DFF2F44D0
:1012E000B7F5007F34D1A068243000F0FFFC00285F
:1012F0002ED150E0B6F5806F17D3A26813795D1B2D
:10130000EDB2C6F34723AB4228BF2B465D02D06A3D
:10131000884202D31844884261D8A26810680268E3
:1013200017694246B84798B935E0A368DA6A91422E
:1013300005D1002283F824204FF0FF32DA62A3683F
:10134000186803689B684246984720B34FF40075BD
:1013500063692B446361A844761B7FF47DAF6369A6
:10136000E269934205D9E361A37863F07F03A37038
:1013700006E01E4B1B681BB1A37863F07F03A370CC
:10138000A37813F0080F03D02046FFF77FFE10B1BB
:101390005046BDE8F88F637843F0010363704FF067
:1013A000FF30BDE8F88F216900F0F0FC014610E045
:1013B000A068216900F0EAFC01467EE7C7F50075E8
:1013C000AE4238BF35466269E3699A42BFF47BAFEB
:1013D00077E7C7F50075AE4238BF354671E70020A4
:1013E00082F824004FF0FF30D06296E75C13FF1FB5
:1013F000042904D800EB4101B1F8010070470A2923
:1014000004D8013900EB4100C088704710299DBF06
:10141000013100EB410080880020704700231A460C
:10142000510841EAC212C15C51FA82F2D2B20133D0
:101430000B2BF5D11046704738B504460D46CB68E6
:101440001BB98968FFF76EFC38BD002124220EF01D
:101450009FFC102323700120A070AB68A360EB6891
:10146000236238BD2DE9F00F82B00378202B05D11F
:10147000431C184601330478202CFAD08860037886
:1014800023B12F2B04D00546002407E0002400E000
:10149000002407193B4622E02F2BFAD05C2B00F0EA
:1014A000FA8003F0F706222E00F0F7803A2B00F0C6
:1014B000F68003F0BF063C2E00F0F380A3F13E0659
:1014C000F6B2012E40F2EF80203BDBB25E2B00F241
:1014D000EC80013415F8013F002BDDD1D9E71E4621
:1014E00013F8015B202DFAD02F2DF8D0166074B1BF
:1014F0003A4612F8013D2E2B01D0202B02D1013C9F
:10150000F7D104E0FF2CC8BF002000F3DF804C605F
:1015100000232025CA18557301330B2BFAD1002361
:1015200000E00133C25C2E2AFBD0202AF9D01E46EF
:10153000D3F1010738BF0027651E06D4425D2E2A6D
:1015400003D0013DB5F1FF3F05D1A64207DB0020E6
:101550000190009087E0425D2E2AF2D1F5E74FF02E
:1015600007090026019600964FF0080AB446AB46DC
:10157000C25C202A66D02E2A02D19D4264D122E08C
:10158000222A20D07C2A1ED0A2F12A085FFA88F8ED
:10159000B8F1050F02D82D2A15D10DE0A2F13A08B5
:1015A0005FFA88F8B8F1050F0DD9A2F15B085FFA70
:1015B00088F8B8F1020F06D9A2F121085FFA88F87D
:1015C000B8F15D0F02D9AB4203D178E0AB4202D152
:1015D00075E067465F224E456DD809E0AB4241DCBD
:1015E0005B464FF00A0908264FF0100A674635E0BF
:1015F000A2F161085FFA88F8B8F1190F08D8203A0B
:10160000D2B2DDF8008048EA0A08CDF800800CE08C
:10161000A2F141085FFA88F8B8F1190F05D8DDF892
:10162000048048EA0A08CDF8048006F101085FFA50
:1016300088F80E447273B8F1060F07D881F80C8051
:1016400046460BE0674609E0674607E0464605E088
:101650005B464FF00A0908264FF0100A0133A342F7
:1016600086DB00E000274B7B202B20D057B1019870
:10167000009A00EA0203002B134618BF02230B70E6
:10168000012023E0012008700B7B19447E234B735B
:1016900031238B731AE0002018E0002016E00020B0
:1016A00014E0002012E0002010E000200EE00020F6
:1016B0000CE000200AE0B9F10A0F8FD102E0B9F185
:1016C0000A0FC5D14B7B202BDCD1F2E702B0BDE87D
:1016D000F00F70472DE9F0438BB0044600238DF8DE
:1016E00004308DF80530037813F0080F00F0828085
:1016F000837813F0020F7FD0016A31B1806800F067
:10170000E3FB0346002800F0888020460121FFF714
:10171000F7FA0546002871D0FFF780FE0746E5235B
:101720002B7000232370A56805F1240000F0DEFA79
:10173000002871D005F50C7000F0D8FA00286BD0A5
:10174000286803685B6898470346002865D0E278FC
:10175000002A62D001A82146FFF76EFE034600284A
:101760005BD0E378002B4BD001254FF000084FF001
:10177000E509A188491B01A84901FFF7E7FB0346DA
:1017800000284AD001A84146FFF7C0FB002839D005
:10179000C27A0F2A38D1027802F01F018D4235D16A
:1017A000417BB94234D180F80090A36893F82410AB
:1017B00041F0010183F8241012F0400F14D0A46806
:1017C00004F1240000F092FA48B104F50C7000F026
:1017D0008DFA30B1206803685B68984702E000200A
:1017E00000E00020034618E00135EDB2E378AB429B
:1017F000BFD20FE0002310E000230EE000230CE036
:1018000000230AE0002308E0002306E0002304E0B0
:10181000002302E0002300E0002318460BB0BDE8DF
:10182000F08300BF2DE9F84F04460F460E7B4FF0C2
:1018300002094FF07E0A01F10D085FFA89F3012BCE
:1018400003D8BA193033937324E0796809EB0103A4
:101850009BB2B86849B10246084412F8011B03EB79
:1018600043134B409BB28242F7D1032E28BF03267D
:10187000321DD2B2B2420DD903F00F011046092930
:1018800094BF30313731384441731B09013AD2B229
:10189000B242F1D8BB1983F80DA020460021FFF712
:1018A00055FB01254FF00B0B20462946FFF72EFB79
:1018B000014630B96078D0F1010038BF0020BDE8A2
:1018C000F88F037853B1C37A13F0080FECD1404678
:1018D0005A460EF0C9F90028E6D105E00120BDE81E
:1018E000F88F0020BDE8F88F09F101091FFA89F986
:1018F000B9F1640FA1D1F4E72DE9F04F8FB0099051
:101900000E4605920A9351680491337813F0700FD4
:1019100000F0D5810378002B40F0D381137813F0C9
:10192000030F09D001F10C027F4BA3FB02139B08AC
:1019300001335FFA83FA01E04FF0010A30460021DB
:10194000FFF704FB00270B9706973C46B84608971D
:101950004FF0010B059A0D32079220E04FF000087E
:101960001DE04FF000081AE04FF0000817E0069362
:101970004FF0000813E04FF0000810E0039C4FF018
:1019800000080CE0039C4FF0000808E04FF000084E
:1019900005E0CDF820B002E0DDF83480039C7369E7
:1019A000C3F34F1930465946FFF7B0FA054620B940
:1019B0007378002B00F09B8085E10378E52B00D045
:1019C00043B9002C08BF4F4654453CBF0134E4B234
:1019D00023B98CE0544538BF002401E0E52BBDD08D
:1019E0002E2BBED0EA7A0F2A5AD1B8F1000F09D1B6
:1019F00013F0400FD3D003F01F086B7B0B93CDF88F
:101A000018800AE006994A1ED2B206929342ABD1E0
:101A10006A7B0B998A42AAD10693069A531E03EB5E
:101A2000430203EB820203929146049B9342A2D9A4
:101A300002F10D010C91CDF83480904603940C46D0
:101A4000C8EB09012846C9B2FFF7D2FC049A9145B8
:101A500007D1DDF83480039C002818BF4FF0000840
:101A60009DE7FF288AD8C0B2A0F14103DBB2192B51
:101A70009CBF2030C0B209F1010305998A6812F8B1
:101A80000920A2F14101C9B219299CBF2032D2B26A
:101A900090427FF477AFA3423FF47EAF9946CFE701
:101AA00012F0080F7FF472AFB8F1000F0BD0069A56
:101AB000012A40F00A812846FFF7B0FC0B9B9842B0
:101AC0000FD000230CE1284607990B220EF0CCF82A
:101AD00000287FF464AF05990B7813F0010F7FF4B1
:101AE00058AF0A9A12F0800F00F0DF80EFE00A99F9
:101AF00001F04203422B40F0EC80002C18BFB946A5
:101B0000544522D2002530462946FFF7FFF930B967
:101B10007378002B40F0DF80544507D315E0013483
:101B2000E4B2A245EFD810E04FECC44E3046FFF7C8
:101B3000A1F80346002800F0D380B3681B79012B7D
:101B400003D81034E4B2A245F0D8089A3AB130462E
:101B50000599FFF767FE0346002800F0C180304674
:101B60004FEA4911FFF7F2F90346002800F0B88068
:101B70000AF1FF3818F0FF085DD04746002548F00D
:101B8000400A049CDDF814B0CDF810A03046294678
:101B9000FFF7BCF98146002800F09F80B36893F8F6
:101BA000242042F0010283F824204745DDF810A0EC
:101BB00018BFBA4680F800A00F23C37205730BF15B
:101BC0000D00FFF72BFC89F80D0089F81A5089F8F1
:101BD0001B50DBF808100AF01F0A0AF1FF3A0AEB63
:101BE0004A0E0AEB8E0E72462B468E44A24202D259
:101BF0001EF8030004E0A01A18BF6FF0000080B2C6
:101C0000D9B2042904D809EB4301A1F801000AE084
:101C10000A2903D809EB4301888004E010299CBFFE
:101C200009EB4301C880013301320D2BDED1013FA6
:101C300017F0FF07AAD17369C3F34F19304600218B
:101C4000FFF764F90446002849D0002120220EF055
:101C50009FF8059B53F80D1F5A68216062601A892E
:101C60009B7A2281A37205990B7803F018032373E2
:101C70001D4B1B682BB104F1100004F10E019847B5
:101C800007E021232374282363740023A37308230C
:101C9000E373238A63822383E389E382B36893F83F
:101CA000242042F0010283F82420CDF80080099816
:101CB00031464A460A9BFFF795F9034610E0002398
:101CC0000EE000230CE000230AE0002308E00023DC
:101CD00006E0002304E0002302E0002300E00023EC
:101CE00018460FB0BDE8F08F5C13FF1FF8B504462F
:101CF000037813F0010F1DD000F10C06436818683B
:101D000003689B68A168324698470546A8B12378C6
:101D100013F0020F09D06368186802681969A36894
:101D2000976819443246B84730B1237823F001034D
:101D3000237002E0012500E005462846F8BD00BFFB
:101D400070B504460D46164683688B4211D0FFF7E6
:101D5000CDFFB0B116F0040F08D1636818680368AE
:101D60001B68294604F10C02984760B100232370D8
:101D7000A56006F0030623781E43204600F80C6B8E
:101D800070BD002070BD002070BD00BF0239837996
:101D9000994040690844704770B504460D461646A0
:101DA000C379202B0FD1816900F50C7001EBD5119F
:101DB0000222FFF7C5FFD8B105F07F0550F82530A6
:101DC00023F070430EE0102B14D1C1F30721836977
:101DD00000F50C7019440222FFF7B2FF60B1EDB2BA
:101DE00030F81530E1698B4208D83360012006E0F5
:101DF000FF2004E0FF2002E0FF2000E0002040B2CE
:101E000070BD00BF38B50C461546C379202B0ED1E6
:101E1000816900F50C7001EBD4110322FFF790FFEC
:101E2000B0B104F07F0440F82450012038BD102BDD
:101E300010D1C1F30721836900F50C701944032206
:101E4000FFF77EFF40B1E4B220F81450012038BD06
:101E5000002038BD002038BD002038BD2DE9F041FC
:101E600082B0054690460F4609B9C66800E00E46A6
:101E700034460134EB699C4288BF0224284621463F
:101E800001AAFFF789FF002804DB08B1019B1BB101
:101E9000B442EED1002613E0284621466FF070428E
:101EA000FFF7B0FF064658B13FB1284639462246F3
:101EB000FFF7A8FF10B9064602E0EC60C8F8004042
:101EC000304602B0BDE8F081F0B583B005460C465F
:101ED00000272846214601AAFFF75EFF061E0EDBFB
:101EE000284621463A46FFF78DFF014640B1EB6890
:101EF0009C4238BFEC60019C002EEAD100E000213A
:101F0000084603B0F0BD00BF38B504460023C371D6
:101F10000122C260A06280F824304FF0FF32C2621A
:101F2000C4F8340280F83032C0F838220D46A9B126
:101F3000042971D8243019461A46FFF701FF0028FA
:101F40006CD000EB051595F8AE3105F5D47513F09E
:101F50007F0F65D1D5F80E500DB963E0002504F16F
:101F6000240029460022FFF7EBFE034600285BD041
:101F7000B0F80B20B2F5007F58D1027C022A57D16D
:101F8000C289002A56D0407B2071421E6271002215
:101F9000A27101280DD01146012203E012B9A171EE
:101FA000002038BD5200D2B20131C9B29042F5D101
:101FB000A171D98A01B9596A2161DA892A44A261D9
:101FC000B3F81100208102EB41022262B3F8111034
:101FD000490101F2FF1102EB61226261B3F81310B3
:101FE00001B9196AAA1A1144A27921FA02F2511C04
:101FF000E16140F6F4718A4203D80C23E3710020BA
:1020000038BD4FF6F4718A4291BF1023DB6A236218
:102010002023E371012038BD002038BD002038BDE9
:10202000002038BD002038BD002038BD002038BD5C
:10203000002038BD002038BD044B1B680448184000
:10204000D0F1010038BF0020704700BF30100B40B6
:1020500001000F00024B186800F00100704700BF3C
:1020600024100B40014B1878704700BF9C13FF1FD2
:1020700030B44FF47A7303FB00F0274B98423FD8FB
:10208000012326495B001A01B1FBF2F2904238D2DB
:10209000FF2BF7D935E021460132B5FBF1F4A04220
:1020A00005D2CC18102AF6D101E0194601224FF4CE
:1020B0007A7000FB01F11948B0FBF1F1184801609A
:1020C0001849086820F008000860086820F47F209C
:1020D00020F47F6040F46020DB0103F47F43184369
:1020E000013A1201D2B2104308600F4A136813F08C
:1020F000080FFBD00B4B1A6842F008021A6009E087
:102100000123064AB2FBF3F29042CED259000122DB
:10211000024DC1E730BC70474FA9AB000095BA0A29
:10212000A413FF1F2C100B4024100B4001207047FC
:1021300070B5044604F000FD0646064D04E004F0C8
:10214000FBFC801BA84203D8A0470028F7D170BD34
:10215000012070BD20A1070038B504460D46124885
:10216000FFF7E6FFC8B9114B1D6004331C6010482F
:10217000FFF7DEFF98B90F4A11680F4B1960196815
:1021800011601B6813F0010F0BD00B4B1B6813F48D
:10219000702F14BF0020012038BD002038BD002062
:1021A00038BD002038BD00BF5520000008100B408E
:1021B0003920000030100B408413FF1FF0B585B0AC
:1021C0000E461A4B1968FFF7C7FF074650B3184B66
:1021D0001B680093174B1B680193174B1B680293F6
:1021E000164B1B68039306F10F040023144D013CAA
:1021F0001A46002BB8BFDA1C22F0030204A91144CE
:1022000013EA050203D5013A62F003020132D2005B
:1022100051F8101C21FA02F2227001330F2BE6D183
:102220000023F373384605B0F0BD00BF7413FF1FE1
:1022300010100B4014100B4018100B401C100B40DA
:102240000300008008B50748074B1968FFF784FFB3
:1022500030B1064B186880F48070C0F3002008BDD0
:10226000012008BD00001A0D7413FF1F10100B4051
:1022700070B504460C4B186004F05EFC06460B4D2E
:102280000BE004F059FC801BA84204D90022064B45
:102290001A60012070BD05F079FFA0470028F0D139
:1022A000014B186070BD00BFA013FF1F20A10700E5
:1022B00008B50A48FFF7DCFF60B9094B1B6813F04B
:1022C000020F09D0064B1A68064B1A4214BF0020B1
:1022D000012008BD002008BD002008BD65200000C9
:1022E0008413FF1F00007F1138B504460D461548C2
:1022F000FFF71EFF38B12922134B1A70E722134B48
:102300001A6000231CE00122114B1A700022114BAD
:102310001A60114B1D6008331C60104A043B1A60A0
:102320000F4A34331A600F4A2C3B1A60FFF7C0FF84
:10233000034628B92321044A1170F121034A116090
:10234000184638BD452200004008FF1F8013FF1FBC
:102350009C13FF1F8413FF1F00100B40400001005F
:1023600002007F1111003A06F8B506460F461446E2
:102370001D4612F0030F00D143B96022174B1A70AB
:102380004FF4A572164B1A600020F8BD1548FFF7F0
:102390006FFF40B12922114B1A7040F24D12104BC1
:1023A0001A600020F8BD01220F4B1A7000220F4B5B
:1023B0001A600F4B1C600F4B1B7803B97F020E4B4A
:1023C0001F602D0445F40075043B1D600B4A343337
:1023D0001A602C3B1E60FFF76BFFF8BD4008FF1F23
:1023E0008013FF1F452200009C13FF1F8413FF1F53
:1023F00000100B407813FF1F08100B4002007F11E4
:1024000030B5ADF5017D144612F0030F10D118E080
:102410003122114B1A7040F25122104B1A600025E4
:1024200016E0204669464FF4007203F065FE0FE0A7
:102430000B486A460123FFF797FF05460028F0D1B5
:10244000E6E707480123FFF78FFF05460028DFD0A6
:1024500028460DF5017D30BD4008FF1F8013FF1F8A
:1024600011003A112DE9F04106460C46154612F0CE
:10247000030F10D0E3B101EB030832681768304650
:1024800021462A46B847024698B1013405F5007541
:102490004445F2D10DE00848FFF766FF024640B917
:1024A0003121064B197040F26321054B196000E0A1
:1024B00001221046BDE8F08137003A124008FF1FA4
:1024C0008013FF1F10B5ADF5007D0C4612F0030F11
:1024D00006D0684611464FF4007203F00DFE6A46BE
:1024E000084821460123FFF73FFF034630B9322158
:1024F000054A117040F2C921044A116018460DF5D1
:10250000007D10BD01003A184008FF1F8013FF1F17
:102510002DE9F04106460C46154612F0030F10D087
:10252000E3B101EB030832689768304621462A463A
:10253000B847024698B1013405F500754445F2D11B
:102540000DE00848FFF710FF024640B93321064B63
:10255000197040F2D921054B196000E001221046A4
:10256000BDE8F08127003A194008FF1F8013FF1FC4
:102570000023054A1360083A106804490860096896
:102580001160034A1370704738100B408413FF1F0B
:102590009C13FF1F2DE9F04790B000239E4A137053
:1025A0009E4A13709E4A13709E4A13709E4A116889
:1025B00041F04061116002F56A323032116841F435
:1025C00000311160994A13600432136004321360C1
:1025D0000432136004321360043213604FF08072CF
:1025E000934B1A601A46136813F0807FFBD14FF4A7
:1025F000C870FFF73DFD40F243438C4A136004323C
:1026000013604FF4886104321160043213600432A5
:10261000136004321360874A874B1A606022874B2D
:102620001A704FF40032A3F249331A60804B1A68D3
:1026300042F000621A601A46136813F0006FFBD173
:1026400000200146FFF788FD044638B92022734B6D
:102650001A7040F2CD127A4B1A603CE10A24794E8E
:102660004FF4D57530462946FFF776FD90B1764B8D
:102670001B68B3F5D57F08D02522684B1A7040F24D
:10268000D3126F4B1A60002425E10122654B1A70AA
:102690006E4F08E0013CE5D1624B1B78002B6B4F7D
:1026A00008BF4FF4401704F047FA8046684C694E63
:1026B000654D20460021FFF74FFD58B130463946A1
:1026C000FFF74AFD30B104F037FAC8EB0000624B67
:1026D000984208D94322514B1A704FF4EF72584B6D
:1026E0001A600024F7E02B68002BE2DA564B1968D9
:1026F0005A4A11601B6813F0804F02D00122484BE8
:102700001A7057480021FFF727FD044638B92122E7
:10271000424B1A704FF4F472494B1A60DBE0514897
:102720000021FFF719FD044638B922223B4B1A70ED
:1027300040F2EB12424B1A60CDE0434B1B681B0C7E
:102740001B04494A136049484949FFF737FD0446CD
:1027500038B92622314B1A704FF4F872384B1A6090
:10276000B9E044484449FFF729FD044638B9272217
:102770002A4B1A7040F2F312314B1A60ABE03F481B
:10278000394B1968FFF7E8FC044638B92422234B7B
:102790001A704FF4FB722A4B1A609CE02C48324BA3
:1027A0001968FFF7D9FC28B135480221FFF7D4FC9E
:1027B000044640B94022194B1A704FF4FD72204B69
:1027C0001A60002487E02F4B1A6822F006021A6074
:1027D0001A6842F002021A604FF010121C331A609D
:1027E0006FF07F406946FFF77FFD90B19DF80D3097
:1027F00013F0020F0DD024486946FFF775FD40B174
:102800009DF8103003F00F03012B08BF4CF250303D
:102810003CD046F2A81039E08813FF1F4008FF1F84
:102820007813FF1F6013FF1F00D8004000D0044042
:102830002C100B400B007F1134100B4051E400E0D2
:102840008013FF1F00001A0810100B4000003040DA
:1028500000001A370000022920A107007C13FF1F87
:102860000000090200001A037413FF1F0000090989
:102870008C13FF1F0000090A6413FF1F00001B07D1
:1028800000001A0628100B40F1FFFF80DFF860A05F
:102890000023CAF80030DFF85C90C9F80030DFF898
:1028A0005880C8F800300E4F3B600E4E33600E4D1E
:1028B0002B60FFF7DDFB40F24343CAF80030C9F854
:1028C00000304FF48862C8F800203B6033602B6012
:1028D0000122064B1A70204610B0BDE8F08700BFF9
:1028E0000CD0044010D0044014D004408813FF1FC3
:1028F00000D0044004D0044008D00440014B0360E1
:10290000704700BF70550100704700BF014B036066
:10291000704700BF7055010010B50446024B0360BC
:1029200005F03AF8204610BD7055010010B5044678
:10293000024B036005F030F8204610BD70550100D1
:1029400038B505460C460846002128220DF020FA2D
:10295000204609490B220DF0D9FE0023E372012223
:10296000E260AA6822610322626163620023A361BC
:10297000E361024B236238BD885501000AD7233C2E
:1029800010B4034C0460816042715DF8044B7047E1
:102990009855010070B50E461546094C4179204600
:1029A00000F03EFC2046314600F05AFA2046294607
:1029B00000F056FA204600F057FD012070BD00BF20
:1029C0002014FF1F08B50A4601733D21FFF7E2FFFF
:1029D0001E2004F0D5F808BD70B504460E46057BF0
:1029E0000021FFF7EFFF192004F0CAF82046072165
:1029F0000022FFF7CFFF2EB120463F218022FFF7B4
:102A0000C9FF04E020463F210022FFF7C3FF0A2050
:102A100004F0B6F820462946FFF7D4FF142004F04E
:102A2000AFF870BD70B505460E460B4C204669796F
:102A300000F0F6FB2046314600F012FA204600F086
:102A400013FD20466979012200F008FD204600F0C0
:102A500033FAC0B270BD00BF2014FF1FF8B50446A2
:102A60000F46254800F0D0FA20460021FFF7DAFF94
:102A7000A02809D04FF47A7004F082F82046002193
:102A8000FFF7D0FFA02835D120460021FFF79AFF9D
:102A900020463F212022FFF77DFF00250A2602E085
:102AA000304604F06DF820462946FFF7BBFFA0280A
:102AB000F6D1322004F064F820463E210022FFF7D0
:102AC00069FF0A2004F05CF8204607210022FFF786
:102AD00061FF20463F210022FFF75CFF0A2004F03F
:102AE0004FF820463946FFF76DFF142004F048F8F0
:102AF0000120F8BD0020F8BD2014FF1FF8B50F46D7
:102B000016461D46069C3521FFF78CFF0FB1830941
:102B10003B7016B1C0F30113337015B1C0F38103DC
:102B20002B7014B100F003002070F8BD2DE9F041C6
:102B300007460E4690461D46104C2046797900F017
:102B40006FFB2046314600F08BF9204600F08CFCEC
:102B5000204679792A4600F081FC65B108F1FF34FE
:102B60006E1E58FA86F6054D284600F0A5F904F8C1
:102B7000010FB442F8D10120BDE8F0812014FF1FFD
:102B8000F0B583B004460E461546002118220DF01C
:102B9000FFF800230093ADF80430304629466A461A
:102BA0000623FFF7C3FF9DF801009DF8003043EABC
:102BB00000209DF803209DF8023043EA02279DF88B
:102BC00005209DF8043043EA0226083D262D00F238
:102BD0008580DFE805F068838383838314838383A0
:102BE00083833083838383834C838383838383833F
:102BF000838383838383688383838383680000B2B2
:102C00000BF07AFD0022374B0BF0DCFDC4E900012C
:102C100038B20BF071FD0022324B0BF0D3FDC4E94A
:102C2000020130B20BF068FD00222E4B0BF0CAFD02
:102C3000C4E9040152E000B20BF05EFD00222A4B11
:102C40000BF0EAFEC4E9000138B20BF055FD00229A
:102C5000254B0BF0E1FEC4E9020130B20BF04CFD54
:102C60000022214B0BF0D8FEC4E9040136E000B28B
:102C70000BF042FD00221B4B0BF0A4FDC4E9000148
:102C800038B20BF039FD0022164B0BF09BFDC4E966
:102C9000020130B20BF030FD0022124B0BF092FD1E
:102CA000C4E904011AE000B20BF026FD00220F4B2C
:102CB0000BF0B2FEC4E9000138B20BF01DFD00229A
:102CC0000A4B0BF0A9FEC4E9020130B20BF014FD6F
:102CD0000022064B0BF0A0FEC4E90401204603B01D
:102CE000F0BD00BF0000B03F00208C400000594004
:102CF00070B588B005460C462426084600213246A9
:102D00000DF046F82660AB6863600323A3600E4BAA
:102D10001B680193019B236102A829461A22FFF731
:102D20002FFFDDE902010CF02FF86061DDE90401FD
:102D30000CF02AF8A061DDE906010CF025F8E0614D
:102D4000012008B070BD00BF541BFF1F284B1A683C
:102D500042F480521A60274B274A1A60274ADA60E9
:102D600002F180421A61264A1A60264B1B7813F042
:102D7000030302D0012B05D009E04FF41072224B5F
:102D80001A6008E04FF40072204B1A6003E04FF421
:102D900000721F4B1A601B4B1B7813F00C0302D000
:102DA000042B05D009E04FF400721A4B1A6008E0BA
:102DB0004FF40072184B1A6003E04FF40072174B87
:102DC0001A60104B1B7813F0300302D0102B05D083
:102DD00009E04FF41072124B1A6070474FF4007202
:102DE000104B1A6070474FF400720F4B1A60704717
:102DF0003C80044000C0024001401F000110003828
:102E000000001F80491CFF1F18B0044008C0044088
:102E1000409004401CB004400CC004404490044066
:102E200014B0044004C004403C900440044BD878E3
:102E3000C0B2044B1B6898421CBF024B186070471D
:102E4000006006404408FF1F08B5FFF7EFFF10F0D1
:102E5000020FFAD00222014BDA7008BD0060064072
:102E60000B4B1B7813B90B4B1B7873B10A4B1B78B8
:102E7000202B03D90123037100207047581C064AF8
:102E80001070064AD154012070470020704700BFDF
:102E90003214FF1FF413FF1F3314FF1FD013FF1F43
:102EA000704700BF024B1878024B1B78C01A70475E
:102EB0003114FF1F3014FF1F074B1B78074A12788D
:102EC0009A4205D9591C044A1170054AD05C7047D2
:102ED0004FF0FF30704700BF3014FF1F3114FF1F49
:102EE000F813FF1F054B1B78054A12789A4286BFDC
:102EF000044AD05C4FF0FF30704700BF3014FF1F12
:102F00003114FF1FF813FF1F08B5104BDB7813F0C7
:102F1000200F0CD1122003F01DFB0D4B1B689BB141
:102F200000210C4A11700C4A1078984708BD0B4AD2
:102F300013780133DBB21370012B02D8084B1B78D6
:102F400013B9122003F006FB08BD00BF0060064065
:102F5000CC13FF1F3014FF1F3114FF1F1C14FF1F61
:102F6000F413FF1F38B514460D4B1B7813B90D4BE6
:102F70001B7893B10C4B1D78C5F12103A34202D2FB
:102F8000012202711C4609482844224603F0B4F885
:102F90002544054B1D70204638BD002038BD00BFBC
:102FA0003214FF1FF413FF1F3314FF1FD013FF1F32
:102FB000002202714FF47A7181600273014A02604B
:102FC000704700BFB85501000B4B1B6813F0400F52
:102FD00010D00A4B994203D82C22094B5A7006E0B4
:102FE000084B994294BF1C221222054B5A700422AE
:102FF000034B9A71704700BF348004407F1A06006B
:10300000006006403F420F0008B500232C4A1370B1
:103010002C4A116841F0400111602B4A93702B4BF0
:103020001B78122B04D14FF41972294B1A601AE045
:10303000112B04D14FF41972264B1A6013E0222B86
:1030400004D140F26452244B1A600CE0082B04D1E6
:1030500040F26472214B1A6005E0302B03D14FF42B
:1030600019721F4B1A601F4B1B78132B04D14FF49E
:1030700019721D4B1A601AE0102B04D14FF419720B
:103080001A4B1A6013E0212B04D140F26452184B02
:103090001A600CE0072B04D140F26472154B1A60E1
:1030A00005E02F2B03D14FF41972134B1A6013490B
:1030B000FFF78AFF044B20225A7180229A7008BDC4
:1030C000F413FF1F34800440006006404108FF1FD6
:1030D0000CA0044004A0044064D004400CC0044090
:1030E00024C004404808FF1F08A0044000A004407A
:1030F00060D0044008C0044020C00440A086010005
:1031000008B53D4BDB78DBB213F0100F06D0102171
:10311000394AD17013F0400F03D108BD13F0400FAE
:103120002CD013F0040F1BD00023344A1370344A00
:103130001370344B1B681BB19847314B1B782BB96C
:1031400001222F4B1A7000222F4B1A702A4BD022CB
:103150009A702D4A12781A7101222C4B1A7009E0CC
:103160000122264B1A700022294B1A70224BC022D2
:103170009A701B790222204BDA7008BD1E4A9278A1
:1031800012F0100F1CD013F0010F14D11F4B1B783D
:103190001B4A12789A4207D9591C1C4A11701A4AC4
:1031A000D25C154B1A7102E00022134B1A71D02227
:1031B000114B9A701BE0104BC0229A701B7916E0DD
:1031C0000022144B1A7012201349032203F08EFAC6
:1031D000094B1B79DAB20E4B1B781F2B07D8074916
:1031E000097821B1581C0A4908700C49CA540222B6
:1031F000014BDA7008BD00BF00600640C913FF1F15
:103200003314FF1F1814FF1FD013FF1F3414FF1FA8
:103210003114FF1F1C14FF1F092F0000F813FF1F9C
:103220004900044B19700123034A1370034A1370B9
:10323000704700BFD013FF1F3214FF1F3314FF1F4E
:103240002DE9F04182B08846374B1222DA709B7824
:1032500013F0200F03D0B422334B9A701DE0334B90
:103260001B680093009D314C0CE023680193019B87
:103270005B1B0F2B06D92C4B00229A7080229A7070
:1032800004204EE0FFF7D2FD10F0200FEDD1002218
:10329000274B1A70B022244B9A70FFF7C7FD10F02D
:1032A000200FFAD0234B1B787BB30024224E1E4DF7
:1032B000204F335D2B71FFF7B9FD10F0020F02D1E3
:1032C00010F0200FF7D10223EB70FFF7AFFD10F0E5
:1032D000100F04D08022144B9A70042018E010F0D4
:1032E000200F04D18022104B9A70042010E010F0BF
:1032F000010F04D0002C0CBF022003200BE001348E
:10330000E4B23B78A342D4D801E0002000E00020E2
:10331000B8F1000F02D08022034B9A700022074BB5
:103320001A7002B0BDE8F08100600640541BFF1F18
:10333000F413FF1F3314FF1FD013FF1F3214FF1F9E
:103340002DE9F8430D461446984600233E4A137073
:103350003E4A13703E4B1222DA709B7813F0200F16
:1033600003D0B4223A4B9A700AE0FFF75FFD10F0E9
:10337000200FFAD10022374B1A70B022344B9A70CA
:103380006D0045F00105EDB2314B1D71FFF75CFD9D
:10339000FFF74CFD10F0110005D080222C4B9A70E5
:1033A0000020BDE8F88344B9B8F1000F0CBFA0229B
:1033B0008022274B9A70BDE8F883012C04D1244B5E
:1033C000A8229A701B7938E0214BA0229A701B79B1
:1033D000012C32D900251E4E4FF0A8091E4FFFF7D1
:1033E00033FD013CE4B2012C08BF86F802901F2D8A
:1033F00004D86A1C33797B55D5B200E03379012CAF
:10340000EDD1FFF721FDB022114B9A701F2D07D887
:103410002B465D1CEDB20E4A11790F4AD15401E0E2
:103420000B4B1B79B8F1000F02D08022084B9A7029
:10343000064B1D702846BDE8F883FFF705FDB02256
:10344000034B9A700023E4E73014FF1F3114FF1F71
:1034500000600640F413FF1FF813FF1F08B5012397
:10346000FFF76EFF08BD00BF08B50121FFF7E8FEBA
:1034700008BD00BF08B50248FFF79AFD08BD00BFB0
:103480002014FF1FFF22027342738273C2737047BE
:103490002DE9F8430446884690F90F30B3F1FF3F19
:1034A0000DD1184B4FF00042DA6259631A46D36AC5
:1034B000002BFCDA134B986BC0B2BDE8F8830725EC
:1034C0000026B14601277600F6B2E07B494603F0BC
:1034D0009BF807FA05F3607B03EA080103F094F810
:1034E000E07B394603F090F8A07B03F0B1F808B117
:1034F00046F00106013DB5F1FF3FE4D13046BDE89D
:10350000F88300BF00C00240F8B504460E461546D9
:1035100090F90C30B3F1FF3F10D14D4F3846217870
:10352000FFF77EFE38463146FFF79AFC38462946BB
:10353000FFF796FC3846FFF797FFF8BD90F90F307C
:10354000B3F1FF3F48D1434B1B78002B35D072B607
:10355000404B1B7813F0010F07D03F4B19683F4ACF
:1035600012680A403E490A601A603A4B1B7813F011
:10357000020F07D03B4B1968384A52680A40384955
:103580004A601A60334B1B7813F0040F07D0364B98
:103590001968324A92680A4031498A601A602D4B94
:1035A0001B7813F0080F07D0304B19682B4AD268EC
:1035B0000A402B49CA601A6062B62D4BDA682D4B5F
:1035C0009A4209D02A4B2C4A1A602A4ADA6002F140
:1035D00080421A61294A1A60207B002103F014F806
:1035E000204606F07F01FFF753FF20462946FFF7EC
:1035F0004FFF207B012103F007F894F90F30B3F15E
:10360000FF3F24D1134B1B780BB313F0010F03D0F2
:10361000134B1A681A4B1A600E4B1B7813F0020FEB
:1036200003D00F4B5A68174B1A600A4B1B7813F0E4
:10363000040F03D00A4B9A68134B1A60054B1B7892
:1036400013F0080F03D0064BDA68104B1A60F8BD70
:103650002014FF1FC813FF1F80E100E0A813FF1F05
:10366000B813FF1F84E100E088E100E08CE100E096
:1036700000C002400650003801401F0000001F80BB
:1036800000E100E004E100E008E100E00CE100E01E
:1036900070B504460D4690F90C30B3F1FF3F15D1DB
:1036A000504E30462178FFF7BBFD30462946FFF7E4
:1036B000D7FB3046FFF7D8FE304621780122FFF7CE
:1036C000CDFE3046FFF7F8FBC5B289E090F90F3028
:1036D000B3F1FF3F48D1444B1B78002B35D072B675
:1036E000414B1B7813F0010F07D0404B1968404A3B
:1036F00012680A403F490A601A603B4B1B7813F07E
:10370000020F07D03C4B1968394A52680A403949C0
:103710004A601A60344B1B7813F0040F07D0374B04
:103720001968334A92680A4032498A601A602E4BFF
:103730001B7813F0080F07D0314B19682C4AD26858
:103740000A402C49CA601A6062B62E4BDA682E4BCA
:103750009A4209D02B4B2D4A1A602B4ADA6002F1AB
:1037600080421A612A4A1A60207B002102F04CFF35
:10377000204645F08001FFF78BFE20460021FFF731
:1037800087FE0546207B012102F03EFF94F90F30B1
:10379000B3F1FF3F24D1144B1B780BB313F0010F8F
:1037A00003D0144B1A681B4B1A600F4B1B7813F095
:1037B000020F03D00F4B5A68174B1A600A4B1B7845
:1037C00013F0040F03D00B4B9A68144B1A60064B8E
:1037D0001B7813F0080F03D0064BDA68104B1A6001
:1037E000284670BD2014FF1FC813FF1F80E100E0B2
:1037F000A813FF1FB813FF1F84E100E088E100E079
:103800008CE100E000C002400650003801401F007B
:1038100000001F8000E100E004E100E008E100E0BA
:103820000CE100E070B504460D4690F90C30B3F1A0
:10383000FF3F1BD1574E30462178FFF7F1FC304651
:103840002946FFF70DFB3046FFF70EFE3046217884
:103850000222FFF703FE3046FFF72EFB05463046F7
:10386000FFF72AFB40EA052085B290E090F90F307F
:10387000B3F1FF3F48D1484B1B78002B35D072B6CF
:10388000454B1B7813F0010F07D0444B1968444A8D
:1038900012680A4043490A601A603F4B1B7813F0D4
:1038A000020F07D0404B19683D4A52680A403D4913
:1038B0004A601A60384B1B7813F0040F07D03B4B5B
:1038C0001968374A92680A4036498A601A60324B52
:1038D0001B7813F0080F07D0354B1968304AD268AF
:1038E0000A403049CA601A6062B6324BDA68324B1D
:1038F0009A4209D02F4B314A1A602F4ADA6002F1FE
:1039000080421A612E4A1A60207B002102F07CFE60
:10391000204645F08001FFF7BBFD20460021FFF760
:10392000B7FD054620460021FFF7B2FD40EA05201D
:1039300085B2207B012102F067FE94F90F30B3F1CC
:10394000FF3F24D1144B1B780BB313F0010F03D0AE
:10395000144B1A681B4B1A600F4B1B7813F0020FA5
:1039600003D0104B5A68184B1A600B4B1B7813F09E
:10397000040F03D00B4B9A68144B1A60064B1B784C
:1039800013F0080F03D0074BDA68114B1A60284672
:1039900070BD00BF2014FF1FC813FF1F80E100E0AF
:1039A000A813FF1FB813FF1F84E100E088E100E0C7
:1039B0008CE100E000C002400650003801401F00CA
:1039C00000001F8000E100E004E100E008E100E009
:1039D0000CE100E008B5FFF725FF031243EA0020E1
:1039E00080B208BD10B504468821FFF7F3FF20829E
:1039F00020468A21FFF7EEFF608220468C21FFF7E8
:103A0000E9FFA08220468E21FFF7E4FFE0822046F6
:103A10009021FFF7DFFF208320469221FFF7DAFF96
:103A2000608320469421FFF7D5FFA083204696218E
:103A3000FFF7D0FFE08320469821FFF7CBFF2084DB
:103A400020469A21FFF7C6FF608420469C21FFF79D
:103A5000C1FFA08420469E21FFF7BCFFE08410BD7B
:103A600038B5044615460170007B43B2B3F1FF3F01
:103A700003D11848FFF7C8FA19E0012102F0C4FD8C
:103A8000207B012102F0F2FDE07B43B2B3F1FF3F66
:103A900002D1FFF75BF90AE0012102F0E7FD607B4C
:103AA000012102F0E3FDA07B002102F0DFFD2046B2
:103AB000D021FFF7EDFDA84209D12046FFF792FF84
:103AC0002046F4213F22FFF71FFD012038BD0020D2
:103AD00038BD00BF2014FF1F70B504460D4690F995
:103AE0000C30B3F1FF3F1ED15A4E30462178FFF71C
:103AF00097FB30462946FFF7B3F93046FFF7B4FC91
:103B0000304621780322FFF7A9FC3046FFF7D4F9AD
:103B100005023046FFF7D0F9284305023046FFF78B
:103B2000CBF9054394E090F90F30B3F1FF3F48D152
:103B3000494B1B78002B35D072B6474B1B7813F0DE
:103B4000010F07D0454B1968454A12680A4045499C
:103B50000A601A60404B1B7813F0020F07D0424BEB
:103B600019683F4A52680A403E494A601A603A4B17
:103B70001B7813F0040F07D03C4B1968384A926841
:103B80000A4038498A601A60334B1B7813F0080FDB
:103B900007D0374B1968324AD2680A403149CA60A7
:103BA0001A6062B6334BDA68334B9A4209D0314B14
:103BB000324A1A60304ADA6002F180421A61304AB1
:103BC0001A60207B002102F01FFD204645F0800195
:103BD000FFF75EFC20460021FFF75AFC0502204655
:103BE0000021FFF755FC2843050220460021FFF77E
:103BF0004FFC0543207B012102F006FD94F90F30B4
:103C0000B3F1FF3F24D1144B1B780BB313F0010F1A
:103C100003D0144B1A681B4B1A600F4B1B7813F020
:103C2000020F03D00F4B5A68174B1A600A4B1B78D0
:103C300013F0040F03D00B4B9A68144B1A60064B19
:103C40001B7813F0080F03D0064BDA68104B1A608C
:103C5000284670BD2014FF1FC813FF1F80E100E03D
:103C6000A813FF1FB813FF1F84E100E088E100E004
:103C70008CE100E000C002400650003801401F0007
:103C800000001F8000E100E004E100E008E100E046
:103C90000CE100E010B50446FA21FFF71DFF228A6F
:103CA000C2EB20235200C2EBE010B4F9122002FB59
:103CB00000F003FB03F31B13B4F9142002FB03F31E
:103CC0009B1303EBE020A06000EB8000803000122B
:103CD00007EE900AB8EEE70ADFED027A80EE270AD7
:103CE00010BD00BF0000C8422DE9F04F83B08046F0
:103CF000FFF7D0FF4046F721FFF7EEFE8446D8F8E5
:103D00000800C117B0F5FA3041F1FF3100FB01F3B3
:103D1000A0FB00AB0BEB430BB8F82090B8F81E30BB
:103D20000093B8F81C400194B8F91820D31702FB8F
:103D300001F400FB0344A2FB002323441F0347EAD2
:103D400012571603B8F91A40E5170AFB05F304FBEE
:103D50000B33AAFB04451D44220A42EA05622B12DA
:103D6000921943EB0703003243F50043B8F816609D
:103D7000A2FB064506FB03556A10EB1752EA030641
:103D800000F094800FFA89F6F7170AFB07F406FB98
:103D90000B44AAFB06ABA344009E36B2F71706FB02
:103DA00001F100FB0715A6FB000129444D0445EA7B
:103DB000D03544041AEB040A4BEB050B4FEA2C1CDC
:103DC000CCF5801C4FEAEC71CD0745EA5C054FEA63
:103DD000CC74019E36B23046C700002616EB0A06A8
:103DE00047EB0B07A41B65EB0705261945EB0507F9
:103DF000361947EB0507B90141EA9661B00136185B
:103E000047EB0107B90041EA9671B000061941EB92
:103E10000507B90041EA9671B000001941EB0501B0
:103E20000BF010F9420B42EAC1424B13B8F926409D
:103E3000E51704FB03F602FB0566A4FB02453544C7
:103E400002FB05F504FB0355A2FB04232B44540E8F
:103E500044EAC3145D16241845EB0105B8F9242083
:103E6000D31702FB01F100FB0313A2FB000119446D
:103E7000C20C42EA4132CB14121943EB0503100A7B
:103E800040EA03601912B8F92240E5172B0143EA12
:103E900014732201801841EB03010BF095F89FED9C
:103EA000060A07EE900A27EE800A01E09FED030A5A
:103EB00003B0BDE8F08F00BF0000803B00000000B1
:103EC00008B52DED028BB0EE408AFFF70DFFDFED58
:103ED000167A80EE270A80EE080A10EE100A0AF021
:103EE0001DFC41EC100B9FED0C1B07F0EFFC0020BC
:103EF0000E4953EC102B0AF0B1FA09A3D3E90023C1
:103F00000AF060FC0AF040FF00EE100ABDEC028BE4
:103F100008BD00BFAFF3008000000020C05BC83FB9
:103F20000000000040A5E5400000C8420000F03F4E
:103F3000014B0360704700BF7055010070B584B03D
:103F400004460E4600238DF80F30594D2B685B68F0
:103F50002846584913229847284603F047FD002E6B
:103F60006AD020460C21FEF779FD60B9002384F861
:103F70007D312B685B6828464F49132298472846B5
:103F800003F034FD58E0012684F87D612046314677
:103F9000FEF722FD464D2B685B68284647491222F2
:103FA0009847284603F022FD0DF10F0300932046A9
:103FB00003A90DF10D020DF10E03FEF79FFD2B6815
:103FC0005B6828463E491122984728469DF80C1008
:103FD0000A22002303F030FD2B685B68284639492C
:103FE0000622984728469DF80D100A22002303F068
:103FF00023FD2B685B6828463349072298472846EB
:104000009DF80E100A22002303F016FD2B685B6852
:1040100028462E490522984728469DF80F100A2267
:10402000002303F009FD2B685B68284628493246C7
:104030009847284603F0DAFC1D4D2B685B6828463C
:10404000244913229847284603F0D0FC04F11000BD
:1040500077215822FFF704FD48B92B685B68284692
:104060001D4913229847284603F0C0FC17E001239E
:1040700084F87C310E4D2B685B6828461749122264
:104080009847284603F0B2FC09E040F8082C40F8B5
:10409000042C026041601430013BF6D105E004F1CC
:1040A00058000F2300220021EFE704B070BD00BFCD
:1040B0004C1CFF1FD0550100E4550100F8550100CC
:1040C0000C56010020560100285601003056010010
:1040D000A0540100385601004C5601006056010002
:1040E00070B52DED028B0646154C164D9FED168AC8
:1040F0001EE023685B68204629461222984706F195
:104100001000B0EE480AFFF7DBFE10EE100A0AF0CE
:1041100005FB02460B4620460C4903F07FFC236852
:104120005B6820460A4901229847204603F05EFC5E
:1041300003F01EFB0028DCDDBDEC028B70BD00BF70
:104140004C1CFF1FB456010000507D44C8560100AE
:10415000A0540100F0B597B00546234C234F244EE0
:104160003CE004A829461A22FEF70AFD0AA82946BF
:104170002822FEF705FD10A829462E22FEF700FD95
:10418000DDE90623CDE90023DDE90823CDE902239B
:1041900020463946DDE9042303F040FCDDE9122323
:1041A000CDE90023DDE91423CDE902232046314681
:1041B000DDE9102303F032FCDDE90C23CDE9002317
:1041C000DDE90E23CDE9022320460A49DDE90A2371
:1041D00003F024FC4FF4FA6002F0D2FC03F0C8FABA
:1041E0000028BEDD17B0F0BD4C1CFF1FD0560100EB
:1041F000F45601001C5701002DE9F04184B08046BF
:1042000000258DF80F50344C23685B6820463349F5
:1042100016229847204603F0E9FB314F314E0DF14D
:104220000F030093404603A90DF10D020DF10E039B
:10423000FEF764FC23685B682046394611229847E4
:1042400020469DF80C100A22002303F0F5FB23689A
:104250005B68204631460622984720469DF80D109F
:104260000A22002303F0E8FB23685B6820461E490E
:104270000722984720469DF80E100A22002303F0DB
:10428000DBFB23685B6820461849052298472046D7
:104290009DF80F100A22002303F0CEFB23685B6811
:1042A0002046134901229847204603F09FFB9DF8C2
:1042B0000E30022B07D901354FF4967002F060FCE6
:1042C000042DACDD05E04FF4967002F059FC00259A
:1042D000A5E704B0BDE8F0814C1CFF1F4457010066
:1042E0000C560100205601002856010030560100EE
:1042F000A054010000B585B000238DF80F300DF1FA
:104300000F03009303A90DF10D020DF10E03FEF74B
:10431000F5FB05B05DF804FB10B52DED068B8CB0F8
:104320000446684621462E22FEF72AFC06A82146AE
:104330002822FEF725FCDDE900010AF025FD09EE43
:10434000100ADDE902010AF01FFD08EE900ADDE91E
:1043500004010AF019FD08EE100ADDE906010AF071
:1043600013FD0AEE900ADDE908010AF00DFD0AEEE0
:10437000100ADDE90A010AF007FD09EE900A29EEAC
:10438000097A68EEA87A37EE277A68EE087A77EE2F
:10439000277A17EE900A0AF0C1F941EC100B9FED55
:1043A0001A1B07F093FA1A4B03F2BC4282ED009AF3
:1043B00003F59862C2ED008A03F2C44282ED008ADE
:1043C00003F59962C2ED00AA03F2CC4282ED00AA85
:1043D00003F59A63C3ED009A2046FFF78BFF29EEA1
:1043E0002A0A68EE8A8A30EE280A28EE298A30EEF8
:1043F000080ADFED087A80EE270A0CB0BDEC068BC8
:1044000010BD00BFAFF30080000000000000E03FDF
:10441000B815FF1FC3F51C4184B030B58DB00546FB
:1044200011AC84E80E00684629461A22FEF7A8FB64
:1044300006A829461422FEF7A3FB254C04F59C652B
:10444000DDE900010AF0A0FC286004F59D65DDE9C6
:1044500002010AF099FC286004F2E445DDE9040158
:104460000AF092FC286004F2D445DDE906010AF066
:104470008BFC286004F2DC45DDE908010AF084FCCD
:10448000286004F59B65DDE90A010AF07DFC2860DF
:10449000149BC4F8A43404F59563119A1A6004F2CD
:1044A000AC43129A1A6004F59763139A1A6004F2E7
:1044B000EC43169A1A6004F59E63179A1A6004F288
:1044C000F444189B23600DB0BDE8304004B0704741
:1044D000B815FF1F13680B6053684B6093688B60BF
:1044E000D368CB6013690B61704700BF84B070B5AF
:1044F0002DED028B054607A880E80E0005F5BE717C
:1045000005F15006A1F1140428462246FFF7E2FF08
:104510002146B442F6D100230B93284605F1500101
:1045200007AAFFF7D7FF9DED0A6AF8EE466A05F580
:10453000BC720F239FED447A12ED016AF8EE467AC1
:1045400077EEE67AC7EE877A17EE901A42F81419DA
:10455000013BF1D105F160030022DFED3C6AB0EED2
:10456000665AF0EE665AB0EE666AD3ED007A36EE21
:10457000276A27EEA77A75EE875A13ED047A35EE8F
:10458000075A67EE877A76EEA76A013214330F2A4C
:10459000EBD126EE058AF2EE0E7A66EEA76A38EEC9
:1045A000668A26EE066A65EEA77A76EE677A88EE68
:1045B000278A274B83ED008A05F174000823DFED7D
:1045C000237AF6EE005A50ED076A10ED027A76EE85
:1045D000876A66EEA56A10ED056A0246143092ED10
:1045E000007A36EE477A26EE877A77EE877A013BB5
:1045F000E9D1184BC3ED007A38EE278AB0EE480AAD
:1046000007F04AF890B1DFED147AB4EEE78AF1EEE4
:1046100010FA0EDCFAEE047AB4EE678AF1EE10FAC4
:10462000DFED0A7A48BFB0EE678A04E09FED078AA3
:1046300001E09FED068AB0EE480ABDEC028BBDE8B2
:10464000704004B0704700BF0024744900000000AF
:10465000681AFF1F6C1AFF1F0000964330B585B023
:1046600005460C4610309FED1B0AFFF729FCD5EDDF
:10467000117A30EE670A84ED000A95F848304BB1A4
:10468000154B1B680393039B4FF47A7202FB03F3F1
:10469000E36002E002F050FAE060E3680F4A934200
:1046A00084BF012385F848302846FFF735FE84EDA6
:1046B000020A04F10C0393E803008DE8030094E878
:1046C0000E002846FFF712FF84ED010A012005B015
:1046D00030BD00BF00507D44541BFF1F00EA56FA56
:1046E00038B5054610309FED0D0AFFF7E9FB85ED63
:1046F000110A0B4C23685B6820460A49162298472A
:10470000686C0AF00BF841EC100B2046022103F014
:10471000DBF9204603F06AF938BD00BF00507D4444
:104720004C1CFF1F5C57010010B501F087FD0C4CBD
:1047300020464FF0FF312822FEF722F904F1100045
:10474000FEF7A0FE002384F8483084F87C3184F81A
:104750007D3120460349044A0AF050FF10BD00BFD6
:104760003814FF1F313F00003C08FF1F037C13F08B
:10477000080F04D0C26A436AD01A02D470470020DE
:1047800070476FF00040704708B51030FCF73EFDF1
:1047900008BD00BF00B583B002AB03F8011D1030A7
:1047A00019460122FCF732FD03B05DF804FB00BF9F
:1047B00008B51030FCF76AFC08BD00BF08B5103022
:1047C000FCF790FB08BD00BF00B583B010300DF1C1
:1047D00007010122FCF7C2FA01280CBF9DF807006F
:1047E0004FF0FF3003B05DF804FB00BFF0B58FB0B1
:1047F000044600F594652846FDF7CCFE00B3264636
:1048000046F8405F04F27C473846FCF783FC3046AC
:104810000121FDF779FB20B930460021FDF774FB3B
:1048200070B138463146FCF77DFA034640B194F842
:104830007C2412F0700F1ABF2D4A176000236BB949
:104840002C4D2B685B6828462B4914229847284634
:1048500003F0CCF8002384F83C3046E0254D2B686B
:104860005B682846254913229847284603F0BEF87E
:10487000012384F83C3000228DF814208DF8152097
:104880008DF808204FF47A7103918DF810201C4A9E
:10489000019205A839461B4AFCF744FC9DF81430E8
:1048A0003BB113F0080F04D00C9A0A9BD31A17D40B
:1048B000B3B9104C23685B68204613491922984706
:1048C00023685B6820460F491122984723685B687C
:1048D00020460E4917229847204603F087F804E047
:1048E0000C9BA36305A8FCF715FC0FB0F0BD00BF3F
:1048F0005813FF1F4C1CFF1F98570100B0570100B1
:1049000080570100C4570100D8570100F457010037
:10491000F0B599B0064600238DF83C308DF83D3057
:104920008DF830304FF47A720D928DF838305C4B40
:104930000B930FA806F27C415A4A6323FCF7F2FB63
:104940009DF83C30002B00F0A880D6F8A44406F572
:104950009563186809F0E2FECDE9000106F2AC4368
:10496000186809F0DBFECDE9020106F597631868C7
:1049700009F0D4FECDE9040106F59663186809F044
:10498000CDFECDE9060106F2B443186809F0C6FE73
:10499000CDE908010BA84449224603F03FF8434FF4
:1049A00006F2BC43186809F0B9FE04460D4606F548
:1049B0009863186809F0B2FECDE9000106F2C4431D
:1049C000186809F0ABFECDE9020106F59963186895
:1049D00009F0A4FECDE9040106F2CC43186809F001
:1049E0009DFECDE9060106F59A63186809F096FE6A
:1049F000CDE908010BA8394622462B4603F00EF8F4
:104A000006F2D443186809F089FE04460D4606F5FF
:104A10009B63186809F082FECDE9000106F2DC43D1
:104A2000186809F07BFECDE9020106F59C63186861
:104A300009F074FECDE9040106F2E443186809F0B8
:104A40006DFECDE9060106F59D63186809F066FE66
:104A5000CDE908010BA8394622462B4602F0DEFFBD
:104A600006F59F63186809F059FE02460B46B6F931
:104A7000FC140091B6F9FE1401910BA80C4902F048
:104A8000CDFF0B9B5B680BA80A49002298470BA837
:104A900002F0ACFF0FA8FCF73DFB19B0F0BD00BF62
:104AA000805701000C5801001C5801003C580100BF
:104AB0005C580100D05E010030B59BB000F27C4430
:104AC0003E4D20462946FCF789FB20463C49FCF731
:104AD00085FB00238DF810308DF811308DF80430EF
:104AE0004FF47A7202928DF80C30364B009304A882
:104AF00021462A466323FCF715FB9DF8103053B975
:104B0000314D2B685B68284630491F22984728465C
:104B100002F06CFF0DE01AAD55F8683D5B68684621
:104B20002B49D2229847684602F060FF04A8FCF7A0
:104B3000F1FA00238DF844308DF845308DF8383087
:104B40004FF47A720F928DF840301E4B0D9311A8DE
:104B500021461B4A6323FCF7E5FA04AC11AD0FCDE7
:104B60000FC40FCD0FC42B6823609DF838308DF82B
:104B700004300F9B02939DF840308DF80C309DF867
:104B8000103053B9104C23685B6820460F491F2230
:104B90009847204602F02AFF0DE01AAC54F8683D11
:104BA0005B6868460B490E229847684602F01EFF74
:104BB00004A8FCF7AFFA1BB030BD00BF0C580100D1
:104BC00098580100805701004C1CFF1FD05801006D
:104BD000F0580100C459010008B501F02FFB0C4B3F
:104BE00000221A745A741A714FF47A7199601A7308
:104BF000084919605A6383F83C2083F8472083F8FA
:104C00007C2483F87D24044AC3F8A02408BD00BF97
:104C1000B815FF1F805701005055010008B502204C
:104C2000012101F023FD0320012101F01FFD0620D9
:104C3000012101F01BFD0420002101F017FD0520DA
:104C4000002101F013FD1620002101F00FFD1720B7
:104C5000002101F00BFD08BD00B583B070EEC00A65
:104C6000DFED127A60EEE70ADFED117AF4EEE70A83
:104C7000F1EE10FA09DAF5EE400AF1EE10FADFED86
:104C80000D7A98BFF0EE670A01E0DFED090A436B89
:104C9000826B0092FDEEE00A10EE900A0021642281
:104CA00003F0E8F803B05DF804FB00BF00004842E1
:104CB0000000C8420000000070B506461446D9B195
:104CC0000220012101F0A0FC0320002101F09CFC46
:104CD000172001F0BDFC0546162001F0B9FC00309C
:104CE00018BF0120254A003518BF012582F801555B
:104CF00082F8000558B33BE00220002101F084FC5B
:104D00000320012101F080FC172001F0A1FC051C0B
:104D100018BF0125162001F09BFC184B83F80155A4
:104D2000003018BF012083F800050DBB144C236828
:104D30005B682046134902229847204602F056FE3F
:104D40000620002101F052FD336C736370BD0C4CE2
:104D500023685B6820460C4903229847204602F0EE
:104D600045FE0620002101F041FD336CB36370BDA8
:104D70000620214601F03AFD70BD00BFB815FF1FA7
:104D80004C1CFF1FD4590100D859010010B504462E
:104D9000416400F07DFCE26B002A05DB1348012131
:104DA000D2B2FFF789FF05E0524210480021D2B28B
:104DB000FFF782FF0D4B1A6C636CD31A002BB8BF40
:104DC0005B42032B08DC0A4A13780133DBB2137011
:104DD000072B05D8002010BD0020054B187010BD12
:104DE0000022034B1A70012010BD00BFBC1AFF1F28
:104DF000041BFF1F2DE9F04182B004461625012750
:104E00003C2604E0204639463246FFF755FF284647
:104E100001F01EFC0028F5D1AD4D2B685B682846DB
:104E2000AC4904229847284602F0E0FD236CA363B6
:104E3000172500273C2604E0204639463246FFF776
:104E40003BFF284601F004FC0028F5D1A04D2B685B
:104E50005B682846A04903229847284602F0C6FD11
:104E6000236C63630F2502E0284601F089FE02F0FF
:104E70007FFC30B92046B4F93410FFF787FF0028D3
:104E8000F2D0204601210022FFF716FF934800F0E0
:104E9000D7FB4FF4967001F073FE4FF0190800270E
:104EA000642602E00F2001F06BFE02F061FC68B99D
:104EB000636BA56B009540463946324602F0DAFF37
:104EC00001B22046FFF762FF0028EBD02046012107
:104ED0000022FFF7F1FE814800F0B2FB4FF496701C
:104EE00001F04EFE4FF032080027642602E00F204A
:104EF00001F046FE02F03CFC68B9636BA56B0095BF
:104F000040463946324602F0B5FF01B22046FFF76F
:104F10003DFF0028EBD0204601210022FFF7CCFE08
:104F20006E4800F08DFB4FF4967001F029FE4FF0B3
:104F30004B080027642602E00F2001F021FE02F05A
:104F400017FC68B9636BA56B00954046394632463D
:104F500002F090FF01B22046FFF718FF0028EBD0C7
:104F6000204601210022FFF7A7FE5C4800F068FB05
:104F7000C82001F005FE642700260F2502E0284620
:104F800001F0FEFD02F0F4FB68B9636BA26B0092C6
:104F9000384631463A4602F06DFF01B22046FFF72F
:104FA000F5FE0028EBD0204601210022FFF784FE09
:104FB0004A4800F045FB4FF4967001F0E1FD4FF0D8
:104FC0004B080027642602E00F2001F0D9FD02F013
:104FD000CFFB68B9636BA56B0095404639463246F6
:104FE00002F048FF01B22046FFF7D0FE0028EBD0C8
:104FF000204601210022FFF75FFE384800F020FB29
:105000004FF4967001F0BCFD4FF032080027642683
:1050100002E00F2001F0B4FD02F0AAFB68B9636B57
:10502000A56B009540463946324602F023FF01B297
:105030002046FFF7ABFE0028EBD0204601210022DE
:10504000FFF73AFE254800F0FBFA4FF4967001F0A6
:1050500097FD4FF019080027642602E00F2001F0A9
:105060008FFD02F085FB68B9636BA56B0095404628
:105070003946324602F0FEFE01B22046FFF786FEB8
:105080000028EBD0204601210022FFF715FE13482F
:1050900000F0D6FA4FF4967001F072FD0F2502E091
:1050A000284601F06DFD02F063FB30B92046B4F9EB
:1050B0003410FFF76BFE0028F2D0204601210022B9
:1050C000FFF7FAFD054800F0BBFA02B0BDE8F08139
:1050D0004C1CFF1FDC590100E4590100081BFF1F95
:1050E0002DE9F0472DED048B9CB0DFF8BC81674DB6
:1050F00040462946FCF772F800268DF818608DF8B6
:1051000019608DF80C604FF47A7304938DF8146075
:105110001CAC5F4B44F8683D06A841462A46632311
:10512000FCF700F8029B5B6820465A490D2298471D
:10513000204602F05BFC06A8FBF7ECFF01F0FCFC4C
:105140008046DFF88C91DFF88CA19FED538ADFED6C
:10515000539A9FED539ADFED538A00238DF84C301C
:105160008DF84D308DF840304FF47A7211928DF8F1
:105170004830474B0F9313A84B49444A6323FBF72E
:10518000D1FF06AC13AD0FCD0FC40FCD0FC42B68EC
:1051900023609DF840308DF80C30119B04939DF8EE
:1051A00048308DF8143001F0C7FCC8EB00043F4BC9
:1051B0009C423CD93E4B9C4212D8A4F57423A3F5E3
:1051C000107307EE103AF8EE477AC7EE887A67EE6A
:1051D000A87AFCEEE77A17EE906AF6B2012731E082
:1051E000344B9C4226D9344B9C4226D94C4514D88A
:1051F000A4F57413A3F5106307EE103AF8EE477A9E
:10520000C7EE887A67EEA97A77EE897AFCEEE77ABC
:1052100017EE906AF6B2012714E0284B9C420FD992
:10522000544598BF0026544598BF01270AE0FF2641
:10523000012707E00026012704E03F26012701E0BF
:10524000FF2600271E4D284639463246FFF734FD1B
:105250002B6C0097019302A81A492246334602F0AC
:10526000DDFB029B5B6802A817490022984702A851
:1052700002F0BCFB06A8FBF74DFF144B9C427FF6E7
:105280006CAF1CB0BDEC048BBDE8F087E8590100A1
:1052900080570100FC59010000247449000040437C
:1052A00000007C4200007F43341AFF1F3F420F0082
:1052B0007F841E00BFC62D00FF083D007F8D5B0070
:1052C000BC1AFF1F0C5A0100D05E0100FF117A00CA
:1052D0003F4B4C00BFCF6A0038B505460F241AE09B
:1052E000204601F04DFC02F043FA50B92846B5F9CA
:1052F0003410FFF74BFD0028F2D002E0204601F009
:105300003FFC02F035FA30B92846B5F93810FFF7FE
:105310003DFD0028F2D002F02BFA0028E3DD38BD75
:1053200010B582B000F08AFF0F4C6FF0FE030093BF
:10533000FF230193204604F1400104F13C0204F1F3
:1053400044039FED0A0AF6EE000A9FED091ADFED0D
:10535000091A00F089F900236363F022A263E36372
:10536000636402B010BD00BFBC1AFF1F37894940FB
:10537000E71DA73D0000F44338B5514C23685B6836
:10538000204650493A229847204602F02FFB2368D6
:105390005B6820464C493B229847204602F026FB9A
:1053A000642001F0EDFB23685B68204647493B22FF
:1053B0009847204602F01AFB23685B682046444960
:1053C0003B229847204602F011FB642001F0D8FBF5
:1053D00023685B6820463F493B229847204602F0FD
:1053E00005FB23685B6820463B493B2298472046E3
:1053F00002F0FCFA642001F0C3FB2368374D5B68C0
:105400002046294600229847204602F0EFFA2368FA
:105410005B682046324937229847204602F0E6FA78
:10542000642001F0ADFB23685B6820462D491C22F7
:105430009847204602F0DAFA23685B68204629463E
:1054400000229847204602F0D1FA642001F098FB30
:1054500023685B68204624494C229847204602F086
:10546000C5FA642001F08CFB23685B6820461F4965
:1054700038229847204602F0B9FA642001F080FBF8
:1054800023685B6820461A4930229847204602F07C
:10549000ADFA642001F074FB23685B68204615496F
:1054A00040229847204602F0A1FA23685B68204614
:1054B000294600229847204602F098FA38BD00BFDE
:1054C0004C1CFF1F8C5A0100C85A0100045B0100EC
:1054D000405B01007C5B0100B85B0100D05E010015
:1054E000F45B01002C5C01004C5C01009C5C010041
:1054F000D85C01000C5D010010B5434C23685B686B
:105500002046424900229847204602F06FFA23685D
:105510005B6820463E491E229847204602F066FA04
:10552000642001F02DFB23685B68204639491D2269
:105530009847204602F05AFA23685B6820463649AD
:1055400014229847204602F051FA23685B682046EF
:10555000324918229847204602F048FA642001F0A8
:105560000FFB23685B6820462D491422984720468C
:1055700002F03CFA23685B6820462A4913229847C8
:10558000204602F033FA642001F0FAFA23685B68DF
:105590002046254914229847204602F027FA23681E
:1055A0005B68204621491A229847204602F01EFADD
:1055B000642001F0E5FA23685B6820461C49272235
:1055C0009847204602F012FA23685B682046194982
:1055D0001B229847204602F009FA642001F0D0FA15
:1055E00023685B682046144920229847204602F031
:1055F000FDF923685B68204610491322984720462E
:1056000002F0F4F910BD00BF4C1CFF1FD05E01007A
:10561000505D0100705D0100905D0100A85D01001A
:10562000C45D0100DC5D0100F05D0100085E010069
:10563000245E01004C5E0100685E01008C5E01008A
:1056400010B50A2001F09CFA022404E0204601F083
:1056500097FA02F041F802F08BF80028F6DC10BD52
:1056600008B500F0EBFD08BD30B40025456242618D
:105670000161836180ED000AC0ED010A80ED021A2C
:10568000C0ED031A029BC362039B036330BC7047E7
:1056900038B5044603691A6883691B689D1A01F0CE
:1056A0004BFAA36AC31A06EE903AF8EE666ADFED8B
:1056B000457AC6EEA76A04EE905AB8EEE47AD4EDC5
:1056C000087A77EE677A94ED016A27EE866A26EE0D
:1056D000266AD4ED075A36EE256A84ED076AC7EECE
:1056E000A67AD4ED025A67EEA55A94ED0C5AF8EE5C
:1056F000C57AB4EEE76AF1EE10FA02DDC4ED077A7E
:105700000AE0D4ED0B4AB8EEE45AB4EEC56AF1EE05
:1057100010FA48BF84ED075A9FED2B6AF4EEC66A73
:10572000F1EE10FA06DDD4ED006A67EE266A00237A
:10573000E36109E0D4ED006A67EE266A94ED076A3A
:1057400076EE866A76EEA56AF4EEE76AF1EE10FA76
:105750000ADC94ED0B5AF8EEC57AF4EEE76AF1EE46
:1057600010FA58BFF0EE667ADFED186AF4EEE67ACA
:10577000F1EE10FA06D5F2EE046AF4EEE67AF1EEF6
:1057800010FA12DCDFED126AF4EEE67AF1EE10FAAE
:105790000DDDFAEE046AF4EE667AF1EE10FADFED52
:1057A0000C6A48BFF0EE667A01E0DFED087A6369C3
:1057B000FDEEE77AC3ED007AC4ED095A84ED087A6C
:1057C000A06238BD002474493108AC3C000070422E
:1057D000000070C210B50446043002F059FB2046A8
:1057E00010BD00BF38B505462E4C23685B682046C7
:1057F0002D49142298472046291D02F0D1F8204651
:1058000002F0F4F8204629492A7802F007F968697D
:1058100008F084FF02460B462046254902F0FEF8B8
:10582000A86908F07BFF02460B462046214902F09A
:10583000F5F8E86908F072FF02460B4620461E495B
:1058400002F0ECF8286A08F069FF02460B46204691
:105850001A4902F0E3F8686A08F060FF02460B4656
:105860002046174902F0DAF8A86A08F057FF024606
:105870000B462046134902F0D1F820461249EA6A45
:1058800002F0CCF8204611492A6B02F0C7F82046F6
:105890000F496A6B02F0C2F820460E49AA6B02F06B
:1058A000BDF838BD4C1CFF1FA05E0100B85E0100B2
:1058B000D45E0100E45E0100F45E0100005F0100BF
:1058C0000C5F0100185F0100245F01003C5F0100D4
:1058D000505F0100605F010070B5B8B006466846D1
:1058E000002102F021FB04A8002102F01DFB954CD1
:1058F00023685B68204694491B229847204602F0A3
:1059000075F83046FFF76EFF2046904902F086F8A2
:105910008F48FFF795FE01F02BFF0028FBDD0A20E2
:1059200001F02EF9874C08A821463B22782302F08B
:105930004FFA684608A902F03FFB08A802F0A8FA4F
:1059400023685B68204683491122984720466946B0
:1059500002F026F8204602F049F868463D2102F0A0
:10596000CFFB05460CA8694600222B4602F0CEFB71
:1059700004A80CA902F020FB0CA802F089FA236805
:105980005B682046744911229847204604A902F01A
:1059900007F8204602F02AF804A8704902F06AFBD2
:1059A00068B110A869466A1C02F0D4FB10A802F086
:1059B000E1FB86ED050A10A802F06AFAB9E004A836
:1059C000674902F057FB68B114A869466A1C02F0E7
:1059D000C1FB14A802F0CEFB86ED060A14A802F063
:1059E00057FAA6E004A85F4902F044FB68B118A882
:1059F00069466A1C02F0AEFB18A802F0BBFB86EDFC
:105A0000070A18A802F044FA93E004A8564902F0E5
:105A100031FB68B11CA869466A1C02F09BFB1CA8FC
:105A200002F0A8FB86ED080A1CA802F031FA80E01B
:105A300004A84E4902F01EFB68B120A869466A1C02
:105A400002F088FB20A802F095FB86ED090A20A849
:105A500002F01EFA6DE004A8454902F00BFB68B1A4
:105A600024A869466A1C02F075FB24A802F082FB98
:105A700086ED0A0A24A802F00BFA5AE004A83D4970
:105A800002F0F8FA60B128A869466A1C02F062FBCD
:105A900028A802F067FBF06228A802F0F9F948E0B4
:105AA00004A8354902F0E6FA60B12CA869466A1CE0
:105AB00002F050FB2CA802F055FB30632CA802F03A
:105AC000E7F936E004A82D4902F0D4FA60B130A815
:105AD00069466A1C02F03EFB30A802F043FB70638B
