:1000000000000320D1010000894F00004D4F000087
:100010004D4F00004D4F00004D4F00004D4F000070
:100020004D4F00004D4F00004D4F0000894F000024
:10003000894F00004D4F0000894F00003D4F0000E8
:10004000894F0000894F0000894F0000894F000050
:10005000894F0000894F0000894F0000894F000040
:10006000894F0000894F0000894F0000894F000030
:10007000894F0000894F0000894F0000894F000020
:10008000894F0000894F0000894F0000894F000010
:10009000894F0000894F0000894F0000894F000000
:1000A00095410000894F0000894F0000894F0000F2
:1000B000894F0000894F0000894F00001D6E00002D
:1000C000894F0000A1750000894F0000297B0000C6
:1000D000894F000055810000894F0000894F0000C2
:1000E000894F0000894F0000894F0000894F0000B0
:1000F000894F0000894F0000894F0000894F0000A0
:10010000894F0000894F0000894F0000894F00008F
:10011000894F000055560000894F0000894F0000AC
:10012000894F0000894F0000894F0000894F00006F
:10013000894F0000894F0000894F0000894F00005F
:10014000894F0000894F0000A5860000894F0000FC
:10015000894F0000894F0000894F0000894F00003F
:10016000894F0000894F0000894F0000894F00002F
:10017000894F0000894F0000894F0000894F00001F
:10018000894F000029370000894F0000894F000087
:10019000894F0000894F0000058D0000894F000045
:1001A000894F0000894F0000894F0000894F0000EF
:1001B000894F0000894F0000894F0000894F0000DF
:1001C000894F0000894F0000894F0000894F0000CF
:1001D0005C4B4CF2205210B51A804DF628121A8052
:1001E00000BF00BF04F0D4FE574B4FF030621A60DE
:1001F000564A9A60564ADA60564B4FF470021A60BB
:10020000554B564A1A60564B1A6812F4807204D144
:1002100054490A604FF4A8521A60534B1A781107D8
:1002200003D51A7842F008021A70504B504C5148CE
:10023000AA221A70504A00239918A14203D21958D1
:1002400099500433F8E74D4B4D4900228B4202D2BE
:1002500043F8042BFAE74B484B4900235A581A50ED
:100260000433B3F5E87FF9D1484B494A802103F8BC
:10027000011B9342FBD1474B424A1A60464B8A22EC
:100280001A70A3F5805324225A70A0221A709A790A
:100290009207FCD59A79D406FCD4404B9A7902F0A7
:1002A0000C02082AFAD13E4B60221A7002331A78E7
:1002B000802AFCD1394B01221A715D225A719A7938
:1002C0009006FCD59979354A4906FBD5354B364918
:1002D00019600021596020231370937903F00C03F7
:1002E0000C2BFAD1314B324A1A60324B324A1A6027
:1002F00000225A60072243F8042C304AC3F80C2D20
:1003000062B605F02DF8174B1B68DA0705D52C48A7
:1003100004F0F8FE2B4B2C4A1A602C4B1B785B0622
:1003200009D5284C284A2368934204D1244804F074
:10033000E9FE002323600BF0B5FA04F02FFE05F070
:10034000FDFEFEE70E20054030800440823F0400A1
:100350000100002B88ED00E0002008E0030000858C
:1003600010D0034014D0034002D0074000E0074003
:100370007C13FF1FD80C01006007FF1F7C13FF1FB9
:100380000420FF1F0002FF1F0000000000E400E047
:1003900064E400E008ED00E0005006400040064044
:1003A00001E007404480044000000602048004404D
:1003B000C010070014E000E01FBF02000000202072
:1003C000181AA1001CE00340A5C3945A00F007408E
:1003D000FFFFFFFFFFFFFFFFFFFFFFFFFFFFFFFF2D
:1003E000FFFFFFFFFFFFFFFFFFFFFFFFFFFFFFFF1D
:1003F000FFFFFFFFFFFFFFFFFFFFFFFFFFFFFFFF0D
:10040000FFFFFFFFFFFFFFFFFFFFFFFFDEF9FFFF23
:1004100010B5054C237833B9044B13B10448AFF33E
:1004200000800123237010BD7C13FF1F000000001B
:10043000D00C010008B5064B1BB106480649AFF3C6
:1004400000800648036813B1054B03B1984708BD07
:1004500000000000D00C01008013FF1F7C13FF1F61
:1004600000000000014B0360704700BFE0FB00008C
:10047000704700BF037C13F0080F04D0C26A436AC0
:10048000D01A02D47047002070476FF000407047C8
:10049000014B0360704700BFE0FB0000014B0360AD
:1004A000704700BFE0FB000010B50446024B03603C
:1004B00005F04CFE204610BDE0FB000010B50446E0
:1004C000024B036005F042FE204610BDE0FB000039
:1004D00010B50446024B036005F038FE204610BDFF
:1004E000E0FB000008B5103001F06CFF08BD00BF54
:1004F00000B583B002AB03F8011D1030194601228C
:1005000001F060FF03B05DF804FB00BF08B51030D8
:1005100001F098FE08BD00BF08B5103001F0BEFD27
:1005200008BD00BF00B583B010300DF107010122F6
:1005300001F0F0FC01280CBF9DF807004FF0FF30E0
:1005400003B05DF804FB00BF70B584B000238DF8E4
:100550000F306348032104F0B1FA50B9614C2368AD
:100560005B682046604913229847204605F018FE34
:100570000CE001225D4B1A705A4C23685B682046E0
:100580005B4912229847204605F00AFE59480C2183
:1005900003F01EFB50B9534C23685B682046564954
:1005A00013229847204605F0FBFD59E00125534BE7
:1005B0001D70504E3046294603F0C8FA494C236856
:1005C0005B6820464E4912229847204605F0E8FD18
:1005D0000DF10F030093304603A90DF10D020DF14B
:1005E0000E0303F045FB23685B6820464549112252
:1005F000984720469DF80C100A22002305F0F6FDCE
:1006000023685B68204640490622984720469DF8AB
:100610000D100A22002305F0E9FD23685B682046DF
:100620003A490722984720469DF80E100A220023D7
:1006300005F0DCFD23685B682046354905229847B4
:1006400020469DF80F100A22002305F0CFFD2368F5
:100650005B6820462F492A469847204605F0A0FDB2
:100660002D4803F073F818B32C4C04F58C63236009
:1006700004F23C4001F02AFE2046012102F020FD58
:1006800020B92046002102F01BFD88B1234901F268
:100690003C4001F023FC034650B1204A92F83C2430
:1006A00012F0700F1DBF1E491E4A1160002353B97E
:1006B0000C4C23685B6820461B491422984720464F
:1006C00005F06EFD09E0074C23685B68204617497A
:1006D00013229847204605F063FD04B070BD00BFAB
:1006E0009813FF1F401CFF1F3CFC0000A413FF1FBA
:1006F00050FC00004C1AFF1F64FC0000641AFF1F2E
:1007000078FC00008CFC0000A0FC0000A8FC0000AD
:10071000B0FC000084010100481AFF1FE815FF1F0C
:10072000241AFF1F681AFF1FB8FC0000D0FC00004D
:10073000084800F1080300F59A700022002143F8F0
:10074000082C43F8042C1A60596014338342F6D104
:10075000704700BF0014FF1F30B59BB03F4C404DA9
:100760002046294601F016FE20463E4901F012FEC1
:1007700000238DF810308DF811308DF804304FF4CF
:100780007A7202928DF80C30374B009304A8214600
:100790002A46632301F0A2FD9DF8103053B9334C73
:1007A00023685B68204632491F229847204605F09F
:1007B000F7FC0DE01AAC54F8683D5B6868462D49BB
:1007C000D3229847684605F0EBFC04A801F07EFDB3
:1007D00000238DF844308DF845308DF838304FF4D3
:1007E0007A720F928DF840301F4B0D9311A81B4960
:1007F0001C4A632301F072FD04AC11AD0FCD0FC490
:100800000FCD0FC42B6823609DF838308DF804306D
:100810000F9B02939DF840308DF80C309DF81030FE
:1008200053B9124C23685B68204611491F22984730
:10083000204605F0B5FC0DE01AAC54F8683D5B6845
:1008400068460D490E229847684605F0A9FC04A8A1
:1008500001F03CFDFFF76CFF1BB030BD241AFF1FF9
:10086000E4FC0000F4FC000000FC0000401CFF1F42
:1008700008FD000028FD0000FCFD00000B6803607F
:100880004B6843608B688360CB68C3600B6903610E
:10089000704700BF10B582B00D4804F0CFF890B19A
:1008A0000B4C204601A904F031FA20469FED090ABD
:1008B000DFED097ADDED010AC0EEA70A04F050F879
:1008C000064B83ED000A054B93ED000A02B010BD04
:1008D0009813FF1F00507D440000C8425C1AFF1FA0
:1008E00070B5124C124E134D1AE023685B68204617
:1008F000314612229847FFF7CDFF10EE100A0AF09A
:1009000035FC02460B462046294605F061FC23686B
:100910005B682046084901229847204605F040FCC4
:1009200005F000FB0028E0DD70BD00BF401CFF1F8C
:100930000CFE000020FE000084010100F0B585B02F
:1009400000258DF80F50344C23685B6820463349EE
:1009500016229847204605F023FC314F314E0DF109
:100960000F030093384603A90DF10D020DF10E039C
:1009700003F07EF923685B682046314611229847D0
:1009800020469DF80C100A22002305F02FFC236856
:100990005B68204624490622984720469DF80D10A2
:1009A0000A22002305F022FC23685B6820461F49C9
:1009B0000722984720469DF80E100A22002305F0D2
:1009C00015FC23685B682046194905229847204694
:1009D0009DF80F100A22002305F008FC23685B68CD
:1009E0002046144901229847204605F0D9FB9DF87E
:1009F0000E30022B07D901354FF4967004F09AFCA3
:100A0000042DACDD05E04FF4967004F093FC002556
:100A1000A5E705B0F0BD00BF401CFF1F28FE000089
:100A20004C1AFF1F8CFC0000A0FC0000A8FC00007A
:100A3000B0FC00008401010038B52DED088B05469F
:100A40000C46D0E900010AF0C7FE0AEE100AD5E90B
:100A500002010AF0C1FE09EE900AD5E904010AF08C
:100A6000BBFE09EE100AD4E900010AF0B5FE08EE5B
:100A7000900AD4E902010AF0AFFE08EE100AD4E9A8
:100A800004010AF0A9FE07EE900A6AEE28AA29EEF0
:100A9000887A7AEE87AA29EE277A7AEE87AA68EE14
:100AA000A88A28EE088A38EE888A67EEA77A78EE58
:100AB000277A17EE900A0AF059FB9FED5F8B41EC05
:100AC000100BB0EE481AF0EE681A08F045FE55EC2F
:100AD000104B2AEE0A7A69EEA97A37EE277A69EE88
:100AE000097A77EE277A17EE900A0AF03FFB41EC7D
:100AF000100BB0EE481AF0EE681A08F02DFE51EC1B
:100B0000100B0AF069FE08EE900A204629460AF00A
:100B100063FE07EE100A67EE287ACAEEA77A17EE90
:100B2000900A0AF023FB41EC100B08F0B3FD51ECE6
:100B3000100B0AF051FE9FED42BA07EE900A27EE25
:100B40008BBA8AEEA88A3F4C23685B6820463E49F0
:100B50001622984723685B6820463C490122984743
:100B60001AEE100A0AF002FB41EC100B204602219B
:100B700005F082FB2368364D5B682046294601223A
:100B8000984719EE900A0AF0F1FA41EC100B204652
:100B9000022105F071FB23685B682046294601228B
:100BA000984719EE100A0AF0E1FA41EC100B2046C2
:100BB000022105F061FB23685B682046254902227B
:100BC0009847204605F0ECFA23685B6820462249E6
:100BD00007229847DFED217ACBEE277A17EE900AAD
:100BE0000AF0C4FA41EC100B2046022105F044FB48
:100BF000204605F0D5FA23685B682046184916227E
:100C0000984718EE100A0AF0B1FA41EC100B204692
:100C1000022105F031FB23685B6820461149002260
:100C20009847204605F0BCFAB0EE480ABDEC088BA8
:100C300038BD00BFAFF30080000000000000E03FBF
:100C400000003443401CFF1F40FE000058FE00001F
:100C50005CFE000060FE000064FE0000DB0F494007
:100C60006CFE0000D40001002DE9F04399B04E4D18
:100C70004E4C4F4E90E068462946282203F03AF841
:100C800006A829462E2203F035F823685B68204623
:100C90003146192298472368DFF820915B68204687
:100CA00049460122984720469DED060B022105F09A
:100CB000E3FA23683F4F5B68204639460122984794
:100CC00020469DED080B022105F0D6FA23685B68EB
:100CD000204639460122984720469DED0A0B022105
:100CE00005F0CAFA2368DFF8D8805B6820464146E1
:100CF00002229847204605F053FA23685B68204695
:100D00002D491522984723685B68204649460122F1
:100D1000984720469DED000B022105F0ADFA2368AF
:100D20005B68204639460122984720469DED020B1C
:100D3000022105F0A1FA23685B68204639460122AA
:100D4000984720469DED040B022105F095FA236893
:100D50005B682046414602229847204605F020FA6B
:100D600000200CA9014406AB0344D3E90023C1E9E8
:100D7000002308301828F4D1002112A8084400AB41
:100D80000B44D3E90023C0E9002308311829F4D12A
:100D90000CA812A9FFF750FE05F0C4F800287FF751
:100DA0006AAF19B0BDE8F0834C1AFF1F401CFF1F4B
:100DB00084FE00005CFE0000A0FE000058FE000063
:100DC00060FE000084B010B58CB00EAC84E80F005B
:100DD0001E4C684621461A2202F08CFF06A82146C6
:100DE000142202F087FF1A4CDDE900010AF0F4FC3E
:100DF000E063DDE902010AF0EFFC6064DDE9040173
:100E00000AF0EAFC2064DDE906010AF0E5FC206353
:100E1000DDE908010AF0E0FCA063DDE90A010AF05F
:100E2000DBFC6063119B23600E9B63600F9BA360E0
:100E3000109B6361139BA364149BE364159B236560
:100E40000CB0BDE8104004B0704700BF4C1AFF1F43
:100E5000A813FF1F70B59AB000238DF844308DF8A9
:100E600045308DF838304FF47A720F928DF840305B
:100E70004B4B0D9311A84B494B4A632301F02EFABB
:100E80009DF84430002B00F08980484E346870682B
:100E90000AF06CF9CDE90001B0680AF067F9CDE914
:100EA0000201F0680AF062F9CDE9040130690AF044
:100EB0005DF9CDE906010DA83D49224605F088F906
:100EC00070690AF053F904460D46B0690AF04EF90C
:100ED000CDE90001F0690AF049F9CDE90201306A73
:100EE0000AF044F9CDE90401706A0AF03FF9CDE94E
:100EF0000601B06A0AF03AF9CDE90801F06A0AF091
:100F000035F9CDE90A010DA82A4922462B4605F0FC
:100F10005FF9306B0AF02AF904460D46706B0AF04F
:100F200025F9CDE90001B06B0AF020F9CDE9020105
:100F3000F06B0AF01BF9CDE90401306C0AF016F9E8
:100F4000CDE90601706C0AF011F9CDE908010DA890
:100F5000194922462B4605F03BF9B06C0AF006F918
:100F600004460D46F06C0AF001F9CDE90001306D40
:100F70000AF0FCF8CDE902010DA8104922462B46E3
:100F800005F026F90D9B5B680DA80D4900229847D6
:100F90000DA805F005F911A801F098F91AB070BD77
:100FA00000FC0000241AFF1FE4FC0000A813FF1F30
:100FB000B8FE0000D4FE0000F8FE000018FF00009C
:100FC000D400010010B58EB0044600238DF8143013
:100FD0008DF815308DF808304FF47A7203928DF841
:100FE0001030204B019305A81F49204A632301F0CC
:100FF00075F91F4B1B680093009A9DF814302BB3B2
:1010000007EE902AB8EE677ADFED1A7AC7EE277AF4
:1010100017EE900A0AF0AAF802460B4601A81649F4
:1010200005F0D6F8019B5B6801A814490122984796
:1010300001A8214605F08EF8019B5B6801A81049C4
:101040000022984701A805F0ABF805E00D480368B9
:101050005B680D491922984705A801F037F90EB0D1
:1010600010BD00BF00FC0000241AFF1FF4FC0000AC
:10107000481BFF1F00007A4428FF00005CFE0000B0
:10108000D4000100401CFF1F30FF000084B070B589
:101090002DED028B88B00EAC84E80F00584E06F59B
:1010A00096703546A0F114042146FFF7E7FB204671
:1010B000AC42F7D100231293514C20460EA9FFF702
:1010C000DDFB9DED116AF8EE466A04F59470331F5E
:1010D0009FED4C7A10ED016AF8EE467A77EEE67AEB
:1010E000C7EE877A17EE902A40F814299842F1D17A
:1010F000454B06F59E72DFED456AB0EE665AF0EE9E
:10110000665AB0EE666AD3ED007A36EE276A27EEAD
:10111000A77A75EE875A13ED047A35EE075A67EE13
:10112000877A76EEA76A14339342ECD126EE058ACD
:10113000F2EE0E7A66EEA76A38EE668A26EE066A48
:1011400065EEA77A76EE677A88EE278A304B83EDD4
:10115000038A304BC436DFED2D7AF6EE005A53ED9C
:10116000076A13ED027A76EE876A66EEA56A13EDDA
:10117000056A1C46143394ED007A36EE477A26EE63
:10118000877A77EE877AB342E9D1214BC3ED047AAF
:1011900038EE278AB0EE480A08F060FA60B968466F
:1011A000322105F003FA6846FFF70CFF684605F0A8
:1011B0008FF99FED168A19E0DFED177AB4EEE78A12
:1011C000F1EE10FA06DCFAEE047AB4EEE78AF1EEFC
:1011D00010FA0BD504A8332105F0E8F904A8FFF7AD
:1011E000F1FE04A805F074F99FED088AB0EE480AF4
:1011F00008B0BDEC028BBDE8704004B0704700BF82
:101200000014FF1F002474491014FF1F0000000089
:10121000A813FF1F2414FF1F0000964300B589B0D8
:1012200000238DF80F300DF10F0300930C4803A934
:101230000DF10D020DF10E0302F01AFD9DF80E30B6
:10124000022B09D804A8312105F0B0F904A8FFF752
:10125000B9FE04A805F03CF909B05DF804FB00BF35
:101260004C1AFF1FFFFFFFFF10B52DED068B8CB052
:10127000334C684621462E2202F03CFD06A821464A
:10128000282202F037FDDDE900010AF0A5FA09EE97
:10129000100ADDE902010AF09FFA08EE900ADDE982
:1012A00004010AF099FA08EE100ADDE906010AF0D5
:1012B00093FA0AEE900ADDE908010AF08DFA0AEEC7
:1012C000100ADDE90A010AF087FA09EE900A29EE10
:1012D000097A68EEA87A37EE277A68EE087A77EE10
:1012E000277A17EE900A09F041FF41EC100B9FEDB1
:1012F000121B08F031FA134B83ED069AC3ED078AEF
:1013000083ED088AC3ED09AA83ED0AAAC3ED0B9AFF
:10131000FFF784FF29EE2A0A68EE8A8A30EE280A4F
:1013200028EE298A30EE080ADFED077A80EE270AD8
:101330000CB0BDEC068B10BD000000000000E03FCB
:101340004C1AFF1FA813FF1FC3F51C41AFF3008009
:1013500010B584B00446FFF79DFA174BD3ED007A21
:10136000F8EEE77A30EE670A84ED000A134B1B783B
:101370004BB1134B1B680393039B4FF47A7202FB30
:1013800003F3E36002E003F0B1FFE060E3680D4ABD
:10139000934202D90122094B1A70FFF765FF84EDD1
:1013A000020A2369009394E80F00FFF76FFE84EDB3
:1013B000010A04B010BD00BF601AFF1F651AFF1FAD
:1013C000481BFF1F00EA56FA84B02DE9F04F2DEDBF
:1013D000028BC1B006464DAC84E80E009DED4E7AFE
:1013E0005099059133ACA14D0FCD0FC40FCD0FC453
:1013F0002B682360DDED4D6ACDED066A8DED077A31
:101400009DED4F6A8DED086A994B1A680599891A06
:1014100007EE901AF8EE677ADFED965AC7EEA57AD6
:10142000059A1A6027EEA75AF6EE005A25EE255ABD
:101430008DED0C5ACDED0D7A4FF07E530E93CDED20
:10144000347A8D4B83FB0613F617C6EBE31636B2E0
:10145000C6F1010607EE906AB8EEE75A9FED878A5B
:1014600025EE088ADFED867A38EE278ADFED857A69
:1014700025EE275A75EE277ADFED834A77EEA47AB8
:1014800028EE278ADFED817A67EE277A27EE877AC2
:1014900067EE255A28EE258A9FED7D5A88EE058A4B
:1014A000DFED7C7A37EEC88AF2EE047AB4EEE76AB2
:1014B000F1EE10FA0EDD784C23685B682046774920
:1014C0000B229847204604F06BFEDFED757A38EE6C
:1014D000278A11E0F3EE047AF4EEE76AF1EE10FAEF
:1014E0000AD5FBEE047AF4EE676AF1EE10FADFED4E
:1014F0006D7AC8BFB0EE678AB0EE480A08F0AEF861
:1015000058B93CA8372105F051F83CA8FFF75AFD1F
:101510003CA804F0DDFF9FED638A634D28460CA9CB
:1015200003220123B0EE480A03F0B6F8DFF8848105
:10153000032400944FF0010ACDF804A009AE0296EE
:10154000284633A94246234602F0E6FFCDF800A024
:10155000CDF8048028460CA93246234603F020F833
:10156000DFF854910094019418AE0296284633A9EE
:101570004A46234602F0D0FF21AF0097284633A900
:101580002246234603F064F8009401940DF1A80B61
:10159000CDF808B0284631463A46234602F0BCFF53
:1015A0000094CDF8049028465946404A234602F05C
:1015B000F7FF0094019628463D494A46234602F02B
:1015C000EFFF28463146224603F080F8009401944C
:1015D0000DF13C0BCDF808B028464946324623466B
:1015E00002F09AFFCDF800A00196284606A94246CF
:1015F000234603F001F80094CDF804A00297284692
:1016000059463246234602F087FFCDF800A0CDF8B8
:101610000480284641463A46234602F0C1FF009422
:10162000CDF804A00296284659464A46234602F0C1
:1016300073FFCDF800A0CDF8049028464946324605
:10164000234602F0D9FFD8F8003052990B60D8F841
:1016500004304B60D8F808308B60059ACA6041B0FE
:10166000BDEC028BBDE8F04F04B0704718FC0000E1
:101670006415FF1F002474491F85EB51CDCCCC3E6F
:101680007CF2B03AF0B3C13B16187937CDCC9C3F11
:101690002D254740C3F51CC1401CFF1F4CFF000017
:1016A000F9D2404200000000281BFF1F4008FF1F26
:1016B0006408FF1F4015FF1F9C15FF1F2DE9F04117
:1016C00090B006ACDFF850800BAF1DE02046FFF76E
:1016D0003FFE98F80050029709AB93E803008DE8AD
:1016E000030094E80E002846FFF76EFE01AD3E466B
:1016F0000FCE0FC533682B600A9B009394E80F0050
:10170000FFF760FBFFF7A6FB04F00CFC0028DDD020
:1017100010B0BDE8F08100BFFC13FF1F10B5204CD6
:1017200023685B6820461F491D229847204604F025
:1017300037FD23685B6820461B49132298472046E3
:1017400004F02EFD23685B6820461849172298474D
:10175000204604F025FD23685B68204614491922C1
:101760009847204604F01CFD23685B682046114919
:1017700026229847204604F013FD23685B68204624
:101780000D4919229847204604F00AFD23685B683A
:1017900020460A4912229847204604F001FD10BD58
:1017A000401CFF1F9CFF0000BCFF0000D0FF00009A
:1017B000E8FF0000040001002C00010048000100C7
:1017C00010B5022404E0204603F0B4FD04F05EFBF3
:1017D00004F0A8FB0028F6DC10BD00BF84B010B5F3
:1017E00002AC84E80F002A4C204604F0D9FC2046C5
:1017F000079904F0AFFC204604F0D2FC23685B6834
:101800002046244908229847029809F0AFFC41EC91
:10181000100B2046032104F02FFD204604F0C0FCED
:1018200023685B6820461C4908229847039809F002
:101830009DFC41EC100B2046042104F01DFD2046C8
:1018400004F0AEFC23685B682046144908229847E0
:10185000049809F08BFC41EC100B2046032104F0A6
:101860000BFD204604F09CFC23685B6820460C4975
:1018700008229847204605990622002304F0B6FC6A
:10188000204604F08DFCBDE8104004B0704700BF56
:10189000401CFF1FA8000100B4000100C0000100AF
:1018A000CC0001002DE9F04391B0394B394A9A60E0
:1018B000394A5A60394A1A601A464FF4FA3142F8E6
:1018C0000C1F374E3749B160374971603749316075
:1018D000B046374948F80C1F364D3749A96037499B
:1018E0006960374929602F46364947F80C1F364C46
:1018F000029492E803008DE803000ECB0020FFF76E
:1019000063FD0DF110094846304904F02DFECDF875
:1019100004902369009394E80F00FFF75FFF4846A7
:1019200004F0D6FD029498E803008DE8030096E8E1
:101930000E000020FFF748FD08AE3046244904F0B1
:1019400013FE01962369009394E80F00FFF746FF0A
:10195000304604F0BDFD029497E803008DE80300D3
:1019600095E80E000020FFF72FFD0CAD2846194921
:1019700004F0FAFD01952369009394E80F00FFF746
:101980002DFF284604F0A4FD11B0BDE8F08300BF90
:101990005015FF1FA0BACD423B01D9400378CB3E82
:1019A000C015FF1F286FDD423D8AFC41D49A964046
:1019B000D0660500D415FF1FF1230A43590675426E
:1019C0004FAF7F41D82309002C15FF1FD80001001D
:1019D000E0000100E800010030B589B004F0A2FA8F
:1019E000002840F3D68004F051FA4138122800F262
:1019F000B180DFE800F0283A19AFAF58AFAFAFAF12
:101A000049AF37AFAFAFAFAF0A00634C23685B6835
:101A1000204662491B229847204604F0C1FBFFF78D
:101A2000CFFEFEF791FDB2E05B4C23685B68204679
:101A30005B491F229847204604F0B2FBFFF7C0FE27
:101A4000FEF77CFFA3E0544C23685B6820465549B1
:101A500024229847204604F0A3FBFFF7B1FEFFF7CE
:101A600003F994E0FFF7ACFE91E04B4C23685B6810
:101A700020464D4931229847204604F091FBFFF75C
:101A80009FFEFEF72DFF82E0434C23685B682046F3
:101A9000464924229847204604F082FBFFF790FE37
:101AA000FFF700FF73E03C4C23685B682046404929
:101AB00023229847204604F073FBFFF781FEFEF7D0
:101AC0004BFE3C4B1B7813B13B4B1B78A3B9324CFC
:101AD00023685B682046394937229847204604F03E
:101AE0005FFB6846302104F061FD6846FFF76AFA43
:101AF000684604F0EDFC4AE0274C23685B6820460A
:101B00002F4915229847204604F04AFBFEF7C2FEF3
:101B10002C4DBDEEC00A85ED000A1E2003F00AFC24
:101B2000FEF7B8FEBDEEC00A85ED000A23685B68CB
:101B300020462549162298472046296804F092FB42
:101B4000204604F02DFB4FF4FA6003F0F3FBFFF79F
:101B5000B5FD1CE0104C23685B6820461B4915222C
:101B60009847204604F01CFB23681B682046184A4F
:101B700011789847204604F013FB04A8362104F09E
:101B800015FD04A8FFF71EFA04A804F0A1FCFFF756
:101B9000C5FD09B030BD00BF401CFF1FF0000100B3
:101BA0000C0101002C010100540101008801010019
:101BB000B0010100A413FF1F641AFF1FD40101002C
:101BC0000C020100601AFF1F240201003C02010008
:101BD0004C15FF1F38B5454C23685B6820464449C7
:101BE00034229847204604F0DBFA23685B682046DD
:101BF000404935229847204604F0D2FA23685B68B2
:101C000020463D4936229847204604F0C9FA236809
:101C10005B682046394935229847204604F0C0FACF
:101C200023685B682046364935229847204604F0F1
:101C3000B7FA23685B682046324936229847204627
:101C400004F0AEFA2368304D5B6820462946002236
:101C50009847204604F0A4FA23685B6820462B4985
:101C600037229847204604F09BFA23685B68204699
:101C7000274925229847204604F092FA23685B689A
:101C80002046294600229847204604F089FA236816
:101C90005B6820461F494C229847204604F080FA92
:101CA00023685B6820461C4938229847204604F088
:101CB00077FA23685B682046184930229847204607
:101CC00004F06EFA23685B68204615494022984765
:101CD000204604F065FA23685B6820462946002206
:101CE0009847204604F05CFA38BD00BF401CFF1F37
:101CF000540201008C020100C4020100FC02010038
:101D0000340301006C030100D4000100A4030100AE
:101D1000DC030100040401005404010090040100EC
:101D2000C404010038B50D20012103F01FFA0D2075
:101D3000012103F0F7F94FF47A7003F0FBFA124C2B
:101D400023685B682046114911229847204604F019
:101D500027FA23680E4D5B682046294603229847E0
:101D6000204604F01DFA23685B68204629460322BA
:101D70009847204604F014FAFFF72CFFFEF7E4FB27
:101D8000FFF7CCFC38BD00BF401CFF1F0805010059
:101D90001C05010038B5164D284642F2657102F067
:101DA000D9FD144C28461449224609F065FD134D0F
:101DB00028464FF0FF31282201F09CFE28461049AA
:101DC000224609F059FD0F4A00231374537413710E
:101DD0004FF47A71916013730B4911600B4AD37100
:101DE00082F83C3482F83D34094BC2F8603438BD87
:101DF0009813FF1F3C08FF1F910400004C1AFF1F9F
:101E00009D0400006815FF1F00FC0000E815FF1F7F
:101E10004005010008B5837863F07F0383700246B4
:101E2000806852F8101F01F0F5F808BD2DE9F8435D
:101E30000446037813F0200F32D143691D4A9342C0
:101E400030D8FFF7E7FF0646002830D0A0682169A8
:101E500001F078F88046A06824304146052201F060
:101E60004BF8814600B300214FF400720AF0CAF823
:101E7000A3681F79012F0ED9012518680268976899
:101E800005EB08014A46B84780B10135EDB2A368B9
:101E90001F79BD42F1D3636903EB4723636106E019
:101EA000002604E0002602E0002600E00646304658
:101EB000BDE8F883FFFD1F0010B504460A468068A0
:101EC0002430A16901F018F8034628B1A08800F079
:101ED0000F0003EB401010BD002010BD38B50446C4
:101EE0000D46037893B9002124220AF08BF8A560EF
:101EF000EB79102B02D0202B03D009E02023237094
:101F000001E0402323700120A07038BD002038BDBF
:101F1000002038BD2DE9F04F83B00446884600927A
:101F20000378002B00F0AA80827812F0010F00F0F5
:101F3000A58013F0080F08D0C2694369D31A009A2C
:101F40009A4228BF1A4600920DE013F0200F0AD0E3
:101F500083681A894369C3EB42139BB2009A9A4281
:101F600028BF1A460092009B002B00F083801E467B
:101F70004FF0000A04F110020192D3466369C3F3E3
:101F80000807227812F0200F04D0A268126A02EB30
:101F9000532922E0A06890F805A00AEA532AB7B9AD
:101FA000BAF1000F13D133B912F0400F14BF036A16
:101FB000236A23610BE02169019A00F0C9FF002820
:101FC0005CDB20B9237813F0700F54D156E0A06881
:101FD000216900F0B7FF00EB0A0937B9B6F5007FB9
:101FE00003D3A068C36A994513D1C7F50075AE4203
:101FF00038BF3546A068243049465A4600F07CFF79
:10200000014600283AD0404639442A4602F0FCFEF8
:1020100029E0B6F5806F1DD3C6F34727227812F06A
:10202000200F06D10279CAEB0202D2B2BA4238BFFF
:1020300017467D02994502D83B44994525D3A368AC
:1020400018680368D3F80CC0494642463B46E0474F
:1020500048B913E0006803681B6849464246984740
:1020600060B14FF40075A84463692B446361761B2B
:1020700084D100E0009E009B981B0CE0637843F045
:10208000020363704FF0FF3005E0243000F00AFFD8
:102090000028D4D1F2E703B0BDE8F08F70B582B06C
:1020A0000446466905690DF107010122FFF732FF79
:1020B000012803BF9DF80700666125614FF0FF30DE
:1020C00002B070BD30B583B004464369C3F3431515
:1020D00005B171B920460DF107010122FFF71AFF82
:1020E00040B2012801D0002009E063691F33636119
:1020F00001E020334361A068303000EB451003B0AD
:1021000030BD00BF2DE9F04104460E460769037853
:10211000002B3CD042698A423DD011B900230361B3
:1021200031E013F0080F03D0C1698E422FD808E0C8
:1021300013F0200F05D083681B89B1EB431F26D80D
:1021400021E0A1688D790935501EE84006F1FF3C79
:102150002CFA05F5A84200D832B913F0400F14BF8D
:102160000B6A236A23610AE02D1A08E0A06821693E
:10217000424600F0EDFE013D002802DC07E004F1DC
:102180001008002DF2D166610120BDE8F0812761C1
:102190000020BDE8F0810120BDE8F081F8B50446DB
:1021A0000E4615461F460021242209F02BFFB06879
:1021B000A060A580336AE36000F1300305F00F02F0
:1021C00003EB4212D37A13F0080F34D103F0170354
:1021D0002370D17A11F0180F04BF43F00803237065
:1021E0009DF81830E37017F0320F03D0237813F006
:1021F000110F20D107F00F03A370C36AA361918A66
:10220000538B43EA014117F0100F08D011B100F0D1
:1022100037FF80B1A37863F07F03A37002E02162EF
:10222000D369E36117F0200F09D02046E169FFF779
:1022300069FF034620B900202070034600E0012317
:102240001846F8BD38B504460378002B39D090F90C
:102250000230002B1EDA0121FFF72EFE054650B397
:102260000378E52B27D0237813F0080F1CBFE36910
:10227000C361238C4383638C8382134B1B682BB114
:10228000183005F1160198472B8B6B82A37803F069
:102290007F03A370A56805F1240000F003FE50B190
:1022A00005F50C7000F0FEFD28B1286803685B6836
:1022B0009847034630B9637843F001036370002305
:1022C00000E00123184638BD6C1AFF1F10B5044604
:1022D000FFF7B8FF0023237010BD00BF2DE9F041C8
:1022E00092B006460C460192984600238DF82430A1
:1022F0008DF825300378002B44D10B7813F0700F44
:1023000042D0134612782F2A14D10133019313F8C7
:10231000012B2F2AFAD02AB93046A168FFF7DEFD3B
:10232000024632E009A8A168FFF7D8FD024600285E
:102330002BD009AC0127019803A901AA00F06EF97E
:10234000024610B3019A1378A3B13046214603AA7E
:102350003B4600F0ADFB0246B8B109AC35460FCDA7
:102360000FC40FCD0FC42B6823603046FFF7AEFFBC
:1023700009ACE0E73046214603AA434600F098FB4B
:10238000024602E0002200E00022104612B0BDE842
:10239000F08100BF10B58AB004460A4600238DF8CC
:1023A00004308DF8053001A821460223FFF796FF7F
:1023B000034618B101A800F069FA034618460AB0AE
:1023C00010BD00BF2DE9F84F0446884692460378B9
:1023D00013F0080F00F0BB80837813F0020F00F0B9
:1023E000B68013F0040F05D0E169FFF78BFE0028DB
:1023F00000F0AD806369DB439A4500F2A880BAF132
:10240000000F00F0888056464FF001094FF0050B91
:10241000A06863694579C3F3080715EA532521D1FC
:10242000002F40F09C80216981B104F1100200F07E
:102430008FFD0028C0F28B80002840F09580204658
:10244000FFF7E8FC002840F08F8080E0236A3BB96A
:102450002046FFF7DFFC002879D02369236283E060
:10246000236181E0216900F06DFD4119002F40F0EA
:102470008C80B6F5007F7DD318E04A4600E05A46CE
:10248000A068243000F038FD002860D03844414670
:102490002A4602F0B9FC2F44B7F5007F34D1A0687A
:1024A000243000F0FFFC00282ED150E0B6F5806FFC
:1024B00017D3A26813795D1BEDB2C6F34723AB4275
:1024C00028BF2B465D02D06A884202D31844884256
:1024D00061D8A2681068026817694246B84798B97F
:1024E00035E0A368DA6A914205D1002283F82420FE
:1024F0004FF0FF32DA62A368186803689B684246AF
:10250000984720B34FF4007563692B446361A84476
:10251000761B7FF47DAF6369E269934205D9E3617D
:10252000A37863F07F03A37006E01E4B1B681BB10A
:10253000A37863F07F03A370A37813F0080F03D090
:102540002046FFF77FFE10B15046BDE8F88F637854
:1025500043F0010363704FF0FF30BDE8F88F21694D
:1025600000F0F0FC014610E0A068216900F0EAFCF0
:1025700001467EE7C7F50075AE4238BF3546626951
:10258000E3699A42BFF47BAF77E7C7F50075AE42C7
:1025900038BF354671E7002082F824004FF0FF3045
:1025A000D06296E76C1AFF1F042904D800EB4101A2
:1025B000B1F8010070470A2904D8013900EB410045
:1025C000C088704710299DBF013100EB4100808811
:1025D0000020704700231A46510841EAC212C15C2C
:1025E00051FA82F2D2B201330B2BF5D1104670476B
:1025F00038B504460D46CB681BB98968FFF76EFCF9
:1026000038BD0021242209F0FDFC10232370012095
:10261000A070AB68A360EB68236238BD2DE9F00FB2
:1026200082B00378202B05D1431C1846013304786F
:10263000202CFAD08860037823B12F2B04D00546D4
:10264000002407E0002400E0002407193B4622E0B4
:102650002F2BFAD05C2B00F0FA8003F0F706222E25
:1026600000F0F7803A2B00F0F68003F0BF063C2E16
:1026700000F0F380A3F13E06F6B2012E40F2EF80A7
:10268000203BDBB25E2B00F2EC80013415F8013FF9
:10269000002BDDD1D9E71E4613F8015B202DFAD0BF
:1026A0002F2DF8D0166074B13A4612F8013D2E2B4A
:1026B00001D0202B02D1013CF7D104E0FF2CC8BF90
:1026C000002000F3DF804C6000232025CA185573DA
:1026D00001330B2BFAD1002300E00133C25C2E2A18
:1026E000FBD0202AF9D01E46D3F1010738BF0027BE
:1026F000651E06D4425D2E2A03D0013DB5F1FF3F91
:1027000005D1A64207DB00200190009087E0425DE2
:102710002E2AF2D1F5E74FF0070900260196009620
:102720004FF0080AB446AB46C25C202A66D02E2A77
:1027300002D19D4264D122E0222A20D07C2A1ED0E0
:10274000A2F12A085FFA88F8B8F1050F02D82D2AFD
:1027500015D10DE0A2F13A085FFA88F8B8F1050F3B
:102760000DD9A2F15B085FFA88F8B8F1020F06D91B
:10277000A2F121085FFA88F8B8F15D0F02D9AB42E7
:1027800003D178E0AB4202D175E067465F224E4547
:102790006DD809E0AB4241DC5B464FF00A090826E0
:1027A0004FF0100A674635E0A2F161085FFA88F839
:1027B000B8F1190F08D8203AD2B2DDF8008048EA03
:1027C0000A08CDF800800CE0A2F141085FFA88F811
:1027D000B8F1190F05D8DDF8048048EA0A08CDF8E9
:1027E000048006F101085FFA88F80E447273B8F1AC
:1027F000060F07D881F80C8046460BE0674609E0D3
:10280000674607E0464605E05B464FF00A090826A2
:102810004FF0100A0133A34286DB00E000274B7B18
:10282000202B20D057B10198009A00EA0203002B18
:10283000134618BF02230B70012023E0012008700B
:102840000B7B19447E234B7331238B731AE00020DA
:1028500018E0002016E0002014E0002012E0002024
:1028600010E000200EE000200CE000200AE0B9F1AA
:102870000A0F8FD102E0B9F10A0FC5D14B7B202B93
:10288000DCD1F2E702B0BDE8F00F70472DE9F0436C
:102890008BB0044600238DF804308DF805300378A2
:1028A00013F0080F00F08280837813F0020F7FD0BE
:1028B000016A31B1806800F0E3FB0346002800F0B4
:1028C000888020460121FFF7F7FA0546002871D0DD
:1028D000FFF780FE0746E5232B7000232370A568D1
:1028E00005F1240000F0DEFA002871D005F50C7027
:1028F00000F0D8FA00286BD0286803685B68984716
:102900000346002865D0E278002A62D001A821465B
:10291000FFF76EFE034600285BD0E378002B4BD018
:1029200001254FF000084FF0E509A188491B01A8D7
:102930004901FFF7E7FB034600284AD001A84146BA
:10294000FFF7C0FB002839D0C27A0F2A38D10278AD
:1029500002F01F018D4235D1417BB94234D180F85C
:102960000090A36893F8241041F0010183F824102B
:1029700012F0400F14D0A46804F1240000F092FA81
:1029800048B104F50C7000F08DFA30B1206803688E
:102990005B68984702E0002000E00020034618E052
:1029A0000135EDB2E378AB42BFD20FE0002310E077
:1029B00000230EE000230CE000230AE0002308E0DF
:1029C000002306E0002304E0002302E0002300E0EF
:1029D000002318460BB0BDE8F08300BF2DE9F84F87
:1029E00004460F460E7B4FF002094FF07E0A01F1BC
:1029F0000D085FFA89F3012B03D8BA1930339373AA
:102A000024E0796809EB01039BB2B86849B102463A
:102A1000084412F8011B03EB43134B409BB2824264
:102A2000F7D1032E28BF0326321DD2B2B2420DD9F0
:102A300003F00F011046092994BF30313731384473
:102A400041731B09013AD2B2B242F1D8BB1983F8E3
:102A50000DA020460021FFF755FB01254FF00B0B81
:102A600020462946FFF72EFB014630B96078D0F1A9
:102A7000010038BF0020BDE8F88F037853B1C37A56
:102A800013F0080FECD140465A4609F027FA002807
:102A9000E6D105E00120BDE8F88F0020BDE8F88F01
:102AA00009F101091FFA89F9B9F1640FA1D1F4E71D
:102AB0002DE9F04F8FB009900E4605920A935168A8
:102AC0000491337813F0700F00F0D5810378002B58
:102AD00040F0D381137813F0030F09D001F10C02F9
:102AE0007F4BA3FB02139B0801335FFA83FA01E0DB
:102AF0004FF0010A30460021FFF704FB00270B9737
:102B000006973C46B84608974FF0010B059A0D32E0
:102B1000079220E04FF000081DE04FF000081AE097
:102B20004FF0000817E006934FF0000813E04FF055
:102B3000000810E0039C4FF000080CE0039C4FF0ED
:102B4000000808E04FF0000805E0CDF820B002E0F2
:102B5000DDF83480039C7369C3F34F19304659463E
:102B6000FFF7B0FA054620B97378002B00F09B8080
:102B700085E10378E52B00D043B9002C08BF4F4610
:102B800054453CBF0134E4B223B98CE0544538BF0E
:102B9000002401E0E52BBDD02E2BBED0EA7A0F2A0F
:102BA0005AD1B8F1000F09D113F0400FD3D003F080
:102BB0001F086B7B0B93CDF818800AE006994A1E1C
:102BC000D2B206929342ABD16A7B0B998A42AAD1C8
:102BD0000693069A531E03EB430203EB8202039211
:102BE0009146049B9342A2D902F10D010C91CDF8BC
:102BF0003480904603940C46C8EB09012846C9B2BC
:102C0000FFF7D2FC049A914507D1DDF83480039C8C
:102C1000002818BF4FF000089DE7FF288AD8C0B2EF
:102C2000A0F14103DBB2192B9CBF2030C0B209F1E7
:102C3000010305998A6812F80920A2F14101C9B27D
:102C400019299CBF2032D2B290427FF477AFA342C1
:102C50003FF47EAF9946CFE712F0080F7FF472AFD2
:102C6000B8F1000F0BD0069A012A40F00A812846DD
:102C7000FFF7B0FC0B9B98420FD000230CE12846D5
:102C800007990B2209F02AF900287FF464AF05990F
:102C90000B7813F0010F7FF458AF0A9A12F0800FEF
:102CA00000F0DF80EFE00A9901F04203422B40F090
:102CB000EC80002C18BFB946544522D2002530467E
:102CC0002946FFF7FFF930B97378002B40F0DF8019
:102CD000544507D315E00134E4B2A245EFD810E023
:102CE0004FECC44E3046FFF7A1F80346002800F031
:102CF000D380B3681B79012B03D81034E4B2A2450A
:102D0000F0D8089A3AB130460599FFF767FE0346B6
:102D1000002800F0C18030464FEA4911FFF7F2F970
:102D20000346002800F0B8800AF1FF3818F0FF08C9
:102D30005DD04746002548F0400A049CDDF814B0F9
:102D4000CDF810A030462946FFF7BCF9814600288F
:102D500000F09F80B36893F8242042F0010283F8CA
:102D600024204745DDF810A018BFBA4680F800A01F
:102D70000F23C37205730BF10D00FFF72BFC89F8CD
:102D80000D0089F81A5089F81B50DBF808100AF07A
:102D90001F0A0AF1FF3A0AEB4A0E0AEB8E0E724640
:102DA0002B468E44A24202D21EF8030004E0A01A71
:102DB00018BF6FF0000080B2D9B2042904D809EB23
:102DC0004301A1F801000AE00A2903D809EB4301F5
:102DD000888004E010299CBF09EB4301C8800133BF
:102DE00001320D2BDED1013F17F0FF07AAD1736925
:102DF000C3F34F1930460021FFF764F90446002859
:102E000049D00021202209F0FDF8059B53F80D1F41
:102E10005A68216062601A899B7A2281A37205999F
:102E20000B7803F0180323731D4B1B682BB104F1BF
:102E3000100004F10E01984707E021232374282392
:102E400063740023A3730823E373238A63822383B9
:102E5000E389E382B36893F8242042F0010283F807
:102E60002420CDF80080099831464A460A9BFFF796
:102E700095F9034610E000230EE000230CE0002348
:102E80000AE0002308E0002306E0002304E000231A
:102E900002E0002300E0002318460FB0BDE8F08FE9
:102EA0006C1AFF1FF8B50446037813F0010F1DD00C
:102EB00000F10C064368186803689B68A1683246F5
:102EC00098470546A8B1237813F0020F09D063682C
:102ED000186802681969A368976819443246B847A8
:102EE00030B1237823F00103237002E0012500E0D4
:102EF00005462846F8BD00BF70B504460D46164687
:102F000083688B4211D0FFF7CDFFB0B116F0040FEC
:102F100008D16368186803681B68294604F10C022D
:102F2000984760B100232370A56006F0030623785C
:102F30001E43204600F80C6B70BD002070BD0020C1
:102F400070BD00BF023983799940406908447047D9
:102F500070B504460D461646C379202B0FD1816902
:102F600000F50C7001EBD5110222FFF7C5FFD8B1B7
:102F700005F07F0550F8253023F070430EE0102B4C
:102F800014D1C1F30721836900F50C7019440222A2
:102F9000FFF7B2FF60B1EDB230F81530E1698B4256
:102FA00008D83360012006E0FF2004E0FF2002E0A3
:102FB000FF2000E0002040B270BD00BF38B50C46D5
:102FC0001546C379202B0ED1816900F50C7001EBF9
:102FD000D4110322FFF790FFB0B104F07F0440F852
:102FE0002450012038BD102B10D1C1F30721836973
:102FF00000F50C7019440322FFF77EFF40B1E4B2E4
:1030000020F81450012038BD002038BD002038BD04
:10301000002038BD2DE9F04182B0054690460F46AC
:1030200009B9C66800E00E4634460134EB699C429B
:1030300088BF02242846214601AAFFF789FF0028FD
:1030400004DB08B1019B1BB1B442EED1002613E0B2
:10305000284621466FF07042FFF7B0FF064658B190
:103060003FB1284639462246FFF7A8FF10B9064669
:1030700002E0EC60C8F80040304602B0BDE8F081E4
:10308000F0B583B005460C4600272846214601AA24
:10309000FFF75EFF061E0EDB284621463A46FFF785
:1030A0008DFF014640B1EB689C4238BFEC60019C4B
:1030B000002EEAD100E00021084603B0F0BD00BFB9
:1030C00038B504460023C3710122C260A06280F8B3
:1030D00024304FF0FF32C262C4F8340280F830323C
:1030E000C0F838220D46A9B1042971D824301946F8
:1030F0001A46FFF701FF00286CD000EB051595F884
:10310000AE3105F5D47513F07F0F65D1D5F80E50AB
:103110000DB963E0002504F1240029460022FFF7E1
:10312000EBFE034600285BD0B0F80B20B2F5007F21
:1031300058D1027C022A57D1C289002A56D0407B3E
:103140002071421E62710022A27101280DD0114629
:10315000012203E012B9A171002038BD5200D2B2A1
:103160000131C9B29042F5D1A171D98A01B9596A28
:103170002161DA892A44A261B3F81100208102EBAF
:1031800041022262B3F81110490101F2FF1102EB72
:1031900061226261B3F8131001B9196AAA1A1144C5
:1031A000A27921FA02F2511CE16140F6F4718A42DF
:1031B00003D80C23E371002038BD4FF6F4718A4226
:1031C00091BF1023DB6A23622023E371012038BD05
:1031D000002038BD002038BD002038BD002038BD9B
:1031E000002038BD002038BD002038BD002038BD8B
:1031F000044B1B6804481840D0F1010038BF002080
:10320000704700BF30100B4001000F00024B1868E0
:1032100000F00100704700BF24100B40014B1878EC
:10322000704700BFAC1AFF1F30B44FF47A7303FB32
:1032300000F0274B98423FD8012326495B001A0132
:10324000B1FBF2F2904238D2FF2BF7D935E021469C
:103250000132B5FBF1F4A04205D2CC18102AF6D108
:1032600001E0194601224FF47A7000FB01F1194880
:10327000B0FBF1F1184801601849086820F0080017
:103280000860086820F47F2020F47F6040F460200C
:10329000DB0103F47F431843013A1201D2B2104319
:1032A00008600F4A136813F0080FFBD00B4B1A6825
:1032B00042F008021A6009E00123064AB2FBF3F269
:1032C0009042CED259000122024DC1E730BC704776
:1032D0004FA9AB000095BA0AB41AFF1F2C100B407F
:1032E00024100B400120704770B5044601F0FEFF2A
:1032F0000646064D04E001F0F9FF801BA84203D802
:10330000A0470028F7D170BD012070BD20A10700A3
:1033100038B504460D461248FFF7E6FFC8B9114B11
:103320001D6004331C601048FFF7DEFF98B90F4A98
:1033300011680F4B1960196811601B6813F0010FB9
:103340000BD00B4B1B6813F4702F14BF002001200F
:1033500038BD002038BD002038BD002038BD00BF7A
:103360000D32000008100B40F131000030100B400E
:10337000941AFF1FF0B585B00E461A4B1968FFF777
:10338000C7FF074650B3184B1B680093174B1B68C9
:103390000193174B1B680293164B1B68039306F1AE
:1033A0000F040023144D013C1A46002BB8BFDA1C51
:1033B00022F0030204A9114413EA050203D5013ADD
:1033C00062F003020132D20051F8101C21FA02F21D
:1033D000227001330F2BE6D10023F373384605B07A
:1033E000F0BD00BF841AFF1F10100B4014100B40DB
:1033F00018100B401C100B400300008008B5074854
:10340000074B1968FFF784FF30B1064B186880F44A
:103410008070C0F3002008BD012008BD00001A0D17
:10342000841AFF1F10100B4070B504460C4B186037
:1034300001F05CFF06460B4D0BE001F057FF801BCF
:10344000A84204D90022064B1A60012070BD03F087
:10345000D1F8A0470028F0D1014B186070BD00BF23
:10346000B01AFF1F20A1070008B50A48FFF7DCFFCC
:1034700060B9094B1B6813F0020F09D0064B1A689C
:10348000064B1A4214BF0020012008BD002008BDD1
:10349000002008BD1D320000941AFF1F00007F119C
:1034A00038B504460D461548FFF71EFF38B12922EE
:1034B000134B1A70E722134B1A6000231CE0012201
:1034C000114B1A700022114B1A60114B1D6008330A
:1034D0001C60104A043B1A600F4A34331A600F4ACA
:1034E0002C3B1A60FFF7C0FF034628B92321044A8A
:1034F0001170F121034A1160184638BDFD330000F8
:103500008808FF1F901AFF1FAC1AFF1F941AFF1F95
:1035100000100B404000010002007F1111003A062C
:10352000F8B506460F4614461D4612F0030F00D1AB
:1035300043B96022174B1A704FF4A572164B1A60EC
:103540000020F8BD1548FFF76FFF40B12922114B4D
:103550001A7040F24D12104B1A600020F8BD012283
:103560000F4B1A7000220F4B1A600F4B1C600F4B51
:103570001B7803B97F020E4B1F602D0445F40075C4
:10358000043B1D600B4A34331A602C3B1E60FFF76E
:103590006BFFF8BD8808FF1F901AFF1FFD33000066
:1035A000AC1AFF1F941AFF1F00100B40881AFF1F50
:1035B00008100B4002007F1130B5ADF5017D1446B7
:1035C00012F0030F10D118E03122114B1A7040F2A3
:1035D0005122104B1A60002516E0204669464FF430
:1035E000007201F011FC0FE00B486A460123FFF75F
:1035F00097FF05460028F0D1E6E707480123FFF7CB
:103600008FFF05460028DFD028460DF5017D30BD2F
:103610008808FF1F901AFF1F11003A112DE9F04191
:1036200006460C46154612F0030F10D0E3B101EB2D
:10363000030832681768304621462A46B8470246D2
:1036400098B1013405F500754445F2D10DE0084804
:10365000FFF766FF024640B93121064B197040F270
:103660006321054B196000E001221046BDE8F0819E
:1036700037003A128808FF1F901AFF1F10B5ADF5EA
:10368000007D0C4612F0030F06D0684611464FF439
:10369000007201F0B9FB6A46084821460123FFF792
:1036A0003FFF034630B93221054A117040F2C9216B
:1036B000044A116018460DF5007D10BD01003A184E
:1036C0008808FF1F901AFF1F2DE9F04106460C469F
:1036D000154612F0030F10D0E3B101EB0308326876
:1036E0009768304621462A46B847024698B10134C9
:1036F00005F500754445F2D10DE00848FFF710FFCD
:10370000024640B93321064B197040F2D921054BCE
:10371000196000E001221046BDE8F08127003A1947
:103720008808FF1F901AFF1F0023054A1360083AFC
:1037300010680449086009681160034A13707047F3
:1037400038100B40941AFF1FAC1AFF1F2DE9F047E9
:1037500090B000239E4A13709E4A13709E4A1370C5
:103760009E4A13709E4A116841F04061116002F553
:103770006A323032116841F400311160994A1360A5
:103780000432136004321360043213600432136095
:10379000043213604FF08072934B1A601A4613681C
:1037A00013F0807FFBD14FF4C870FFF73DFD40F26E
:1037B00043438C4A1360043213604FF4886104322F
:1037C0001160043213600432136004321360874ABC
:1037D000874B1A606022874B1A704FF40032A3F2B5
:1037E00049331A60804B1A6842F000621A601A4628
:1037F000136813F0006FFBD100200146FFF788FD2E
:10380000044638B92022734B1A7040F2CD127A4B1D
:103810001A603CE10A24794E4FF4D57530462946AA
:10382000FFF776FD90B1764B1B68B3F5D57F08D0D6
:103830002522684B1A7040F2D3126F4B1A60002495
:1038400025E10122654B1A706E4F08E0013CE5D17D
:10385000624B1B78002B6B4F08BF4FF4401701F0F1
:1038600045FD8046684C694E654D20460021FFF7B6
:103870004FFD58B130463946FFF74AFD30B101F0EF
:1038800035FDC8EB0000624B984208D94322514BEA
:103890001A704FF4EF72584B1A600024F7E02B684F
:1038A000002BE2DA564B19685A4A11601B6813F074
:1038B000804F02D00122484B1A7057480021FFF771
:1038C00027FD044638B92122424B1A704FF4F47296
:1038D000494B1A60DBE051480021FFF719FD04460F
:1038E00038B922223B4B1A7040F2EB12424B1A605D
:1038F000CDE0434B1B681B0C1B04494A136049482D
:103900004949FFF737FD044638B92622314B1A7072
:103910004FF4F872384B1A60B9E044484449FFF755
:1039200029FD044638B927222A4B1A7040F2F312B7
:10393000314B1A60ABE03F48394B1968FFF7E8FCA0
:10394000044638B92422234B1A704FF4FB722A4BD9
:103950001A609CE02C48324B1968FFF7D9FC28B15B
:1039600035480221FFF7D4FC044640B94022194BE8
:103970001A704FF4FD72204B1A60002487E02F4B21
:103980001A6822F006021A601A6842F002021A60EF
:103990004FF010121C331A606FF07F406946FFF73A
:1039A0007FFD90B19DF80D3013F0020F0DD024482B
:1039B0006946FFF775FD40B19DF8103003F00F0325
:1039C000012B08BF4CF250303CD046F2A81039E031
:1039D000981AFF1F8808FF1F881AFF1F701AFF1F01
:1039E00000D8004000D004402C100B400B007F1189
:1039F00034100B4051E400E0901AFF1F00001A0839
:103A000010100B400000304000001A37000002295F
:103A100020A107008C1AFF1F0000090200001A03F2
:103A2000841AFF1F000009099C1AFF1F0000090AE1
:103A3000741AFF1F00001B0700001A0628100B4015
:103A4000F1FFFF80DFF860A00023CAF80030DFF844
:103A50005C90C9F80030DFF85880C8F800300E4F8D
:103A60003B600E4E33600E4D2B60FFF7DDFB40F2E6
:103A70004343CAF80030C9F800304FF48862C8F8F0
:103A800000203B6033602B600122064B1A702046F9
:103A900010B0BDE8F08700BF0CD0044010D0044047
:103AA00014D00440981AFF1F00D0044004D00440F2
:103AB00008D0044038B505460C46084600212822A7
:103AC00008F0A0FA204609490B2208F077FD0023F0
:103AD000E3720122E260AA682261032262616362EA
:103AE0000023A361E361024B236238BD5805010046
:103AF0000AD7233C10B4034C0460816042715DF826
:103B0000044B70476805010070B50E461546094C18
:103B10004179204600F0CEFB2046314600F0EAF91C
:103B20002046294600F0E6F9204600F0E7FC012097
:103B300070BD00BF101BFF1F08B50A4601733D2171
:103B4000FFF7E2FF1E2001F0F5FB08BD70B504464B
:103B50000E46057B0021FFF7EFFF192001F0EAFB7D
:103B6000204607210022FFF7CFFF2EB120463F213C
:103B70008022FFF7C9FF04E020463F210022FFF723
:103B8000C3FF0A2001F0D6FB20462946FFF7D4FFE9
:103B9000142001F0CFFB70BD70B505460E460B4CEE
:103BA0002046697900F086FB2046314600F0A2F9F4
:103BB000204600F0A3FC20466979012200F098FC21
:103BC000204600F0C3F9C0B270BD00BF101BFF1F3C
:103BD000F8B504460F46254800F060FA204600215B
:103BE000FFF7DAFFA02809D04FF47A7001F0A2FBAA
:103BF00020460021FFF7D0FFA02835D12046002124
:103C0000FFF79AFF20463F212022FFF77DFF002586
:103C10000A2602E0304601F08DFB20462946FFF7D8
:103C2000BBFFA028F6D1322001F084FB20463E21C4
:103C30000022FFF769FF0A2001F07CFB20460721E4
:103C40000022FFF761FF20463F210022FFF75CFFC3
:103C50000A2001F06FFB20463946FFF76DFF142064
:103C600001F068FB0120F8BD0020F8BD101BFF1F0C
:103C7000F8B50F4616461D46069C3521FFF78CFF0A
:103C80000FB183093B7016B1C0F30113337015B146
:103C9000C0F381032B7014B100F003002070F8BD55
:103CA0002DE9F04107460E4690461D46104C204631
:103CB000797900F0FFFA2046314600F01BF92046E2
:103CC00000F01CFC204679792A4600F011FC65B111
:103CD00008F1FF346E1E58FA86F6054D284600F0AE
:103CE00035F904F8010FB442F8D10120BDE8F081A4
:103CF000101BFF1FF0B583B004460E461546002189
:103D0000182208F07FF900230093ADF80430304604
:103D100029466A460623FFF7C3FF9DF801009DF878
:103D2000003043EA00209DF803209DF8023043EA6A
:103D300002279DF805209DF8043043EA0226083D3D
:103D4000262D00F28580DFE805F068838383838376
:103D50001483838383833083838383834C8383832C
:103D6000838383838383838383836883838383833E
:103D7000680000B207F0E8F90022374B07F04AFA72
:103D8000C4E9000138B207F0DFF90022324B07F036
:103D900041FAC4E9020130B207F0D6F900222E4BF5
:103DA00007F038FAC4E9040152E000B207F0CCF998
:103DB00000222A4B07F058FBC4E9000138B207F093
:103DC000C3F90022254B07F04FFBC4E9020130B2D2
:103DD00007F0BAF90022214B07F046FBC4E90401C1
:103DE00036E000B207F0B0F900221B4B07F012FAE0
:103DF000C4E9000138B207F0A7F90022164B07F01A
:103E000009FAC4E9020130B207F09EF90022124B10
:103E100007F000FAC4E904011AE000B207F094F9CF
:103E200000220F4B07F020FBC4E9000138B207F075
:103E30008BF900220A4B07F017FBC4E9020130B2EC
:103E400007F082F90022064B07F00EFBC4E90401DB
:103E5000204603B0F0BD00BF0000B03F00208C4002
:103E60000000594070B588B005460C462426084627
:103E70000021324608F0C6F82660AB686360032371
:103E8000A3600E4B1B680193019B236102A8294686
:103E90001A22FFF72FFFDDE9020107F09DFC6061A8
:103EA000DDE9040107F098FCA061DDE9060107F0F7
:103EB00093FCE061012008B070BD00BF481BFF1FEC
:103EC000044BD878C0B2044B1B6898421CBF024B0D
:103ED00018607047006006408C08FF1F08B5FFF7A8
:103EE000EFFF10F0020FFAD00222014BDA7008BD8A
:103EF000006006400B4B1B7813B90B4B1B7873B15A
:103F00000A4B1B78202B03D9012303710020704733
:103F1000581C064A1070064AD154012070470020F0
:103F2000704700BF221BFF1FE41AFF1F231BFF1F48
:103F3000C01AFF1F704700BF024B1878024B1B7856
:103F4000C01A7047211BFF1F201BFF1F074B1B7848
:103F5000074A12789A4205D9591C044A1170054A39
:103F6000D05C70474FF0FF30704700BF201BFF1F31
:103F7000211BFF1FE81AFF1F054B1B78054A12780B
:103F80009A4286BF044AD05C4FF0FF30704700BFB2
:103F9000201BFF1F211BFF1FE81AFF1F08B5104B36
:103FA000DB7813F0200F0CD1122001F061F80D4BDB
:103FB0001B689BB100210C4A11700C4A107898477D
:103FC00008BD0B4A13780133DBB21370012B02D802
:103FD000084B1B7813B9122001F04AF808BD00BF46
:103FE00000600640BC1AFF1F201BFF1F211BFF1F84
:103FF0000C1BFF1FE41AFF1F38B514460D4B1B782E
:1040000013B90D4B1B7893B10C4B1D78C5F12103EF
:10401000A34202D2012202711C46094828442246CA
:1040200000F0F2FE2544054B1D70204638BD0020EF
:1040300038BD00BF221BFF1FE41AFF1F231BFF1FF9
:10404000C01AFF1F002202714FF47A71816002735F
:10405000014A0260704700BF880501000B4B1B68D6
:1040600013F0400F10D00A4B994203D82C22094B71
:104070005A7006E0084B994294BF1C221222054B4D
:104080005A700422034B9A71704700BF3480044079
:104090007F1A0600006006403F420F0008B500236B
:1040A0002C4A13702C4A116841F0400111602B4AD0
:1040B00093702B4B1B78122B04D14FF41972294BA0
:1040C0001A601AE0112B04D14FF41972264B1A60B2
:1040D00013E0222B04D140F26452244B1A600CE00E
:1040E000082B04D140F26472214B1A6005E0302B9A
:1040F00003D14FF419721F4B1A601F4B1B78132BFF
:1041000004D14FF419721D4B1A601AE0102B04D120
:104110004FF419721A4B1A6013E0212B04D140F2AC
:104120006452184B1A600CE0072B04D140F2647201
:10413000154B1A6005E02F2B03D14FF41972134B66
:104140001A601349FFF78AFF044B20225A7180221C
:104150009A7008BDE41AFF1F3480044000600640D6
:104160008908FF1F0CA0044004A0044064D0044050
:104170000CC0044024C004409008FF1F08A0044065
:1041800000A0044060D0044008C0044020C00440A7
:10419000A086010008B53D4BDB78DBB213F0100FB1
:1041A00006D01021394AD17013F0400F03D108BD59
:1041B00013F0400F2CD013F0040F1BD00023344A0F
:1041C0001370344A1370344B1B681BB19847314B42
:1041D0001B782BB901222F4B1A7000222F4B1A701B
:1041E0002A4BD0229A702D4A12781A7101222C4B38
:1041F0001A7009E00122264B1A700022294B1A700E
:10420000224BC0229A701B790222204BDA7008BD23
:104210001E4A927812F0100F1CD013F0010F14D127
:104220001F4B1B781B4A12789A4207D9591C1C4A0B
:1042300011701A4AD25C154B1A7102E00022134B1E
:104240001A71D022114B9A701BE0104BC0229A7049
:104250001B7916E00022144B1A7012201349032216
:1042600000F0C4FF094B1B79DAB20E4B1B781F2BF1
:1042700007D80749097821B1581C0A4908700C4928
:10428000CA540222014BDA7008BD00BF006006402C
:10429000B81AFF1F231BFF1F081BFF1FC01AFF1F99
:1042A000241BFF1F211BFF1F0C1BFF1F9D3F000036
:1042B000E81AFF1F4900044B19700123034A1370C9
:1042C000034A1370704700BFC01AFF1F221BFF1F55
:1042D000231BFF1F2DE9F04182B08846374B122285
:1042E000DA709B7813F0200F03D0B422334B9A700E
:1042F0001DE0334B1B680093009D314C0CE023689C
:104300000193019B5B1B0F2B06D92C4B00229A704B
:1043100080229A7004204EE0FFF7D2FD10F0200FAB
:10432000EDD10022274B1A70B022244B9A70FFF770
:10433000C7FD10F0200FFAD0234B1B787BB300246D
:10434000224E1E4D204F335D2B71FFF7B9FD10F04B
:10435000020F02D110F0200FF7D10223EB70FFF70C
:10436000AFFD10F0100F04D08022144B9A7004207F
:1043700018E010F0200F04D18022104B9A70042016
:1043800010E010F0010F04D0002C0CBF022003201D
:104390000BE00134E4B23B78A342D4D801E0002022
:1043A00000E00020B8F1000F02D08022034B9A7089
:1043B0000022074B1A7002B0BDE8F0810060064091
:1043C000481BFF1FE41AFF1F231BFF1FC01AFF1FFC
:1043D000221BFF1F2DE9F8430D4614469846002383
:1043E0003E4A13703E4A13703E4B1222DA709B789D
:1043F00013F0200F03D0B4223A4B9A700AE0FFF773
:104400005FFD10F0200FFAD10022374B1A70B02256
:10441000344B9A706D0045F00105EDB2314B1D71C2
:10442000FFF75CFDFFF74CFD10F0110005D0802276
:104430002C4B9A700020BDE8F88344B9B8F1000F06
:104440000CBFA0228022274B9A70BDE8F883012C74
:1044500004D1244BA8229A701B7938E0214BA0226A
:104460009A701B79012C32D900251E4E4FF0A809F5
:104470001E4FFFF733FD013CE4B2012C08BF86F864
:1044800002901F2D04D86A1C33797B55D5B200E009
:104490003379012CEDD1FFF721FDB022114B9A7039
:1044A0001F2D07D82B465D1CEDB20E4A11790F4A1D
:1044B000D15401E00B4B1B79B8F1000F02D08022E0
:1044C000084B9A70064B1D702846BDE8F883FFF72D
:1044D00005FDB022034B9A700023E4E7201BFF1F69
:1044E000211BFF1F00600640E41AFF1FE81AFF1F90
:1044F00008B50123FFF76EFF08BD00BF08B5012115
:10450000FFF7E8FE08BD00BF08B50248FFF79AFDB7
:1045100008BD00BF101BFF1F2DE9F00F82B00A9FDE
:10452000002B009336DD0B9B9800DDF830904FEAAE
:10453000870B88464FF0000A0192DFED186A1EE0F3
:10454000E1EC016A002F10DD2A466346B3EC017AE4
:10455000D2ED007A67EE277A11ED017A77EE277AAD
:1045600041ED017A0244A342F0D10435B142E7D1D2
:104570000AF1010A8144D844009B9A450AD00B9B5A
:10458000002BF5DD019D00EB090608EB0B04494605
:10459000C446D5E702B0BDE8F00F70470000000048
:1045A0002DE9F00FDDF820C0DDF82490002B20DD90
:1045B0004FEA8C088B4601EB080A002637460DE0CF
:1045C000B1EC017AF0EC017A77EE277AE4EC017A2B
:1045D000A942F5D1013746449F420AD0BCF1000FF1
:1045E000F8DD06EB0A0509EB060490190BEB060152
:1045F000E6E7BDE8F00F70472DE9F00FDDF820C0C9
:10460000DDF82490002B20DD4FEA8C088B4601EB6F
:10461000080A002637460DE0B1EC017AF0EC017A89
:1046200077EE677AE4EC017AA942F5D10137464486
:104630009F420AD0BCF1000FF8DD06EB0A0509EB3A
:10464000060490190BEB0601E6E7BDE8F00F704792
:104650002DE9F003B2F100091ADD4FEA8308069A4A
:104660004FEA89074FF0000C0BE050F8045B25601F
:104670003C448642F9D10CF1010C41440432CC4552
:1046800006D0002BF7DD08EB010614460846ECE7E0
:10469000BDE8F003704700BF70B4002A13DD9E0030
:1046A00000250BE0D0ED007A67EE807AE0EC017A2D
:1046B000A042F7D101353144954204D0002BF9DDF9
:1046C00074180846EEE770BC704700BF2DE9F04F44
:1046D0008BB000AF7962501E38604FEA820909F151
:1046E0000A0323F00703ADEB030DC7F80CD0002A33
:1046F00040F3A6803A61CA46CB46C7F8089000232B
:10470000FB619C46541CBC619FED726AF7EE005A37
:10471000786A786087E0D1ED007AF5EEC07AF1EE44
:1047200010FAD4BFB1EE677AB0EE677AB4EEE67AEB
:10473000F1EE10FA09DBF5EEC07AF1EE10FAD4BF13
:10474000F1EE676AF0EE676A18460133514493420E
:10475000E1D138623B6A02FB03F101EB0C037C6A96
:1047600004EB8303D3ED007AF5EE407AF1EE10FA14
:104770000BD1594C23685B6820465849272298473B
:10478000204601F00DFD0020A0E0386A844500F0CD
:1047900083800CFB02F07C6A04EB800304EB810154
:1047A0003C6920447C6A04EB80001C680D6843F877
:1047B000045B41F8044B8342F7D16DE0D3ED007AFE
:1047C00067EE877AE3EC017A8B42F7D1786A00EBE7
:1047D0008C067D680024C7F814A0D7F808A0A4456B
:1047E00013D0D6ED006A86ED006A09EB050041465C
:1047F0002B4693ED007AF1EC017A67EEA67A77EE1C
:10480000677AE3EC017A8342F3D101345D44564484
:104810009442E4D1D7F814A0F96901F1010C944550
:104820000ED0C7F81CC0624594DDBB690CFB03F1D8
:104830007C6A04EB81016346F0EE466A386A6AE7F7
:104840003868002824DBF96801EB820CA9F1040622
:104850007B6A1E444FF0000882469B465CF8041DAC
:1048600051450ED0002A0CDD0BEB8101334640464A
:104870001C680D681D600C6001304B444944904237
:10488000F6D10AF1FF3A043EBAF1FF3FE6D101E06A
:1048900001201BE0012019E03C6AF86840F82C4038
:1048A000B9690CFB01F37C6A04EB830191ED007A9A
:1048B00085EE877AC1ED005ACCEB030304EB830845
:1048C0003869034404EB8301434677E72C37BD4640
:1048D000BDE8F08F00000000401CFF1FA405010090
:1048E00038B505460C4608460021282207F08AFB09
:1048F00020460A490B2207F061FE0023E3720122E1
:10490000E260AA682261062262616362044BA361CD
:10491000044BE361044B236238BD00BFCC050100AA
:1049200000808944000096430AD7233C084B5A89EB
:104930008A1A198901FB02F2D213B3F91200C002DC
:10494000B3F91430134490FBF3F01044704700BFE8
:104950002C1BFF1F014A026081607047E0050100C7
:1049600008B5C0EE800A10EE900A06F0FFFB41EC9D
:10497000100B9FED0B1B04F0EFFE00200C4953ECD5
:10498000102B06F093FA08A3D3E9002306F042FCAB
:1049900006F022FF00EE100A08BD00BFAFF3008052
:1049A00000000020C05BC83F0000000040A5E540BB
:1049B0000000F03FAFF3008070B506460D46084C8E
:1049C00020467721FFF776FC20463146FFF792FA22
:1049D00020462946FFF78EFA2046FFF78FFD70BD6F
:1049E000101BFF1F08B5054B197889013431F420DD
:1049F00001F0FC01FFF7E0FF08BD00BF441BFF1FF3
:104A000070B506460D460C4C20467721FFF752FC48
:104A100020463146FFF76EFA2046FFF76FFD20462D
:104A200077210122FFF764FD2046FFF78FFA2870F7
:104A30002046FFF763FD70BD101BFF1F00B583B05C
:104A4000F4200DF10701FFF7DBFF9DF8070080F070
:104A50002000C0F3401003B05DF804FB70B50646BB
:104A60000D460F4C20467721FFF724FC20463146A7
:104A7000FFF740FA2046FFF741FD2046772102224A
:104A8000FFF736FD2046FFF761FA06462046FFF79E
:104A90005DFA40EA062028802046FFF72FFD70BD12
:104AA000101BFF1F10B582B00C460DF10601FFF779
:104AB000D5FFBDF80630238002B010BD10B582B01E
:104AC0000C462548FFF7EAFAD0200DF10701FFF761
:104AD00097FF9DF80730552B3AD1032C28BF0324AC
:104AE0001E4B1C701E4CAA202146FFF7DBFFAC209A
:104AF000A11CFFF7D7FFAE20211DFFF7D3FFB02089
:104B0000A11DFFF7ABFFB22004F10801FFF7A6FFDC
:104B1000B42004F10A01FFF7A1FFB62004F10C0153
:104B2000FFF7C0FFB82004F10E01FFF7BBFFBA206A
:104B300004F11001FFF7B6FFBC2004F11201FFF7EA
:104B4000B1FFBE2004F11401FFF7ACFF012000E02B
:104B5000002002B010BD00BF101BFF1F441BFF1F31
:104B60002C1BFF1F10B582B00446F4202E21FFF746
:104B700023FF062000F0DEFBF6200DF10601FFF713
:104B80006DFFBDF80630236002B010BDF0B583B0F4
:104B900007460D4602A8002240F8042DFFF7E2FF69
:104BA000464C217889013431F42001F0FC01FFF7F3
:104BB00003FF2378012B07D013B1022B08D00BE0A1
:104BC000052000F0B7FB0AE0082000F0B3FB06E088
:104BD0000E2000F0AFFB02E01A2000F0ABFBF62045
:104BE0000DF10201FFF73AFFBDF802603602012025
:104BF00000F0A0FBF8200DF10101FFF701FF2F4BA2
:104C00001C789DF801301E44C4F108031E4138464B
:104C10000199FFF78BFEA0F57A6000FB00F21213FA
:104C2000274BB3F9047000FB07F7B3F90C1001FB35
:104C300002F1091401EB67310231891001F50041DD
:104C4000DF8807FB01F1C90BB3F90070B3F90EC09F
:104C500002FB0CF2B3F9023000FB03F0C01200EBD0
:104C6000E22202EB8703A3400233A6EBA3064CF239
:104C70005033234103FB06F3002BA7BF5C00B4FBBA
:104C8000F1F4B3FBF1F46400231203FB03F340F6E9
:104C9000DE3202FB03F30B4A02FB04F2121402EBB6
:104CA000234303F6CF6304EB231407EE104AF8EE18
:104CB000C77AC5ED007A03B0F0BD00BF441BFF1FEB
:104CC0002C1BFF1F43E3FFFF70B582B005460C4667
:104CD000242608460021324607F094F92660AB6886
:104CE00063600623A36000232361284601A9FFF720
:104CF0004DFFDFED057A9DED017AC7EE277AC4ED11
:104D0000057A012002B070BD0000C842F0B583B042
:104D100005460E4600230193F6200DF10201FFF730
:104D20009DFEBDF802703F02F8200DF10101FFF772
:104D300067FE9DF801201744304C2378C3F1080327
:104D40001F4101A8FFF70EFFFFF74CFE284601990F
:104D5000FFF7ECFDA0F57A6000FB00F52D1322783B
:104D6000274BB3F9044000FB04F4B3F90C1001FB2A
:104D700005F1091401EB64340234A41004F5004475
:104D8000D98801FB04F4E40BB3F90010B3F90EC0A9
:104D900005FB0CF5B3F9023000FB03F0C01200EB89
:104DA000E52505EB810191400231A7EBA1074CF20B
:104DB000503141FA02F202FB07F2002AA7BF53006A
:104DC000B3FBF4F3B2FBF4F35B001A1202FB02F242
:104DD00040F6DE3101FB02F20A4901FB03F109143E
:104DE00001EB224202F6CF6203EB221307EE103AE8
:104DF000F8EEC77AC6ED007A03B0F0BD441BFF1F82
:104E00002C1BFF1F43E3FFFF844641EA000313F01E
:104E100003036DD1403A41D351F8043B40F8043BC1
:104E200051F8043B40F8043B51F8043B40F8043B84
:104E300051F8043B40F8043B51F8043B40F8043B74
:104E400051F8043B40F8043B51F8043B40F8043B64
:104E500051F8043B40F8043B51F8043B40F8043B54
:104E600051F8043B40F8043B51F8043B40F8043B44
:104E700051F8043B40F8043B51F8043B40F8043B34
:104E800051F8043B40F8043B51F8043B40F8043B24
:104E900051F8043B40F8043B403ABDD2303211D3C4
:104EA00051F8043B40F8043B51F8043B40F8043B04
:104EB00051F8043B40F8043B51F8043B40F8043BF4
:104EC000103AEDD20C3205D351F8043B40F8043BC4
:104ED000043AF9D2043208D0D2071CBF11F8013BC2
:104EE00000F8013B01D30B8803806046704700BF88
:104EF000082A13D38B078DD010F003038AD0C3F197
:104F00000403D21ADB071CBF11F8013B00F8013B78
:104F100080D331F8023B20F8023B7BE7043AD9D337
:104F2000013A11F8013B00F8013BF9D20B7803700C
:104F30004B7843708B78837060467047024B1A68D9
:104F400001321A60704700BF481BFF1F08B50D4CA7
:104F5000236813F4802F01D000F07CFB236813F446
:104F6000806F01D001F05AFF236813F4006F01D065
:104F700002F016FB236813F4805FE9D002F0D4FD41
:104F8000E6E700BF3480044008B5FFF7DFFF00BF4D
:104F90001022014B1A80704700200540704700BF67
:104FA000024A136818441060184670479408FF1F9F
:104FB000FEE700BFEFF31383ABB9EFF31083ABB998
:104FC000EFF3058323B10F2B05D9094A985C03E061
:104FD0004FF4807000E00020EFF311833BB1834277
:104FE00038BF184670474FF0FF30704700207047B9
:104FF000F0E300E00B4B1B78DBB2802B0ED10A4AAA
:105000000A4B1A60002203F5573303F2BD331A70BE
:10501000044A1378DBB2802BFBD001E000207047FC
:105020000120704703E0074000002822448004402C
:105030000B4B1B78DBB2012B0FD1602203F18043B5
:1050400003F5FC231A70064A1378DBB2802BFBD1E0
:10505000044A054B1A60012070470020704700BFCA
:1050600003E007400000060244800440704700BF90
:105070001D4B03EBC000436803F14042A2F59222AE
:105080007C2A18D903F14042A2F594227C2A14D933
:1050900003F14042A2F596227C2A10D903F1404246
:1050A000A2F598227C2A0CD903F14042A2F59A225B
:1050B0007C2A08D970470D4906E00D4904E00D49E6
:1050C00002E00D4900E00D4972B61A6822F08772BD
:1050D00022F4803242F080721A60C3F38403084ADB
:1050E00041F8232062B67047F80501009808FF1FB9
:1050F0001009FF1F7009FF1FA009FF1FE009FF1F14
:105100006D500000044B00221A6004490A60044AF2
:10511000106010221A60704714D0034004D003407E
:1051200000D003403F281ED80F4B53F8303093F87F
:10513000802212F0FF0F08D019B1012283F88020DD
:105140007047012283F800217047074B03EBC00032
:10515000436821B11A6842F003021A6070471A6866
:1051600022F002021A607047F80501003F283AD881
:105170001D4B03EBC0035B68012919D0042925D01E
:10518000194A52F83020002082F8800219B94FF4F1
:1051900080721A607047022903D140F203121A602C
:1051A000704703290CBF4FF4817200221A607047C8
:1051B0000D4A52F83020012182F880124FF4A27279
:1051C0001A601A6822F020021A607047064A52F8E4
:1051D0003020012182F880124FF4A2721A601A68FE
:1051E00042F020021A607047F805010070B50D46C4
:1051F0003F2861D8042A5FD8DFE802F00709050BD1
:1052000003000B2306E00A2304E0082302E00C233A
:1052100000E009231E04294B03EBC0035C682368EC
:1052200013F4E06F02D10021FFF7A0FF244B254AC1
:10523000C3F82C21244AC3F83021244AC3F834216E
:10524000234AC3F83821234AC3F83C2104F14043E0
:10525000A3F592237C2B18D904F14042A2F59422A5
:105260007C2A14D904F14043A3F596237C2B10D952
:1052700004F14043A3F598237C2B0CD904F140435F
:10528000A3F59A237C2B08D970BD134906E0134976
:1052900004E0134902E0134900E0134972B62368A1
:1052A00023F470232360C4F3840241F8225043F0B6
:1052B00080731E43266062B670BD00BFF805010012
:1052C0000002FF1F1108FF1FE507FF1FB907FF1F9F
:1052D0008D07FF1F6107FF1F9808FF1F1009FF1FA1
:1052E0007009FF1FA009FF1FE009FF1F72B60D4BD9
:1052F0001B680D4A12680D49096862B611F0806F8B
:1053000002D0322B88BF0132C3F52F3303F21F3393
:105310009B080749A1FB03039B084FF47A7000FB2D
:105320000230704718E000E0481BFF1F04ED00E06A
:10533000176CC11638B50546FFF7D8FF044625B9E6
:1053400038BD013D0AD004F57A74FFF7CFFF001B8A
:10535000B0F57A7FF5D201F04DF9F6E738BD00BF20
:1053600070B5404B4FF000621A604FF080521A60E7
:105370004FF000521A604FF080421A604FF0004226
:105380001A600022384B1A604EF6FF700433186022
:10539000282336490B6008310B6008310B60083157
:1053A0000B6008310B6008310B6008310B6008316D
:1053B0000B602F4D2B602F4C236001F5002101F66F
:1053C000D8710B6008310B6008310B6008310B603D
:1053D00008310B6008310B600921274E316006F55A
:1053E0008056043632600436306004363360083646
:1053F0003360143E316006F5FE2604363260043612
:1054000030600436336008363360143E316006F590
:10541000805604363260043630602B6023601748B3
:1054200001601749086840F400700860283908686E
:1054300040F00070086001F501210A6047F6FF7135
:10544000104A1160043213600832136008220E4BB8
:105450001A6001F0FFF84FF4C870FFF76BFF00F01F
:1054600079FC70BD04E100E0048003400C8003403F
:105470000C900B4014900B400080034000900B40B8
:105480002C80044008900C4000900C4030B40E4B2F
:105490001B7843F002020D4C04EBC20460600C4820
:1054A000007800280CBF8824C82444EA0141074D35
:1054B00045F8321080F00100054A107083F00103B6
:1054C000014A137030BC7047B41BFF1F0000FF1F60
:1054D0002D1CFF1F10B4431E032B11D872B60A4AAD
:1054E00052F8230050B14268074941F82320074A87
:1054F00032F813400188611A22F8131062B600E0F6
:1055000000205DF8044B7047A41BFF1FEC1FFF1F1A
:10551000013803280DD872B6074B53F820302BB151
:10552000002001305B68002BFBD100E0002062B658
:1055300070470020704700BFF81BFF1F38B572B6D8
:1055400001231B491B4C5A1812F8012C12F0080FAA
:1055500024D09A0054F832506DB9164B03EBC201B7
:1055600008304860144943F83210144B1A78013A55
:105570001A7062B638BD42F0010254F832506DB96B
:105580000C4B03EBC201083048600D4943F8321060
:105590000A4B1A78013A1A7062B638BD0133052BEE
:1055A000D1D162B60022054B1A7000F045FC38BD1F
:1055B000300801000000FF1F88004000221CFF1F70
:1055C000C800400010B4431E032B37D8400140F000
:1055D00010001C4A104472B61B4AD25C032A09D838
:1055E000DFE802F019021B050830022216E008303D
:1055F000042213E0154A52F823201AB9134A42F83C
:10560000231003E0124A52F823205160104A42F856
:10561000231062B612E0032200E005220A4CE25495
:1056200001F10803436000F00803002B0CBF88233E
:10563000C8230A8843EA0243036062B65DF8044B5C
:10564000704700BF0000FF1F601BFF1FF81BFF1FFC
:10565000081CFF1F2DE9F84FA34CDFF8E092DFF89C
:10566000E0A2DFF8E0B22578EDB215F0040F1DD00E
:105670009E4B1B7813F0FF0F16D09D4B1B7803F049
:10568000FF022BB1531EDBB2994A137003B900BE5F
:10569000984B1B7803F0FF0233B1531EDBB2954ADF
:1056A00013700BB900F026FD0423237015F0080FCA
:1056B00000F0E48299F80030DBB21D0940F021824D
:1056C0008D4D9E0805EBC6035A6855F83630C3F376
:1056D0008303013B0C2B00F21082DFE813F0CB01B7
:1056E000CB010E020E020E020E020E020E02E801A5
:1056F0000E020E020E020D00804913680B60526804
:105700004A607F4A45F8362000227E490A607A497D
:105710000A618A6101217C4A11709BB240F2816268
:10572000934218D8B3F5D06F2ED2B3F5817F00F035
:105730001E8106D8802B00F0C980822B00F0CC801F
:1057400066E140F20232934200F02681B3F5A06F89
:1057500000F062815CE142F22102934200F0868116
:1057600007D8B3F5086F00F0AB80B3F5106F11D018
:105770004EE142F22122934200F0418142F2213275
:10578000934200F0498143E1604B5D68002D40F099
:10579000188130E1594B9A78544B1A70564D05F1E7
:1057A00080062B6A13F0800F03D0686A083800F077
:1057B00043FB0835B542F4D1DFF88C81002637462B
:1057C000534AB05828B1456800F036FB0DB1284661
:1057D000F9E700234E4973504E4AB3504E4BF058F0
:1057E00028B1456800F028FB0DB12846F9E70023F1
:1057F00049497350494AB35028F8023F484BFB5C73
:10580000023B032B0AD8DFE803F00206020600225F
:10581000434BDA5502E00122414BDA550137043699
:10582000102ECDD100223F4B1A7001253E4EDFF8DD
:105830001C81314F05EB080313F8013C06F8043BCB
:1058400013F0080F2DD000F0D7FA48B1A90007EBEC
:10585000451200F108035360344A47F8312007E04D
:10586000AB00002247F833202E4B1A7801321A7011
:1058700000F0C2FA58B1AB0043F0010307EBC301DB
:1058800000F108024A601E4A47F8332009E0AB00E5
:1058900043F00103002247F83320224B1A780132EB
:1058A0001A70AA0042F00201002347F8313042F09A
:1058B000030247F8323001351D4B9E42BAD11EE239
:1058C0000A4B1B781B4D2B700127AAE0194D0023B2
:1058D0002B706B700227A4E0084B9B88042B37D9F0
:1058E0000F22154B1A70C1E0802007402C1CFF1FAF
:1058F000B51BFF1F2E1CFF1F0000FF1F181CFF1FE2
:10590000C80040004C1BFF1F2D1CFF1F3408010066
:10591000A41BFF1F501BFF1FF81BFF1F081CFF1FAE
:10592000601BFF1F221CFF1FC4200740880040008F
:10593000D4200740241CFF1FC020074090200740B0
:105940009420074098200740EA1FFF1F30080100FD
:10595000A04A0021117051709F4A12F8233013F0B1
:10596000020F5CD09B4D01232B70022759E09B4B0B
:105970009B8803F07F03042B02DC984A52881AB1FB
:105980000F22954B1A7071E0934A12F8231021F000
:10599000020102F82310B2E1904B9B8803F07F03D1
:1059A000042B02DC8D4A52881AB10F228A4B1A70DE
:1059B0005CE0894A12F8231041F0020102F823103A
:1059C0009DE1864B5E889F88854BA3F10C021146B2
:1059D00033F80C0CB04209D133F80A0CB84205D1A7
:1059E000360A032E0CBF2F7817891AE00D690C3385
:1059F0000C32002DEBD10F22774B1A7036E0794B29
:105A00001A68794B1A60754B9A78784B1A7076E160
:105A10000F22714B1A7029E000273D4601E0022752
:105A20006C4D6E4BDB889F4228BF1F46402F34BF12
:105A30003E46402628463146FFF728FD3544BF1B29
:105A400003D13F2E00F2608110E0402F34BF3E466C
:105A5000402628463146FFF719FD3544BF1B01D1CA
:105A60003F2E03D9624B1D60624B1F8001238AF8D1
:105A7000003042E0594B198842F22103994212D179
:105A80005D4BD81D12F8011B03F8011F8342F9D1A9
:105A90005A4B1B68862B02D10F22594B1A700020DB
:105AA0000146FFF7F3FC574B45F8363025E0504BE5
:105AB0001E68BEB14F4FB7F80080B8F1400F34BF39
:105AC0004546402530462946FFF7E0FCC5EB080374
:105AD0009BB23B800BB9402D01D1354400E000253D
